{
  "_format": "hh-sol-artifact-1",
  "contractName": "MockRaffleFactory",
  "sourceName": "contracts/mocks/MockRaffleFactory.sol",
  "abi": [
    {
      "inputs": [],
      "name": "nextRequestId",
      "outputs": [
        {
          "internalType": "uint256",
          "name": "",
          "type": "uint256"
        }
      ],
      "stateMutability": "view",
      "type": "function"
    },
    {
      "inputs": [],
      "name": "requestRandomnessForRaffle",
      "outputs": [
        {
          "internalType": "uint256",
          "name": "requestId",
          "type": "uint256"
        }
      ],
      "stateMutability": "nonpayable",
      "type": "function"
    },
    {
      "inputs": [
        {
          "internalType": "address",
          "name": "raffleAddress",
          "type": "address"
        },
        {
          "internalType": "uint256",
          "name": "requestId",
          "type": "uint256"
        },
        {
          "internalType": "uint256",
          "name": "randomWord",
          "type": "uint256"
        }
      ],
      "name": "simulateFulfillment",
      "outputs": [],
      "stateMutability": "nonpayable",
      "type": "function"
    }
  ],
  "bytecode": "0x6080604052600160005534801561001557600080fd5b5061019b806100256000396000f3fe608060405234801561001057600080fd5b50600436106100415760003560e01c806317c8ba04146100465780631b930e991461005b5780636a84a98514610075575b600080fd5b6100596100543660046100fd565b61007e565b005b6100636100e4565b60405190815260200160405180910390f35b61006360005481565b60405163034ad12960e11b815260048101839052602481018290526001600160a01b03841690630695a25290604401600060405180830381600087803b1580156100c757600080fd5b505af11580156100db573d6000803e3d6000fd5b50505050505050565b60008054908190806100f58361013e565b919050555090565b60008060006060848603121561011257600080fd5b83356001600160a01b038116811461012957600080fd5b95602085013595506040909401359392505050565b60006001820161015e57634e487b7160e01b600052601160045260246000fd5b506001019056fea264697066735822122040e7d39cf7c975b4bc47848c73ca5e1b08b07a4ed6175c14ce64235241f9b55a64736f6c63430008180033",
  "linkReferences": {},
  "deployedLinkReferences": {}
}