{
  "_format": "hh-sol-artifact-1",
  "contractName": "MockRaffleFactory",
  "sourceName": "contracts/mocks/MockRaffleFactory.sol",
  "abi": [
    {
      "inputs": [
        {
          "internalType": "address",
          "name": "_platformOwner",
          "type": "address"
        },
        {
          "internalType": "address",
          "name": "_usdc",
          "type": "address"
        }
      ],
      "stateMutability": "nonpayable",
      "type": "constructor"
    },
    {
      "inputs": [
        {
          "internalType": "address",
          "name": "token",
          "type": "address"
        }
      ],
      "name": "SafeERC20FailedOperation",
      "type": "error"
    },
    {
      "inputs": [],
      "name": "PLATFORM_FEE_BPS",
      "outputs": [
        {
          "internalType": "uint256",
          "name": "",
          "type": "uint256"
        }
      ],
      "stateMutability": "view",
      "type": "function"
    },
    {
      "inputs": [
        {
          "internalType": "address",
          "name": "_raffle",
          "type": "address"
        },
        {
          "internalType": "address",
          "name": "_participant",
          "type": "address"
        },
        {
          "internalType": "uint256",
          "name": "_ticketCount",
          "type": "uint256"
        }
      ],
      "name": "joinRaffle",
      "outputs": [],
      "stateMutability": "nonpayable",
      "type": "function"
    },
    {
      "inputs": [],
      "name": "nextRequestId",
      "outputs": [
        {
          "internalType": "uint256",
          "name": "",
          "type": "uint256"
        }
      ],
      "stateMutability": "view",
      "type": "function"
    },
    {
      "inputs": [],
      "name": "platformOwner",
      "outputs": [
        {
          "internalType": "address",
          "name": "",
          "type": "address"
        }
      ],
      "stateMutability": "view",
      "type": "function"
    },
    {
      "inputs": [],
      "name": "requestRandomnessForRaffle",
      "outputs": [
        {
          "internalType": "uint256",
          "name": "requestId",
          "type": "uint256"
        }
      ],
      "stateMutability": "nonpayable",
      "type": "function"
    },
    {
      "inputs": [
        {
          "internalType": "address",
          "name": "raffleAddress",
          "type": "address"
        },
        {
          "internalType": "uint256",
          "name": "requestId",
          "type": "uint256"
        },
        {
          "internalType": "uint256",
          "name": "randomWord",
          "type": "uint256"
        }
      ],
      "name": "simulateFulfillment",
      "outputs": [],
      "stateMutability": "nonpayable",
      "type": "function"
    },
    {
      "inputs": [],
      "name": "usdc",
      "outputs": [
        {
          "internalType": "contract IERC20",
          "name": "",
          "type": "address"
        }
      ],
      "stateMutability": "view",
      "type": "function"
    }
  ],
  "bytecode": "0x6080604052600160005534801561001557600080fd5b5060405161054738038061054783398101604081905261003491610081565b600180546001600160a01b039384166001600160a01b031991821617909155600280549290931691161790556100b4565b80516001600160a01b038116811461007c57600080fd5b919050565b6000806040838503121561009457600080fd5b61009d83610065565b91506100ab60208401610065565b90509250929050565b610484806100c36000396000f3fe608060405234801561001057600080fd5b506004361061007d5760003560e01c80634df8ccb11161005b5780634df8ccb1146100dd578063539aa77f146100f05780636a84a985146100f8578063f36965781461010157600080fd5b806317c8ba04146100825780631b930e99146100975780633e413bee146100b2575b600080fd5b61009561009036600461037a565b610114565b005b61009f61017a565b6040519081526020015b60405180910390f35b6002546100c5906001600160a01b031681565b6040516001600160a01b0390911681526020016100a9565b6001546100c5906001600160a01b031681565b61009f60c881565b61009f60005481565b61009561010f3660046103ad565b610193565b60405163034ad12960e11b815260048101839052602481018290526001600160a01b03841690630695a25290604401600060405180830381600087803b15801561015d57600080fd5b505af1158015610171573d6000803e3d6000fd5b50505050505050565b600080549081908061018b836103ff565b919050555090565b6000836001600160a01b031663072ea61c6040518163ffffffff1660e01b8152600401602060405180830381865afa1580156101d3573d6000803e3d6000fd5b505050506040513d601f19601f820116820180604052508101906101f79190610418565b905060006102058383610431565b600254909150610220906001600160a01b0316858784610289565b604051632277c24560e11b81526001600160a01b038581166004830152602482018590528616906344ef848a90604401600060405180830381600087803b15801561026a57600080fd5b505af115801561027e573d6000803e3d6000fd5b505050505050505050565b604080516001600160a01b0385811660248301528416604482015260648082018490528251808303909101815260849091019091526020810180516001600160e01b03166323b872dd60e01b1790526102e39085906102e9565b50505050565b600080602060008451602086016000885af18061030c576040513d6000823e3d81fd5b50506000513d91508115610324578060011415610331565b6001600160a01b0384163b155b156102e357604051635274afe760e01b81526001600160a01b038516600482015260240160405180910390fd5b80356001600160a01b038116811461037557600080fd5b919050565b60008060006060848603121561038f57600080fd5b6103988461035e565b95602085013595506040909401359392505050565b6000806000606084860312156103c257600080fd5b6103cb8461035e565b92506103d96020850161035e565b9150604084013590509250925092565b634e487b7160e01b600052601160045260246000fd5b600060018201610411576104116103e9565b5060010190565b60006020828403121561042a57600080fd5b5051919050565b8082028115828204841417610448576104486103e9565b9291505056fea26469706673582212208fe1d0049320e26a700a651042eb90fd99757a736ffcdb65094f1157bb6b2e1c64736f6c63430008180033",
  "linkReferences": {},
  "deployedLinkReferences": {}
}