{"contracts/Raffle.sol":{"Raffle":{"abi":[{"inputs":[{"internalType":"string","name":"_title","type":"string"},{"internalType":"string","name":"_description","type":"string"},{"internalType":"string","name":"_prizeDescription","type":"string"},{"internalType":"uint256","name":"_entryFee","type":"uint256"},{"internalType":"uint256","name":"_deadline","type":"uint256"},{"internalType":"uint256","name":"_maxParticipants","type":"uint256"},{"internalType":"address","name":"_vrfCoordinator","type":"address"},{"internalType":"bytes32","name":"_keyHash","type":"bytes32"},{"internalType":"uint256","name":"_subscriptionId","type":"uint256"}],"stateMutability":"nonpayable","type":"constructor"},{"inputs":[],"name":"DeadlineNotReached","type":"error"},{"inputs":[],"name":"InsufficientPayment","type":"error"},{"inputs":[],"name":"InvalidTicketCount","type":"error"},{"inputs":[],"name":"NoParticipants","type":"error"},{"inputs":[],"name":"NotCreator","type":"error"},{"inputs":[],"name":"NotWinner","type":"error"},{"inputs":[{"internalType":"address","name":"have","type":"address"},{"internalType":"address","name":"want","type":"address"}],"name":"OnlyCoordinatorCanFulfill","type":"error"},{"inputs":[{"internalType":"address","name":"have","type":"address"},{"internalType":"address","name":"owner","type":"address"},{"internalType":"address","name":"coordinator","type":"address"}],"name":"OnlyOwnerOrCoordinator","type":"error"},{"inputs":[],"name":"PrizeAlreadyClaimed","type":"error"},{"inputs":[],"name":"RaffleEnded","type":"error"},{"inputs":[],"name":"RaffleFull","type":"error"},{"inputs":[],"name":"RaffleNotActive","type":"error"},{"inputs":[],"name":"WinnerAlreadyDrawn","type":"error"},{"inputs":[],"name":"ZeroAddress","type":"error"},{"anonymous":false,"inputs":[{"indexed":false,"internalType":"uint256","name":"timestamp","type":"uint256"},{"indexed":false,"internalType":"string","name":"reason","type":"string"}],"name":"AutoDrawTriggered","type":"event"},{"anonymous":false,"inputs":[{"indexed":false,"internalType":"address","name":"vrfCoordinator","type":"address"}],"name":"CoordinatorSet","type":"event"},{"anonymous":false,"inputs":[{"indexed":true,"internalType":"address","name":"from","type":"address"},{"indexed":true,"internalType":"address","name":"to","type":"address"}],"name":"OwnershipTransferRequested","type":"event"},{"anonymous":false,"inputs":[{"indexed":true,"internalType":"address","name":"from","type":"address"},{"indexed":true,"internalType":"address","name":"to","type":"address"}],"name":"OwnershipTransferred","type":"event"},{"anonymous":false,"inputs":[{"indexed":true,"internalType":"address","name":"participant","type":"address"},{"indexed":false,"internalType":"uint256","name":"ticketsBought","type":"uint256"},{"indexed":false,"internalType":"uint256","name":"totalTickets","type":"uint256"},{"indexed":false,"internalType":"uint256","name":"participantTicketCount","type":"uint256"}],"name":"ParticipantJoined","type":"event"},{"anonymous":false,"inputs":[{"indexed":true,"internalType":"address","name":"winner","type":"address"},{"indexed":false,"internalType":"uint256","name":"amount","type":"uint256"}],"name":"PrizeClaimed","type":"event"},{"anonymous":false,"inputs":[],"name":"RaffleCancelled","type":"event"},{"anonymous":false,"inputs":[{"indexed":true,"internalType":"address","name":"winner","type":"address"},{"indexed":false,"internalType":"uint256","name":"winnerIndex","type":"uint256"},{"indexed":false,"internalType":"uint256","name":"randomNumber","type":"uint256"},{"indexed":false,"internalType":"uint256","name":"vrfRequestId","type":"uint256"}],"name":"WinnerDrawn","type":"event"},{"inputs":[],"name":"acceptOwnership","outputs":[],"stateMutability":"nonpayable","type":"function"},{"inputs":[{"internalType":"uint256","name":"numberOfTickets","type":"uint256"}],"name":"buyTickets","outputs":[],"stateMutability":"payable","type":"function"},{"inputs":[],"name":"cancelRaffle","outputs":[],"stateMutability":"nonpayable","type":"function"},{"inputs":[{"internalType":"bytes","name":"","type":"bytes"}],"name":"checkUpkeep","outputs":[{"internalType":"bool","name":"upkeepNeeded","type":"bool"},{"internalType":"bytes","name":"performData","type":"bytes"}],"stateMutability":"view","type":"function"},{"inputs":[],"name":"claimPrize","outputs":[],"stateMutability":"nonpayable","type":"function"},{"inputs":[],"name":"creator","outputs":[{"internalType":"address","name":"","type":"address"}],"stateMutability":"view","type":"function"},{"inputs":[],"name":"deadline","outputs":[{"internalType":"uint256","name":"","type":"uint256"}],"stateMutability":"view","type":"function"},{"inputs":[],"name":"description","outputs":[{"internalType":"string","name":"","type":"string"}],"stateMutability":"view","type":"function"},{"inputs":[],"name":"drawWinner","outputs":[{"internalType":"uint256","name":"requestId","type":"uint256"}],"stateMutability":"nonpayable","type":"function"},{"inputs":[],"name":"entryFee","outputs":[{"internalType":"uint256","name":"","type":"uint256"}],"stateMutability":"view","type":"function"},{"inputs":[],"name":"getParticipantCount","outputs":[{"internalType":"uint256","name":"","type":"uint256"}],"stateMutability":"view","type":"function"},{"inputs":[],"name":"getParticipants","outputs":[{"internalType":"address[]","name":"","type":"address[]"}],"stateMutability":"view","type":"function"},{"inputs":[],"name":"getPrizePool","outputs":[{"internalType":"uint256","name":"","type":"uint256"}],"stateMutability":"view","type":"function"},{"inputs":[],"name":"getRaffleInfo","outputs":[{"internalType":"string","name":"_title","type":"string"},{"internalType":"string","name":"_description","type":"string"},{"internalType":"string","name":"_prizeDescription","type":"string"},{"internalType":"uint256","name":"_entryFee","type":"uint256"},{"internalType":"uint256","name":"_deadline","type":"uint256"},{"internalType":"uint256","name":"_maxParticipants","type":"uint256"},{"internalType":"uint256","name":"_currentParticipants","type":"uint256"},{"internalType":"address","name":"_creator","type":"address"},{"internalType":"enum Raffle.RaffleStatus","name":"_status","type":"uint8"}],"stateMutability":"view","type":"function"},{"inputs":[{"internalType":"address","name":"_participant","type":"address"}],"name":"getTicketCount","outputs":[{"internalType":"uint256","name":"","type":"uint256"}],"stateMutability":"view","type":"function"},{"inputs":[],"name":"getUniqueParticipantCount","outputs":[{"internalType":"uint256","name":"","type":"uint256"}],"stateMutability":"view","type":"function"},{"inputs":[],"name":"joinRaffle","outputs":[],"stateMutability":"payable","type":"function"},{"inputs":[],"name":"maxParticipants","outputs":[{"internalType":"uint256","name":"","type":"uint256"}],"stateMutability":"view","type":"function"},{"inputs":[],"name":"owner","outputs":[{"internalType":"address","name":"","type":"address"}],"stateMutability":"view","type":"function"},{"inputs":[{"internalType":"uint256","name":"","type":"uint256"}],"name":"participants","outputs":[{"internalType":"address","name":"","type":"address"}],"stateMutability":"view","type":"function"},{"inputs":[{"internalType":"bytes","name":"performData","type":"bytes"}],"name":"performUpkeep","outputs":[],"stateMutability":"nonpayable","type":"function"},{"inputs":[],"name":"prizeDescription","outputs":[{"internalType":"string","name":"","type":"string"}],"stateMutability":"view","type":"function"},{"inputs":[],"name":"randomResult","outputs":[{"internalType":"uint256","name":"","type":"uint256"}],"stateMutability":"view","type":"function"},{"inputs":[{"internalType":"uint256","name":"requestId","type":"uint256"},{"internalType":"uint256[]","name":"randomWords","type":"uint256[]"}],"name":"rawFulfillRandomWords","outputs":[],"stateMutability":"nonpayable","type":"function"},{"inputs":[],"name":"s_vrfCoordinator","outputs":[{"internalType":"contract IVRFCoordinatorV2Plus","name":"","type":"address"}],"stateMutability":"view","type":"function"},{"inputs":[{"internalType":"address","name":"_vrfCoordinator","type":"address"}],"name":"setCoordinator","outputs":[],"stateMutability":"nonpayable","type":"function"},{"inputs":[],"name":"shouldAutoDraw","outputs":[{"internalType":"bool","name":"shouldDraw","type":"bool"},{"internalType":"string","name":"reason","type":"string"}],"stateMutability":"view","type":"function"},{"inputs":[],"name":"status","outputs":[{"internalType":"enum Raffle.RaffleStatus","name":"","type":"uint8"}],"stateMutability":"view","type":"function"},{"inputs":[{"internalType":"address","name":"","type":"address"}],"name":"ticketCount","outputs":[{"internalType":"uint256","name":"","type":"uint256"}],"stateMutability":"view","type":"function"},{"inputs":[],"name":"title","outputs":[{"internalType":"string","name":"","type":"string"}],"stateMutability":"view","type":"function"},{"inputs":[{"internalType":"address","name":"to","type":"address"}],"name":"transferOwnership","outputs":[],"stateMutability":"nonpayable","type":"function"},{"inputs":[],"name":"vrfRequestId","outputs":[{"internalType":"uint256","name":"","type":"uint256"}],"stateMutability":"view","type":"function"},{"inputs":[],"name":"winner","outputs":[{"internalType":"address","name":"","type":"address"}],"stateMutability":"view","type":"function"},{"inputs":[],"name":"winnerIndex","outputs":[{"internalType":"uint256","name":"","type":"uint256"}],"stateMutability":"view","type":"function"}],"evm":{"bytecode":{"linkReferences":{},"object":"60e06040523480156200001157600080fd5b50604051620026d5380380620026d58339810160408190526200003491620003b7565b8233806000816200008c5760405162461bcd60e51b815260206004820152601860248201527f43616e6e6f7420736574206f776e657220746f207a65726f000000000000000060448201526064015b60405180910390fd5b600080546001600160a01b0319166001600160a01b0384811691909117909155811615620000bf57620000bf8162000227565b5050506001600160a01b038116620000ea5760405163d92e233d60e01b815260040160405180910390fd5b600280546001600160a01b0319166001600160a01b03929092169190911790554285116200015b5760405162461bcd60e51b815260206004820152601e60248201527f446561646c696e65206d75737420626520696e20746865206675747572650000604482015260640162000083565b60008611620001ad5760405162461bcd60e51b815260206004820181905260248201527f456e74727920666565206d7573742062652067726561746572207468616e2030604482015260640162000083565b6003620001bb8a826200051d565b506004620001ca89826200051d565b506005620001d988826200051d565b50600695909555600793909355600891909155600980546001600160a81b0319163360ff60a01b191617600160a01b1790556001600160a01b031660805260a05260c05250620005e9915050565b336001600160a01b03821603620002815760405162461bcd60e51b815260206004820152601760248201527f43616e6e6f74207472616e7366657220746f2073656c66000000000000000000604482015260640162000083565b600180546001600160a01b0319166001600160a01b0383811691821790925560008054604051929316917fed8889f560326eb138920d842192f0eb3dd22b4f139c87a2c57538e05bae12789190a350565b634e487b7160e01b600052604160045260246000fd5b600082601f830112620002fa57600080fd5b81516001600160401b0380821115620003175762000317620002d2565b604051601f8301601f19908116603f01168101908282118183101715620003425762000342620002d2565b81604052838152602092508660208588010111156200036057600080fd5b600091505b8382101562000384578582018301518183018401529082019062000365565b6000602085830101528094505050505092915050565b80516001600160a01b0381168114620003b257600080fd5b919050565b60008060008060008060008060006101208a8c031215620003d757600080fd5b89516001600160401b0380821115620003ef57600080fd5b620003fd8d838e01620002e8565b9a5060208c01519150808211156200041457600080fd5b620004228d838e01620002e8565b995060408c01519150808211156200043957600080fd5b50620004488c828d01620002e8565b97505060608a0151955060808a0151945060a08a015193506200046e60c08b016200039a565b925060e08a015191506101008a015190509295985092959850929598565b600181811c90821680620004a157607f821691505b602082108103620004c257634e487b7160e01b600052602260045260246000fd5b50919050565b601f82111562000518576000816000526020600020601f850160051c81016020861015620004f35750805b601f850160051c820191505b818110156200051457828155600101620004ff565b5050505b505050565b81516001600160401b03811115620005395762000539620002d2565b62000551816200054a84546200048c565b84620004c8565b602080601f831160018114620005895760008415620005705750858301515b600019600386901b1c1916600185901b17855562000514565b600085815260208120601f198616915b82811015620005ba5788860151825594840194600190910190840162000599565b5085821015620005d95787850151600019600388901b60f8161c191681555b5050505050600190811b01905550565b60805160a05160c0516120bc62000619600039600061161b015260006115f80152600061166701526120bc6000f3fe6080604052600436106101f95760003560e01c806370740ac91161010d5780638f00cbfa116100a0578063cff82e221161006f578063cff82e2214610545578063dfbf53ae1461057b578063e8880e941461059b578063efeed224146105b0578063f2fde38b146105c557600080fd5b80638f00cbfa146104e55780639eccacf6146104fb578063ad6057291461051b578063b2185bb11461053057600080fd5b80638166f6b2116100dc5780638166f6b21461046a578063884bf67c146104945780638da5cb5b146104a75780638ea98117146104c557600080fd5b806370740ac9146103fe57806370ca5bbe146104135780637284e4161461044057806379ba50971461045557600080fd5b80632f366637116101905780634585e33b1161015f5780634585e33b146103575780634a79d50c146103775780635aa68ac0146103995780636e04ff0d146103bb57806370533250146103e957600080fd5b80632f366637146102f957806333b88b8e1461030c57806335c1d3491461032157806342619f661461034157600080fd5b80631fe543e3116101cc5780631fe543e31461027f578063200d2ed21461029f57806324924bf7146102cd57806329dcb0cf146102e357600080fd5b806302d05d3f146101fe578063072ea61c1461023b578063136b33921461025f57806318a7ea5f14610269575b600080fd5b34801561020a57600080fd5b5060095461021e906001600160a01b031681565b6040516001600160a01b0390911681526020015b60405180910390f35b34801561024757600080fd5b5061025160065481565b604051908152602001610232565b6102676105e5565b005b34801561027557600080fd5b50610251600f5481565b34801561028b57600080fd5b5061026761029a366004611b3e565b610860565b3480156102ab57600080fd5b506009546102c090600160a01b900460ff1681565b6040516102329190611bf5565b3480156102d957600080fd5b5061025160085481565b3480156102ef57600080fd5b5061025160075481565b610267610307366004611c09565b6108b0565b34801561031857600080fd5b50610251610a30565b34801561032d57600080fd5b5061021e61033c366004611c09565b610b7d565b34801561034d57600080fd5b50610251600e5481565b34801561036357600080fd5b50610267610372366004611c22565b610ba7565b34801561038357600080fd5b5061038c610cc9565b6040516102329190611cda565b3480156103a557600080fd5b506103ae610d57565b6040516102329190611cf4565b3480156103c757600080fd5b506103db6103d6366004611c22565b610db9565b604051610232929190611d41565b3480156103f557600080fd5b50610267610ef3565b34801561040a57600080fd5b50610267611047565b34801561041f57600080fd5b5061025161042e366004611d64565b600b6020526000908152604090205481565b34801561044c57600080fd5b5061038c61119b565b34801561046157600080fd5b506102676111a8565b34801561047657600080fd5b5061047f611252565b60405161023299989796959493929190611d8d565b3480156104a057600080fd5b5047610251565b3480156104b357600080fd5b506000546001600160a01b031661021e565b3480156104d157600080fd5b506102676104e0366004611d64565b61145c565b3480156104f157600080fd5b50610251600d5481565b34801561050757600080fd5b5060025461021e906001600160a01b031681565b34801561052757600080fd5b50600a54610251565b34801561053c57600080fd5b5061025161154e565b34801561055157600080fd5b50610251610560366004611d64565b6001600160a01b03166000908152600b602052604090205490565b34801561058757600080fd5b50600c5461021e906001600160a01b031681565b3480156105a757600080fd5b506103db611711565b3480156105bc57600080fd5b5061038c6118dc565b3480156105d157600080fd5b506102676105e0366004611d64565b6118e9565b6001600954600160a01b900460ff16600481111561060557610605611bbd565b1461062357604051632ae47f7360e01b815260040160405180910390fd5b60075442106106455760405163502fd88d60e01b815260040160405180910390fd5b6006543410156106685760405163cd1c886760e01b815260040160405180910390fd5b6000600654346106789190611e3a565b90508060000361069b57604051638e71bef960e01b815260040160405180910390fd5b600854156106da57600a546008546000916106b591611e4e565b9050808211156106d857604051630771de3360e01b815260040160405180910390fd5b505b60005b8181101561072e57600a8054600181810183556000929092527fc65a7bb8d6351c1cf70c95a316cc6a92839c986682d98bc35f958f4883f9d2a80180546001600160a01b03191633179055016106dd565b50336000908152600b60205260408120805483929061074e908490611e61565b90915550506006546000906107639083611e74565b9050803411156108035760003361077a8334611e4e565b604051600081818185875af1925050503d80600081146107b6576040519150601f19603f3d011682016040523d82523d6000602084013e6107bb565b606091505b50509050806108015760405162461bcd60e51b815260206004820152600d60248201526c1499599d5b990819985a5b1959609a1b60448201526064015b60405180910390fd5b505b600a54336000818152600b60209081526040918290205482518781529182019490945290810192909252907fe367e10777f2a25a834ba205395c23c7f7175d3d6d36137ee22c3f056d780c0a906060015b60405180910390a25050565b6002546001600160a01b031633146108a05760025460405163073e64fd60e21b81523360048201526001600160a01b0390911660248201526044016107f8565b6108ab8383836118fd565b505050565b6001600954600160a01b900460ff1660048111156108d0576108d0611bbd565b146108ee57604051632ae47f7360e01b815260040160405180910390fd5b60075442106109105760405163502fd88d60e01b815260040160405180910390fd5b8060000361093157604051638e71bef960e01b815260040160405180910390fd5b6000600654826109419190611e74565b9050803410156109645760405163cd1c886760e01b815260040160405180910390fd5b60006008541180156109845750600854600a54610982908490611e61565b115b156109a257604051630771de3360e01b815260040160405180910390fd5b60005b828110156109f657600a8054600181810183556000929092527fc65a7bb8d6351c1cf70c95a316cc6a92839c986682d98bc35f958f4883f9d2a80180546001600160a01b03191633179055016109a5565b50336000908152600b602052604081208054849290610a16908490611e61565b9091555050348110156108035760003361077a8334611e4e565b600a54600090819067ffffffffffffffff811115610a5057610a50611e8b565b604051908082528060200260200182016040528015610a79578160200160208202803683370190505b5090506000805b600a54811015610b7657600160005b83811015610afd57600a8381548110610aaa57610aaa611ea1565b60009182526020909120015485516001600160a01b0390911690869083908110610ad657610ad6611ea1565b60200260200101516001600160a01b031603610af55760009150610afd565b600101610a8f565b508015610b6d57600a8281548110610b1757610b17611ea1565b9060005260206000200160009054906101000a90046001600160a01b0316848481518110610b4757610b47611ea1565b6001600160a01b039092166020928302919091019091015282610b6981611eb7565b9350505b50600101610a80565b5092915050565b600a8181548110610b8d57600080fd5b6000918252602090912001546001600160a01b0316905081565b60006007544210159050600080600854118015610bc85750600854600a5410155b600a54600c549192501515906001600160a01b03161560006001600954600160a01b900460ff166004811115610c0057610c00611bbd565b149050808015610c0d5750825b8015610c165750815b8015610c2657508480610c265750835b610c665760405162461bcd60e51b8152602060048201526011602482015270155c1ad9595c081b9bdd081b9959591959607a1b60448201526064016107f8565b8515610cb7576000610c7a87890189611ed0565b90507f3a3c33f0bfa6d41cbc15413ca631379b7e1b8ff3d9d47a93271de84c509b664d4282604051610cad929190611f81565b60405180910390a1505b610cbf61154e565b5050505050505050565b60038054610cd690611f9a565b80601f0160208091040260200160405190810160405280929190818152602001828054610d0290611f9a565b8015610d4f5780601f10610d2457610100808354040283529160200191610d4f565b820191906000526020600020905b815481529060010190602001808311610d3257829003601f168201915b505050505081565b6060600a805480602002602001604051908101604052809291908181526020018280548015610daf57602002820191906000526020600020905b81546001600160a01b03168152600190910190602001808311610d91575b5050505050905090565b6000606060006007544210159050600080600854118015610dde5750600854600a5410155b600a54600c549192501515906001600160a01b03161560006001600954600160a01b900460ff166004811115610e1657610e16611bbd565b149050808015610e235750825b8015610e2c5750815b8015610e3c57508480610e3c5750835b96508415610e8d57604051602001610e77906020808252600f908201526e191958591b1a5b9957dc185cdcd959608a1b604082015260600190565b6040516020818303038152906040529550610ee7565b8315610ed457604051602001610e779060208082526018908201527f6d61785f7061727469636970616e74735f726561636865640000000000000000604082015260600190565b6040518060200160405280600081525095505b50505050509250929050565b6009546001600160a01b03163314610f1e576040516393687c0b60e01b815260040160405180910390fd5b6007544210610f4057604051633376277360e11b815260040160405180910390fd5b6009805460ff60a01b1916600160a21b17905560005b600a5481101561101b576000600a8281548110610f7557610f75611ea1565b60009182526020822001546006546040516001600160a01b039092169290919081818185875af1925050503d8060008114610fcc576040519150601f19603f3d011682016040523d82523d6000602084013e610fd1565b606091505b50509050806110125760405162461bcd60e51b815260206004820152600d60248201526c1499599d5b990819985a5b1959609a1b60448201526064016107f8565b50600101610f56565b506040517f90e8484a98b653b6def19811c0e3811715da0de9c6b90d013442ba7e7541295190600090a1565b600c546001600160a01b03163314611072576040516330c6392160e11b815260040160405180910390fd5b6003600954600160a01b900460ff16600481111561109257611092611bbd565b146110b057604051630770596760e11b815260040160405180910390fd5b6009805460ff60a01b1916600360a01b179055600c5460405147916000916001600160a01b039091169083908381818185875af1925050503d8060008114611114576040519150601f19603f3d011682016040523d82523d6000602084013e611119565b606091505b505090508061115c5760405162461bcd60e51b815260206004820152600f60248201526e151c985b9cd9995c8819985a5b1959608a1b60448201526064016107f8565b600c546040518381526001600160a01b03909116907f95681e512bc0fe659e195e06c283eada494316f3d801213e48e7101af92bf77090602001610854565b60048054610cd690611f9a565b6001546001600160a01b031633146111fb5760405162461bcd60e51b815260206004820152601660248201527526bab9ba10313290383937b837b9b2b21037bbb732b960511b60448201526064016107f8565b60008054336001600160a01b0319808316821784556001805490911690556040516001600160a01b0390921692909183917f8be0079c531659141344cd1fd0a4f28419497f9722a3daafe3b4186f6b6457e091a350565b6060806060600080600080600080600360046005600654600754600854600a80549050600960009054906101000a90046001600160a01b0316600960149054906101000a900460ff168880546112a790611f9a565b80601f01602080910402602001604051908101604052809291908181526020018280546112d390611f9a565b80156113205780601f106112f557610100808354040283529160200191611320565b820191906000526020600020905b81548152906001019060200180831161130357829003601f168201915b5050505050985087805461133390611f9a565b80601f016020809104026020016040519081016040528092919081815260200182805461135f90611f9a565b80156113ac5780601f10611381576101008083540402835291602001916113ac565b820191906000526020600020905b81548152906001019060200180831161138f57829003601f168201915b505050505097508680546113bf90611f9a565b80601f01602080910402602001604051908101604052809291908181526020018280546113eb90611f9a565b80156114385780601f1061140d57610100808354040283529160200191611438565b820191906000526020600020905b81548152906001019060200180831161141b57829003601f168201915b50505050509650985098509850985098509850985098509850909192939495969798565b6000546001600160a01b0316331480159061148257506002546001600160a01b03163314155b156114d3573361149a6000546001600160a01b031690565b60025460405163061db9c160e01b81526001600160a01b03938416600482015291831660248301529190911660448201526064016107f8565b6001600160a01b0381166114fa5760405163d92e233d60e01b815260040160405180910390fd5b600280546001600160a01b0319166001600160a01b0383169081179091556040519081527fd1a6a14209a385a964d036e404cb5cfb71f4000cdb03c9366292430787261be69060200160405180910390a150565b60006007544210801561156e5750600854158061156e5750600854600a54105b1561158c57604051633376277360e11b815260040160405180910390fd5b600a546000036115af576040516308b6a47360e41b815260040160405180910390fd5b600c546001600160a01b0316156115d957604051630770596760e11b815260040160405180910390fd5b6009805460ff60a01b1916600160a11b1790556040805160c0810182527f000000000000000000000000000000000000000000000000000000000000000081527f0000000000000000000000000000000000000000000000000000000000000000602080830191909152600382840152620186a06060830152600160808301528251908101909252600082527f00000000000000000000000000000000000000000000000000000000000000006001600160a01b031691639b1c385e919060a08201906116a5906119cf565b8152506040518263ffffffff1660e01b81526004016116c49190611fd4565b6020604051808303816000875af11580156116e3573d6000803e3d6000fd5b505050506040513d601f19601f820116820180604052508101906117079190612031565b600f819055919050565b60006060600060075442101590506000806008541180156117365750600854600a5410155b600a54600c549192501515906001600160a01b03161560006001600954600160a01b900460ff16600481111561176e5761176e611bbd565b149050806117af57600060405180604001604052806011815260200170526166666c65206e6f742061637469766560781b8152509650965050505050509091565b826117eb5760006040518060400160405280600f81526020016e4e6f207061727469636970616e747360881b8152509650965050505050509091565b8161182c576000604051806040016040528060148152602001732bb4b73732b91030b63932b0b23c90323930bbb760611b8152509650965050505050509091565b84156118695760016040518060400160405280600f81526020016e111958591b1a5b99481c185cdcd959608a1b8152509650965050505050509091565b83156118b45760016040518060400160405280601881526020017f4d6178207061727469636970616e7473207265616368656400000000000000008152509650965050505050509091565b600060405180606001604052806028815260200161205f602891399650965050505050509091565b60058054610cd690611f9a565b6118f1611a40565b6118fa81611a95565b50565b8181600081811061191057611910611ea1565b6020029190910135600e819055600a5461192b92509061204a565b600d81905550600a600d548154811061194657611946611ea1565b60009182526020918290200154600c80546001600160a01b0319166001600160a01b0390921691821790556009805460ff60a01b1916600360a01b179055600d54600e546040805192835293820152808301869052915190917ff52fac7e26724c6e0808da8161af0a1263330646f3989bb031cc71fbaa7bf521919081900360600190a2505050565b60607f92fd13387c7fe7befbc38d303d6468778fb9731bc4583f17d92989c6fcfdeaaa82604051602401611a0891511515815260200190565b60408051601f198184030181529190526020810180516001600160e01b03166001600160e01b03199093169290921790915292915050565b6000546001600160a01b03163314611a935760405162461bcd60e51b815260206004820152601660248201527527b7363c9031b0b63630b1363290313c9037bbb732b960511b60448201526064016107f8565b565b336001600160a01b03821603611aed5760405162461bcd60e51b815260206004820152601760248201527f43616e6e6f74207472616e7366657220746f2073656c6600000000000000000060448201526064016107f8565b600180546001600160a01b0319166001600160a01b0383811691821790925560008054604051929316917fed8889f560326eb138920d842192f0eb3dd22b4f139c87a2c57538e05bae12789190a350565b600080600060408486031215611b5357600080fd5b83359250602084013567ffffffffffffffff80821115611b7257600080fd5b818601915086601f830112611b8657600080fd5b813581811115611b9557600080fd5b8760208260051b8501011115611baa57600080fd5b6020830194508093505050509250925092565b634e487b7160e01b600052602160045260246000fd5b60058110611bf157634e487b7160e01b600052602160045260246000fd5b9052565b60208101611c038284611bd3565b92915050565b600060208284031215611c1b57600080fd5b5035919050565b60008060208385031215611c3557600080fd5b823567ffffffffffffffff80821115611c4d57600080fd5b818501915085601f830112611c6157600080fd5b813581811115611c7057600080fd5b866020828501011115611c8257600080fd5b60209290920196919550909350505050565b6000815180845260005b81811015611cba57602081850181015186830182015201611c9e565b506000602082860101526020601f19601f83011685010191505092915050565b602081526000611ced6020830184611c94565b9392505050565b6020808252825182820181905260009190848201906040850190845b81811015611d355783516001600160a01b031683529284019291840191600101611d10565b50909695505050505050565b8215158152604060208201526000611d5c6040830184611c94565b949350505050565b600060208284031215611d7657600080fd5b81356001600160a01b0381168114611ced57600080fd5b6000610120808352611da18184018d611c94565b90508281036020840152611db5818c611c94565b90508281036040840152611dc9818b611c94565b9150508760608301528660808301528560a08301528460c083015260018060a01b03841660e0830152611e00610100830184611bd3565b9a9950505050505050505050565b634e487b7160e01b600052601260045260246000fd5b634e487b7160e01b600052601160045260246000fd5b600082611e4957611e49611e0e565b500490565b81810381811115611c0357611c03611e24565b80820180821115611c0357611c03611e24565b8082028115828204841417611c0357611c03611e24565b634e487b7160e01b600052604160045260246000fd5b634e487b7160e01b600052603260045260246000fd5b600060018201611ec957611ec9611e24565b5060010190565b600060208284031215611ee257600080fd5b813567ffffffffffffffff80821115611efa57600080fd5b818401915084601f830112611f0e57600080fd5b813581811115611f2057611f20611e8b565b604051601f8201601f19908116603f01168101908382118183101715611f4857611f48611e8b565b81604052828152876020848701011115611f6157600080fd5b826020860160208301376000928101602001929092525095945050505050565b828152604060208201526000611d5c6040830184611c94565b600181811c90821680611fae57607f821691505b602082108103611fce57634e487b7160e01b600052602260045260246000fd5b50919050565b60208152815160208201526020820151604082015261ffff60408301511660608201526000606083015163ffffffff80821660808501528060808601511660a0850152505060a083015160c080840152611d5c60e0840182611c94565b60006020828403121561204357600080fd5b5051919050565b60008261205957612059611e0e565b50069056fe57616974696e6720666f7220646561646c696e65206f72206d6178207061727469636970616e7473a2646970667358221220bdd340a828f452f747e0aa004138fd8d6966a42d3381f5191a0760c4e992bbe064736f6c63430008180033","opcodes":"PUSH1 0xE0 PUSH1 0x40 MSTORE CALLVALUE DUP1 ISZERO PUSH3 0x11 JUMPI PUSH1 0x0 DUP1 REVERT JUMPDEST POP PUSH1 0x40 MLOAD PUSH3 0x26D5 CODESIZE SUB DUP1 PUSH3 0x26D5 DUP4 CODECOPY DUP2 ADD PUSH1 0x40 DUP2 SWAP1 MSTORE PUSH3 0x34 SWAP2 PUSH3 0x3B7 JUMP JUMPDEST DUP3 CALLER DUP1 PUSH1 0x0 DUP2 PUSH3 0x8C JUMPI PUSH1 0x40 MLOAD PUSH3 0x461BCD PUSH1 0xE5 SHL DUP2 MSTORE PUSH1 0x20 PUSH1 0x4 DUP3 ADD MSTORE PUSH1 0x18 PUSH1 0x24 DUP3 ADD MSTORE PUSH32 0x43616E6E6F7420736574206F776E657220746F207A65726F0000000000000000 PUSH1 0x44 DUP3 ADD MSTORE PUSH1 0x64 ADD JUMPDEST PUSH1 0x40 MLOAD DUP1 SWAP2 SUB SWAP1 REVERT JUMPDEST PUSH1 0x0 DUP1 SLOAD PUSH1 0x1 PUSH1 0x1 PUSH1 0xA0 SHL SUB NOT AND PUSH1 0x1 PUSH1 0x1 PUSH1 0xA0 SHL SUB DUP5 DUP2 AND SWAP2 SWAP1 SWAP2 OR SWAP1 SWAP2 SSTORE DUP2 AND ISZERO PUSH3 0xBF JUMPI PUSH3 0xBF DUP2 PUSH3 0x227 JUMP JUMPDEST POP POP POP PUSH1 0x1 PUSH1 0x1 PUSH1 0xA0 SHL SUB DUP2 AND PUSH3 0xEA JUMPI PUSH1 0x40 MLOAD PUSH4 0xD92E233D PUSH1 0xE0 SHL DUP2 MSTORE PUSH1 0x4 ADD PUSH1 0x40 MLOAD DUP1 SWAP2 SUB SWAP1 REVERT JUMPDEST PUSH1 0x2 DUP1 SLOAD PUSH1 0x1 PUSH1 0x1 PUSH1 0xA0 SHL SUB NOT AND PUSH1 0x1 PUSH1 0x1 PUSH1 0xA0 SHL SUB SWAP3 SWAP1 SWAP3 AND SWAP2 SWAP1 SWAP2 OR SWAP1 SSTORE TIMESTAMP DUP6 GT PUSH3 0x15B JUMPI PUSH1 0x40 MLOAD PUSH3 0x461BCD PUSH1 0xE5 SHL DUP2 MSTORE PUSH1 0x20 PUSH1 0x4 DUP3 ADD MSTORE PUSH1 0x1E PUSH1 0x24 DUP3 ADD MSTORE PUSH32 0x446561646C696E65206D75737420626520696E20746865206675747572650000 PUSH1 0x44 DUP3 ADD MSTORE PUSH1 0x64 ADD PUSH3 0x83 JUMP JUMPDEST PUSH1 0x0 DUP7 GT PUSH3 0x1AD JUMPI PUSH1 0x40 MLOAD PUSH3 0x461BCD PUSH1 0xE5 SHL DUP2 MSTORE PUSH1 0x20 PUSH1 0x4 DUP3 ADD DUP2 SWAP1 MSTORE PUSH1 0x24 DUP3 ADD MSTORE PUSH32 0x456E74727920666565206D7573742062652067726561746572207468616E2030 PUSH1 0x44 DUP3 ADD MSTORE PUSH1 0x64 ADD PUSH3 0x83 JUMP JUMPDEST PUSH1 0x3 PUSH3 0x1BB DUP11 DUP3 PUSH3 0x51D JUMP JUMPDEST POP PUSH1 0x4 PUSH3 0x1CA DUP10 DUP3 PUSH3 0x51D JUMP JUMPDEST POP PUSH1 0x5 PUSH3 0x1D9 DUP9 DUP3 PUSH3 0x51D JUMP JUMPDEST POP PUSH1 0x6 SWAP6 SWAP1 SWAP6 SSTORE PUSH1 0x7 SWAP4 SWAP1 SWAP4 SSTORE PUSH1 0x8 SWAP2 SWAP1 SWAP2 SSTORE PUSH1 0x9 DUP1 SLOAD PUSH1 0x1 PUSH1 0x1 PUSH1 0xA8 SHL SUB NOT AND CALLER PUSH1 0xFF PUSH1 0xA0 SHL NOT AND OR PUSH1 0x1 PUSH1 0xA0 SHL OR SWAP1 SSTORE PUSH1 0x1 PUSH1 0x1 PUSH1 0xA0 SHL SUB AND PUSH1 0x80 MSTORE PUSH1 0xA0 MSTORE PUSH1 0xC0 MSTORE POP PUSH3 0x5E9 SWAP2 POP POP JUMP JUMPDEST CALLER PUSH1 0x1 PUSH1 0x1 PUSH1 0xA0 SHL SUB DUP3 AND SUB PUSH3 0x281 JUMPI PUSH1 0x40 MLOAD PUSH3 0x461BCD PUSH1 0xE5 SHL DUP2 MSTORE PUSH1 0x20 PUSH1 0x4 DUP3 ADD MSTORE PUSH1 0x17 PUSH1 0x24 DUP3 ADD MSTORE PUSH32 0x43616E6E6F74207472616E7366657220746F2073656C66000000000000000000 PUSH1 0x44 DUP3 ADD MSTORE PUSH1 0x64 ADD PUSH3 0x83 JUMP JUMPDEST PUSH1 0x1 DUP1 SLOAD PUSH1 0x1 PUSH1 0x1 PUSH1 0xA0 SHL SUB NOT AND PUSH1 0x1 PUSH1 0x1 PUSH1 0xA0 SHL SUB DUP4 DUP2 AND SWAP2 DUP3 OR SWAP1 SWAP3 SSTORE PUSH1 0x0 DUP1 SLOAD PUSH1 0x40 MLOAD SWAP3 SWAP4 AND SWAP2 PUSH32 0xED8889F560326EB138920D842192F0EB3DD22B4F139C87A2C57538E05BAE1278 SWAP2 SWAP1 LOG3 POP JUMP JUMPDEST PUSH4 0x4E487B71 PUSH1 0xE0 SHL PUSH1 0x0 MSTORE PUSH1 0x41 PUSH1 0x4 MSTORE PUSH1 0x24 PUSH1 0x0 REVERT JUMPDEST PUSH1 0x0 DUP3 PUSH1 0x1F DUP4 ADD SLT PUSH3 0x2FA JUMPI PUSH1 0x0 DUP1 REVERT JUMPDEST DUP2 MLOAD PUSH1 0x1 PUSH1 0x1 PUSH1 0x40 SHL SUB DUP1 DUP3 GT ISZERO PUSH3 0x317 JUMPI PUSH3 0x317 PUSH3 0x2D2 JUMP JUMPDEST PUSH1 0x40 MLOAD PUSH1 0x1F DUP4 ADD PUSH1 0x1F NOT SWAP1 DUP2 AND PUSH1 0x3F ADD AND DUP2 ADD SWAP1 DUP3 DUP3 GT DUP2 DUP4 LT OR ISZERO PUSH3 0x342 JUMPI PUSH3 0x342 PUSH3 0x2D2 JUMP JUMPDEST DUP2 PUSH1 0x40 MSTORE DUP4 DUP2 MSTORE PUSH1 0x20 SWAP3 POP DUP7 PUSH1 0x20 DUP6 DUP9 ADD ADD GT ISZERO PUSH3 0x360 JUMPI PUSH1 0x0 DUP1 REVERT JUMPDEST PUSH1 0x0 SWAP2 POP JUMPDEST DUP4 DUP3 LT ISZERO PUSH3 0x384 JUMPI DUP6 DUP3 ADD DUP4 ADD MLOAD DUP2 DUP4 ADD DUP5 ADD MSTORE SWAP1 DUP3 ADD SWAP1 PUSH3 0x365 JUMP JUMPDEST PUSH1 0x0 PUSH1 0x20 DUP6 DUP4 ADD ADD MSTORE DUP1 SWAP5 POP POP POP POP POP SWAP3 SWAP2 POP POP JUMP JUMPDEST DUP1 MLOAD PUSH1 0x1 PUSH1 0x1 PUSH1 0xA0 SHL SUB DUP2 AND DUP2 EQ PUSH3 0x3B2 JUMPI PUSH1 0x0 DUP1 REVERT JUMPDEST SWAP2 SWAP1 POP JUMP JUMPDEST PUSH1 0x0 DUP1 PUSH1 0x0 DUP1 PUSH1 0x0 DUP1 PUSH1 0x0 DUP1 PUSH1 0x0 PUSH2 0x120 DUP11 DUP13 SUB SLT ISZERO PUSH3 0x3D7 JUMPI PUSH1 0x0 DUP1 REVERT JUMPDEST DUP10 MLOAD PUSH1 0x1 PUSH1 0x1 PUSH1 0x40 SHL SUB DUP1 DUP3 GT ISZERO PUSH3 0x3EF JUMPI PUSH1 0x0 DUP1 REVERT JUMPDEST PUSH3 0x3FD DUP14 DUP4 DUP15 ADD PUSH3 0x2E8 JUMP JUMPDEST SWAP11 POP PUSH1 0x20 DUP13 ADD MLOAD SWAP2 POP DUP1 DUP3 GT ISZERO PUSH3 0x414 JUMPI PUSH1 0x0 DUP1 REVERT JUMPDEST PUSH3 0x422 DUP14 DUP4 DUP15 ADD PUSH3 0x2E8 JUMP JUMPDEST SWAP10 POP PUSH1 0x40 DUP13 ADD MLOAD SWAP2 POP DUP1 DUP3 GT ISZERO PUSH3 0x439 JUMPI PUSH1 0x0 DUP1 REVERT JUMPDEST POP PUSH3 0x448 DUP13 DUP3 DUP14 ADD PUSH3 0x2E8 JUMP JUMPDEST SWAP8 POP POP PUSH1 0x60 DUP11 ADD MLOAD SWAP6 POP PUSH1 0x80 DUP11 ADD MLOAD SWAP5 POP PUSH1 0xA0 DUP11 ADD MLOAD SWAP4 POP PUSH3 0x46E PUSH1 0xC0 DUP12 ADD PUSH3 0x39A JUMP JUMPDEST SWAP3 POP PUSH1 0xE0 DUP11 ADD MLOAD SWAP2 POP PUSH2 0x100 DUP11 ADD MLOAD SWAP1 POP SWAP3 SWAP6 SWAP9 POP SWAP3 SWAP6 SWAP9 POP SWAP3 SWAP6 SWAP9 JUMP JUMPDEST PUSH1 0x1 DUP2 DUP2 SHR SWAP1 DUP3 AND DUP1 PUSH3 0x4A1 JUMPI PUSH1 0x7F DUP3 AND SWAP2 POP JUMPDEST PUSH1 0x20 DUP3 LT DUP2 SUB PUSH3 0x4C2 JUMPI PUSH4 0x4E487B71 PUSH1 0xE0 SHL PUSH1 0x0 MSTORE PUSH1 0x22 PUSH1 0x4 MSTORE PUSH1 0x24 PUSH1 0x0 REVERT JUMPDEST POP SWAP2 SWAP1 POP JUMP JUMPDEST PUSH1 0x1F DUP3 GT ISZERO PUSH3 0x518 JUMPI PUSH1 0x0 DUP2 PUSH1 0x0 MSTORE PUSH1 0x20 PUSH1 0x0 KECCAK256 PUSH1 0x1F DUP6 ADD PUSH1 0x5 SHR DUP2 ADD PUSH1 0x20 DUP7 LT ISZERO PUSH3 0x4F3 JUMPI POP DUP1 JUMPDEST PUSH1 0x1F DUP6 ADD PUSH1 0x5 SHR DUP3 ADD SWAP2 POP JUMPDEST DUP2 DUP2 LT ISZERO PUSH3 0x514 JUMPI DUP3 DUP2 SSTORE PUSH1 0x1 ADD PUSH3 0x4FF JUMP JUMPDEST POP POP POP JUMPDEST POP POP POP JUMP JUMPDEST DUP2 MLOAD PUSH1 0x1 PUSH1 0x1 PUSH1 0x40 SHL SUB DUP2 GT ISZERO PUSH3 0x539 JUMPI PUSH3 0x539 PUSH3 0x2D2 JUMP JUMPDEST PUSH3 0x551 DUP2 PUSH3 0x54A DUP5 SLOAD PUSH3 0x48C JUMP JUMPDEST DUP5 PUSH3 0x4C8 JUMP JUMPDEST PUSH1 0x20 DUP1 PUSH1 0x1F DUP4 GT PUSH1 0x1 DUP2 EQ PUSH3 0x589 JUMPI PUSH1 0x0 DUP5 ISZERO PUSH3 0x570 JUMPI POP DUP6 DUP4 ADD MLOAD JUMPDEST PUSH1 0x0 NOT PUSH1 0x3 DUP7 SWAP1 SHL SHR NOT AND PUSH1 0x1 DUP6 SWAP1 SHL OR DUP6 SSTORE PUSH3 0x514 JUMP JUMPDEST PUSH1 0x0 DUP6 DUP2 MSTORE PUSH1 0x20 DUP2 KECCAK256 PUSH1 0x1F NOT DUP7 AND SWAP2 JUMPDEST DUP3 DUP2 LT ISZERO PUSH3 0x5BA JUMPI DUP9 DUP7 ADD MLOAD DUP3 SSTORE SWAP5 DUP5 ADD SWAP5 PUSH1 0x1 SWAP1 SWAP2 ADD SWAP1 DUP5 ADD PUSH3 0x599 JUMP JUMPDEST POP DUP6 DUP3 LT ISZERO PUSH3 0x5D9 JUMPI DUP8 DUP6 ADD MLOAD PUSH1 0x0 NOT PUSH1 0x3 DUP9 SWAP1 SHL PUSH1 0xF8 AND SHR NOT AND DUP2 SSTORE JUMPDEST POP POP POP POP POP PUSH1 0x1 SWAP1 DUP2 SHL ADD SWAP1 SSTORE POP JUMP JUMPDEST PUSH1 0x80 MLOAD PUSH1 0xA0 MLOAD PUSH1 0xC0 MLOAD PUSH2 0x20BC PUSH3 0x619 PUSH1 0x0 CODECOPY PUSH1 0x0 PUSH2 0x161B ADD MSTORE PUSH1 0x0 PUSH2 0x15F8 ADD MSTORE PUSH1 0x0 PUSH2 0x1667 ADD MSTORE PUSH2 0x20BC PUSH1 0x0 RETURN INVALID PUSH1 0x80 PUSH1 0x40 MSTORE PUSH1 0x4 CALLDATASIZE LT PUSH2 0x1F9 JUMPI PUSH1 0x0 CALLDATALOAD PUSH1 0xE0 SHR DUP1 PUSH4 0x70740AC9 GT PUSH2 0x10D JUMPI DUP1 PUSH4 0x8F00CBFA GT PUSH2 0xA0 JUMPI DUP1 PUSH4 0xCFF82E22 GT PUSH2 0x6F JUMPI DUP1 PUSH4 0xCFF82E22 EQ PUSH2 0x545 JUMPI DUP1 PUSH4 0xDFBF53AE EQ PUSH2 0x57B JUMPI DUP1 PUSH4 0xE8880E94 EQ PUSH2 0x59B JUMPI DUP1 PUSH4 0xEFEED224 EQ PUSH2 0x5B0 JUMPI DUP1 PUSH4 0xF2FDE38B EQ PUSH2 0x5C5 JUMPI PUSH1 0x0 DUP1 REVERT JUMPDEST DUP1 PUSH4 0x8F00CBFA EQ PUSH2 0x4E5 JUMPI DUP1 PUSH4 0x9ECCACF6 EQ PUSH2 0x4FB JUMPI DUP1 PUSH4 0xAD605729 EQ PUSH2 0x51B JUMPI DUP1 PUSH4 0xB2185BB1 EQ PUSH2 0x530 JUMPI PUSH1 0x0 DUP1 REVERT JUMPDEST DUP1 PUSH4 0x8166F6B2 GT PUSH2 0xDC JUMPI DUP1 PUSH4 0x8166F6B2 EQ PUSH2 0x46A JUMPI DUP1 PUSH4 0x884BF67C EQ PUSH2 0x494 JUMPI DUP1 PUSH4 0x8DA5CB5B EQ PUSH2 0x4A7 JUMPI DUP1 PUSH4 0x8EA98117 EQ PUSH2 0x4C5 JUMPI PUSH1 0x0 DUP1 REVERT JUMPDEST DUP1 PUSH4 0x70740AC9 EQ PUSH2 0x3FE JUMPI DUP1 PUSH4 0x70CA5BBE EQ PUSH2 0x413 JUMPI DUP1 PUSH4 0x7284E416 EQ PUSH2 0x440 JUMPI DUP1 PUSH4 0x79BA5097 EQ PUSH2 0x455 JUMPI PUSH1 0x0 DUP1 REVERT JUMPDEST DUP1 PUSH4 0x2F366637 GT PUSH2 0x190 JUMPI DUP1 PUSH4 0x4585E33B GT PUSH2 0x15F JUMPI DUP1 PUSH4 0x4585E33B EQ PUSH2 0x357 JUMPI DUP1 PUSH4 0x4A79D50C EQ PUSH2 0x377 JUMPI DUP1 PUSH4 0x5AA68AC0 EQ PUSH2 0x399 JUMPI DUP1 PUSH4 0x6E04FF0D EQ PUSH2 0x3BB JUMPI DUP1 PUSH4 0x70533250 EQ PUSH2 0x3E9 JUMPI PUSH1 0x0 DUP1 REVERT JUMPDEST DUP1 PUSH4 0x2F366637 EQ PUSH2 0x2F9 JUMPI DUP1 PUSH4 0x33B88B8E EQ PUSH2 0x30C JUMPI DUP1 PUSH4 0x35C1D349 EQ PUSH2 0x321 JUMPI DUP1 PUSH4 0x42619F66 EQ PUSH2 0x341 JUMPI PUSH1 0x0 DUP1 REVERT JUMPDEST DUP1 PUSH4 0x1FE543E3 GT PUSH2 0x1CC JUMPI DUP1 PUSH4 0x1FE543E3 EQ PUSH2 0x27F JUMPI DUP1 PUSH4 0x200D2ED2 EQ PUSH2 0x29F JUMPI DUP1 PUSH4 0x24924BF7 EQ PUSH2 0x2CD JUMPI DUP1 PUSH4 0x29DCB0CF EQ PUSH2 0x2E3 JUMPI PUSH1 0x0 DUP1 REVERT JUMPDEST DUP1 PUSH4 0x2D05D3F EQ PUSH2 0x1FE JUMPI DUP1 PUSH4 0x72EA61C EQ PUSH2 0x23B JUMPI DUP1 PUSH4 0x136B3392 EQ PUSH2 0x25F JUMPI DUP1 PUSH4 0x18A7EA5F EQ PUSH2 0x269 JUMPI JUMPDEST PUSH1 0x0 DUP1 REVERT JUMPDEST CALLVALUE DUP1 ISZERO PUSH2 0x20A JUMPI PUSH1 0x0 DUP1 REVERT JUMPDEST POP PUSH1 0x9 SLOAD PUSH2 0x21E SWAP1 PUSH1 0x1 PUSH1 0x1 PUSH1 0xA0 SHL SUB AND DUP2 JUMP JUMPDEST PUSH1 0x40 MLOAD PUSH1 0x1 PUSH1 0x1 PUSH1 0xA0 SHL SUB SWAP1 SWAP2 AND DUP2 MSTORE PUSH1 0x20 ADD JUMPDEST PUSH1 0x40 MLOAD DUP1 SWAP2 SUB SWAP1 RETURN JUMPDEST CALLVALUE DUP1 ISZERO PUSH2 0x247 JUMPI PUSH1 0x0 DUP1 REVERT JUMPDEST POP PUSH2 0x251 PUSH1 0x6 SLOAD DUP2 JUMP JUMPDEST PUSH1 0x40 MLOAD SWAP1 DUP2 MSTORE PUSH1 0x20 ADD PUSH2 0x232 JUMP JUMPDEST PUSH2 0x267 PUSH2 0x5E5 JUMP JUMPDEST STOP JUMPDEST CALLVALUE DUP1 ISZERO PUSH2 0x275 JUMPI PUSH1 0x0 DUP1 REVERT JUMPDEST POP PUSH2 0x251 PUSH1 0xF SLOAD DUP2 JUMP JUMPDEST CALLVALUE DUP1 ISZERO PUSH2 0x28B JUMPI PUSH1 0x0 DUP1 REVERT JUMPDEST POP PUSH2 0x267 PUSH2 0x29A CALLDATASIZE PUSH1 0x4 PUSH2 0x1B3E JUMP JUMPDEST PUSH2 0x860 JUMP JUMPDEST CALLVALUE DUP1 ISZERO PUSH2 0x2AB JUMPI PUSH1 0x0 DUP1 REVERT JUMPDEST POP PUSH1 0x9 SLOAD PUSH2 0x2C0 SWAP1 PUSH1 0x1 PUSH1 0xA0 SHL SWAP1 DIV PUSH1 0xFF AND DUP2 JUMP JUMPDEST PUSH1 0x40 MLOAD PUSH2 0x232 SWAP2 SWAP1 PUSH2 0x1BF5 JUMP JUMPDEST CALLVALUE DUP1 ISZERO PUSH2 0x2D9 JUMPI PUSH1 0x0 DUP1 REVERT JUMPDEST POP PUSH2 0x251 PUSH1 0x8 SLOAD DUP2 JUMP JUMPDEST CALLVALUE DUP1 ISZERO PUSH2 0x2EF JUMPI PUSH1 0x0 DUP1 REVERT JUMPDEST POP PUSH2 0x251 PUSH1 0x7 SLOAD DUP2 JUMP JUMPDEST PUSH2 0x267 PUSH2 0x307 CALLDATASIZE PUSH1 0x4 PUSH2 0x1C09 JUMP JUMPDEST PUSH2 0x8B0 JUMP JUMPDEST CALLVALUE DUP1 ISZERO PUSH2 0x318 JUMPI PUSH1 0x0 DUP1 REVERT JUMPDEST POP PUSH2 0x251 PUSH2 0xA30 JUMP JUMPDEST CALLVALUE DUP1 ISZERO PUSH2 0x32D JUMPI PUSH1 0x0 DUP1 REVERT JUMPDEST POP PUSH2 0x21E PUSH2 0x33C CALLDATASIZE PUSH1 0x4 PUSH2 0x1C09 JUMP JUMPDEST PUSH2 0xB7D JUMP JUMPDEST CALLVALUE DUP1 ISZERO PUSH2 0x34D JUMPI PUSH1 0x0 DUP1 REVERT JUMPDEST POP PUSH2 0x251 PUSH1 0xE SLOAD DUP2 JUMP JUMPDEST CALLVALUE DUP1 ISZERO PUSH2 0x363 JUMPI PUSH1 0x0 DUP1 REVERT JUMPDEST POP PUSH2 0x267 PUSH2 0x372 CALLDATASIZE PUSH1 0x4 PUSH2 0x1C22 JUMP JUMPDEST PUSH2 0xBA7 JUMP JUMPDEST CALLVALUE DUP1 ISZERO PUSH2 0x383 JUMPI PUSH1 0x0 DUP1 REVERT JUMPDEST POP PUSH2 0x38C PUSH2 0xCC9 JUMP JUMPDEST PUSH1 0x40 MLOAD PUSH2 0x232 SWAP2 SWAP1 PUSH2 0x1CDA JUMP JUMPDEST CALLVALUE DUP1 ISZERO PUSH2 0x3A5 JUMPI PUSH1 0x0 DUP1 REVERT JUMPDEST POP PUSH2 0x3AE PUSH2 0xD57 JUMP JUMPDEST PUSH1 0x40 MLOAD PUSH2 0x232 SWAP2 SWAP1 PUSH2 0x1CF4 JUMP JUMPDEST CALLVALUE DUP1 ISZERO PUSH2 0x3C7 JUMPI PUSH1 0x0 DUP1 REVERT JUMPDEST POP PUSH2 0x3DB PUSH2 0x3D6 CALLDATASIZE PUSH1 0x4 PUSH2 0x1C22 JUMP JUMPDEST PUSH2 0xDB9 JUMP JUMPDEST PUSH1 0x40 MLOAD PUSH2 0x232 SWAP3 SWAP2 SWAP1 PUSH2 0x1D41 JUMP JUMPDEST CALLVALUE DUP1 ISZERO PUSH2 0x3F5 JUMPI PUSH1 0x0 DUP1 REVERT JUMPDEST POP PUSH2 0x267 PUSH2 0xEF3 JUMP JUMPDEST CALLVALUE DUP1 ISZERO PUSH2 0x40A JUMPI PUSH1 0x0 DUP1 REVERT JUMPDEST POP PUSH2 0x267 PUSH2 0x1047 JUMP JUMPDEST CALLVALUE DUP1 ISZERO PUSH2 0x41F JUMPI PUSH1 0x0 DUP1 REVERT JUMPDEST POP PUSH2 0x251 PUSH2 0x42E CALLDATASIZE PUSH1 0x4 PUSH2 0x1D64 JUMP JUMPDEST PUSH1 0xB PUSH1 0x20 MSTORE PUSH1 0x0 SWAP1 DUP2 MSTORE PUSH1 0x40 SWAP1 KECCAK256 SLOAD DUP2 JUMP JUMPDEST CALLVALUE DUP1 ISZERO PUSH2 0x44C JUMPI PUSH1 0x0 DUP1 REVERT JUMPDEST POP PUSH2 0x38C PUSH2 0x119B JUMP JUMPDEST CALLVALUE DUP1 ISZERO PUSH2 0x461 JUMPI PUSH1 0x0 DUP1 REVERT JUMPDEST POP PUSH2 0x267 PUSH2 0x11A8 JUMP JUMPDEST CALLVALUE DUP1 ISZERO PUSH2 0x476 JUMPI PUSH1 0x0 DUP1 REVERT JUMPDEST POP PUSH2 0x47F PUSH2 0x1252 JUMP JUMPDEST PUSH1 0x40 MLOAD PUSH2 0x232 SWAP10 SWAP9 SWAP8 SWAP7 SWAP6 SWAP5 SWAP4 SWAP3 SWAP2 SWAP1 PUSH2 0x1D8D JUMP JUMPDEST CALLVALUE DUP1 ISZERO PUSH2 0x4A0 JUMPI PUSH1 0x0 DUP1 REVERT JUMPDEST POP SELFBALANCE PUSH2 0x251 JUMP JUMPDEST CALLVALUE DUP1 ISZERO PUSH2 0x4B3 JUMPI PUSH1 0x0 DUP1 REVERT JUMPDEST POP PUSH1 0x0 SLOAD PUSH1 0x1 PUSH1 0x1 PUSH1 0xA0 SHL SUB AND PUSH2 0x21E JUMP JUMPDEST CALLVALUE DUP1 ISZERO PUSH2 0x4D1 JUMPI PUSH1 0x0 DUP1 REVERT JUMPDEST POP PUSH2 0x267 PUSH2 0x4E0 CALLDATASIZE PUSH1 0x4 PUSH2 0x1D64 JUMP JUMPDEST PUSH2 0x145C JUMP JUMPDEST CALLVALUE DUP1 ISZERO PUSH2 0x4F1 JUMPI PUSH1 0x0 DUP1 REVERT JUMPDEST POP PUSH2 0x251 PUSH1 0xD SLOAD DUP2 JUMP JUMPDEST CALLVALUE DUP1 ISZERO PUSH2 0x507 JUMPI PUSH1 0x0 DUP1 REVERT JUMPDEST POP PUSH1 0x2 SLOAD PUSH2 0x21E SWAP1 PUSH1 0x1 PUSH1 0x1 PUSH1 0xA0 SHL SUB AND DUP2 JUMP JUMPDEST CALLVALUE DUP1 ISZERO PUSH2 0x527 JUMPI PUSH1 0x0 DUP1 REVERT JUMPDEST POP PUSH1 0xA SLOAD PUSH2 0x251 JUMP JUMPDEST CALLVALUE DUP1 ISZERO PUSH2 0x53C JUMPI PUSH1 0x0 DUP1 REVERT JUMPDEST POP PUSH2 0x251 PUSH2 0x154E JUMP JUMPDEST CALLVALUE DUP1 ISZERO PUSH2 0x551 JUMPI PUSH1 0x0 DUP1 REVERT JUMPDEST POP PUSH2 0x251 PUSH2 0x560 CALLDATASIZE PUSH1 0x4 PUSH2 0x1D64 JUMP JUMPDEST PUSH1 0x1 PUSH1 0x1 PUSH1 0xA0 SHL SUB AND PUSH1 0x0 SWAP1 DUP2 MSTORE PUSH1 0xB PUSH1 0x20 MSTORE PUSH1 0x40 SWAP1 KECCAK256 SLOAD SWAP1 JUMP JUMPDEST CALLVALUE DUP1 ISZERO PUSH2 0x587 JUMPI PUSH1 0x0 DUP1 REVERT JUMPDEST POP PUSH1 0xC SLOAD PUSH2 0x21E SWAP1 PUSH1 0x1 PUSH1 0x1 PUSH1 0xA0 SHL SUB AND DUP2 JUMP JUMPDEST CALLVALUE DUP1 ISZERO PUSH2 0x5A7 JUMPI PUSH1 0x0 DUP1 REVERT JUMPDEST POP PUSH2 0x3DB PUSH2 0x1711 JUMP JUMPDEST CALLVALUE DUP1 ISZERO PUSH2 0x5BC JUMPI PUSH1 0x0 DUP1 REVERT JUMPDEST POP PUSH2 0x38C PUSH2 0x18DC JUMP JUMPDEST CALLVALUE DUP1 ISZERO PUSH2 0x5D1 JUMPI PUSH1 0x0 DUP1 REVERT JUMPDEST POP PUSH2 0x267 PUSH2 0x5E0 CALLDATASIZE PUSH1 0x4 PUSH2 0x1D64 JUMP JUMPDEST PUSH2 0x18E9 JUMP JUMPDEST PUSH1 0x1 PUSH1 0x9 SLOAD PUSH1 0x1 PUSH1 0xA0 SHL SWAP1 DIV PUSH1 0xFF AND PUSH1 0x4 DUP2 GT ISZERO PUSH2 0x605 JUMPI PUSH2 0x605 PUSH2 0x1BBD JUMP JUMPDEST EQ PUSH2 0x623 JUMPI PUSH1 0x40 MLOAD PUSH4 0x2AE47F73 PUSH1 0xE0 SHL DUP2 MSTORE PUSH1 0x4 ADD PUSH1 0x40 MLOAD DUP1 SWAP2 SUB SWAP1 REVERT JUMPDEST PUSH1 0x7 SLOAD TIMESTAMP LT PUSH2 0x645 JUMPI PUSH1 0x40 MLOAD PUSH4 0x502FD88D PUSH1 0xE0 SHL DUP2 MSTORE PUSH1 0x4 ADD PUSH1 0x40 MLOAD DUP1 SWAP2 SUB SWAP1 REVERT JUMPDEST PUSH1 0x6 SLOAD CALLVALUE LT ISZERO PUSH2 0x668 JUMPI PUSH1 0x40 MLOAD PUSH4 0xCD1C8867 PUSH1 0xE0 SHL DUP2 MSTORE PUSH1 0x4 ADD PUSH1 0x40 MLOAD DUP1 SWAP2 SUB SWAP1 REVERT JUMPDEST PUSH1 0x0 PUSH1 0x6 SLOAD CALLVALUE PUSH2 0x678 SWAP2 SWAP1 PUSH2 0x1E3A JUMP JUMPDEST SWAP1 POP DUP1 PUSH1 0x0 SUB PUSH2 0x69B JUMPI PUSH1 0x40 MLOAD PUSH4 0x8E71BEF9 PUSH1 0xE0 SHL DUP2 MSTORE PUSH1 0x4 ADD PUSH1 0x40 MLOAD DUP1 SWAP2 SUB SWAP1 REVERT JUMPDEST PUSH1 0x8 SLOAD ISZERO PUSH2 0x6DA JUMPI PUSH1 0xA SLOAD PUSH1 0x8 SLOAD PUSH1 0x0 SWAP2 PUSH2 0x6B5 SWAP2 PUSH2 0x1E4E JUMP JUMPDEST SWAP1 POP DUP1 DUP3 GT ISZERO PUSH2 0x6D8 JUMPI PUSH1 0x40 MLOAD PUSH4 0x771DE33 PUSH1 0xE0 SHL DUP2 MSTORE PUSH1 0x4 ADD PUSH1 0x40 MLOAD DUP1 SWAP2 SUB SWAP1 REVERT JUMPDEST POP JUMPDEST PUSH1 0x0 JUMPDEST DUP2 DUP2 LT ISZERO PUSH2 0x72E JUMPI PUSH1 0xA DUP1 SLOAD PUSH1 0x1 DUP2 DUP2 ADD DUP4 SSTORE PUSH1 0x0 SWAP3 SWAP1 SWAP3 MSTORE PUSH32 0xC65A7BB8D6351C1CF70C95A316CC6A92839C986682D98BC35F958F4883F9D2A8 ADD DUP1 SLOAD PUSH1 0x1 PUSH1 0x1 PUSH1 0xA0 SHL SUB NOT AND CALLER OR SWAP1 SSTORE ADD PUSH2 0x6DD JUMP JUMPDEST POP CALLER PUSH1 0x0 SWAP1 DUP2 MSTORE PUSH1 0xB PUSH1 0x20 MSTORE PUSH1 0x40 DUP2 KECCAK256 DUP1 SLOAD DUP4 SWAP3 SWAP1 PUSH2 0x74E SWAP1 DUP5 SWAP1 PUSH2 0x1E61 JUMP JUMPDEST SWAP1 SWAP2 SSTORE POP POP PUSH1 0x6 SLOAD PUSH1 0x0 SWAP1 PUSH2 0x763 SWAP1 DUP4 PUSH2 0x1E74 JUMP JUMPDEST SWAP1 POP DUP1 CALLVALUE GT ISZERO PUSH2 0x803 JUMPI PUSH1 0x0 CALLER PUSH2 0x77A DUP4 CALLVALUE PUSH2 0x1E4E JUMP JUMPDEST PUSH1 0x40 MLOAD PUSH1 0x0 DUP2 DUP2 DUP2 DUP6 DUP8 GAS CALL SWAP3 POP POP POP RETURNDATASIZE DUP1 PUSH1 0x0 DUP2 EQ PUSH2 0x7B6 JUMPI PUSH1 0x40 MLOAD SWAP2 POP PUSH1 0x1F NOT PUSH1 0x3F RETURNDATASIZE ADD AND DUP3 ADD PUSH1 0x40 MSTORE RETURNDATASIZE DUP3 MSTORE RETURNDATASIZE PUSH1 0x0 PUSH1 0x20 DUP5 ADD RETURNDATACOPY PUSH2 0x7BB JUMP JUMPDEST PUSH1 0x60 SWAP2 POP JUMPDEST POP POP SWAP1 POP DUP1 PUSH2 0x801 JUMPI PUSH1 0x40 MLOAD PUSH3 0x461BCD PUSH1 0xE5 SHL DUP2 MSTORE PUSH1 0x20 PUSH1 0x4 DUP3 ADD MSTORE PUSH1 0xD PUSH1 0x24 DUP3 ADD MSTORE PUSH13 0x1499599D5B990819985A5B1959 PUSH1 0x9A SHL PUSH1 0x44 DUP3 ADD MSTORE PUSH1 0x64 ADD JUMPDEST PUSH1 0x40 MLOAD DUP1 SWAP2 SUB SWAP1 REVERT JUMPDEST POP JUMPDEST PUSH1 0xA SLOAD CALLER PUSH1 0x0 DUP2 DUP2 MSTORE PUSH1 0xB PUSH1 0x20 SWAP1 DUP2 MSTORE PUSH1 0x40 SWAP2 DUP3 SWAP1 KECCAK256 SLOAD DUP3 MLOAD DUP8 DUP2 MSTORE SWAP2 DUP3 ADD SWAP5 SWAP1 SWAP5 MSTORE SWAP1 DUP2 ADD SWAP3 SWAP1 SWAP3 MSTORE SWAP1 PUSH32 0xE367E10777F2A25A834BA205395C23C7F7175D3D6D36137EE22C3F056D780C0A SWAP1 PUSH1 0x60 ADD JUMPDEST PUSH1 0x40 MLOAD DUP1 SWAP2 SUB SWAP1 LOG2 POP POP JUMP JUMPDEST PUSH1 0x2 SLOAD PUSH1 0x1 PUSH1 0x1 PUSH1 0xA0 SHL SUB AND CALLER EQ PUSH2 0x8A0 JUMPI PUSH1 0x2 SLOAD PUSH1 0x40 MLOAD PUSH4 0x73E64FD PUSH1 0xE2 SHL DUP2 MSTORE CALLER PUSH1 0x4 DUP3 ADD MSTORE PUSH1 0x1 PUSH1 0x1 PUSH1 0xA0 SHL SUB SWAP1 SWAP2 AND PUSH1 0x24 DUP3 ADD MSTORE PUSH1 0x44 ADD PUSH2 0x7F8 JUMP JUMPDEST PUSH2 0x8AB DUP4 DUP4 DUP4 PUSH2 0x18FD JUMP JUMPDEST POP POP POP JUMP JUMPDEST PUSH1 0x1 PUSH1 0x9 SLOAD PUSH1 0x1 PUSH1 0xA0 SHL SWAP1 DIV PUSH1 0xFF AND PUSH1 0x4 DUP2 GT ISZERO PUSH2 0x8D0 JUMPI PUSH2 0x8D0 PUSH2 0x1BBD JUMP JUMPDEST EQ PUSH2 0x8EE JUMPI PUSH1 0x40 MLOAD PUSH4 0x2AE47F73 PUSH1 0xE0 SHL DUP2 MSTORE PUSH1 0x4 ADD PUSH1 0x40 MLOAD DUP1 SWAP2 SUB SWAP1 REVERT JUMPDEST PUSH1 0x7 SLOAD TIMESTAMP LT PUSH2 0x910 JUMPI PUSH1 0x40 MLOAD PUSH4 0x502FD88D PUSH1 0xE0 SHL DUP2 MSTORE PUSH1 0x4 ADD PUSH1 0x40 MLOAD DUP1 SWAP2 SUB SWAP1 REVERT JUMPDEST DUP1 PUSH1 0x0 SUB PUSH2 0x931 JUMPI PUSH1 0x40 MLOAD PUSH4 0x8E71BEF9 PUSH1 0xE0 SHL DUP2 MSTORE PUSH1 0x4 ADD PUSH1 0x40 MLOAD DUP1 SWAP2 SUB SWAP1 REVERT JUMPDEST PUSH1 0x0 PUSH1 0x6 SLOAD DUP3 PUSH2 0x941 SWAP2 SWAP1 PUSH2 0x1E74 JUMP JUMPDEST SWAP1 POP DUP1 CALLVALUE LT ISZERO PUSH2 0x964 JUMPI PUSH1 0x40 MLOAD PUSH4 0xCD1C8867 PUSH1 0xE0 SHL DUP2 MSTORE PUSH1 0x4 ADD PUSH1 0x40 MLOAD DUP1 SWAP2 SUB SWAP1 REVERT JUMPDEST PUSH1 0x0 PUSH1 0x8 SLOAD GT DUP1 ISZERO PUSH2 0x984 JUMPI POP PUSH1 0x8 SLOAD PUSH1 0xA SLOAD PUSH2 0x982 SWAP1 DUP5 SWAP1 PUSH2 0x1E61 JUMP JUMPDEST GT JUMPDEST ISZERO PUSH2 0x9A2 JUMPI PUSH1 0x40 MLOAD PUSH4 0x771DE33 PUSH1 0xE0 SHL DUP2 MSTORE PUSH1 0x4 ADD PUSH1 0x40 MLOAD DUP1 SWAP2 SUB SWAP1 REVERT JUMPDEST PUSH1 0x0 JUMPDEST DUP3 DUP2 LT ISZERO PUSH2 0x9F6 JUMPI PUSH1 0xA DUP1 SLOAD PUSH1 0x1 DUP2 DUP2 ADD DUP4 SSTORE PUSH1 0x0 SWAP3 SWAP1 SWAP3 MSTORE PUSH32 0xC65A7BB8D6351C1CF70C95A316CC6A92839C986682D98BC35F958F4883F9D2A8 ADD DUP1 SLOAD PUSH1 0x1 PUSH1 0x1 PUSH1 0xA0 SHL SUB NOT AND CALLER OR SWAP1 SSTORE ADD PUSH2 0x9A5 JUMP JUMPDEST POP CALLER PUSH1 0x0 SWAP1 DUP2 MSTORE PUSH1 0xB PUSH1 0x20 MSTORE PUSH1 0x40 DUP2 KECCAK256 DUP1 SLOAD DUP5 SWAP3 SWAP1 PUSH2 0xA16 SWAP1 DUP5 SWAP1 PUSH2 0x1E61 JUMP JUMPDEST SWAP1 SWAP2 SSTORE POP POP CALLVALUE DUP2 LT ISZERO PUSH2 0x803 JUMPI PUSH1 0x0 CALLER PUSH2 0x77A DUP4 CALLVALUE PUSH2 0x1E4E JUMP JUMPDEST PUSH1 0xA SLOAD PUSH1 0x0 SWAP1 DUP2 SWAP1 PUSH8 0xFFFFFFFFFFFFFFFF DUP2 GT ISZERO PUSH2 0xA50 JUMPI PUSH2 0xA50 PUSH2 0x1E8B JUMP JUMPDEST PUSH1 0x40 MLOAD SWAP1 DUP1 DUP3 MSTORE DUP1 PUSH1 0x20 MUL PUSH1 0x20 ADD DUP3 ADD PUSH1 0x40 MSTORE DUP1 ISZERO PUSH2 0xA79 JUMPI DUP2 PUSH1 0x20 ADD PUSH1 0x20 DUP3 MUL DUP1 CALLDATASIZE DUP4 CALLDATACOPY ADD SWAP1 POP JUMPDEST POP SWAP1 POP PUSH1 0x0 DUP1 JUMPDEST PUSH1 0xA SLOAD DUP2 LT ISZERO PUSH2 0xB76 JUMPI PUSH1 0x1 PUSH1 0x0 JUMPDEST DUP4 DUP2 LT ISZERO PUSH2 0xAFD JUMPI PUSH1 0xA DUP4 DUP2 SLOAD DUP2 LT PUSH2 0xAAA JUMPI PUSH2 0xAAA PUSH2 0x1EA1 JUMP JUMPDEST PUSH1 0x0 SWAP2 DUP3 MSTORE PUSH1 0x20 SWAP1 SWAP2 KECCAK256 ADD SLOAD DUP6 MLOAD PUSH1 0x1 PUSH1 0x1 PUSH1 0xA0 SHL SUB SWAP1 SWAP2 AND SWAP1 DUP7 SWAP1 DUP4 SWAP1 DUP2 LT PUSH2 0xAD6 JUMPI PUSH2 0xAD6 PUSH2 0x1EA1 JUMP JUMPDEST PUSH1 0x20 MUL PUSH1 0x20 ADD ADD MLOAD PUSH1 0x1 PUSH1 0x1 PUSH1 0xA0 SHL SUB AND SUB PUSH2 0xAF5 JUMPI PUSH1 0x0 SWAP2 POP PUSH2 0xAFD JUMP JUMPDEST PUSH1 0x1 ADD PUSH2 0xA8F JUMP JUMPDEST POP DUP1 ISZERO PUSH2 0xB6D JUMPI PUSH1 0xA DUP3 DUP2 SLOAD DUP2 LT PUSH2 0xB17 JUMPI PUSH2 0xB17 PUSH2 0x1EA1 JUMP JUMPDEST SWAP1 PUSH1 0x0 MSTORE PUSH1 0x20 PUSH1 0x0 KECCAK256 ADD PUSH1 0x0 SWAP1 SLOAD SWAP1 PUSH2 0x100 EXP SWAP1 DIV PUSH1 0x1 PUSH1 0x1 PUSH1 0xA0 SHL SUB AND DUP5 DUP5 DUP2 MLOAD DUP2 LT PUSH2 0xB47 JUMPI PUSH2 0xB47 PUSH2 0x1EA1 JUMP JUMPDEST PUSH1 0x1 PUSH1 0x1 PUSH1 0xA0 SHL SUB SWAP1 SWAP3 AND PUSH1 0x20 SWAP3 DUP4 MUL SWAP2 SWAP1 SWAP2 ADD SWAP1 SWAP2 ADD MSTORE DUP3 PUSH2 0xB69 DUP2 PUSH2 0x1EB7 JUMP JUMPDEST SWAP4 POP POP JUMPDEST POP PUSH1 0x1 ADD PUSH2 0xA80 JUMP JUMPDEST POP SWAP3 SWAP2 POP POP JUMP JUMPDEST PUSH1 0xA DUP2 DUP2 SLOAD DUP2 LT PUSH2 0xB8D JUMPI PUSH1 0x0 DUP1 REVERT JUMPDEST PUSH1 0x0 SWAP2 DUP3 MSTORE PUSH1 0x20 SWAP1 SWAP2 KECCAK256 ADD SLOAD PUSH1 0x1 PUSH1 0x1 PUSH1 0xA0 SHL SUB AND SWAP1 POP DUP2 JUMP JUMPDEST PUSH1 0x0 PUSH1 0x7 SLOAD TIMESTAMP LT ISZERO SWAP1 POP PUSH1 0x0 DUP1 PUSH1 0x8 SLOAD GT DUP1 ISZERO PUSH2 0xBC8 JUMPI POP PUSH1 0x8 SLOAD PUSH1 0xA SLOAD LT ISZERO JUMPDEST PUSH1 0xA SLOAD PUSH1 0xC SLOAD SWAP2 SWAP3 POP ISZERO ISZERO SWAP1 PUSH1 0x1 PUSH1 0x1 PUSH1 0xA0 SHL SUB AND ISZERO PUSH1 0x0 PUSH1 0x1 PUSH1 0x9 SLOAD PUSH1 0x1 PUSH1 0xA0 SHL SWAP1 DIV PUSH1 0xFF AND PUSH1 0x4 DUP2 GT ISZERO PUSH2 0xC00 JUMPI PUSH2 0xC00 PUSH2 0x1BBD JUMP JUMPDEST EQ SWAP1 POP DUP1 DUP1 ISZERO PUSH2 0xC0D JUMPI POP DUP3 JUMPDEST DUP1 ISZERO PUSH2 0xC16 JUMPI POP DUP2 JUMPDEST DUP1 ISZERO PUSH2 0xC26 JUMPI POP DUP5 DUP1 PUSH2 0xC26 JUMPI POP DUP4 JUMPDEST PUSH2 0xC66 JUMPI PUSH1 0x40 MLOAD PUSH3 0x461BCD PUSH1 0xE5 SHL DUP2 MSTORE PUSH1 0x20 PUSH1 0x4 DUP3 ADD MSTORE PUSH1 0x11 PUSH1 0x24 DUP3 ADD MSTORE PUSH17 0x155C1AD9595C081B9BDD081B9959591959 PUSH1 0x7A SHL PUSH1 0x44 DUP3 ADD MSTORE PUSH1 0x64 ADD PUSH2 0x7F8 JUMP JUMPDEST DUP6 ISZERO PUSH2 0xCB7 JUMPI PUSH1 0x0 PUSH2 0xC7A DUP8 DUP10 ADD DUP10 PUSH2 0x1ED0 JUMP JUMPDEST SWAP1 POP PUSH32 0x3A3C33F0BFA6D41CBC15413CA631379B7E1B8FF3D9D47A93271DE84C509B664D TIMESTAMP DUP3 PUSH1 0x40 MLOAD PUSH2 0xCAD SWAP3 SWAP2 SWAP1 PUSH2 0x1F81 JUMP JUMPDEST PUSH1 0x40 MLOAD DUP1 SWAP2 SUB SWAP1 LOG1 POP JUMPDEST PUSH2 0xCBF PUSH2 0x154E JUMP JUMPDEST POP POP POP POP POP POP POP POP JUMP JUMPDEST PUSH1 0x3 DUP1 SLOAD PUSH2 0xCD6 SWAP1 PUSH2 0x1F9A JUMP JUMPDEST DUP1 PUSH1 0x1F ADD PUSH1 0x20 DUP1 SWAP2 DIV MUL PUSH1 0x20 ADD PUSH1 0x40 MLOAD SWAP1 DUP2 ADD PUSH1 0x40 MSTORE DUP1 SWAP3 SWAP2 SWAP1 DUP2 DUP2 MSTORE PUSH1 0x20 ADD DUP3 DUP1 SLOAD PUSH2 0xD02 SWAP1 PUSH2 0x1F9A JUMP JUMPDEST DUP1 ISZERO PUSH2 0xD4F JUMPI DUP1 PUSH1 0x1F LT PUSH2 0xD24 JUMPI PUSH2 0x100 DUP1 DUP4 SLOAD DIV MUL DUP4 MSTORE SWAP2 PUSH1 0x20 ADD SWAP2 PUSH2 0xD4F JUMP JUMPDEST DUP3 ADD SWAP2 SWAP1 PUSH1 0x0 MSTORE PUSH1 0x20 PUSH1 0x0 KECCAK256 SWAP1 JUMPDEST DUP2 SLOAD DUP2 MSTORE SWAP1 PUSH1 0x1 ADD SWAP1 PUSH1 0x20 ADD DUP1 DUP4 GT PUSH2 0xD32 JUMPI DUP3 SWAP1 SUB PUSH1 0x1F AND DUP3 ADD SWAP2 JUMPDEST POP POP POP POP POP DUP2 JUMP JUMPDEST PUSH1 0x60 PUSH1 0xA DUP1 SLOAD DUP1 PUSH1 0x20 MUL PUSH1 0x20 ADD PUSH1 0x40 MLOAD SWAP1 DUP2 ADD PUSH1 0x40 MSTORE DUP1 SWAP3 SWAP2 SWAP1 DUP2 DUP2 MSTORE PUSH1 0x20 ADD DUP3 DUP1 SLOAD DUP1 ISZERO PUSH2 0xDAF JUMPI PUSH1 0x20 MUL DUP3 ADD SWAP2 SWAP1 PUSH1 0x0 MSTORE PUSH1 0x20 PUSH1 0x0 KECCAK256 SWAP1 JUMPDEST DUP2 SLOAD PUSH1 0x1 PUSH1 0x1 PUSH1 0xA0 SHL SUB AND DUP2 MSTORE PUSH1 0x1 SWAP1 SWAP2 ADD SWAP1 PUSH1 0x20 ADD DUP1 DUP4 GT PUSH2 0xD91 JUMPI JUMPDEST POP POP POP POP POP SWAP1 POP SWAP1 JUMP JUMPDEST PUSH1 0x0 PUSH1 0x60 PUSH1 0x0 PUSH1 0x7 SLOAD TIMESTAMP LT ISZERO SWAP1 POP PUSH1 0x0 DUP1 PUSH1 0x8 SLOAD GT DUP1 ISZERO PUSH2 0xDDE JUMPI POP PUSH1 0x8 SLOAD PUSH1 0xA SLOAD LT ISZERO JUMPDEST PUSH1 0xA SLOAD PUSH1 0xC SLOAD SWAP2 SWAP3 POP ISZERO ISZERO SWAP1 PUSH1 0x1 PUSH1 0x1 PUSH1 0xA0 SHL SUB AND ISZERO PUSH1 0x0 PUSH1 0x1 PUSH1 0x9 SLOAD PUSH1 0x1 PUSH1 0xA0 SHL SWAP1 DIV PUSH1 0xFF AND PUSH1 0x4 DUP2 GT ISZERO PUSH2 0xE16 JUMPI PUSH2 0xE16 PUSH2 0x1BBD JUMP JUMPDEST EQ SWAP1 POP DUP1 DUP1 ISZERO PUSH2 0xE23 JUMPI POP DUP3 JUMPDEST DUP1 ISZERO PUSH2 0xE2C JUMPI POP DUP2 JUMPDEST DUP1 ISZERO PUSH2 0xE3C JUMPI POP DUP5 DUP1 PUSH2 0xE3C JUMPI POP DUP4 JUMPDEST SWAP7 POP DUP5 ISZERO PUSH2 0xE8D JUMPI PUSH1 0x40 MLOAD PUSH1 0x20 ADD PUSH2 0xE77 SWAP1 PUSH1 0x20 DUP1 DUP3 MSTORE PUSH1 0xF SWAP1 DUP3 ADD MSTORE PUSH15 0x191958591B1A5B9957DC185CDCD959 PUSH1 0x8A SHL PUSH1 0x40 DUP3 ADD MSTORE PUSH1 0x60 ADD SWAP1 JUMP JUMPDEST PUSH1 0x40 MLOAD PUSH1 0x20 DUP2 DUP4 SUB SUB DUP2 MSTORE SWAP1 PUSH1 0x40 MSTORE SWAP6 POP PUSH2 0xEE7 JUMP JUMPDEST DUP4 ISZERO PUSH2 0xED4 JUMPI PUSH1 0x40 MLOAD PUSH1 0x20 ADD PUSH2 0xE77 SWAP1 PUSH1 0x20 DUP1 DUP3 MSTORE PUSH1 0x18 SWAP1 DUP3 ADD MSTORE PUSH32 0x6D61785F7061727469636970616E74735F726561636865640000000000000000 PUSH1 0x40 DUP3 ADD MSTORE PUSH1 0x60 ADD SWAP1 JUMP JUMPDEST PUSH1 0x40 MLOAD DUP1 PUSH1 0x20 ADD PUSH1 0x40 MSTORE DUP1 PUSH1 0x0 DUP2 MSTORE POP SWAP6 POP JUMPDEST POP POP POP POP POP SWAP3 POP SWAP3 SWAP1 POP JUMP JUMPDEST PUSH1 0x9 SLOAD PUSH1 0x1 PUSH1 0x1 PUSH1 0xA0 SHL SUB AND CALLER EQ PUSH2 0xF1E JUMPI PUSH1 0x40 MLOAD PUSH4 0x93687C0B PUSH1 0xE0 SHL DUP2 MSTORE PUSH1 0x4 ADD PUSH1 0x40 MLOAD DUP1 SWAP2 SUB SWAP1 REVERT JUMPDEST PUSH1 0x7 SLOAD TIMESTAMP LT PUSH2 0xF40 JUMPI PUSH1 0x40 MLOAD PUSH4 0x33762773 PUSH1 0xE1 SHL DUP2 MSTORE PUSH1 0x4 ADD PUSH1 0x40 MLOAD DUP1 SWAP2 SUB SWAP1 REVERT JUMPDEST PUSH1 0x9 DUP1 SLOAD PUSH1 0xFF PUSH1 0xA0 SHL NOT AND PUSH1 0x1 PUSH1 0xA2 SHL OR SWAP1 SSTORE PUSH1 0x0 JUMPDEST PUSH1 0xA SLOAD DUP2 LT ISZERO PUSH2 0x101B JUMPI PUSH1 0x0 PUSH1 0xA DUP3 DUP2 SLOAD DUP2 LT PUSH2 0xF75 JUMPI PUSH2 0xF75 PUSH2 0x1EA1 JUMP JUMPDEST PUSH1 0x0 SWAP2 DUP3 MSTORE PUSH1 0x20 DUP3 KECCAK256 ADD SLOAD PUSH1 0x6 SLOAD PUSH1 0x40 MLOAD PUSH1 0x1 PUSH1 0x1 PUSH1 0xA0 SHL SUB SWAP1 SWAP3 AND SWAP3 SWAP1 SWAP2 SWAP1 DUP2 DUP2 DUP2 DUP6 DUP8 GAS CALL SWAP3 POP POP POP RETURNDATASIZE DUP1 PUSH1 0x0 DUP2 EQ PUSH2 0xFCC JUMPI PUSH1 0x40 MLOAD SWAP2 POP PUSH1 0x1F NOT PUSH1 0x3F RETURNDATASIZE ADD AND DUP3 ADD PUSH1 0x40 MSTORE RETURNDATASIZE DUP3 MSTORE RETURNDATASIZE PUSH1 0x0 PUSH1 0x20 DUP5 ADD RETURNDATACOPY PUSH2 0xFD1 JUMP JUMPDEST PUSH1 0x60 SWAP2 POP JUMPDEST POP POP SWAP1 POP DUP1 PUSH2 0x1012 JUMPI PUSH1 0x40 MLOAD PUSH3 0x461BCD PUSH1 0xE5 SHL DUP2 MSTORE PUSH1 0x20 PUSH1 0x4 DUP3 ADD MSTORE PUSH1 0xD PUSH1 0x24 DUP3 ADD MSTORE PUSH13 0x1499599D5B990819985A5B1959 PUSH1 0x9A SHL PUSH1 0x44 DUP3 ADD MSTORE PUSH1 0x64 ADD PUSH2 0x7F8 JUMP JUMPDEST POP PUSH1 0x1 ADD PUSH2 0xF56 JUMP JUMPDEST POP PUSH1 0x40 MLOAD PUSH32 0x90E8484A98B653B6DEF19811C0E3811715DA0DE9C6B90D013442BA7E75412951 SWAP1 PUSH1 0x0 SWAP1 LOG1 JUMP JUMPDEST PUSH1 0xC SLOAD PUSH1 0x1 PUSH1 0x1 PUSH1 0xA0 SHL SUB AND CALLER EQ PUSH2 0x1072 JUMPI PUSH1 0x40 MLOAD PUSH4 0x30C63921 PUSH1 0xE1 SHL DUP2 MSTORE PUSH1 0x4 ADD PUSH1 0x40 MLOAD DUP1 SWAP2 SUB SWAP1 REVERT JUMPDEST PUSH1 0x3 PUSH1 0x9 SLOAD PUSH1 0x1 PUSH1 0xA0 SHL SWAP1 DIV PUSH1 0xFF AND PUSH1 0x4 DUP2 GT ISZERO PUSH2 0x1092 JUMPI PUSH2 0x1092 PUSH2 0x1BBD JUMP JUMPDEST EQ PUSH2 0x10B0 JUMPI PUSH1 0x40 MLOAD PUSH4 0x7705967 PUSH1 0xE1 SHL DUP2 MSTORE PUSH1 0x4 ADD PUSH1 0x40 MLOAD DUP1 SWAP2 SUB SWAP1 REVERT JUMPDEST PUSH1 0x9 DUP1 SLOAD PUSH1 0xFF PUSH1 0xA0 SHL NOT AND PUSH1 0x3 PUSH1 0xA0 SHL OR SWAP1 SSTORE PUSH1 0xC SLOAD PUSH1 0x40 MLOAD SELFBALANCE SWAP2 PUSH1 0x0 SWAP2 PUSH1 0x1 PUSH1 0x1 PUSH1 0xA0 SHL SUB SWAP1 SWAP2 AND SWAP1 DUP4 SWAP1 DUP4 DUP2 DUP2 DUP2 DUP6 DUP8 GAS CALL SWAP3 POP POP POP RETURNDATASIZE DUP1 PUSH1 0x0 DUP2 EQ PUSH2 0x1114 JUMPI PUSH1 0x40 MLOAD SWAP2 POP PUSH1 0x1F NOT PUSH1 0x3F RETURNDATASIZE ADD AND DUP3 ADD PUSH1 0x40 MSTORE RETURNDATASIZE DUP3 MSTORE RETURNDATASIZE PUSH1 0x0 PUSH1 0x20 DUP5 ADD RETURNDATACOPY PUSH2 0x1119 JUMP JUMPDEST PUSH1 0x60 SWAP2 POP JUMPDEST POP POP SWAP1 POP DUP1 PUSH2 0x115C JUMPI PUSH1 0x40 MLOAD PUSH3 0x461BCD PUSH1 0xE5 SHL DUP2 MSTORE PUSH1 0x20 PUSH1 0x4 DUP3 ADD MSTORE PUSH1 0xF PUSH1 0x24 DUP3 ADD MSTORE PUSH15 0x151C985B9CD9995C8819985A5B1959 PUSH1 0x8A SHL PUSH1 0x44 DUP3 ADD MSTORE PUSH1 0x64 ADD PUSH2 0x7F8 JUMP JUMPDEST PUSH1 0xC SLOAD PUSH1 0x40 MLOAD DUP4 DUP2 MSTORE PUSH1 0x1 PUSH1 0x1 PUSH1 0xA0 SHL SUB SWAP1 SWAP2 AND SWAP1 PUSH32 0x95681E512BC0FE659E195E06C283EADA494316F3D801213E48E7101AF92BF770 SWAP1 PUSH1 0x20 ADD PUSH2 0x854 JUMP JUMPDEST PUSH1 0x4 DUP1 SLOAD PUSH2 0xCD6 SWAP1 PUSH2 0x1F9A JUMP JUMPDEST PUSH1 0x1 SLOAD PUSH1 0x1 PUSH1 0x1 PUSH1 0xA0 SHL SUB AND CALLER EQ PUSH2 0x11FB JUMPI PUSH1 0x40 MLOAD PUSH3 0x461BCD PUSH1 0xE5 SHL DUP2 MSTORE PUSH1 0x20 PUSH1 0x4 DUP3 ADD MSTORE PUSH1 0x16 PUSH1 0x24 DUP3 ADD MSTORE PUSH22 0x26BAB9BA10313290383937B837B9B2B21037BBB732B9 PUSH1 0x51 SHL PUSH1 0x44 DUP3 ADD MSTORE PUSH1 0x64 ADD PUSH2 0x7F8 JUMP JUMPDEST PUSH1 0x0 DUP1 SLOAD CALLER PUSH1 0x1 PUSH1 0x1 PUSH1 0xA0 SHL SUB NOT DUP1 DUP4 AND DUP3 OR DUP5 SSTORE PUSH1 0x1 DUP1 SLOAD SWAP1 SWAP2 AND SWAP1 SSTORE PUSH1 0x40 MLOAD PUSH1 0x1 PUSH1 0x1 PUSH1 0xA0 SHL SUB SWAP1 SWAP3 AND SWAP3 SWAP1 SWAP2 DUP4 SWAP2 PUSH32 0x8BE0079C531659141344CD1FD0A4F28419497F9722A3DAAFE3B4186F6B6457E0 SWAP2 LOG3 POP JUMP JUMPDEST PUSH1 0x60 DUP1 PUSH1 0x60 PUSH1 0x0 DUP1 PUSH1 0x0 DUP1 PUSH1 0x0 DUP1 PUSH1 0x3 PUSH1 0x4 PUSH1 0x5 PUSH1 0x6 SLOAD PUSH1 0x7 SLOAD PUSH1 0x8 SLOAD PUSH1 0xA DUP1 SLOAD SWAP1 POP PUSH1 0x9 PUSH1 0x0 SWAP1 SLOAD SWAP1 PUSH2 0x100 EXP SWAP1 DIV PUSH1 0x1 PUSH1 0x1 PUSH1 0xA0 SHL SUB AND PUSH1 0x9 PUSH1 0x14 SWAP1 SLOAD SWAP1 PUSH2 0x100 EXP SWAP1 DIV PUSH1 0xFF AND DUP9 DUP1 SLOAD PUSH2 0x12A7 SWAP1 PUSH2 0x1F9A JUMP JUMPDEST DUP1 PUSH1 0x1F ADD PUSH1 0x20 DUP1 SWAP2 DIV MUL PUSH1 0x20 ADD PUSH1 0x40 MLOAD SWAP1 DUP2 ADD PUSH1 0x40 MSTORE DUP1 SWAP3 SWAP2 SWAP1 DUP2 DUP2 MSTORE PUSH1 0x20 ADD DUP3 DUP1 SLOAD PUSH2 0x12D3 SWAP1 PUSH2 0x1F9A JUMP JUMPDEST DUP1 ISZERO PUSH2 0x1320 JUMPI DUP1 PUSH1 0x1F LT PUSH2 0x12F5 JUMPI PUSH2 0x100 DUP1 DUP4 SLOAD DIV MUL DUP4 MSTORE SWAP2 PUSH1 0x20 ADD SWAP2 PUSH2 0x1320 JUMP JUMPDEST DUP3 ADD SWAP2 SWAP1 PUSH1 0x0 MSTORE PUSH1 0x20 PUSH1 0x0 KECCAK256 SWAP1 JUMPDEST DUP2 SLOAD DUP2 MSTORE SWAP1 PUSH1 0x1 ADD SWAP1 PUSH1 0x20 ADD DUP1 DUP4 GT PUSH2 0x1303 JUMPI DUP3 SWAP1 SUB PUSH1 0x1F AND DUP3 ADD SWAP2 JUMPDEST POP POP POP POP POP SWAP9 POP DUP8 DUP1 SLOAD PUSH2 0x1333 SWAP1 PUSH2 0x1F9A JUMP JUMPDEST DUP1 PUSH1 0x1F ADD PUSH1 0x20 DUP1 SWAP2 DIV MUL PUSH1 0x20 ADD PUSH1 0x40 MLOAD SWAP1 DUP2 ADD PUSH1 0x40 MSTORE DUP1 SWAP3 SWAP2 SWAP1 DUP2 DUP2 MSTORE PUSH1 0x20 ADD DUP3 DUP1 SLOAD PUSH2 0x135F SWAP1 PUSH2 0x1F9A JUMP JUMPDEST DUP1 ISZERO PUSH2 0x13AC JUMPI DUP1 PUSH1 0x1F LT PUSH2 0x1381 JUMPI PUSH2 0x100 DUP1 DUP4 SLOAD DIV MUL DUP4 MSTORE SWAP2 PUSH1 0x20 ADD SWAP2 PUSH2 0x13AC JUMP JUMPDEST DUP3 ADD SWAP2 SWAP1 PUSH1 0x0 MSTORE PUSH1 0x20 PUSH1 0x0 KECCAK256 SWAP1 JUMPDEST DUP2 SLOAD DUP2 MSTORE SWAP1 PUSH1 0x1 ADD SWAP1 PUSH1 0x20 ADD DUP1 DUP4 GT PUSH2 0x138F JUMPI DUP3 SWAP1 SUB PUSH1 0x1F AND DUP3 ADD SWAP2 JUMPDEST POP POP POP POP POP SWAP8 POP DUP7 DUP1 SLOAD PUSH2 0x13BF SWAP1 PUSH2 0x1F9A JUMP JUMPDEST DUP1 PUSH1 0x1F ADD PUSH1 0x20 DUP1 SWAP2 DIV MUL PUSH1 0x20 ADD PUSH1 0x40 MLOAD SWAP1 DUP2 ADD PUSH1 0x40 MSTORE DUP1 SWAP3 SWAP2 SWAP1 DUP2 DUP2 MSTORE PUSH1 0x20 ADD DUP3 DUP1 SLOAD PUSH2 0x13EB SWAP1 PUSH2 0x1F9A JUMP JUMPDEST DUP1 ISZERO PUSH2 0x1438 JUMPI DUP1 PUSH1 0x1F LT PUSH2 0x140D JUMPI PUSH2 0x100 DUP1 DUP4 SLOAD DIV MUL DUP4 MSTORE SWAP2 PUSH1 0x20 ADD SWAP2 PUSH2 0x1438 JUMP JUMPDEST DUP3 ADD SWAP2 SWAP1 PUSH1 0x0 MSTORE PUSH1 0x20 PUSH1 0x0 KECCAK256 SWAP1 JUMPDEST DUP2 SLOAD DUP2 MSTORE SWAP1 PUSH1 0x1 ADD SWAP1 PUSH1 0x20 ADD DUP1 DUP4 GT PUSH2 0x141B JUMPI DUP3 SWAP1 SUB PUSH1 0x1F AND DUP3 ADD SWAP2 JUMPDEST POP POP POP POP POP SWAP7 POP SWAP9 POP SWAP9 POP SWAP9 POP SWAP9 POP SWAP9 POP SWAP9 POP SWAP9 POP SWAP9 POP SWAP9 POP SWAP1 SWAP2 SWAP3 SWAP4 SWAP5 SWAP6 SWAP7 SWAP8 SWAP9 JUMP JUMPDEST PUSH1 0x0 SLOAD PUSH1 0x1 PUSH1 0x1 PUSH1 0xA0 SHL SUB AND CALLER EQ DUP1 ISZERO SWAP1 PUSH2 0x1482 JUMPI POP PUSH1 0x2 SLOAD PUSH1 0x1 PUSH1 0x1 PUSH1 0xA0 SHL SUB AND CALLER EQ ISZERO JUMPDEST ISZERO PUSH2 0x14D3 JUMPI CALLER PUSH2 0x149A PUSH1 0x0 SLOAD PUSH1 0x1 PUSH1 0x1 PUSH1 0xA0 SHL SUB AND SWAP1 JUMP JUMPDEST PUSH1 0x2 SLOAD PUSH1 0x40 MLOAD PUSH4 0x61DB9C1 PUSH1 0xE0 SHL DUP2 MSTORE PUSH1 0x1 PUSH1 0x1 PUSH1 0xA0 SHL SUB SWAP4 DUP5 AND PUSH1 0x4 DUP3 ADD MSTORE SWAP2 DUP4 AND PUSH1 0x24 DUP4 ADD MSTORE SWAP2 SWAP1 SWAP2 AND PUSH1 0x44 DUP3 ADD MSTORE PUSH1 0x64 ADD PUSH2 0x7F8 JUMP JUMPDEST PUSH1 0x1 PUSH1 0x1 PUSH1 0xA0 SHL SUB DUP2 AND PUSH2 0x14FA JUMPI PUSH1 0x40 MLOAD PUSH4 0xD92E233D PUSH1 0xE0 SHL DUP2 MSTORE PUSH1 0x4 ADD PUSH1 0x40 MLOAD DUP1 SWAP2 SUB SWAP1 REVERT JUMPDEST PUSH1 0x2 DUP1 SLOAD PUSH1 0x1 PUSH1 0x1 PUSH1 0xA0 SHL SUB NOT AND PUSH1 0x1 PUSH1 0x1 PUSH1 0xA0 SHL SUB DUP4 AND SWAP1 DUP2 OR SWAP1 SWAP2 SSTORE PUSH1 0x40 MLOAD SWAP1 DUP2 MSTORE PUSH32 0xD1A6A14209A385A964D036E404CB5CFB71F4000CDB03C9366292430787261BE6 SWAP1 PUSH1 0x20 ADD PUSH1 0x40 MLOAD DUP1 SWAP2 SUB SWAP1 LOG1 POP JUMP JUMPDEST PUSH1 0x0 PUSH1 0x7 SLOAD TIMESTAMP LT DUP1 ISZERO PUSH2 0x156E JUMPI POP PUSH1 0x8 SLOAD ISZERO DUP1 PUSH2 0x156E JUMPI POP PUSH1 0x8 SLOAD PUSH1 0xA SLOAD LT JUMPDEST ISZERO PUSH2 0x158C JUMPI PUSH1 0x40 MLOAD PUSH4 0x33762773 PUSH1 0xE1 SHL DUP2 MSTORE PUSH1 0x4 ADD PUSH1 0x40 MLOAD DUP1 SWAP2 SUB SWAP1 REVERT JUMPDEST PUSH1 0xA SLOAD PUSH1 0x0 SUB PUSH2 0x15AF JUMPI PUSH1 0x40 MLOAD PUSH4 0x8B6A473 PUSH1 0xE4 SHL DUP2 MSTORE PUSH1 0x4 ADD PUSH1 0x40 MLOAD DUP1 SWAP2 SUB SWAP1 REVERT JUMPDEST PUSH1 0xC SLOAD PUSH1 0x1 PUSH1 0x1 PUSH1 0xA0 SHL SUB AND ISZERO PUSH2 0x15D9 JUMPI PUSH1 0x40 MLOAD PUSH4 0x7705967 PUSH1 0xE1 SHL DUP2 MSTORE PUSH1 0x4 ADD PUSH1 0x40 MLOAD DUP1 SWAP2 SUB SWAP1 REVERT JUMPDEST PUSH1 0x9 DUP1 SLOAD PUSH1 0xFF PUSH1 0xA0 SHL NOT AND PUSH1 0x1 PUSH1 0xA1 SHL OR SWAP1 SSTORE PUSH1 0x40 DUP1 MLOAD PUSH1 0xC0 DUP2 ADD DUP3 MSTORE PUSH32 0x0 DUP2 MSTORE PUSH32 0x0 PUSH1 0x20 DUP1 DUP4 ADD SWAP2 SWAP1 SWAP2 MSTORE PUSH1 0x3 DUP3 DUP5 ADD MSTORE PUSH3 0x186A0 PUSH1 0x60 DUP4 ADD MSTORE PUSH1 0x1 PUSH1 0x80 DUP4 ADD MSTORE DUP3 MLOAD SWAP1 DUP2 ADD SWAP1 SWAP3 MSTORE PUSH1 0x0 DUP3 MSTORE PUSH32 0x0 PUSH1 0x1 PUSH1 0x1 PUSH1 0xA0 SHL SUB AND SWAP2 PUSH4 0x9B1C385E SWAP2 SWAP1 PUSH1 0xA0 DUP3 ADD SWAP1 PUSH2 0x16A5 SWAP1 PUSH2 0x19CF JUMP JUMPDEST DUP2 MSTORE POP PUSH1 0x40 MLOAD DUP3 PUSH4 0xFFFFFFFF AND PUSH1 0xE0 SHL DUP2 MSTORE PUSH1 0x4 ADD PUSH2 0x16C4 SWAP2 SWAP1 PUSH2 0x1FD4 JUMP JUMPDEST PUSH1 0x20 PUSH1 0x40 MLOAD DUP1 DUP4 SUB DUP2 PUSH1 0x0 DUP8 GAS CALL ISZERO DUP1 ISZERO PUSH2 0x16E3 JUMPI RETURNDATASIZE PUSH1 0x0 DUP1 RETURNDATACOPY RETURNDATASIZE PUSH1 0x0 REVERT JUMPDEST POP POP POP POP PUSH1 0x40 MLOAD RETURNDATASIZE PUSH1 0x1F NOT PUSH1 0x1F DUP3 ADD AND DUP3 ADD DUP1 PUSH1 0x40 MSTORE POP DUP2 ADD SWAP1 PUSH2 0x1707 SWAP2 SWAP1 PUSH2 0x2031 JUMP JUMPDEST PUSH1 0xF DUP2 SWAP1 SSTORE SWAP2 SWAP1 POP JUMP JUMPDEST PUSH1 0x0 PUSH1 0x60 PUSH1 0x0 PUSH1 0x7 SLOAD TIMESTAMP LT ISZERO SWAP1 POP PUSH1 0x0 DUP1 PUSH1 0x8 SLOAD GT DUP1 ISZERO PUSH2 0x1736 JUMPI POP PUSH1 0x8 SLOAD PUSH1 0xA SLOAD LT ISZERO JUMPDEST PUSH1 0xA SLOAD PUSH1 0xC SLOAD SWAP2 SWAP3 POP ISZERO ISZERO SWAP1 PUSH1 0x1 PUSH1 0x1 PUSH1 0xA0 SHL SUB AND ISZERO PUSH1 0x0 PUSH1 0x1 PUSH1 0x9 SLOAD PUSH1 0x1 PUSH1 0xA0 SHL SWAP1 DIV PUSH1 0xFF AND PUSH1 0x4 DUP2 GT ISZERO PUSH2 0x176E JUMPI PUSH2 0x176E PUSH2 0x1BBD JUMP JUMPDEST EQ SWAP1 POP DUP1 PUSH2 0x17AF JUMPI PUSH1 0x0 PUSH1 0x40 MLOAD DUP1 PUSH1 0x40 ADD PUSH1 0x40 MSTORE DUP1 PUSH1 0x11 DUP2 MSTORE PUSH1 0x20 ADD PUSH17 0x526166666C65206E6F7420616374697665 PUSH1 0x78 SHL DUP2 MSTORE POP SWAP7 POP SWAP7 POP POP POP POP POP POP SWAP1 SWAP2 JUMP JUMPDEST DUP3 PUSH2 0x17EB JUMPI PUSH1 0x0 PUSH1 0x40 MLOAD DUP1 PUSH1 0x40 ADD PUSH1 0x40 MSTORE DUP1 PUSH1 0xF DUP2 MSTORE PUSH1 0x20 ADD PUSH15 0x4E6F207061727469636970616E7473 PUSH1 0x88 SHL DUP2 MSTORE POP SWAP7 POP SWAP7 POP POP POP POP POP POP SWAP1 SWAP2 JUMP JUMPDEST DUP2 PUSH2 0x182C JUMPI PUSH1 0x0 PUSH1 0x40 MLOAD DUP1 PUSH1 0x40 ADD PUSH1 0x40 MSTORE DUP1 PUSH1 0x14 DUP2 MSTORE PUSH1 0x20 ADD PUSH20 0x2BB4B73732B91030B63932B0B23C90323930BBB7 PUSH1 0x61 SHL DUP2 MSTORE POP SWAP7 POP SWAP7 POP POP POP POP POP POP SWAP1 SWAP2 JUMP JUMPDEST DUP5 ISZERO PUSH2 0x1869 JUMPI PUSH1 0x1 PUSH1 0x40 MLOAD DUP1 PUSH1 0x40 ADD PUSH1 0x40 MSTORE DUP1 PUSH1 0xF DUP2 MSTORE PUSH1 0x20 ADD PUSH15 0x111958591B1A5B99481C185CDCD959 PUSH1 0x8A SHL DUP2 MSTORE POP SWAP7 POP SWAP7 POP POP POP POP POP POP SWAP1 SWAP2 JUMP JUMPDEST DUP4 ISZERO PUSH2 0x18B4 JUMPI PUSH1 0x1 PUSH1 0x40 MLOAD DUP1 PUSH1 0x40 ADD PUSH1 0x40 MSTORE DUP1 PUSH1 0x18 DUP2 MSTORE PUSH1 0x20 ADD PUSH32 0x4D6178207061727469636970616E747320726561636865640000000000000000 DUP2 MSTORE POP SWAP7 POP SWAP7 POP POP POP POP POP POP SWAP1 SWAP2 JUMP JUMPDEST PUSH1 0x0 PUSH1 0x40 MLOAD DUP1 PUSH1 0x60 ADD PUSH1 0x40 MSTORE DUP1 PUSH1 0x28 DUP2 MSTORE PUSH1 0x20 ADD PUSH2 0x205F PUSH1 0x28 SWAP2 CODECOPY SWAP7 POP SWAP7 POP POP POP POP POP POP SWAP1 SWAP2 JUMP JUMPDEST PUSH1 0x5 DUP1 SLOAD PUSH2 0xCD6 SWAP1 PUSH2 0x1F9A JUMP JUMPDEST PUSH2 0x18F1 PUSH2 0x1A40 JUMP JUMPDEST PUSH2 0x18FA DUP2 PUSH2 0x1A95 JUMP JUMPDEST POP JUMP JUMPDEST DUP2 DUP2 PUSH1 0x0 DUP2 DUP2 LT PUSH2 0x1910 JUMPI PUSH2 0x1910 PUSH2 0x1EA1 JUMP JUMPDEST PUSH1 0x20 MUL SWAP2 SWAP1 SWAP2 ADD CALLDATALOAD PUSH1 0xE DUP2 SWAP1 SSTORE PUSH1 0xA SLOAD PUSH2 0x192B SWAP3 POP SWAP1 PUSH2 0x204A JUMP JUMPDEST PUSH1 0xD DUP2 SWAP1 SSTORE POP PUSH1 0xA PUSH1 0xD SLOAD DUP2 SLOAD DUP2 LT PUSH2 0x1946 JUMPI PUSH2 0x1946 PUSH2 0x1EA1 JUMP JUMPDEST PUSH1 0x0 SWAP2 DUP3 MSTORE PUSH1 0x20 SWAP2 DUP3 SWAP1 KECCAK256 ADD SLOAD PUSH1 0xC DUP1 SLOAD PUSH1 0x1 PUSH1 0x1 PUSH1 0xA0 SHL SUB NOT AND PUSH1 0x1 PUSH1 0x1 PUSH1 0xA0 SHL SUB SWAP1 SWAP3 AND SWAP2 DUP3 OR SWAP1 SSTORE PUSH1 0x9 DUP1 SLOAD PUSH1 0xFF PUSH1 0xA0 SHL NOT AND PUSH1 0x3 PUSH1 0xA0 SHL OR SWAP1 SSTORE PUSH1 0xD SLOAD PUSH1 0xE SLOAD PUSH1 0x40 DUP1 MLOAD SWAP3 DUP4 MSTORE SWAP4 DUP3 ADD MSTORE DUP1 DUP4 ADD DUP7 SWAP1 MSTORE SWAP2 MLOAD SWAP1 SWAP2 PUSH32 0xF52FAC7E26724C6E0808DA8161AF0A1263330646F3989BB031CC71FBAA7BF521 SWAP2 SWAP1 DUP2 SWAP1 SUB PUSH1 0x60 ADD SWAP1 LOG2 POP POP POP JUMP JUMPDEST PUSH1 0x60 PUSH32 0x92FD13387C7FE7BEFBC38D303D6468778FB9731BC4583F17D92989C6FCFDEAAA DUP3 PUSH1 0x40 MLOAD PUSH1 0x24 ADD PUSH2 0x1A08 SWAP2 MLOAD ISZERO ISZERO DUP2 MSTORE PUSH1 0x20 ADD SWAP1 JUMP JUMPDEST PUSH1 0x40 DUP1 MLOAD PUSH1 0x1F NOT DUP2 DUP5 SUB ADD DUP2 MSTORE SWAP2 SWAP1 MSTORE PUSH1 0x20 DUP2 ADD DUP1 MLOAD PUSH1 0x1 PUSH1 0x1 PUSH1 0xE0 SHL SUB AND PUSH1 0x1 PUSH1 0x1 PUSH1 0xE0 SHL SUB NOT SWAP1 SWAP4 AND SWAP3 SWAP1 SWAP3 OR SWAP1 SWAP2 MSTORE SWAP3 SWAP2 POP POP JUMP JUMPDEST PUSH1 0x0 SLOAD PUSH1 0x1 PUSH1 0x1 PUSH1 0xA0 SHL SUB AND CALLER EQ PUSH2 0x1A93 JUMPI PUSH1 0x40 MLOAD PUSH3 0x461BCD PUSH1 0xE5 SHL DUP2 MSTORE PUSH1 0x20 PUSH1 0x4 DUP3 ADD MSTORE PUSH1 0x16 PUSH1 0x24 DUP3 ADD MSTORE PUSH22 0x27B7363C9031B0B63630B1363290313C9037BBB732B9 PUSH1 0x51 SHL PUSH1 0x44 DUP3 ADD MSTORE PUSH1 0x64 ADD PUSH2 0x7F8 JUMP JUMPDEST JUMP JUMPDEST CALLER PUSH1 0x1 PUSH1 0x1 PUSH1 0xA0 SHL SUB DUP3 AND SUB PUSH2 0x1AED JUMPI PUSH1 0x40 MLOAD PUSH3 0x461BCD PUSH1 0xE5 SHL DUP2 MSTORE PUSH1 0x20 PUSH1 0x4 DUP3 ADD MSTORE PUSH1 0x17 PUSH1 0x24 DUP3 ADD MSTORE PUSH32 0x43616E6E6F74207472616E7366657220746F2073656C66000000000000000000 PUSH1 0x44 DUP3 ADD MSTORE PUSH1 0x64 ADD PUSH2 0x7F8 JUMP JUMPDEST PUSH1 0x1 DUP1 SLOAD PUSH1 0x1 PUSH1 0x1 PUSH1 0xA0 SHL SUB NOT AND PUSH1 0x1 PUSH1 0x1 PUSH1 0xA0 SHL SUB DUP4 DUP2 AND SWAP2 DUP3 OR SWAP1 SWAP3 SSTORE PUSH1 0x0 DUP1 SLOAD PUSH1 0x40 MLOAD SWAP3 SWAP4 AND SWAP2 PUSH32 0xED8889F560326EB138920D842192F0EB3DD22B4F139C87A2C57538E05BAE1278 SWAP2 SWAP1 LOG3 POP JUMP JUMPDEST PUSH1 0x0 DUP1 PUSH1 0x0 PUSH1 0x40 DUP5 DUP7 SUB SLT ISZERO PUSH2 0x1B53 JUMPI PUSH1 0x0 DUP1 REVERT JUMPDEST DUP4 CALLDATALOAD SWAP3 POP PUSH1 0x20 DUP5 ADD CALLDATALOAD PUSH8 0xFFFFFFFFFFFFFFFF DUP1 DUP3 GT ISZERO PUSH2 0x1B72 JUMPI PUSH1 0x0 DUP1 REVERT JUMPDEST DUP2 DUP7 ADD SWAP2 POP DUP7 PUSH1 0x1F DUP4 ADD SLT PUSH2 0x1B86 JUMPI PUSH1 0x0 DUP1 REVERT JUMPDEST DUP2 CALLDATALOAD DUP2 DUP2 GT ISZERO PUSH2 0x1B95 JUMPI PUSH1 0x0 DUP1 REVERT JUMPDEST DUP8 PUSH1 0x20 DUP3 PUSH1 0x5 SHL DUP6 ADD ADD GT ISZERO PUSH2 0x1BAA JUMPI PUSH1 0x0 DUP1 REVERT JUMPDEST PUSH1 0x20 DUP4 ADD SWAP5 POP DUP1 SWAP4 POP POP POP POP SWAP3 POP SWAP3 POP SWAP3 JUMP JUMPDEST PUSH4 0x4E487B71 PUSH1 0xE0 SHL PUSH1 0x0 MSTORE PUSH1 0x21 PUSH1 0x4 MSTORE PUSH1 0x24 PUSH1 0x0 REVERT JUMPDEST PUSH1 0x5 DUP2 LT PUSH2 0x1BF1 JUMPI PUSH4 0x4E487B71 PUSH1 0xE0 SHL PUSH1 0x0 MSTORE PUSH1 0x21 PUSH1 0x4 MSTORE PUSH1 0x24 PUSH1 0x0 REVERT JUMPDEST SWAP1 MSTORE JUMP JUMPDEST PUSH1 0x20 DUP2 ADD PUSH2 0x1C03 DUP3 DUP5 PUSH2 0x1BD3 JUMP JUMPDEST SWAP3 SWAP2 POP POP JUMP JUMPDEST PUSH1 0x0 PUSH1 0x20 DUP3 DUP5 SUB SLT ISZERO PUSH2 0x1C1B JUMPI PUSH1 0x0 DUP1 REVERT JUMPDEST POP CALLDATALOAD SWAP2 SWAP1 POP JUMP JUMPDEST PUSH1 0x0 DUP1 PUSH1 0x20 DUP4 DUP6 SUB SLT ISZERO PUSH2 0x1C35 JUMPI PUSH1 0x0 DUP1 REVERT JUMPDEST DUP3 CALLDATALOAD PUSH8 0xFFFFFFFFFFFFFFFF DUP1 DUP3 GT ISZERO PUSH2 0x1C4D JUMPI PUSH1 0x0 DUP1 REVERT JUMPDEST DUP2 DUP6 ADD SWAP2 POP DUP6 PUSH1 0x1F DUP4 ADD SLT PUSH2 0x1C61 JUMPI PUSH1 0x0 DUP1 REVERT JUMPDEST DUP2 CALLDATALOAD DUP2 DUP2 GT ISZERO PUSH2 0x1C70 JUMPI PUSH1 0x0 DUP1 REVERT JUMPDEST DUP7 PUSH1 0x20 DUP3 DUP6 ADD ADD GT ISZERO PUSH2 0x1C82 JUMPI PUSH1 0x0 DUP1 REVERT JUMPDEST PUSH1 0x20 SWAP3 SWAP1 SWAP3 ADD SWAP7 SWAP2 SWAP6 POP SWAP1 SWAP4 POP POP POP POP JUMP JUMPDEST PUSH1 0x0 DUP2 MLOAD DUP1 DUP5 MSTORE PUSH1 0x0 JUMPDEST DUP2 DUP2 LT ISZERO PUSH2 0x1CBA JUMPI PUSH1 0x20 DUP2 DUP6 ADD DUP2 ADD MLOAD DUP7 DUP4 ADD DUP3 ADD MSTORE ADD PUSH2 0x1C9E JUMP JUMPDEST POP PUSH1 0x0 PUSH1 0x20 DUP3 DUP7 ADD ADD MSTORE PUSH1 0x20 PUSH1 0x1F NOT PUSH1 0x1F DUP4 ADD AND DUP6 ADD ADD SWAP2 POP POP SWAP3 SWAP2 POP POP JUMP JUMPDEST PUSH1 0x20 DUP2 MSTORE PUSH1 0x0 PUSH2 0x1CED PUSH1 0x20 DUP4 ADD DUP5 PUSH2 0x1C94 JUMP JUMPDEST SWAP4 SWAP3 POP POP POP JUMP JUMPDEST PUSH1 0x20 DUP1 DUP3 MSTORE DUP3 MLOAD DUP3 DUP3 ADD DUP2 SWAP1 MSTORE PUSH1 0x0 SWAP2 SWAP1 DUP5 DUP3 ADD SWAP1 PUSH1 0x40 DUP6 ADD SWAP1 DUP5 JUMPDEST DUP2 DUP2 LT ISZERO PUSH2 0x1D35 JUMPI DUP4 MLOAD PUSH1 0x1 PUSH1 0x1 PUSH1 0xA0 SHL SUB AND DUP4 MSTORE SWAP3 DUP5 ADD SWAP3 SWAP2 DUP5 ADD SWAP2 PUSH1 0x1 ADD PUSH2 0x1D10 JUMP JUMPDEST POP SWAP1 SWAP7 SWAP6 POP POP POP POP POP POP JUMP JUMPDEST DUP3 ISZERO ISZERO DUP2 MSTORE PUSH1 0x40 PUSH1 0x20 DUP3 ADD MSTORE PUSH1 0x0 PUSH2 0x1D5C PUSH1 0x40 DUP4 ADD DUP5 PUSH2 0x1C94 JUMP JUMPDEST SWAP5 SWAP4 POP POP POP POP JUMP JUMPDEST PUSH1 0x0 PUSH1 0x20 DUP3 DUP5 SUB SLT ISZERO PUSH2 0x1D76 JUMPI PUSH1 0x0 DUP1 REVERT JUMPDEST DUP2 CALLDATALOAD PUSH1 0x1 PUSH1 0x1 PUSH1 0xA0 SHL SUB DUP2 AND DUP2 EQ PUSH2 0x1CED JUMPI PUSH1 0x0 DUP1 REVERT JUMPDEST PUSH1 0x0 PUSH2 0x120 DUP1 DUP4 MSTORE PUSH2 0x1DA1 DUP2 DUP5 ADD DUP14 PUSH2 0x1C94 JUMP JUMPDEST SWAP1 POP DUP3 DUP2 SUB PUSH1 0x20 DUP5 ADD MSTORE PUSH2 0x1DB5 DUP2 DUP13 PUSH2 0x1C94 JUMP JUMPDEST SWAP1 POP DUP3 DUP2 SUB PUSH1 0x40 DUP5 ADD MSTORE PUSH2 0x1DC9 DUP2 DUP12 PUSH2 0x1C94 JUMP JUMPDEST SWAP2 POP POP DUP8 PUSH1 0x60 DUP4 ADD MSTORE DUP7 PUSH1 0x80 DUP4 ADD MSTORE DUP6 PUSH1 0xA0 DUP4 ADD MSTORE DUP5 PUSH1 0xC0 DUP4 ADD MSTORE PUSH1 0x1 DUP1 PUSH1 0xA0 SHL SUB DUP5 AND PUSH1 0xE0 DUP4 ADD MSTORE PUSH2 0x1E00 PUSH2 0x100 DUP4 ADD DUP5 PUSH2 0x1BD3 JUMP JUMPDEST SWAP11 SWAP10 POP POP POP POP POP POP POP POP POP POP JUMP JUMPDEST PUSH4 0x4E487B71 PUSH1 0xE0 SHL PUSH1 0x0 MSTORE PUSH1 0x12 PUSH1 0x4 MSTORE PUSH1 0x24 PUSH1 0x0 REVERT JUMPDEST PUSH4 0x4E487B71 PUSH1 0xE0 SHL PUSH1 0x0 MSTORE PUSH1 0x11 PUSH1 0x4 MSTORE PUSH1 0x24 PUSH1 0x0 REVERT JUMPDEST PUSH1 0x0 DUP3 PUSH2 0x1E49 JUMPI PUSH2 0x1E49 PUSH2 0x1E0E JUMP JUMPDEST POP DIV SWAP1 JUMP JUMPDEST DUP2 DUP2 SUB DUP2 DUP2 GT ISZERO PUSH2 0x1C03 JUMPI PUSH2 0x1C03 PUSH2 0x1E24 JUMP JUMPDEST DUP1 DUP3 ADD DUP1 DUP3 GT ISZERO PUSH2 0x1C03 JUMPI PUSH2 0x1C03 PUSH2 0x1E24 JUMP JUMPDEST DUP1 DUP3 MUL DUP2 ISZERO DUP3 DUP3 DIV DUP5 EQ OR PUSH2 0x1C03 JUMPI PUSH2 0x1C03 PUSH2 0x1E24 JUMP JUMPDEST PUSH4 0x4E487B71 PUSH1 0xE0 SHL PUSH1 0x0 MSTORE PUSH1 0x41 PUSH1 0x4 MSTORE PUSH1 0x24 PUSH1 0x0 REVERT JUMPDEST PUSH4 0x4E487B71 PUSH1 0xE0 SHL PUSH1 0x0 MSTORE PUSH1 0x32 PUSH1 0x4 MSTORE PUSH1 0x24 PUSH1 0x0 REVERT JUMPDEST PUSH1 0x0 PUSH1 0x1 DUP3 ADD PUSH2 0x1EC9 JUMPI PUSH2 0x1EC9 PUSH2 0x1E24 JUMP JUMPDEST POP PUSH1 0x1 ADD SWAP1 JUMP JUMPDEST PUSH1 0x0 PUSH1 0x20 DUP3 DUP5 SUB SLT ISZERO PUSH2 0x1EE2 JUMPI PUSH1 0x0 DUP1 REVERT JUMPDEST DUP2 CALLDATALOAD PUSH8 0xFFFFFFFFFFFFFFFF DUP1 DUP3 GT ISZERO PUSH2 0x1EFA JUMPI PUSH1 0x0 DUP1 REVERT JUMPDEST DUP2 DUP5 ADD SWAP2 POP DUP5 PUSH1 0x1F DUP4 ADD SLT PUSH2 0x1F0E JUMPI PUSH1 0x0 DUP1 REVERT JUMPDEST DUP2 CALLDATALOAD DUP2 DUP2 GT ISZERO PUSH2 0x1F20 JUMPI PUSH2 0x1F20 PUSH2 0x1E8B JUMP JUMPDEST PUSH1 0x40 MLOAD PUSH1 0x1F DUP3 ADD PUSH1 0x1F NOT SWAP1 DUP2 AND PUSH1 0x3F ADD AND DUP2 ADD SWAP1 DUP4 DUP3 GT DUP2 DUP4 LT OR ISZERO PUSH2 0x1F48 JUMPI PUSH2 0x1F48 PUSH2 0x1E8B JUMP JUMPDEST DUP2 PUSH1 0x40 MSTORE DUP3 DUP2 MSTORE DUP8 PUSH1 0x20 DUP5 DUP8 ADD ADD GT ISZERO PUSH2 0x1F61 JUMPI PUSH1 0x0 DUP1 REVERT JUMPDEST DUP3 PUSH1 0x20 DUP7 ADD PUSH1 0x20 DUP4 ADD CALLDATACOPY PUSH1 0x0 SWAP3 DUP2 ADD PUSH1 0x20 ADD SWAP3 SWAP1 SWAP3 MSTORE POP SWAP6 SWAP5 POP POP POP POP POP JUMP JUMPDEST DUP3 DUP2 MSTORE PUSH1 0x40 PUSH1 0x20 DUP3 ADD MSTORE PUSH1 0x0 PUSH2 0x1D5C PUSH1 0x40 DUP4 ADD DUP5 PUSH2 0x1C94 JUMP JUMPDEST PUSH1 0x1 DUP2 DUP2 SHR SWAP1 DUP3 AND DUP1 PUSH2 0x1FAE JUMPI PUSH1 0x7F DUP3 AND SWAP2 POP JUMPDEST PUSH1 0x20 DUP3 LT DUP2 SUB PUSH2 0x1FCE JUMPI PUSH4 0x4E487B71 PUSH1 0xE0 SHL PUSH1 0x0 MSTORE PUSH1 0x22 PUSH1 0x4 MSTORE PUSH1 0x24 PUSH1 0x0 REVERT JUMPDEST POP SWAP2 SWAP1 POP JUMP JUMPDEST PUSH1 0x20 DUP2 MSTORE DUP2 MLOAD PUSH1 0x20 DUP3 ADD MSTORE PUSH1 0x20 DUP3 ADD MLOAD PUSH1 0x40 DUP3 ADD MSTORE PUSH2 0xFFFF PUSH1 0x40 DUP4 ADD MLOAD AND PUSH1 0x60 DUP3 ADD MSTORE PUSH1 0x0 PUSH1 0x60 DUP4 ADD MLOAD PUSH4 0xFFFFFFFF DUP1 DUP3 AND PUSH1 0x80 DUP6 ADD MSTORE DUP1 PUSH1 0x80 DUP7 ADD MLOAD AND PUSH1 0xA0 DUP6 ADD MSTORE POP POP PUSH1 0xA0 DUP4 ADD MLOAD PUSH1 0xC0 DUP1 DUP5 ADD MSTORE PUSH2 0x1D5C PUSH1 0xE0 DUP5 ADD DUP3 PUSH2 0x1C94 JUMP JUMPDEST PUSH1 0x0 PUSH1 0x20 DUP3 DUP5 SUB SLT ISZERO PUSH2 0x2043 JUMPI PUSH1 0x0 DUP1 REVERT JUMPDEST POP MLOAD SWAP2 SWAP1 POP JUMP JUMPDEST PUSH1 0x0 DUP3 PUSH2 0x2059 JUMPI PUSH2 0x2059 PUSH2 0x1E0E JUMP JUMPDEST POP MOD SWAP1 JUMP INVALID JUMPI PUSH2 0x6974 PUSH10 0x6E6720666F7220646561 PUSH5 0x6C696E6520 PUSH16 0x72206D6178207061727469636970616E PUSH21 0x73A2646970667358221220BDD340A828F452F747E0 0xAA STOP COINBASE CODESIZE REVERT DUP14 PUSH10 0x66A42D3381F5191A0760 0xC4 0xE9 SWAP3 0xBB 0xE0 PUSH5 0x736F6C6343 STOP ADDMOD XOR STOP CALLER "},"methodIdentifiers":{"acceptOwnership()":"79ba5097","buyTickets(uint256)":"2f366637","cancelRaffle()":"70533250","checkUpkeep(bytes)":"6e04ff0d","claimPrize()":"70740ac9","creator()":"02d05d3f","deadline()":"29dcb0cf","description()":"7284e416","drawWinner()":"b2185bb1","entryFee()":"072ea61c","getParticipantCount()":"ad605729","getParticipants()":"5aa68ac0","getPrizePool()":"884bf67c","getRaffleInfo()":"8166f6b2","getTicketCount(address)":"cff82e22","getUniqueParticipantCount()":"33b88b8e","joinRaffle()":"136b3392","maxParticipants()":"24924bf7","owner()":"8da5cb5b","participants(uint256)":"35c1d349","performUpkeep(bytes)":"4585e33b","prizeDescription()":"efeed224","randomResult()":"42619f66","rawFulfillRandomWords(uint256,uint256[])":"1fe543e3","s_vrfCoordinator()":"9eccacf6","setCoordinator(address)":"8ea98117","shouldAutoDraw()":"e8880e94","status()":"200d2ed2","ticketCount(address)":"70ca5bbe","title()":"4a79d50c","transferOwnership(address)":"f2fde38b","vrfRequestId()":"18a7ea5f","winner()":"dfbf53ae","winnerIndex()":"8f00cbfa"}}}}}