{"contracts/Raffle.sol":{"Raffle":{"abi":[{"inputs":[{"internalType":"string","name":"_title","type":"string"},{"internalType":"string","name":"_description","type":"string"},{"internalType":"string","name":"_prizeDescription","type":"string"},{"internalType":"uint256","name":"_entryFee","type":"uint256"},{"internalType":"uint256","name":"_deadline","type":"uint256"},{"internalType":"uint256","name":"_maxParticipants","type":"uint256"},{"internalType":"address","name":"_creator","type":"address"},{"internalType":"address","name":"_factory","type":"address"},{"internalType":"uint256","name":"_creatorCommissionBps","type":"uint256"}],"stateMutability":"nonpayable","type":"constructor"},{"inputs":[],"name":"DeadlineMustBeInFuture","type":"error"},{"inputs":[],"name":"DeadlineNotReached","type":"error"},{"inputs":[],"name":"DeadlineTooFar","type":"error"},{"inputs":[],"name":"EntryFeeMustBePositive","type":"error"},{"inputs":[],"name":"EntryFeeTooHigh","type":"error"},{"inputs":[],"name":"InsufficientPayment","type":"error"},{"inputs":[],"name":"InvalidCommission","type":"error"},{"inputs":[],"name":"InvalidFactoryAddress","type":"error"},{"inputs":[],"name":"InvalidRequestId","type":"error"},{"inputs":[],"name":"InvalidTicketCount","type":"error"},{"inputs":[],"name":"MaxParticipantsTooHigh","type":"error"},{"inputs":[],"name":"MinParticipantsTooLow","type":"error"},{"inputs":[],"name":"NoParticipants","type":"error"},{"inputs":[],"name":"NotCreator","type":"error"},{"inputs":[],"name":"NotWinner","type":"error"},{"inputs":[],"name":"OnlyFactory","type":"error"},{"inputs":[],"name":"PrizeAlreadyClaimed","type":"error"},{"inputs":[],"name":"RaffleEnded","type":"error"},{"inputs":[],"name":"RaffleFull","type":"error"},{"inputs":[],"name":"RaffleNotActive","type":"error"},{"inputs":[],"name":"ReentrancyGuardReentrantCall","type":"error"},{"inputs":[],"name":"TransferFailed","type":"error"},{"inputs":[],"name":"WinnerAlreadyDrawn","type":"error"},{"inputs":[],"name":"WinnerAlreadySet","type":"error"},{"anonymous":false,"inputs":[{"indexed":true,"internalType":"address","name":"creator","type":"address"},{"indexed":false,"internalType":"uint256","name":"amount","type":"uint256"}],"name":"CreatorCommissionPaid","type":"event"},{"anonymous":false,"inputs":[{"indexed":true,"internalType":"address","name":"participant","type":"address"},{"indexed":false,"internalType":"uint256","name":"ticketsBought","type":"uint256"},{"indexed":false,"internalType":"uint256","name":"totalTickets","type":"uint256"},{"indexed":false,"internalType":"uint256","name":"participantTicketCount","type":"uint256"}],"name":"ParticipantJoined","type":"event"},{"anonymous":false,"inputs":[{"indexed":true,"internalType":"address","name":"winner","type":"address"},{"indexed":false,"internalType":"uint256","name":"amount","type":"uint256"}],"name":"PrizeClaimed","type":"event"},{"anonymous":false,"inputs":[],"name":"RaffleCancelled","type":"event"},{"anonymous":false,"inputs":[{"indexed":false,"internalType":"uint256","name":"requestId","type":"uint256"}],"name":"RandomnessRequested","type":"event"},{"anonymous":false,"inputs":[{"indexed":true,"internalType":"address","name":"winner","type":"address"},{"indexed":false,"internalType":"uint256","name":"winnerIndex","type":"uint256"},{"indexed":false,"internalType":"uint256","name":"randomNumber","type":"uint256"},{"indexed":false,"internalType":"uint256","name":"vrfRequestId","type":"uint256"}],"name":"WinnerDrawn","type":"event"},{"inputs":[],"name":"cancelRaffle","outputs":[],"stateMutability":"nonpayable","type":"function"},{"inputs":[],"name":"claimPrize","outputs":[],"stateMutability":"nonpayable","type":"function"},{"inputs":[],"name":"creator","outputs":[{"internalType":"address","name":"","type":"address"}],"stateMutability":"view","type":"function"},{"inputs":[],"name":"creatorCommissionBps","outputs":[{"internalType":"uint256","name":"","type":"uint256"}],"stateMutability":"view","type":"function"},{"inputs":[],"name":"deadline","outputs":[{"internalType":"uint256","name":"","type":"uint256"}],"stateMutability":"view","type":"function"},{"inputs":[],"name":"description","outputs":[{"internalType":"string","name":"","type":"string"}],"stateMutability":"view","type":"function"},{"inputs":[],"name":"drawWinner","outputs":[{"internalType":"uint256","name":"requestId","type":"uint256"}],"stateMutability":"nonpayable","type":"function"},{"inputs":[],"name":"entryFee","outputs":[{"internalType":"uint256","name":"","type":"uint256"}],"stateMutability":"view","type":"function"},{"inputs":[],"name":"factory","outputs":[{"internalType":"contract IRaffleFactory","name":"","type":"address"}],"stateMutability":"view","type":"function"},{"inputs":[{"internalType":"uint256","name":"_requestId","type":"uint256"},{"internalType":"uint256","name":"_randomWord","type":"uint256"}],"name":"fulfillRandomness","outputs":[],"stateMutability":"nonpayable","type":"function"},{"inputs":[],"name":"getParticipants","outputs":[{"internalType":"address[]","name":"","type":"address[]"}],"stateMutability":"view","type":"function"},{"inputs":[],"name":"getPrizePool","outputs":[{"internalType":"uint256","name":"","type":"uint256"}],"stateMutability":"view","type":"function"},{"inputs":[],"name":"getRaffleDetails","outputs":[{"internalType":"string","name":"_title","type":"string"},{"internalType":"string","name":"_description","type":"string"},{"internalType":"uint256","name":"_entryFee","type":"uint256"},{"internalType":"uint256","name":"_deadline","type":"uint256"},{"internalType":"uint256","name":"_maxParticipants","type":"uint256"},{"internalType":"uint256","name":"_currentParticipants","type":"uint256"},{"internalType":"enum Raffle.RaffleStatus","name":"_status","type":"uint8"},{"internalType":"address","name":"_creator","type":"address"},{"internalType":"address","name":"_winner","type":"address"},{"internalType":"uint256","name":"_creatorCommissionBps","type":"uint256"}],"stateMutability":"view","type":"function"},{"inputs":[],"name":"getTotalTickets","outputs":[{"internalType":"uint256","name":"","type":"uint256"}],"stateMutability":"view","type":"function"},{"inputs":[{"internalType":"address","name":"_user","type":"address"}],"name":"getUserTicketCount","outputs":[{"internalType":"uint256","name":"","type":"uint256"}],"stateMutability":"view","type":"function"},{"inputs":[{"internalType":"uint256","name":"_ticketCount","type":"uint256"}],"name":"joinRaffle","outputs":[],"stateMutability":"payable","type":"function"},{"inputs":[],"name":"maxParticipants","outputs":[{"internalType":"uint256","name":"","type":"uint256"}],"stateMutability":"view","type":"function"},{"inputs":[{"internalType":"uint256","name":"","type":"uint256"}],"name":"participants","outputs":[{"internalType":"address","name":"","type":"address"}],"stateMutability":"view","type":"function"},{"inputs":[],"name":"prizeDescription","outputs":[{"internalType":"string","name":"","type":"string"}],"stateMutability":"view","type":"function"},{"inputs":[],"name":"randomResult","outputs":[{"internalType":"uint256","name":"","type":"uint256"}],"stateMutability":"view","type":"function"},{"inputs":[],"name":"status","outputs":[{"internalType":"enum Raffle.RaffleStatus","name":"","type":"uint8"}],"stateMutability":"view","type":"function"},{"inputs":[{"internalType":"address","name":"","type":"address"}],"name":"ticketCount","outputs":[{"internalType":"uint256","name":"","type":"uint256"}],"stateMutability":"view","type":"function"},{"inputs":[],"name":"title","outputs":[{"internalType":"string","name":"","type":"string"}],"stateMutability":"view","type":"function"},{"inputs":[],"name":"vrfRequestId","outputs":[{"internalType":"uint256","name":"","type":"uint256"}],"stateMutability":"view","type":"function"},{"inputs":[],"name":"winner","outputs":[{"internalType":"address","name":"","type":"address"}],"stateMutability":"view","type":"function"},{"inputs":[],"name":"winnerIndex","outputs":[{"internalType":"uint256","name":"","type":"uint256"}],"stateMutability":"view","type":"function"}],"evm":{"bytecode":{"linkReferences":{},"object":"60a06040523480156200001157600080fd5b506040516200194f3803806200194f8339810160408190526200003491620002c3565b60016000554285116200005a57604051630642ce7760e01b815260040160405180910390fd5b6200006a426301e13380620003a1565b8511156200008b576040516324787d7360e11b815260040160405180910390fd5b85600003620000ad576040516315801e6b60e21b815260040160405180910390fd5b68056bc75e2d63100000861115620000d857604051631a3dc29960e21b815260040160405180910390fd5b83600103620000fa57604051630def91b560e41b815260040160405180910390fd5b6127108411156200011e57604051630c2e7b5760e41b815260040160405180910390fd5b6001600160a01b0382166200014657604051635c7bfbe960e01b815260040160405180910390fd5b6103e88111156200016a5760405163dc81db8560e01b815260040160405180910390fd5b6001620001788a826200045a565b5060026200018789826200045a565b5060036200019688826200045a565b5060049590955560059390935560069190915560078054600160a01b6001600160a81b03199091166001600160a01b0393841617179055166080526008555062000526915050565b634e487b7160e01b600052604160045260246000fd5b600082601f8301126200020657600080fd5b81516001600160401b0380821115620002235762000223620001de565b604051601f8301601f19908116603f011681019082821181831017156200024e576200024e620001de565b81604052838152602092508660208588010111156200026c57600080fd5b600091505b8382101562000290578582018301518183018401529082019062000271565b6000602085830101528094505050505092915050565b80516001600160a01b0381168114620002be57600080fd5b919050565b60008060008060008060008060006101208a8c031215620002e357600080fd5b89516001600160401b0380821115620002fb57600080fd5b620003098d838e01620001f4565b9a5060208c01519150808211156200032057600080fd5b6200032e8d838e01620001f4565b995060408c01519150808211156200034557600080fd5b50620003548c828d01620001f4565b97505060608a0151955060808a0151945060a08a015193506200037a60c08b01620002a6565b92506200038a60e08b01620002a6565b91506101008a015190509295985092959850929598565b80820180821115620003c357634e487b7160e01b600052601160045260246000fd5b92915050565b600181811c90821680620003de57607f821691505b602082108103620003ff57634e487b7160e01b600052602260045260246000fd5b50919050565b601f82111562000455576000816000526020600020601f850160051c81016020861015620004305750805b601f850160051c820191505b8181101562000451578281556001016200043c565b5050505b505050565b81516001600160401b03811115620004765762000476620001de565b6200048e81620004878454620003c9565b8462000405565b602080601f831160018114620004c65760008415620004ad5750858301515b600019600386901b1c1916600185901b17855562000451565b600085815260208120601f198616915b82811015620004f757888601518255948401946001909101908401620004d6565b5085821015620005165787850151600019600388901b60f8161c191681555b5050505050600190811b01905550565b6080516113ff620005506000396000818161044a015281816104ac0152610ffc01526113ff6000f3fe6080604052600436106101815760003560e01c806370533250116100d1578063936afab31161008a578063b2185bb111610064578063b2185bb114610423578063c45a015514610438578063dfbf53ae1461046c578063efeed2241461048c57600080fd5b8063936afab3146103ac578063963ef2a2146103d7578063aec3c1731461040d57600080fd5b8063705332501461031757806370740ac91461032c57806370ca5bbe146103415780637284e4161461036e578063884bf67c146103835780638f00cbfa1461039657600080fd5b806324924bf71161013e57806342619f661161011857806342619f66146102aa5780634758eca9146102c05780634a79d50c146102d35780635aa68ac0146102f557600080fd5b806324924bf71461025e57806329dcb0cf1461027457806335c1d3491461028a57600080fd5b806302d05d3f146101865780630695a252146101c357806306e8337f146101e5578063072ea61c1461020457806318a7ea5f1461021a578063200d2ed214610230575b600080fd5b34801561019257600080fd5b506007546101a6906001600160a01b031681565b6040516001600160a01b0390911681526020015b60405180910390f35b3480156101cf57600080fd5b506101e36101de3660046110f3565b6104a1565b005b3480156101f157600080fd5b506009545b6040519081526020016101ba565b34801561021057600080fd5b506101f660045481565b34801561022657600080fd5b506101f6600e5481565b34801561023c57600080fd5b5060075461025190600160a01b900460ff1681565b6040516101ba919061114d565b34801561026a57600080fd5b506101f660065481565b34801561028057600080fd5b506101f660055481565b34801561029657600080fd5b506101a66102a5366004611161565b6105eb565b3480156102b657600080fd5b506101f6600d5481565b6101e36102ce366004611161565b610615565b3480156102df57600080fd5b506102e8610856565b6040516101ba91906111c0565b34801561030157600080fd5b5061030a6108e4565b6040516101ba91906111da565b34801561032357600080fd5b506101e3610946565b34801561033857600080fd5b506101e3610b7b565b34801561034d57600080fd5b506101f661035c366004611227565b600a6020526000908152604090205481565b34801561037a57600080fd5b506102e8610daf565b34801561038f57600080fd5b50476101f6565b3480156103a257600080fd5b506101f6600c5481565b3480156103b857600080fd5b506103c1610dbc565b6040516101ba9a99989796959493929190611250565b3480156103e357600080fd5b506101f66103f2366004611227565b6001600160a01b03166000908152600a602052604090205490565b34801561041957600080fd5b506101f660085481565b34801561042f57600080fd5b506101f6610f55565b34801561044457600080fd5b506101a67f000000000000000000000000000000000000000000000000000000000000000081565b34801561047857600080fd5b50600b546101a6906001600160a01b031681565b34801561049857600080fd5b506102e86110bc565b336001600160a01b037f000000000000000000000000000000000000000000000000000000000000000016146104ea57604051630636a15760e11b815260040160405180910390fd5b600e54821461050c576040516302e8145360e61b815260040160405180910390fd5b600b546001600160a01b0316156105365760405163636ed8dd60e11b815260040160405180910390fd5b600d81905560095461054890826112e5565b600c819055506009600c5481548110610563576105636112f9565b60009182526020918290200154600b80546001600160a01b0319166001600160a01b0390921691821790556007805460ff60a01b1916600360a01b179055600c54600d546040805192835293820152808301859052915190917ff52fac7e26724c6e0808da8161af0a1263330646f3989bb031cc71fbaa7bf521919081900360600190a25050565b600981815481106105fb57600080fd5b6000918252602090912001546001600160a01b0316905081565b6001600754600160a01b900460ff16600481111561063557610635611115565b1461065357604051632ae47f7360e01b815260040160405180910390fd5b60055442106106755760405163502fd88d60e01b815260040160405180910390fd5b8060000361069657604051638e71bef960e01b815260040160405180910390fd5b6000816004546106a69190611325565b9050803410156106c95760405163cd1c886760e01b815260040160405180910390fd5b60065415610701576006546009546106e290849061133c565b111561070157604051630771de3360e01b815260040160405180910390fd5b60005b828110156107555760098054600181810183556000929092527f6e1540171b6c0c960b71a7020d9f60077f6af931a8bbf590da0223dacf75c7af0180546001600160a01b0319163317905501610704565b50336000908152600a60205260408120805484929061077590849061133c565b9091555050600954336000818152600a60209081526040918290205482518781529182019490945290810192909252907fe367e10777f2a25a834ba205395c23c7f7175d3d6d36137ee22c3f056d780c0a9060600160405180910390a260006107de823461134f565b9050801561085157604051600090339083908381818185875af1925050503d8060008114610828576040519150601f19603f3d011682016040523d82523d6000602084013e61082d565b606091505b505090508061084f576040516312171d8360e31b815260040160405180910390fd5b505b505050565b6001805461086390611362565b80601f016020809104026020016040519081016040528092919081815260200182805461088f90611362565b80156108dc5780601f106108b1576101008083540402835291602001916108dc565b820191906000526020600020905b8154815290600101906020018083116108bf57829003601f168201915b505050505081565b6060600980548060200260200160405190810160405280929190818152602001828054801561093c57602002820191906000526020600020905b81546001600160a01b0316815260019091019060200180831161091e575b5050505050905090565b61094e6110c9565b6007546001600160a01b03163314610979576040516393687c0b60e01b815260040160405180910390fd5b6003600754600160a01b900460ff16600481111561099957610999611115565b14806109c257506004600754600160a01b900460ff1660048111156109c0576109c0611115565b145b156109e05760405163502fd88d60e01b815260040160405180910390fd5b6007805460ff60a01b1916600160a21b1790556040517f90e8484a98b653b6def19811c0e3811715da0de9c6b90d013442ba7e7541295190600090a1600454600980546040805160208084028201810190925282815260009390929091830182828015610a7657602002820191906000526020600020905b81546001600160a01b03168152600190910190602001808311610a58575b505050505090506000805b8251811015610b6b576000838281518110610a9e57610a9e6112f9565b60200260200101519050826001600160a01b0316816001600160a01b031614610b62576001600160a01b0381166000908152600a602052604081205490610ae58783611325565b90506000836001600160a01b03168260405160006040518083038185875af1925050503d8060008114610b34576040519150601f19603f3d011682016040523d82523d6000602084013e610b39565b606091505b5050905080610b5b576040516312171d8360e31b815260040160405180910390fd5b8395505050505b50600101610a81565b50505050610b796001600055565b565b610b836110c9565b600b546001600160a01b03163314610bae576040516330c6392160e11b815260040160405180910390fd5b6003600754600160a01b900460ff166004811115610bce57610bce611115565b14610bec57604051630770596760e11b815260040160405180910390fd5b6007805460ff60a01b1916600160a21b179055600854479060009061271090610c159084611325565b610c1f919061139c565b90506000610c2d828461134f565b600b546040518281529192506001600160a01b0316907f95681e512bc0fe659e195e06c283eada494316f3d801213e48e7101af92bf7709060200160405180910390a2600b546040516000916001600160a01b03169083908381818185875af1925050503d8060008114610cbd576040519150601f19603f3d011682016040523d82523d6000602084013e610cc2565b606091505b5050905080610ce4576040516312171d8360e31b815260040160405180910390fd5b8215610b6b576007546040518481526001600160a01b03909116907ffced7da42f0f076c425d7fa774af80c6fb4c4337cd595e67a56de7ff5c90be2d9060200160405180910390a26007546040516000916001600160a01b03169085908381818185875af1925050503d8060008114610d79576040519150601f19603f3d011682016040523d82523d6000602084013e610d7e565b606091505b5050905080610da0576040516312171d8360e31b815260040160405180910390fd5b5050505050610b796001600055565b6002805461086390611362565b60608060008060008060008060008060016002600454600554600654600980549050600760149054906101000a900460ff16600760009054906101000a90046001600160a01b0316600b60009054906101000a90046001600160a01b0316600854898054610e2990611362565b80601f0160208091040260200160405190810160405280929190818152602001828054610e5590611362565b8015610ea25780601f10610e7757610100808354040283529160200191610ea2565b820191906000526020600020905b815481529060010190602001808311610e8557829003601f168201915b50505050509950888054610eb590611362565b80601f0160208091040260200160405190810160405280929190818152602001828054610ee190611362565b8015610f2e5780601f10610f0357610100808354040283529160200191610f2e565b820191906000526020600020905b815481529060010190602001808311610f1157829003601f168201915b50505050509850995099509950995099509950995099509950995090919293949596979899565b600060055442108015610f7557506006541580610f755750600654600954105b15610f9357604051633376277360e11b815260040160405180910390fd5b600954600003610fb6576040516308b6a47360e41b815260040160405180910390fd5b600b546001600160a01b031615610fe057604051630770596760e11b815260040160405180910390fd5b600780546002919060ff60a01b1916600160a01b8302179055507f00000000000000000000000000000000000000000000000000000000000000006001600160a01b0316631b930e996040518163ffffffff1660e01b81526004016020604051808303816000875af115801561105a573d6000803e3d6000fd5b505050506040513d601f19601f8201168201806040525081019061107e91906113b0565b600e8190556040518181529091507f9ac10fb18c93d33ad7b0a941897aef048d0f8d30756684e82b4552ba12764d459060200160405180910390a190565b6003805461086390611362565b6002600054036110ec57604051633ee5aeb560e01b815260040160405180910390fd5b6002600055565b6000806040838503121561110657600080fd5b50508035926020909101359150565b634e487b7160e01b600052602160045260246000fd5b6005811061114957634e487b7160e01b600052602160045260246000fd5b9052565b6020810161115b828461112b565b92915050565b60006020828403121561117357600080fd5b5035919050565b6000815180845260005b818110156111a057602081850181015186830182015201611184565b506000602082860101526020601f19601f83011685010191505092915050565b6020815260006111d3602083018461117a565b9392505050565b6020808252825182820181905260009190848201906040850190845b8181101561121b5783516001600160a01b0316835292840192918401916001016111f6565b50909695505050505050565b60006020828403121561123957600080fd5b81356001600160a01b03811681146111d357600080fd5b60006101408083526112648184018e61117a565b90508281036020840152611278818d61117a565b9150508960408301528860608301528760808301528660a08301526112a060c083018761112b565b6001600160a01b0394851660e08301529290931661010084015261012090920191909152979650505050505050565b634e487b7160e01b600052601260045260246000fd5b6000826112f4576112f46112cf565b500690565b634e487b7160e01b600052603260045260246000fd5b634e487b7160e01b600052601160045260246000fd5b808202811582820484141761115b5761115b61130f565b8082018082111561115b5761115b61130f565b8181038181111561115b5761115b61130f565b600181811c9082168061137657607f821691505b60208210810361139657634e487b7160e01b600052602260045260246000fd5b50919050565b6000826113ab576113ab6112cf565b500490565b6000602082840312156113c257600080fd5b505191905056fea264697066735822122016aa49eaf2038ad63a9cbe4b9018d886fd86c08f8e8cce1dc99e5591d20b775164736f6c63430008180033","opcodes":"PUSH1 0xA0 PUSH1 0x40 MSTORE CALLVALUE DUP1 ISZERO PUSH3 0x11 JUMPI PUSH1 0x0 DUP1 REVERT JUMPDEST POP PUSH1 0x40 MLOAD PUSH3 0x194F CODESIZE SUB DUP1 PUSH3 0x194F DUP4 CODECOPY DUP2 ADD PUSH1 0x40 DUP2 SWAP1 MSTORE PUSH3 0x34 SWAP2 PUSH3 0x2C3 JUMP JUMPDEST PUSH1 0x1 PUSH1 0x0 SSTORE TIMESTAMP DUP6 GT PUSH3 0x5A JUMPI PUSH1 0x40 MLOAD PUSH4 0x642CE77 PUSH1 0xE0 SHL DUP2 MSTORE PUSH1 0x4 ADD PUSH1 0x40 MLOAD DUP1 SWAP2 SUB SWAP1 REVERT JUMPDEST PUSH3 0x6A TIMESTAMP PUSH4 0x1E13380 PUSH3 0x3A1 JUMP JUMPDEST DUP6 GT ISZERO PUSH3 0x8B JUMPI PUSH1 0x40 MLOAD PUSH4 0x24787D73 PUSH1 0xE1 SHL DUP2 MSTORE PUSH1 0x4 ADD PUSH1 0x40 MLOAD DUP1 SWAP2 SUB SWAP1 REVERT JUMPDEST DUP6 PUSH1 0x0 SUB PUSH3 0xAD JUMPI PUSH1 0x40 MLOAD PUSH4 0x15801E6B PUSH1 0xE2 SHL DUP2 MSTORE PUSH1 0x4 ADD PUSH1 0x40 MLOAD DUP1 SWAP2 SUB SWAP1 REVERT JUMPDEST PUSH9 0x56BC75E2D63100000 DUP7 GT ISZERO PUSH3 0xD8 JUMPI PUSH1 0x40 MLOAD PUSH4 0x1A3DC299 PUSH1 0xE2 SHL DUP2 MSTORE PUSH1 0x4 ADD PUSH1 0x40 MLOAD DUP1 SWAP2 SUB SWAP1 REVERT JUMPDEST DUP4 PUSH1 0x1 SUB PUSH3 0xFA JUMPI PUSH1 0x40 MLOAD PUSH4 0xDEF91B5 PUSH1 0xE4 SHL DUP2 MSTORE PUSH1 0x4 ADD PUSH1 0x40 MLOAD DUP1 SWAP2 SUB SWAP1 REVERT JUMPDEST PUSH2 0x2710 DUP5 GT ISZERO PUSH3 0x11E JUMPI PUSH1 0x40 MLOAD PUSH4 0xC2E7B57 PUSH1 0xE4 SHL DUP2 MSTORE PUSH1 0x4 ADD PUSH1 0x40 MLOAD DUP1 SWAP2 SUB SWAP1 REVERT JUMPDEST PUSH1 0x1 PUSH1 0x1 PUSH1 0xA0 SHL SUB DUP3 AND PUSH3 0x146 JUMPI PUSH1 0x40 MLOAD PUSH4 0x5C7BFBE9 PUSH1 0xE0 SHL DUP2 MSTORE PUSH1 0x4 ADD PUSH1 0x40 MLOAD DUP1 SWAP2 SUB SWAP1 REVERT JUMPDEST PUSH2 0x3E8 DUP2 GT ISZERO PUSH3 0x16A JUMPI PUSH1 0x40 MLOAD PUSH4 0xDC81DB85 PUSH1 0xE0 SHL DUP2 MSTORE PUSH1 0x4 ADD PUSH1 0x40 MLOAD DUP1 SWAP2 SUB SWAP1 REVERT JUMPDEST PUSH1 0x1 PUSH3 0x178 DUP11 DUP3 PUSH3 0x45A JUMP JUMPDEST POP PUSH1 0x2 PUSH3 0x187 DUP10 DUP3 PUSH3 0x45A JUMP JUMPDEST POP PUSH1 0x3 PUSH3 0x196 DUP9 DUP3 PUSH3 0x45A JUMP JUMPDEST POP PUSH1 0x4 SWAP6 SWAP1 SWAP6 SSTORE PUSH1 0x5 SWAP4 SWAP1 SWAP4 SSTORE PUSH1 0x6 SWAP2 SWAP1 SWAP2 SSTORE PUSH1 0x7 DUP1 SLOAD PUSH1 0x1 PUSH1 0xA0 SHL PUSH1 0x1 PUSH1 0x1 PUSH1 0xA8 SHL SUB NOT SWAP1 SWAP2 AND PUSH1 0x1 PUSH1 0x1 PUSH1 0xA0 SHL SUB SWAP4 DUP5 AND OR OR SWAP1 SSTORE AND PUSH1 0x80 MSTORE PUSH1 0x8 SSTORE POP PUSH3 0x526 SWAP2 POP POP JUMP JUMPDEST PUSH4 0x4E487B71 PUSH1 0xE0 SHL PUSH1 0x0 MSTORE PUSH1 0x41 PUSH1 0x4 MSTORE PUSH1 0x24 PUSH1 0x0 REVERT JUMPDEST PUSH1 0x0 DUP3 PUSH1 0x1F DUP4 ADD SLT PUSH3 0x206 JUMPI PUSH1 0x0 DUP1 REVERT JUMPDEST DUP2 MLOAD PUSH1 0x1 PUSH1 0x1 PUSH1 0x40 SHL SUB DUP1 DUP3 GT ISZERO PUSH3 0x223 JUMPI PUSH3 0x223 PUSH3 0x1DE JUMP JUMPDEST PUSH1 0x40 MLOAD PUSH1 0x1F DUP4 ADD PUSH1 0x1F NOT SWAP1 DUP2 AND PUSH1 0x3F ADD AND DUP2 ADD SWAP1 DUP3 DUP3 GT DUP2 DUP4 LT OR ISZERO PUSH3 0x24E JUMPI PUSH3 0x24E PUSH3 0x1DE JUMP JUMPDEST DUP2 PUSH1 0x40 MSTORE DUP4 DUP2 MSTORE PUSH1 0x20 SWAP3 POP DUP7 PUSH1 0x20 DUP6 DUP9 ADD ADD GT ISZERO PUSH3 0x26C JUMPI PUSH1 0x0 DUP1 REVERT JUMPDEST PUSH1 0x0 SWAP2 POP JUMPDEST DUP4 DUP3 LT ISZERO PUSH3 0x290 JUMPI DUP6 DUP3 ADD DUP4 ADD MLOAD DUP2 DUP4 ADD DUP5 ADD MSTORE SWAP1 DUP3 ADD SWAP1 PUSH3 0x271 JUMP JUMPDEST PUSH1 0x0 PUSH1 0x20 DUP6 DUP4 ADD ADD MSTORE DUP1 SWAP5 POP POP POP POP POP SWAP3 SWAP2 POP POP JUMP JUMPDEST DUP1 MLOAD PUSH1 0x1 PUSH1 0x1 PUSH1 0xA0 SHL SUB DUP2 AND DUP2 EQ PUSH3 0x2BE JUMPI PUSH1 0x0 DUP1 REVERT JUMPDEST SWAP2 SWAP1 POP JUMP JUMPDEST PUSH1 0x0 DUP1 PUSH1 0x0 DUP1 PUSH1 0x0 DUP1 PUSH1 0x0 DUP1 PUSH1 0x0 PUSH2 0x120 DUP11 DUP13 SUB SLT ISZERO PUSH3 0x2E3 JUMPI PUSH1 0x0 DUP1 REVERT JUMPDEST DUP10 MLOAD PUSH1 0x1 PUSH1 0x1 PUSH1 0x40 SHL SUB DUP1 DUP3 GT ISZERO PUSH3 0x2FB JUMPI PUSH1 0x0 DUP1 REVERT JUMPDEST PUSH3 0x309 DUP14 DUP4 DUP15 ADD PUSH3 0x1F4 JUMP JUMPDEST SWAP11 POP PUSH1 0x20 DUP13 ADD MLOAD SWAP2 POP DUP1 DUP3 GT ISZERO PUSH3 0x320 JUMPI PUSH1 0x0 DUP1 REVERT JUMPDEST PUSH3 0x32E DUP14 DUP4 DUP15 ADD PUSH3 0x1F4 JUMP JUMPDEST SWAP10 POP PUSH1 0x40 DUP13 ADD MLOAD SWAP2 POP DUP1 DUP3 GT ISZERO PUSH3 0x345 JUMPI PUSH1 0x0 DUP1 REVERT JUMPDEST POP PUSH3 0x354 DUP13 DUP3 DUP14 ADD PUSH3 0x1F4 JUMP JUMPDEST SWAP8 POP POP PUSH1 0x60 DUP11 ADD MLOAD SWAP6 POP PUSH1 0x80 DUP11 ADD MLOAD SWAP5 POP PUSH1 0xA0 DUP11 ADD MLOAD SWAP4 POP PUSH3 0x37A PUSH1 0xC0 DUP12 ADD PUSH3 0x2A6 JUMP JUMPDEST SWAP3 POP PUSH3 0x38A PUSH1 0xE0 DUP12 ADD PUSH3 0x2A6 JUMP JUMPDEST SWAP2 POP PUSH2 0x100 DUP11 ADD MLOAD SWAP1 POP SWAP3 SWAP6 SWAP9 POP SWAP3 SWAP6 SWAP9 POP SWAP3 SWAP6 SWAP9 JUMP JUMPDEST DUP1 DUP3 ADD DUP1 DUP3 GT ISZERO PUSH3 0x3C3 JUMPI PUSH4 0x4E487B71 PUSH1 0xE0 SHL PUSH1 0x0 MSTORE PUSH1 0x11 PUSH1 0x4 MSTORE PUSH1 0x24 PUSH1 0x0 REVERT JUMPDEST SWAP3 SWAP2 POP POP JUMP JUMPDEST PUSH1 0x1 DUP2 DUP2 SHR SWAP1 DUP3 AND DUP1 PUSH3 0x3DE JUMPI PUSH1 0x7F DUP3 AND SWAP2 POP JUMPDEST PUSH1 0x20 DUP3 LT DUP2 SUB PUSH3 0x3FF JUMPI PUSH4 0x4E487B71 PUSH1 0xE0 SHL PUSH1 0x0 MSTORE PUSH1 0x22 PUSH1 0x4 MSTORE PUSH1 0x24 PUSH1 0x0 REVERT JUMPDEST POP SWAP2 SWAP1 POP JUMP JUMPDEST PUSH1 0x1F DUP3 GT ISZERO PUSH3 0x455 JUMPI PUSH1 0x0 DUP2 PUSH1 0x0 MSTORE PUSH1 0x20 PUSH1 0x0 KECCAK256 PUSH1 0x1F DUP6 ADD PUSH1 0x5 SHR DUP2 ADD PUSH1 0x20 DUP7 LT ISZERO PUSH3 0x430 JUMPI POP DUP1 JUMPDEST PUSH1 0x1F DUP6 ADD PUSH1 0x5 SHR DUP3 ADD SWAP2 POP JUMPDEST DUP2 DUP2 LT ISZERO PUSH3 0x451 JUMPI DUP3 DUP2 SSTORE PUSH1 0x1 ADD PUSH3 0x43C JUMP JUMPDEST POP POP POP JUMPDEST POP POP POP JUMP JUMPDEST DUP2 MLOAD PUSH1 0x1 PUSH1 0x1 PUSH1 0x40 SHL SUB DUP2 GT ISZERO PUSH3 0x476 JUMPI PUSH3 0x476 PUSH3 0x1DE JUMP JUMPDEST PUSH3 0x48E DUP2 PUSH3 0x487 DUP5 SLOAD PUSH3 0x3C9 JUMP JUMPDEST DUP5 PUSH3 0x405 JUMP JUMPDEST PUSH1 0x20 DUP1 PUSH1 0x1F DUP4 GT PUSH1 0x1 DUP2 EQ PUSH3 0x4C6 JUMPI PUSH1 0x0 DUP5 ISZERO PUSH3 0x4AD JUMPI POP DUP6 DUP4 ADD MLOAD JUMPDEST PUSH1 0x0 NOT PUSH1 0x3 DUP7 SWAP1 SHL SHR NOT AND PUSH1 0x1 DUP6 SWAP1 SHL OR DUP6 SSTORE PUSH3 0x451 JUMP JUMPDEST PUSH1 0x0 DUP6 DUP2 MSTORE PUSH1 0x20 DUP2 KECCAK256 PUSH1 0x1F NOT DUP7 AND SWAP2 JUMPDEST DUP3 DUP2 LT ISZERO PUSH3 0x4F7 JUMPI DUP9 DUP7 ADD MLOAD DUP3 SSTORE SWAP5 DUP5 ADD SWAP5 PUSH1 0x1 SWAP1 SWAP2 ADD SWAP1 DUP5 ADD PUSH3 0x4D6 JUMP JUMPDEST POP DUP6 DUP3 LT ISZERO PUSH3 0x516 JUMPI DUP8 DUP6 ADD MLOAD PUSH1 0x0 NOT PUSH1 0x3 DUP9 SWAP1 SHL PUSH1 0xF8 AND SHR NOT AND DUP2 SSTORE JUMPDEST POP POP POP POP POP PUSH1 0x1 SWAP1 DUP2 SHL ADD SWAP1 SSTORE POP JUMP JUMPDEST PUSH1 0x80 MLOAD PUSH2 0x13FF PUSH3 0x550 PUSH1 0x0 CODECOPY PUSH1 0x0 DUP2 DUP2 PUSH2 0x44A ADD MSTORE DUP2 DUP2 PUSH2 0x4AC ADD MSTORE PUSH2 0xFFC ADD MSTORE PUSH2 0x13FF PUSH1 0x0 RETURN INVALID PUSH1 0x80 PUSH1 0x40 MSTORE PUSH1 0x4 CALLDATASIZE LT PUSH2 0x181 JUMPI PUSH1 0x0 CALLDATALOAD PUSH1 0xE0 SHR DUP1 PUSH4 0x70533250 GT PUSH2 0xD1 JUMPI DUP1 PUSH4 0x936AFAB3 GT PUSH2 0x8A JUMPI DUP1 PUSH4 0xB2185BB1 GT PUSH2 0x64 JUMPI DUP1 PUSH4 0xB2185BB1 EQ PUSH2 0x423 JUMPI DUP1 PUSH4 0xC45A0155 EQ PUSH2 0x438 JUMPI DUP1 PUSH4 0xDFBF53AE EQ PUSH2 0x46C JUMPI DUP1 PUSH4 0xEFEED224 EQ PUSH2 0x48C JUMPI PUSH1 0x0 DUP1 REVERT JUMPDEST DUP1 PUSH4 0x936AFAB3 EQ PUSH2 0x3AC JUMPI DUP1 PUSH4 0x963EF2A2 EQ PUSH2 0x3D7 JUMPI DUP1 PUSH4 0xAEC3C173 EQ PUSH2 0x40D JUMPI PUSH1 0x0 DUP1 REVERT JUMPDEST DUP1 PUSH4 0x70533250 EQ PUSH2 0x317 JUMPI DUP1 PUSH4 0x70740AC9 EQ PUSH2 0x32C JUMPI DUP1 PUSH4 0x70CA5BBE EQ PUSH2 0x341 JUMPI DUP1 PUSH4 0x7284E416 EQ PUSH2 0x36E JUMPI DUP1 PUSH4 0x884BF67C EQ PUSH2 0x383 JUMPI DUP1 PUSH4 0x8F00CBFA EQ PUSH2 0x396 JUMPI PUSH1 0x0 DUP1 REVERT JUMPDEST DUP1 PUSH4 0x24924BF7 GT PUSH2 0x13E JUMPI DUP1 PUSH4 0x42619F66 GT PUSH2 0x118 JUMPI DUP1 PUSH4 0x42619F66 EQ PUSH2 0x2AA JUMPI DUP1 PUSH4 0x4758ECA9 EQ PUSH2 0x2C0 JUMPI DUP1 PUSH4 0x4A79D50C EQ PUSH2 0x2D3 JUMPI DUP1 PUSH4 0x5AA68AC0 EQ PUSH2 0x2F5 JUMPI PUSH1 0x0 DUP1 REVERT JUMPDEST DUP1 PUSH4 0x24924BF7 EQ PUSH2 0x25E JUMPI DUP1 PUSH4 0x29DCB0CF EQ PUSH2 0x274 JUMPI DUP1 PUSH4 0x35C1D349 EQ PUSH2 0x28A JUMPI PUSH1 0x0 DUP1 REVERT JUMPDEST DUP1 PUSH4 0x2D05D3F EQ PUSH2 0x186 JUMPI DUP1 PUSH4 0x695A252 EQ PUSH2 0x1C3 JUMPI DUP1 PUSH4 0x6E8337F EQ PUSH2 0x1E5 JUMPI DUP1 PUSH4 0x72EA61C EQ PUSH2 0x204 JUMPI DUP1 PUSH4 0x18A7EA5F EQ PUSH2 0x21A JUMPI DUP1 PUSH4 0x200D2ED2 EQ PUSH2 0x230 JUMPI JUMPDEST PUSH1 0x0 DUP1 REVERT JUMPDEST CALLVALUE DUP1 ISZERO PUSH2 0x192 JUMPI PUSH1 0x0 DUP1 REVERT JUMPDEST POP PUSH1 0x7 SLOAD PUSH2 0x1A6 SWAP1 PUSH1 0x1 PUSH1 0x1 PUSH1 0xA0 SHL SUB AND DUP2 JUMP JUMPDEST PUSH1 0x40 MLOAD PUSH1 0x1 PUSH1 0x1 PUSH1 0xA0 SHL SUB SWAP1 SWAP2 AND DUP2 MSTORE PUSH1 0x20 ADD JUMPDEST PUSH1 0x40 MLOAD DUP1 SWAP2 SUB SWAP1 RETURN JUMPDEST CALLVALUE DUP1 ISZERO PUSH2 0x1CF JUMPI PUSH1 0x0 DUP1 REVERT JUMPDEST POP PUSH2 0x1E3 PUSH2 0x1DE CALLDATASIZE PUSH1 0x4 PUSH2 0x10F3 JUMP JUMPDEST PUSH2 0x4A1 JUMP JUMPDEST STOP JUMPDEST CALLVALUE DUP1 ISZERO PUSH2 0x1F1 JUMPI PUSH1 0x0 DUP1 REVERT JUMPDEST POP PUSH1 0x9 SLOAD JUMPDEST PUSH1 0x40 MLOAD SWAP1 DUP2 MSTORE PUSH1 0x20 ADD PUSH2 0x1BA JUMP JUMPDEST CALLVALUE DUP1 ISZERO PUSH2 0x210 JUMPI PUSH1 0x0 DUP1 REVERT JUMPDEST POP PUSH2 0x1F6 PUSH1 0x4 SLOAD DUP2 JUMP JUMPDEST CALLVALUE DUP1 ISZERO PUSH2 0x226 JUMPI PUSH1 0x0 DUP1 REVERT JUMPDEST POP PUSH2 0x1F6 PUSH1 0xE SLOAD DUP2 JUMP JUMPDEST CALLVALUE DUP1 ISZERO PUSH2 0x23C JUMPI PUSH1 0x0 DUP1 REVERT JUMPDEST POP PUSH1 0x7 SLOAD PUSH2 0x251 SWAP1 PUSH1 0x1 PUSH1 0xA0 SHL SWAP1 DIV PUSH1 0xFF AND DUP2 JUMP JUMPDEST PUSH1 0x40 MLOAD PUSH2 0x1BA SWAP2 SWAP1 PUSH2 0x114D JUMP JUMPDEST CALLVALUE DUP1 ISZERO PUSH2 0x26A JUMPI PUSH1 0x0 DUP1 REVERT JUMPDEST POP PUSH2 0x1F6 PUSH1 0x6 SLOAD DUP2 JUMP JUMPDEST CALLVALUE DUP1 ISZERO PUSH2 0x280 JUMPI PUSH1 0x0 DUP1 REVERT JUMPDEST POP PUSH2 0x1F6 PUSH1 0x5 SLOAD DUP2 JUMP JUMPDEST CALLVALUE DUP1 ISZERO PUSH2 0x296 JUMPI PUSH1 0x0 DUP1 REVERT JUMPDEST POP PUSH2 0x1A6 PUSH2 0x2A5 CALLDATASIZE PUSH1 0x4 PUSH2 0x1161 JUMP JUMPDEST PUSH2 0x5EB JUMP JUMPDEST CALLVALUE DUP1 ISZERO PUSH2 0x2B6 JUMPI PUSH1 0x0 DUP1 REVERT JUMPDEST POP PUSH2 0x1F6 PUSH1 0xD SLOAD DUP2 JUMP JUMPDEST PUSH2 0x1E3 PUSH2 0x2CE CALLDATASIZE PUSH1 0x4 PUSH2 0x1161 JUMP JUMPDEST PUSH2 0x615 JUMP JUMPDEST CALLVALUE DUP1 ISZERO PUSH2 0x2DF JUMPI PUSH1 0x0 DUP1 REVERT JUMPDEST POP PUSH2 0x2E8 PUSH2 0x856 JUMP JUMPDEST PUSH1 0x40 MLOAD PUSH2 0x1BA SWAP2 SWAP1 PUSH2 0x11C0 JUMP JUMPDEST CALLVALUE DUP1 ISZERO PUSH2 0x301 JUMPI PUSH1 0x0 DUP1 REVERT JUMPDEST POP PUSH2 0x30A PUSH2 0x8E4 JUMP JUMPDEST PUSH1 0x40 MLOAD PUSH2 0x1BA SWAP2 SWAP1 PUSH2 0x11DA JUMP JUMPDEST CALLVALUE DUP1 ISZERO PUSH2 0x323 JUMPI PUSH1 0x0 DUP1 REVERT JUMPDEST POP PUSH2 0x1E3 PUSH2 0x946 JUMP JUMPDEST CALLVALUE DUP1 ISZERO PUSH2 0x338 JUMPI PUSH1 0x0 DUP1 REVERT JUMPDEST POP PUSH2 0x1E3 PUSH2 0xB7B JUMP JUMPDEST CALLVALUE DUP1 ISZERO PUSH2 0x34D JUMPI PUSH1 0x0 DUP1 REVERT JUMPDEST POP PUSH2 0x1F6 PUSH2 0x35C CALLDATASIZE PUSH1 0x4 PUSH2 0x1227 JUMP JUMPDEST PUSH1 0xA PUSH1 0x20 MSTORE PUSH1 0x0 SWAP1 DUP2 MSTORE PUSH1 0x40 SWAP1 KECCAK256 SLOAD DUP2 JUMP JUMPDEST CALLVALUE DUP1 ISZERO PUSH2 0x37A JUMPI PUSH1 0x0 DUP1 REVERT JUMPDEST POP PUSH2 0x2E8 PUSH2 0xDAF JUMP JUMPDEST CALLVALUE DUP1 ISZERO PUSH2 0x38F JUMPI PUSH1 0x0 DUP1 REVERT JUMPDEST POP SELFBALANCE PUSH2 0x1F6 JUMP JUMPDEST CALLVALUE DUP1 ISZERO PUSH2 0x3A2 JUMPI PUSH1 0x0 DUP1 REVERT JUMPDEST POP PUSH2 0x1F6 PUSH1 0xC SLOAD DUP2 JUMP JUMPDEST CALLVALUE DUP1 ISZERO PUSH2 0x3B8 JUMPI PUSH1 0x0 DUP1 REVERT JUMPDEST POP PUSH2 0x3C1 PUSH2 0xDBC JUMP JUMPDEST PUSH1 0x40 MLOAD PUSH2 0x1BA SWAP11 SWAP10 SWAP9 SWAP8 SWAP7 SWAP6 SWAP5 SWAP4 SWAP3 SWAP2 SWAP1 PUSH2 0x1250 JUMP JUMPDEST CALLVALUE DUP1 ISZERO PUSH2 0x3E3 JUMPI PUSH1 0x0 DUP1 REVERT JUMPDEST POP PUSH2 0x1F6 PUSH2 0x3F2 CALLDATASIZE PUSH1 0x4 PUSH2 0x1227 JUMP JUMPDEST PUSH1 0x1 PUSH1 0x1 PUSH1 0xA0 SHL SUB AND PUSH1 0x0 SWAP1 DUP2 MSTORE PUSH1 0xA PUSH1 0x20 MSTORE PUSH1 0x40 SWAP1 KECCAK256 SLOAD SWAP1 JUMP JUMPDEST CALLVALUE DUP1 ISZERO PUSH2 0x419 JUMPI PUSH1 0x0 DUP1 REVERT JUMPDEST POP PUSH2 0x1F6 PUSH1 0x8 SLOAD DUP2 JUMP JUMPDEST CALLVALUE DUP1 ISZERO PUSH2 0x42F JUMPI PUSH1 0x0 DUP1 REVERT JUMPDEST POP PUSH2 0x1F6 PUSH2 0xF55 JUMP JUMPDEST CALLVALUE DUP1 ISZERO PUSH2 0x444 JUMPI PUSH1 0x0 DUP1 REVERT JUMPDEST POP PUSH2 0x1A6 PUSH32 0x0 DUP2 JUMP JUMPDEST CALLVALUE DUP1 ISZERO PUSH2 0x478 JUMPI PUSH1 0x0 DUP1 REVERT JUMPDEST POP PUSH1 0xB SLOAD PUSH2 0x1A6 SWAP1 PUSH1 0x1 PUSH1 0x1 PUSH1 0xA0 SHL SUB AND DUP2 JUMP JUMPDEST CALLVALUE DUP1 ISZERO PUSH2 0x498 JUMPI PUSH1 0x0 DUP1 REVERT JUMPDEST POP PUSH2 0x2E8 PUSH2 0x10BC JUMP JUMPDEST CALLER PUSH1 0x1 PUSH1 0x1 PUSH1 0xA0 SHL SUB PUSH32 0x0 AND EQ PUSH2 0x4EA JUMPI PUSH1 0x40 MLOAD PUSH4 0x636A157 PUSH1 0xE1 SHL DUP2 MSTORE PUSH1 0x4 ADD PUSH1 0x40 MLOAD DUP1 SWAP2 SUB SWAP1 REVERT JUMPDEST PUSH1 0xE SLOAD DUP3 EQ PUSH2 0x50C JUMPI PUSH1 0x40 MLOAD PUSH4 0x2E81453 PUSH1 0xE6 SHL DUP2 MSTORE PUSH1 0x4 ADD PUSH1 0x40 MLOAD DUP1 SWAP2 SUB SWAP1 REVERT JUMPDEST PUSH1 0xB SLOAD PUSH1 0x1 PUSH1 0x1 PUSH1 0xA0 SHL SUB AND ISZERO PUSH2 0x536 JUMPI PUSH1 0x40 MLOAD PUSH4 0x636ED8DD PUSH1 0xE1 SHL DUP2 MSTORE PUSH1 0x4 ADD PUSH1 0x40 MLOAD DUP1 SWAP2 SUB SWAP1 REVERT JUMPDEST PUSH1 0xD DUP2 SWAP1 SSTORE PUSH1 0x9 SLOAD PUSH2 0x548 SWAP1 DUP3 PUSH2 0x12E5 JUMP JUMPDEST PUSH1 0xC DUP2 SWAP1 SSTORE POP PUSH1 0x9 PUSH1 0xC SLOAD DUP2 SLOAD DUP2 LT PUSH2 0x563 JUMPI PUSH2 0x563 PUSH2 0x12F9 JUMP JUMPDEST PUSH1 0x0 SWAP2 DUP3 MSTORE PUSH1 0x20 SWAP2 DUP3 SWAP1 KECCAK256 ADD SLOAD PUSH1 0xB DUP1 SLOAD PUSH1 0x1 PUSH1 0x1 PUSH1 0xA0 SHL SUB NOT AND PUSH1 0x1 PUSH1 0x1 PUSH1 0xA0 SHL SUB SWAP1 SWAP3 AND SWAP2 DUP3 OR SWAP1 SSTORE PUSH1 0x7 DUP1 SLOAD PUSH1 0xFF PUSH1 0xA0 SHL NOT AND PUSH1 0x3 PUSH1 0xA0 SHL OR SWAP1 SSTORE PUSH1 0xC SLOAD PUSH1 0xD SLOAD PUSH1 0x40 DUP1 MLOAD SWAP3 DUP4 MSTORE SWAP4 DUP3 ADD MSTORE DUP1 DUP4 ADD DUP6 SWAP1 MSTORE SWAP2 MLOAD SWAP1 SWAP2 PUSH32 0xF52FAC7E26724C6E0808DA8161AF0A1263330646F3989BB031CC71FBAA7BF521 SWAP2 SWAP1 DUP2 SWAP1 SUB PUSH1 0x60 ADD SWAP1 LOG2 POP POP JUMP JUMPDEST PUSH1 0x9 DUP2 DUP2 SLOAD DUP2 LT PUSH2 0x5FB JUMPI PUSH1 0x0 DUP1 REVERT JUMPDEST PUSH1 0x0 SWAP2 DUP3 MSTORE PUSH1 0x20 SWAP1 SWAP2 KECCAK256 ADD SLOAD PUSH1 0x1 PUSH1 0x1 PUSH1 0xA0 SHL SUB AND SWAP1 POP DUP2 JUMP JUMPDEST PUSH1 0x1 PUSH1 0x7 SLOAD PUSH1 0x1 PUSH1 0xA0 SHL SWAP1 DIV PUSH1 0xFF AND PUSH1 0x4 DUP2 GT ISZERO PUSH2 0x635 JUMPI PUSH2 0x635 PUSH2 0x1115 JUMP JUMPDEST EQ PUSH2 0x653 JUMPI PUSH1 0x40 MLOAD PUSH4 0x2AE47F73 PUSH1 0xE0 SHL DUP2 MSTORE PUSH1 0x4 ADD PUSH1 0x40 MLOAD DUP1 SWAP2 SUB SWAP1 REVERT JUMPDEST PUSH1 0x5 SLOAD TIMESTAMP LT PUSH2 0x675 JUMPI PUSH1 0x40 MLOAD PUSH4 0x502FD88D PUSH1 0xE0 SHL DUP2 MSTORE PUSH1 0x4 ADD PUSH1 0x40 MLOAD DUP1 SWAP2 SUB SWAP1 REVERT JUMPDEST DUP1 PUSH1 0x0 SUB PUSH2 0x696 JUMPI PUSH1 0x40 MLOAD PUSH4 0x8E71BEF9 PUSH1 0xE0 SHL DUP2 MSTORE PUSH1 0x4 ADD PUSH1 0x40 MLOAD DUP1 SWAP2 SUB SWAP1 REVERT JUMPDEST PUSH1 0x0 DUP2 PUSH1 0x4 SLOAD PUSH2 0x6A6 SWAP2 SWAP1 PUSH2 0x1325 JUMP JUMPDEST SWAP1 POP DUP1 CALLVALUE LT ISZERO PUSH2 0x6C9 JUMPI PUSH1 0x40 MLOAD PUSH4 0xCD1C8867 PUSH1 0xE0 SHL DUP2 MSTORE PUSH1 0x4 ADD PUSH1 0x40 MLOAD DUP1 SWAP2 SUB SWAP1 REVERT JUMPDEST PUSH1 0x6 SLOAD ISZERO PUSH2 0x701 JUMPI PUSH1 0x6 SLOAD PUSH1 0x9 SLOAD PUSH2 0x6E2 SWAP1 DUP5 SWAP1 PUSH2 0x133C JUMP JUMPDEST GT ISZERO PUSH2 0x701 JUMPI PUSH1 0x40 MLOAD PUSH4 0x771DE33 PUSH1 0xE0 SHL DUP2 MSTORE PUSH1 0x4 ADD PUSH1 0x40 MLOAD DUP1 SWAP2 SUB SWAP1 REVERT JUMPDEST PUSH1 0x0 JUMPDEST DUP3 DUP2 LT ISZERO PUSH2 0x755 JUMPI PUSH1 0x9 DUP1 SLOAD PUSH1 0x1 DUP2 DUP2 ADD DUP4 SSTORE PUSH1 0x0 SWAP3 SWAP1 SWAP3 MSTORE PUSH32 0x6E1540171B6C0C960B71A7020D9F60077F6AF931A8BBF590DA0223DACF75C7AF ADD DUP1 SLOAD PUSH1 0x1 PUSH1 0x1 PUSH1 0xA0 SHL SUB NOT AND CALLER OR SWAP1 SSTORE ADD PUSH2 0x704 JUMP JUMPDEST POP CALLER PUSH1 0x0 SWAP1 DUP2 MSTORE PUSH1 0xA PUSH1 0x20 MSTORE PUSH1 0x40 DUP2 KECCAK256 DUP1 SLOAD DUP5 SWAP3 SWAP1 PUSH2 0x775 SWAP1 DUP5 SWAP1 PUSH2 0x133C JUMP JUMPDEST SWAP1 SWAP2 SSTORE POP POP PUSH1 0x9 SLOAD CALLER PUSH1 0x0 DUP2 DUP2 MSTORE PUSH1 0xA PUSH1 0x20 SWAP1 DUP2 MSTORE PUSH1 0x40 SWAP2 DUP3 SWAP1 KECCAK256 SLOAD DUP3 MLOAD DUP8 DUP2 MSTORE SWAP2 DUP3 ADD SWAP5 SWAP1 SWAP5 MSTORE SWAP1 DUP2 ADD SWAP3 SWAP1 SWAP3 MSTORE SWAP1 PUSH32 0xE367E10777F2A25A834BA205395C23C7F7175D3D6D36137EE22C3F056D780C0A SWAP1 PUSH1 0x60 ADD PUSH1 0x40 MLOAD DUP1 SWAP2 SUB SWAP1 LOG2 PUSH1 0x0 PUSH2 0x7DE DUP3 CALLVALUE PUSH2 0x134F JUMP JUMPDEST SWAP1 POP DUP1 ISZERO PUSH2 0x851 JUMPI PUSH1 0x40 MLOAD PUSH1 0x0 SWAP1 CALLER SWAP1 DUP4 SWAP1 DUP4 DUP2 DUP2 DUP2 DUP6 DUP8 GAS CALL SWAP3 POP POP POP RETURNDATASIZE DUP1 PUSH1 0x0 DUP2 EQ PUSH2 0x828 JUMPI PUSH1 0x40 MLOAD SWAP2 POP PUSH1 0x1F NOT PUSH1 0x3F RETURNDATASIZE ADD AND DUP3 ADD PUSH1 0x40 MSTORE RETURNDATASIZE DUP3 MSTORE RETURNDATASIZE PUSH1 0x0 PUSH1 0x20 DUP5 ADD RETURNDATACOPY PUSH2 0x82D JUMP JUMPDEST PUSH1 0x60 SWAP2 POP JUMPDEST POP POP SWAP1 POP DUP1 PUSH2 0x84F JUMPI PUSH1 0x40 MLOAD PUSH4 0x12171D83 PUSH1 0xE3 SHL DUP2 MSTORE PUSH1 0x4 ADD PUSH1 0x40 MLOAD DUP1 SWAP2 SUB SWAP1 REVERT JUMPDEST POP JUMPDEST POP POP POP JUMP JUMPDEST PUSH1 0x1 DUP1 SLOAD PUSH2 0x863 SWAP1 PUSH2 0x1362 JUMP JUMPDEST DUP1 PUSH1 0x1F ADD PUSH1 0x20 DUP1 SWAP2 DIV MUL PUSH1 0x20 ADD PUSH1 0x40 MLOAD SWAP1 DUP2 ADD PUSH1 0x40 MSTORE DUP1 SWAP3 SWAP2 SWAP1 DUP2 DUP2 MSTORE PUSH1 0x20 ADD DUP3 DUP1 SLOAD PUSH2 0x88F SWAP1 PUSH2 0x1362 JUMP JUMPDEST DUP1 ISZERO PUSH2 0x8DC JUMPI DUP1 PUSH1 0x1F LT PUSH2 0x8B1 JUMPI PUSH2 0x100 DUP1 DUP4 SLOAD DIV MUL DUP4 MSTORE SWAP2 PUSH1 0x20 ADD SWAP2 PUSH2 0x8DC JUMP JUMPDEST DUP3 ADD SWAP2 SWAP1 PUSH1 0x0 MSTORE PUSH1 0x20 PUSH1 0x0 KECCAK256 SWAP1 JUMPDEST DUP2 SLOAD DUP2 MSTORE SWAP1 PUSH1 0x1 ADD SWAP1 PUSH1 0x20 ADD DUP1 DUP4 GT PUSH2 0x8BF JUMPI DUP3 SWAP1 SUB PUSH1 0x1F AND DUP3 ADD SWAP2 JUMPDEST POP POP POP POP POP DUP2 JUMP JUMPDEST PUSH1 0x60 PUSH1 0x9 DUP1 SLOAD DUP1 PUSH1 0x20 MUL PUSH1 0x20 ADD PUSH1 0x40 MLOAD SWAP1 DUP2 ADD PUSH1 0x40 MSTORE DUP1 SWAP3 SWAP2 SWAP1 DUP2 DUP2 MSTORE PUSH1 0x20 ADD DUP3 DUP1 SLOAD DUP1 ISZERO PUSH2 0x93C JUMPI PUSH1 0x20 MUL DUP3 ADD SWAP2 SWAP1 PUSH1 0x0 MSTORE PUSH1 0x20 PUSH1 0x0 KECCAK256 SWAP1 JUMPDEST DUP2 SLOAD PUSH1 0x1 PUSH1 0x1 PUSH1 0xA0 SHL SUB AND DUP2 MSTORE PUSH1 0x1 SWAP1 SWAP2 ADD SWAP1 PUSH1 0x20 ADD DUP1 DUP4 GT PUSH2 0x91E JUMPI JUMPDEST POP POP POP POP POP SWAP1 POP SWAP1 JUMP JUMPDEST PUSH2 0x94E PUSH2 0x10C9 JUMP JUMPDEST PUSH1 0x7 SLOAD PUSH1 0x1 PUSH1 0x1 PUSH1 0xA0 SHL SUB AND CALLER EQ PUSH2 0x979 JUMPI PUSH1 0x40 MLOAD PUSH4 0x93687C0B PUSH1 0xE0 SHL DUP2 MSTORE PUSH1 0x4 ADD PUSH1 0x40 MLOAD DUP1 SWAP2 SUB SWAP1 REVERT JUMPDEST PUSH1 0x3 PUSH1 0x7 SLOAD PUSH1 0x1 PUSH1 0xA0 SHL SWAP1 DIV PUSH1 0xFF AND PUSH1 0x4 DUP2 GT ISZERO PUSH2 0x999 JUMPI PUSH2 0x999 PUSH2 0x1115 JUMP JUMPDEST EQ DUP1 PUSH2 0x9C2 JUMPI POP PUSH1 0x4 PUSH1 0x7 SLOAD PUSH1 0x1 PUSH1 0xA0 SHL SWAP1 DIV PUSH1 0xFF AND PUSH1 0x4 DUP2 GT ISZERO PUSH2 0x9C0 JUMPI PUSH2 0x9C0 PUSH2 0x1115 JUMP JUMPDEST EQ JUMPDEST ISZERO PUSH2 0x9E0 JUMPI PUSH1 0x40 MLOAD PUSH4 0x502FD88D PUSH1 0xE0 SHL DUP2 MSTORE PUSH1 0x4 ADD PUSH1 0x40 MLOAD DUP1 SWAP2 SUB SWAP1 REVERT JUMPDEST PUSH1 0x7 DUP1 SLOAD PUSH1 0xFF PUSH1 0xA0 SHL NOT AND PUSH1 0x1 PUSH1 0xA2 SHL OR SWAP1 SSTORE PUSH1 0x40 MLOAD PUSH32 0x90E8484A98B653B6DEF19811C0E3811715DA0DE9C6B90D013442BA7E75412951 SWAP1 PUSH1 0x0 SWAP1 LOG1 PUSH1 0x4 SLOAD PUSH1 0x9 DUP1 SLOAD PUSH1 0x40 DUP1 MLOAD PUSH1 0x20 DUP1 DUP5 MUL DUP3 ADD DUP2 ADD SWAP1 SWAP3 MSTORE DUP3 DUP2 MSTORE PUSH1 0x0 SWAP4 SWAP1 SWAP3 SWAP1 SWAP2 DUP4 ADD DUP3 DUP3 DUP1 ISZERO PUSH2 0xA76 JUMPI PUSH1 0x20 MUL DUP3 ADD SWAP2 SWAP1 PUSH1 0x0 MSTORE PUSH1 0x20 PUSH1 0x0 KECCAK256 SWAP1 JUMPDEST DUP2 SLOAD PUSH1 0x1 PUSH1 0x1 PUSH1 0xA0 SHL SUB AND DUP2 MSTORE PUSH1 0x1 SWAP1 SWAP2 ADD SWAP1 PUSH1 0x20 ADD DUP1 DUP4 GT PUSH2 0xA58 JUMPI JUMPDEST POP POP POP POP POP SWAP1 POP PUSH1 0x0 DUP1 JUMPDEST DUP3 MLOAD DUP2 LT ISZERO PUSH2 0xB6B JUMPI PUSH1 0x0 DUP4 DUP3 DUP2 MLOAD DUP2 LT PUSH2 0xA9E JUMPI PUSH2 0xA9E PUSH2 0x12F9 JUMP JUMPDEST PUSH1 0x20 MUL PUSH1 0x20 ADD ADD MLOAD SWAP1 POP DUP3 PUSH1 0x1 PUSH1 0x1 PUSH1 0xA0 SHL SUB AND DUP2 PUSH1 0x1 PUSH1 0x1 PUSH1 0xA0 SHL SUB AND EQ PUSH2 0xB62 JUMPI PUSH1 0x1 PUSH1 0x1 PUSH1 0xA0 SHL SUB DUP2 AND PUSH1 0x0 SWAP1 DUP2 MSTORE PUSH1 0xA PUSH1 0x20 MSTORE PUSH1 0x40 DUP2 KECCAK256 SLOAD SWAP1 PUSH2 0xAE5 DUP8 DUP4 PUSH2 0x1325 JUMP JUMPDEST SWAP1 POP PUSH1 0x0 DUP4 PUSH1 0x1 PUSH1 0x1 PUSH1 0xA0 SHL SUB AND DUP3 PUSH1 0x40 MLOAD PUSH1 0x0 PUSH1 0x40 MLOAD DUP1 DUP4 SUB DUP2 DUP6 DUP8 GAS CALL SWAP3 POP POP POP RETURNDATASIZE DUP1 PUSH1 0x0 DUP2 EQ PUSH2 0xB34 JUMPI PUSH1 0x40 MLOAD SWAP2 POP PUSH1 0x1F NOT PUSH1 0x3F RETURNDATASIZE ADD AND DUP3 ADD PUSH1 0x40 MSTORE RETURNDATASIZE DUP3 MSTORE RETURNDATASIZE PUSH1 0x0 PUSH1 0x20 DUP5 ADD RETURNDATACOPY PUSH2 0xB39 JUMP JUMPDEST PUSH1 0x60 SWAP2 POP JUMPDEST POP POP SWAP1 POP DUP1 PUSH2 0xB5B JUMPI PUSH1 0x40 MLOAD PUSH4 0x12171D83 PUSH1 0xE3 SHL DUP2 MSTORE PUSH1 0x4 ADD PUSH1 0x40 MLOAD DUP1 SWAP2 SUB SWAP1 REVERT JUMPDEST DUP4 SWAP6 POP POP POP POP JUMPDEST POP PUSH1 0x1 ADD PUSH2 0xA81 JUMP JUMPDEST POP POP POP POP PUSH2 0xB79 PUSH1 0x1 PUSH1 0x0 SSTORE JUMP JUMPDEST JUMP JUMPDEST PUSH2 0xB83 PUSH2 0x10C9 JUMP JUMPDEST PUSH1 0xB SLOAD PUSH1 0x1 PUSH1 0x1 PUSH1 0xA0 SHL SUB AND CALLER EQ PUSH2 0xBAE JUMPI PUSH1 0x40 MLOAD PUSH4 0x30C63921 PUSH1 0xE1 SHL DUP2 MSTORE PUSH1 0x4 ADD PUSH1 0x40 MLOAD DUP1 SWAP2 SUB SWAP1 REVERT JUMPDEST PUSH1 0x3 PUSH1 0x7 SLOAD PUSH1 0x1 PUSH1 0xA0 SHL SWAP1 DIV PUSH1 0xFF AND PUSH1 0x4 DUP2 GT ISZERO PUSH2 0xBCE JUMPI PUSH2 0xBCE PUSH2 0x1115 JUMP JUMPDEST EQ PUSH2 0xBEC JUMPI PUSH1 0x40 MLOAD PUSH4 0x7705967 PUSH1 0xE1 SHL DUP2 MSTORE PUSH1 0x4 ADD PUSH1 0x40 MLOAD DUP1 SWAP2 SUB SWAP1 REVERT JUMPDEST PUSH1 0x7 DUP1 SLOAD PUSH1 0xFF PUSH1 0xA0 SHL NOT AND PUSH1 0x1 PUSH1 0xA2 SHL OR SWAP1 SSTORE PUSH1 0x8 SLOAD SELFBALANCE SWAP1 PUSH1 0x0 SWAP1 PUSH2 0x2710 SWAP1 PUSH2 0xC15 SWAP1 DUP5 PUSH2 0x1325 JUMP JUMPDEST PUSH2 0xC1F SWAP2 SWAP1 PUSH2 0x139C JUMP JUMPDEST SWAP1 POP PUSH1 0x0 PUSH2 0xC2D DUP3 DUP5 PUSH2 0x134F JUMP JUMPDEST PUSH1 0xB SLOAD PUSH1 0x40 MLOAD DUP3 DUP2 MSTORE SWAP2 SWAP3 POP PUSH1 0x1 PUSH1 0x1 PUSH1 0xA0 SHL SUB AND SWAP1 PUSH32 0x95681E512BC0FE659E195E06C283EADA494316F3D801213E48E7101AF92BF770 SWAP1 PUSH1 0x20 ADD PUSH1 0x40 MLOAD DUP1 SWAP2 SUB SWAP1 LOG2 PUSH1 0xB SLOAD PUSH1 0x40 MLOAD PUSH1 0x0 SWAP2 PUSH1 0x1 PUSH1 0x1 PUSH1 0xA0 SHL SUB AND SWAP1 DUP4 SWAP1 DUP4 DUP2 DUP2 DUP2 DUP6 DUP8 GAS CALL SWAP3 POP POP POP RETURNDATASIZE DUP1 PUSH1 0x0 DUP2 EQ PUSH2 0xCBD JUMPI PUSH1 0x40 MLOAD SWAP2 POP PUSH1 0x1F NOT PUSH1 0x3F RETURNDATASIZE ADD AND DUP3 ADD PUSH1 0x40 MSTORE RETURNDATASIZE DUP3 MSTORE RETURNDATASIZE PUSH1 0x0 PUSH1 0x20 DUP5 ADD RETURNDATACOPY PUSH2 0xCC2 JUMP JUMPDEST PUSH1 0x60 SWAP2 POP JUMPDEST POP POP SWAP1 POP DUP1 PUSH2 0xCE4 JUMPI PUSH1 0x40 MLOAD PUSH4 0x12171D83 PUSH1 0xE3 SHL DUP2 MSTORE PUSH1 0x4 ADD PUSH1 0x40 MLOAD DUP1 SWAP2 SUB SWAP1 REVERT JUMPDEST DUP3 ISZERO PUSH2 0xB6B JUMPI PUSH1 0x7 SLOAD PUSH1 0x40 MLOAD DUP5 DUP2 MSTORE PUSH1 0x1 PUSH1 0x1 PUSH1 0xA0 SHL SUB SWAP1 SWAP2 AND SWAP1 PUSH32 0xFCED7DA42F0F076C425D7FA774AF80C6FB4C4337CD595E67A56DE7FF5C90BE2D SWAP1 PUSH1 0x20 ADD PUSH1 0x40 MLOAD DUP1 SWAP2 SUB SWAP1 LOG2 PUSH1 0x7 SLOAD PUSH1 0x40 MLOAD PUSH1 0x0 SWAP2 PUSH1 0x1 PUSH1 0x1 PUSH1 0xA0 SHL SUB AND SWAP1 DUP6 SWAP1 DUP4 DUP2 DUP2 DUP2 DUP6 DUP8 GAS CALL SWAP3 POP POP POP RETURNDATASIZE DUP1 PUSH1 0x0 DUP2 EQ PUSH2 0xD79 JUMPI PUSH1 0x40 MLOAD SWAP2 POP PUSH1 0x1F NOT PUSH1 0x3F RETURNDATASIZE ADD AND DUP3 ADD PUSH1 0x40 MSTORE RETURNDATASIZE DUP3 MSTORE RETURNDATASIZE PUSH1 0x0 PUSH1 0x20 DUP5 ADD RETURNDATACOPY PUSH2 0xD7E JUMP JUMPDEST PUSH1 0x60 SWAP2 POP JUMPDEST POP POP SWAP1 POP DUP1 PUSH2 0xDA0 JUMPI PUSH1 0x40 MLOAD PUSH4 0x12171D83 PUSH1 0xE3 SHL DUP2 MSTORE PUSH1 0x4 ADD PUSH1 0x40 MLOAD DUP1 SWAP2 SUB SWAP1 REVERT JUMPDEST POP POP POP POP POP PUSH2 0xB79 PUSH1 0x1 PUSH1 0x0 SSTORE JUMP JUMPDEST PUSH1 0x2 DUP1 SLOAD PUSH2 0x863 SWAP1 PUSH2 0x1362 JUMP JUMPDEST PUSH1 0x60 DUP1 PUSH1 0x0 DUP1 PUSH1 0x0 DUP1 PUSH1 0x0 DUP1 PUSH1 0x0 DUP1 PUSH1 0x1 PUSH1 0x2 PUSH1 0x4 SLOAD PUSH1 0x5 SLOAD PUSH1 0x6 SLOAD PUSH1 0x9 DUP1 SLOAD SWAP1 POP PUSH1 0x7 PUSH1 0x14 SWAP1 SLOAD SWAP1 PUSH2 0x100 EXP SWAP1 DIV PUSH1 0xFF AND PUSH1 0x7 PUSH1 0x0 SWAP1 SLOAD SWAP1 PUSH2 0x100 EXP SWAP1 DIV PUSH1 0x1 PUSH1 0x1 PUSH1 0xA0 SHL SUB AND PUSH1 0xB PUSH1 0x0 SWAP1 SLOAD SWAP1 PUSH2 0x100 EXP SWAP1 DIV PUSH1 0x1 PUSH1 0x1 PUSH1 0xA0 SHL SUB AND PUSH1 0x8 SLOAD DUP10 DUP1 SLOAD PUSH2 0xE29 SWAP1 PUSH2 0x1362 JUMP JUMPDEST DUP1 PUSH1 0x1F ADD PUSH1 0x20 DUP1 SWAP2 DIV MUL PUSH1 0x20 ADD PUSH1 0x40 MLOAD SWAP1 DUP2 ADD PUSH1 0x40 MSTORE DUP1 SWAP3 SWAP2 SWAP1 DUP2 DUP2 MSTORE PUSH1 0x20 ADD DUP3 DUP1 SLOAD PUSH2 0xE55 SWAP1 PUSH2 0x1362 JUMP JUMPDEST DUP1 ISZERO PUSH2 0xEA2 JUMPI DUP1 PUSH1 0x1F LT PUSH2 0xE77 JUMPI PUSH2 0x100 DUP1 DUP4 SLOAD DIV MUL DUP4 MSTORE SWAP2 PUSH1 0x20 ADD SWAP2 PUSH2 0xEA2 JUMP JUMPDEST DUP3 ADD SWAP2 SWAP1 PUSH1 0x0 MSTORE PUSH1 0x20 PUSH1 0x0 KECCAK256 SWAP1 JUMPDEST DUP2 SLOAD DUP2 MSTORE SWAP1 PUSH1 0x1 ADD SWAP1 PUSH1 0x20 ADD DUP1 DUP4 GT PUSH2 0xE85 JUMPI DUP3 SWAP1 SUB PUSH1 0x1F AND DUP3 ADD SWAP2 JUMPDEST POP POP POP POP POP SWAP10 POP DUP9 DUP1 SLOAD PUSH2 0xEB5 SWAP1 PUSH2 0x1362 JUMP JUMPDEST DUP1 PUSH1 0x1F ADD PUSH1 0x20 DUP1 SWAP2 DIV MUL PUSH1 0x20 ADD PUSH1 0x40 MLOAD SWAP1 DUP2 ADD PUSH1 0x40 MSTORE DUP1 SWAP3 SWAP2 SWAP1 DUP2 DUP2 MSTORE PUSH1 0x20 ADD DUP3 DUP1 SLOAD PUSH2 0xEE1 SWAP1 PUSH2 0x1362 JUMP JUMPDEST DUP1 ISZERO PUSH2 0xF2E JUMPI DUP1 PUSH1 0x1F LT PUSH2 0xF03 JUMPI PUSH2 0x100 DUP1 DUP4 SLOAD DIV MUL DUP4 MSTORE SWAP2 PUSH1 0x20 ADD SWAP2 PUSH2 0xF2E JUMP JUMPDEST DUP3 ADD SWAP2 SWAP1 PUSH1 0x0 MSTORE PUSH1 0x20 PUSH1 0x0 KECCAK256 SWAP1 JUMPDEST DUP2 SLOAD DUP2 MSTORE SWAP1 PUSH1 0x1 ADD SWAP1 PUSH1 0x20 ADD DUP1 DUP4 GT PUSH2 0xF11 JUMPI DUP3 SWAP1 SUB PUSH1 0x1F AND DUP3 ADD SWAP2 JUMPDEST POP POP POP POP POP SWAP9 POP SWAP10 POP SWAP10 POP SWAP10 POP SWAP10 POP SWAP10 POP SWAP10 POP SWAP10 POP SWAP10 POP SWAP10 POP SWAP10 POP SWAP1 SWAP2 SWAP3 SWAP4 SWAP5 SWAP6 SWAP7 SWAP8 SWAP9 SWAP10 JUMP JUMPDEST PUSH1 0x0 PUSH1 0x5 SLOAD TIMESTAMP LT DUP1 ISZERO PUSH2 0xF75 JUMPI POP PUSH1 0x6 SLOAD ISZERO DUP1 PUSH2 0xF75 JUMPI POP PUSH1 0x6 SLOAD PUSH1 0x9 SLOAD LT JUMPDEST ISZERO PUSH2 0xF93 JUMPI PUSH1 0x40 MLOAD PUSH4 0x33762773 PUSH1 0xE1 SHL DUP2 MSTORE PUSH1 0x4 ADD PUSH1 0x40 MLOAD DUP1 SWAP2 SUB SWAP1 REVERT JUMPDEST PUSH1 0x9 SLOAD PUSH1 0x0 SUB PUSH2 0xFB6 JUMPI PUSH1 0x40 MLOAD PUSH4 0x8B6A473 PUSH1 0xE4 SHL DUP2 MSTORE PUSH1 0x4 ADD PUSH1 0x40 MLOAD DUP1 SWAP2 SUB SWAP1 REVERT JUMPDEST PUSH1 0xB SLOAD PUSH1 0x1 PUSH1 0x1 PUSH1 0xA0 SHL SUB AND ISZERO PUSH2 0xFE0 JUMPI PUSH1 0x40 MLOAD PUSH4 0x7705967 PUSH1 0xE1 SHL DUP2 MSTORE PUSH1 0x4 ADD PUSH1 0x40 MLOAD DUP1 SWAP2 SUB SWAP1 REVERT JUMPDEST PUSH1 0x7 DUP1 SLOAD PUSH1 0x2 SWAP2 SWAP1 PUSH1 0xFF PUSH1 0xA0 SHL NOT AND PUSH1 0x1 PUSH1 0xA0 SHL DUP4 MUL OR SWAP1 SSTORE POP PUSH32 0x0 PUSH1 0x1 PUSH1 0x1 PUSH1 0xA0 SHL SUB AND PUSH4 0x1B930E99 PUSH1 0x40 MLOAD DUP2 PUSH4 0xFFFFFFFF AND PUSH1 0xE0 SHL DUP2 MSTORE PUSH1 0x4 ADD PUSH1 0x20 PUSH1 0x40 MLOAD DUP1 DUP4 SUB DUP2 PUSH1 0x0 DUP8 GAS CALL ISZERO DUP1 ISZERO PUSH2 0x105A JUMPI RETURNDATASIZE PUSH1 0x0 DUP1 RETURNDATACOPY RETURNDATASIZE PUSH1 0x0 REVERT JUMPDEST POP POP POP POP PUSH1 0x40 MLOAD RETURNDATASIZE PUSH1 0x1F NOT PUSH1 0x1F DUP3 ADD AND DUP3 ADD DUP1 PUSH1 0x40 MSTORE POP DUP2 ADD SWAP1 PUSH2 0x107E SWAP2 SWAP1 PUSH2 0x13B0 JUMP JUMPDEST PUSH1 0xE DUP2 SWAP1 SSTORE PUSH1 0x40 MLOAD DUP2 DUP2 MSTORE SWAP1 SWAP2 POP PUSH32 0x9AC10FB18C93D33AD7B0A941897AEF048D0F8D30756684E82B4552BA12764D45 SWAP1 PUSH1 0x20 ADD PUSH1 0x40 MLOAD DUP1 SWAP2 SUB SWAP1 LOG1 SWAP1 JUMP JUMPDEST PUSH1 0x3 DUP1 SLOAD PUSH2 0x863 SWAP1 PUSH2 0x1362 JUMP JUMPDEST PUSH1 0x2 PUSH1 0x0 SLOAD SUB PUSH2 0x10EC JUMPI PUSH1 0x40 MLOAD PUSH4 0x3EE5AEB5 PUSH1 0xE0 SHL DUP2 MSTORE PUSH1 0x4 ADD PUSH1 0x40 MLOAD DUP1 SWAP2 SUB SWAP1 REVERT JUMPDEST PUSH1 0x2 PUSH1 0x0 SSTORE JUMP JUMPDEST PUSH1 0x0 DUP1 PUSH1 0x40 DUP4 DUP6 SUB SLT ISZERO PUSH2 0x1106 JUMPI PUSH1 0x0 DUP1 REVERT JUMPDEST POP POP DUP1 CALLDATALOAD SWAP3 PUSH1 0x20 SWAP1 SWAP2 ADD CALLDATALOAD SWAP2 POP JUMP JUMPDEST PUSH4 0x4E487B71 PUSH1 0xE0 SHL PUSH1 0x0 MSTORE PUSH1 0x21 PUSH1 0x4 MSTORE PUSH1 0x24 PUSH1 0x0 REVERT JUMPDEST PUSH1 0x5 DUP2 LT PUSH2 0x1149 JUMPI PUSH4 0x4E487B71 PUSH1 0xE0 SHL PUSH1 0x0 MSTORE PUSH1 0x21 PUSH1 0x4 MSTORE PUSH1 0x24 PUSH1 0x0 REVERT JUMPDEST SWAP1 MSTORE JUMP JUMPDEST PUSH1 0x20 DUP2 ADD PUSH2 0x115B DUP3 DUP5 PUSH2 0x112B JUMP JUMPDEST SWAP3 SWAP2 POP POP JUMP JUMPDEST PUSH1 0x0 PUSH1 0x20 DUP3 DUP5 SUB SLT ISZERO PUSH2 0x1173 JUMPI PUSH1 0x0 DUP1 REVERT JUMPDEST POP CALLDATALOAD SWAP2 SWAP1 POP JUMP JUMPDEST PUSH1 0x0 DUP2 MLOAD DUP1 DUP5 MSTORE PUSH1 0x0 JUMPDEST DUP2 DUP2 LT ISZERO PUSH2 0x11A0 JUMPI PUSH1 0x20 DUP2 DUP6 ADD DUP2 ADD MLOAD DUP7 DUP4 ADD DUP3 ADD MSTORE ADD PUSH2 0x1184 JUMP JUMPDEST POP PUSH1 0x0 PUSH1 0x20 DUP3 DUP7 ADD ADD MSTORE PUSH1 0x20 PUSH1 0x1F NOT PUSH1 0x1F DUP4 ADD AND DUP6 ADD ADD SWAP2 POP POP SWAP3 SWAP2 POP POP JUMP JUMPDEST PUSH1 0x20 DUP2 MSTORE PUSH1 0x0 PUSH2 0x11D3 PUSH1 0x20 DUP4 ADD DUP5 PUSH2 0x117A JUMP JUMPDEST SWAP4 SWAP3 POP POP POP JUMP JUMPDEST PUSH1 0x20 DUP1 DUP3 MSTORE DUP3 MLOAD DUP3 DUP3 ADD DUP2 SWAP1 MSTORE PUSH1 0x0 SWAP2 SWAP1 DUP5 DUP3 ADD SWAP1 PUSH1 0x40 DUP6 ADD SWAP1 DUP5 JUMPDEST DUP2 DUP2 LT ISZERO PUSH2 0x121B JUMPI DUP4 MLOAD PUSH1 0x1 PUSH1 0x1 PUSH1 0xA0 SHL SUB AND DUP4 MSTORE SWAP3 DUP5 ADD SWAP3 SWAP2 DUP5 ADD SWAP2 PUSH1 0x1 ADD PUSH2 0x11F6 JUMP JUMPDEST POP SWAP1 SWAP7 SWAP6 POP POP POP POP POP POP JUMP JUMPDEST PUSH1 0x0 PUSH1 0x20 DUP3 DUP5 SUB SLT ISZERO PUSH2 0x1239 JUMPI PUSH1 0x0 DUP1 REVERT JUMPDEST DUP2 CALLDATALOAD PUSH1 0x1 PUSH1 0x1 PUSH1 0xA0 SHL SUB DUP2 AND DUP2 EQ PUSH2 0x11D3 JUMPI PUSH1 0x0 DUP1 REVERT JUMPDEST PUSH1 0x0 PUSH2 0x140 DUP1 DUP4 MSTORE PUSH2 0x1264 DUP2 DUP5 ADD DUP15 PUSH2 0x117A JUMP JUMPDEST SWAP1 POP DUP3 DUP2 SUB PUSH1 0x20 DUP5 ADD MSTORE PUSH2 0x1278 DUP2 DUP14 PUSH2 0x117A JUMP JUMPDEST SWAP2 POP POP DUP10 PUSH1 0x40 DUP4 ADD MSTORE DUP9 PUSH1 0x60 DUP4 ADD MSTORE DUP8 PUSH1 0x80 DUP4 ADD MSTORE DUP7 PUSH1 0xA0 DUP4 ADD MSTORE PUSH2 0x12A0 PUSH1 0xC0 DUP4 ADD DUP8 PUSH2 0x112B JUMP JUMPDEST PUSH1 0x1 PUSH1 0x1 PUSH1 0xA0 SHL SUB SWAP5 DUP6 AND PUSH1 0xE0 DUP4 ADD MSTORE SWAP3 SWAP1 SWAP4 AND PUSH2 0x100 DUP5 ADD MSTORE PUSH2 0x120 SWAP1 SWAP3 ADD SWAP2 SWAP1 SWAP2 MSTORE SWAP8 SWAP7 POP POP POP POP POP POP POP JUMP JUMPDEST PUSH4 0x4E487B71 PUSH1 0xE0 SHL PUSH1 0x0 MSTORE PUSH1 0x12 PUSH1 0x4 MSTORE PUSH1 0x24 PUSH1 0x0 REVERT JUMPDEST PUSH1 0x0 DUP3 PUSH2 0x12F4 JUMPI PUSH2 0x12F4 PUSH2 0x12CF JUMP JUMPDEST POP MOD SWAP1 JUMP JUMPDEST PUSH4 0x4E487B71 PUSH1 0xE0 SHL PUSH1 0x0 MSTORE PUSH1 0x32 PUSH1 0x4 MSTORE PUSH1 0x24 PUSH1 0x0 REVERT JUMPDEST PUSH4 0x4E487B71 PUSH1 0xE0 SHL PUSH1 0x0 MSTORE PUSH1 0x11 PUSH1 0x4 MSTORE PUSH1 0x24 PUSH1 0x0 REVERT JUMPDEST DUP1 DUP3 MUL DUP2 ISZERO DUP3 DUP3 DIV DUP5 EQ OR PUSH2 0x115B JUMPI PUSH2 0x115B PUSH2 0x130F JUMP JUMPDEST DUP1 DUP3 ADD DUP1 DUP3 GT ISZERO PUSH2 0x115B JUMPI PUSH2 0x115B PUSH2 0x130F JUMP JUMPDEST DUP2 DUP2 SUB DUP2 DUP2 GT ISZERO PUSH2 0x115B JUMPI PUSH2 0x115B PUSH2 0x130F JUMP JUMPDEST PUSH1 0x1 DUP2 DUP2 SHR SWAP1 DUP3 AND DUP1 PUSH2 0x1376 JUMPI PUSH1 0x7F DUP3 AND SWAP2 POP JUMPDEST PUSH1 0x20 DUP3 LT DUP2 SUB PUSH2 0x1396 JUMPI PUSH4 0x4E487B71 PUSH1 0xE0 SHL PUSH1 0x0 MSTORE PUSH1 0x22 PUSH1 0x4 MSTORE PUSH1 0x24 PUSH1 0x0 REVERT JUMPDEST POP SWAP2 SWAP1 POP JUMP JUMPDEST PUSH1 0x0 DUP3 PUSH2 0x13AB JUMPI PUSH2 0x13AB PUSH2 0x12CF JUMP JUMPDEST POP DIV SWAP1 JUMP JUMPDEST PUSH1 0x0 PUSH1 0x20 DUP3 DUP5 SUB SLT ISZERO PUSH2 0x13C2 JUMPI PUSH1 0x0 DUP1 REVERT JUMPDEST POP MLOAD SWAP2 SWAP1 POP JUMP INVALID LOG2 PUSH5 0x6970667358 0x22 SLT KECCAK256 AND 0xAA BLOBHASH 0xEA CALLCODE SUB DUP11 0xD6 GASPRICE SWAP13 0xBE 0x4B SWAP1 XOR 0xD8 DUP7 REVERT DUP7 0xC0 DUP16 DUP15 DUP13 0xCE SAR 0xC9 SWAP15 SSTORE SWAP2 0xD2 SIGNEXTEND PUSH24 0x5164736F6C63430008180033000000000000000000000000 "},"methodIdentifiers":{"cancelRaffle()":"70533250","claimPrize()":"70740ac9","creator()":"02d05d3f","creatorCommissionBps()":"aec3c173","deadline()":"29dcb0cf","description()":"7284e416","drawWinner()":"b2185bb1","entryFee()":"072ea61c","factory()":"c45a0155","fulfillRandomness(uint256,uint256)":"0695a252","getParticipants()":"5aa68ac0","getPrizePool()":"884bf67c","getRaffleDetails()":"936afab3","getTotalTickets()":"06e8337f","getUserTicketCount(address)":"963ef2a2","joinRaffle(uint256)":"4758eca9","maxParticipants()":"24924bf7","participants(uint256)":"35c1d349","prizeDescription()":"efeed224","randomResult()":"42619f66","status()":"200d2ed2","ticketCount(address)":"70ca5bbe","title()":"4a79d50c","vrfRequestId()":"18a7ea5f","winner()":"dfbf53ae","winnerIndex()":"8f00cbfa"}}}}}