{
  "_format": "hh-sol-artifact-1",
  "contractName": "Raffle",
  "sourceName": "contracts/Raffle.sol",
  "abi": [
    {
      "inputs": [
        {
          "internalType": "string",
          "name": "_title",
          "type": "string"
        },
        {
          "internalType": "string",
          "name": "_description",
          "type": "string"
        },
        {
          "internalType": "string",
          "name": "_prizeDescription",
          "type": "string"
        },
        {
          "internalType": "uint256",
          "name": "_entryFee",
          "type": "uint256"
        },
        {
          "internalType": "uint256",
          "name": "_deadline",
          "type": "uint256"
        },
        {
          "internalType": "uint256",
          "name": "_maxParticipants",
          "type": "uint256"
        },
        {
          "internalType": "address",
          "name": "_creator",
          "type": "address"
        },
        {
          "internalType": "address",
          "name": "_factory",
          "type": "address"
        },
        {
          "internalType": "uint256",
          "name": "_creatorCommissionBps",
          "type": "uint256"
        }
      ],
      "stateMutability": "nonpayable",
      "type": "constructor"
    },
    {
      "inputs": [],
      "name": "DeadlineMustBeInFuture",
      "type": "error"
    },
    {
      "inputs": [],
      "name": "DeadlineNotReached",
      "type": "error"
    },
    {
      "inputs": [],
      "name": "DeadlineTooFar",
      "type": "error"
    },
    {
      "inputs": [],
      "name": "EntryFeeMustBePositive",
      "type": "error"
    },
    {
      "inputs": [],
      "name": "EntryFeeTooHigh",
      "type": "error"
    },
    {
      "inputs": [],
      "name": "InsufficientPayment",
      "type": "error"
    },
    {
      "inputs": [],
      "name": "InvalidCommission",
      "type": "error"
    },
    {
      "inputs": [],
      "name": "InvalidFactoryAddress",
      "type": "error"
    },
    {
      "inputs": [],
      "name": "InvalidRequestId",
      "type": "error"
    },
    {
      "inputs": [],
      "name": "InvalidTicketCount",
      "type": "error"
    },
    {
      "inputs": [],
      "name": "MaxParticipantsTooHigh",
      "type": "error"
    },
    {
      "inputs": [],
      "name": "MinParticipantsTooLow",
      "type": "error"
    },
    {
      "inputs": [],
      "name": "NoParticipants",
      "type": "error"
    },
    {
      "inputs": [],
      "name": "NotCreator",
      "type": "error"
    },
    {
      "inputs": [],
      "name": "NotEnoughParticipants",
      "type": "error"
    },
    {
      "inputs": [],
      "name": "NotWinner",
      "type": "error"
    },
    {
      "inputs": [],
      "name": "OnlyFactory",
      "type": "error"
    },
    {
      "inputs": [],
      "name": "PrizeAlreadyClaimed",
      "type": "error"
    },
    {
      "inputs": [],
      "name": "RaffleEnded",
      "type": "error"
    },
    {
      "inputs": [],
      "name": "RaffleFull",
      "type": "error"
    },
    {
      "inputs": [],
      "name": "RaffleNotActive",
      "type": "error"
    },
    {
      "inputs": [],
      "name": "ReentrancyGuardReentrantCall",
      "type": "error"
    },
    {
      "inputs": [],
      "name": "TransferFailed",
      "type": "error"
    },
    {
      "inputs": [],
      "name": "WinnerAlreadyDrawn",
      "type": "error"
    },
    {
      "inputs": [],
      "name": "WinnerAlreadySet",
      "type": "error"
    },
    {
      "anonymous": false,
      "inputs": [
        {
          "indexed": true,
          "internalType": "address",
          "name": "creator",
          "type": "address"
        },
        {
          "indexed": false,
          "internalType": "uint256",
          "name": "amount",
          "type": "uint256"
        }
      ],
      "name": "CreatorCommissionPaid",
      "type": "event"
    },
    {
      "anonymous": false,
      "inputs": [
        {
          "indexed": true,
          "internalType": "address",
          "name": "participant",
          "type": "address"
        },
        {
          "indexed": false,
          "internalType": "uint256",
          "name": "ticketsBought",
          "type": "uint256"
        },
        {
          "indexed": false,
          "internalType": "uint256",
          "name": "totalTickets",
          "type": "uint256"
        },
        {
          "indexed": false,
          "internalType": "uint256",
          "name": "participantTicketCount",
          "type": "uint256"
        }
      ],
      "name": "ParticipantJoined",
      "type": "event"
    },
    {
      "anonymous": false,
      "inputs": [
        {
          "indexed": true,
          "internalType": "address",
          "name": "winner",
          "type": "address"
        },
        {
          "indexed": false,
          "internalType": "uint256",
          "name": "amount",
          "type": "uint256"
        }
      ],
      "name": "PrizeClaimed",
      "type": "event"
    },
    {
      "anonymous": false,
      "inputs": [],
      "name": "RaffleCancelled",
      "type": "event"
    },
    {
      "anonymous": false,
      "inputs": [
        {
          "indexed": false,
          "internalType": "uint256",
          "name": "requestId",
          "type": "uint256"
        }
      ],
      "name": "RandomnessRequested",
      "type": "event"
    },
    {
      "anonymous": false,
      "inputs": [
        {
          "indexed": true,
          "internalType": "address",
          "name": "winner",
          "type": "address"
        },
        {
          "indexed": false,
          "internalType": "uint256",
          "name": "winnerIndex",
          "type": "uint256"
        },
        {
          "indexed": false,
          "internalType": "uint256",
          "name": "randomNumber",
          "type": "uint256"
        },
        {
          "indexed": false,
          "internalType": "uint256",
          "name": "vrfRequestId",
          "type": "uint256"
        }
      ],
      "name": "WinnerDrawn",
      "type": "event"
    },
    {
      "inputs": [],
      "name": "cancelRaffle",
      "outputs": [],
      "stateMutability": "nonpayable",
      "type": "function"
    },
    {
      "inputs": [],
      "name": "claimPrize",
      "outputs": [],
      "stateMutability": "nonpayable",
      "type": "function"
    },
    {
      "inputs": [],
      "name": "creator",
      "outputs": [
        {
          "internalType": "address",
          "name": "",
          "type": "address"
        }
      ],
      "stateMutability": "view",
      "type": "function"
    },
    {
      "inputs": [],
      "name": "creatorCommissionBps",
      "outputs": [
        {
          "internalType": "uint256",
          "name": "",
          "type": "uint256"
        }
      ],
      "stateMutability": "view",
      "type": "function"
    },
    {
      "inputs": [],
      "name": "deadline",
      "outputs": [
        {
          "internalType": "uint256",
          "name": "",
          "type": "uint256"
        }
      ],
      "stateMutability": "view",
      "type": "function"
    },
    {
      "inputs": [],
      "name": "description",
      "outputs": [
        {
          "internalType": "string",
          "name": "",
          "type": "string"
        }
      ],
      "stateMutability": "view",
      "type": "function"
    },
    {
      "inputs": [],
      "name": "drawWinner",
      "outputs": [
        {
          "internalType": "uint256",
          "name": "requestId",
          "type": "uint256"
        }
      ],
      "stateMutability": "nonpayable",
      "type": "function"
    },
    {
      "inputs": [],
      "name": "entryFee",
      "outputs": [
        {
          "internalType": "uint256",
          "name": "",
          "type": "uint256"
        }
      ],
      "stateMutability": "view",
      "type": "function"
    },
    {
      "inputs": [],
      "name": "factory",
      "outputs": [
        {
          "internalType": "contract IRaffleFactory",
          "name": "",
          "type": "address"
        }
      ],
      "stateMutability": "view",
      "type": "function"
    },
    {
      "inputs": [
        {
          "internalType": "uint256",
          "name": "_requestId",
          "type": "uint256"
        },
        {
          "internalType": "uint256",
          "name": "_randomWord",
          "type": "uint256"
        }
      ],
      "name": "fulfillRandomness",
      "outputs": [],
      "stateMutability": "nonpayable",
      "type": "function"
    },
    {
      "inputs": [],
      "name": "getParticipants",
      "outputs": [
        {
          "internalType": "address[]",
          "name": "",
          "type": "address[]"
        }
      ],
      "stateMutability": "view",
      "type": "function"
    },
    {
      "inputs": [],
      "name": "getPrizePool",
      "outputs": [
        {
          "internalType": "uint256",
          "name": "",
          "type": "uint256"
        }
      ],
      "stateMutability": "view",
      "type": "function"
    },
    {
      "inputs": [],
      "name": "getRaffleDetails",
      "outputs": [
        {
          "internalType": "string",
          "name": "_title",
          "type": "string"
        },
        {
          "internalType": "string",
          "name": "_description",
          "type": "string"
        },
        {
          "internalType": "uint256",
          "name": "_entryFee",
          "type": "uint256"
        },
        {
          "internalType": "uint256",
          "name": "_deadline",
          "type": "uint256"
        },
        {
          "internalType": "uint256",
          "name": "_maxParticipants",
          "type": "uint256"
        },
        {
          "internalType": "uint256",
          "name": "_currentParticipants",
          "type": "uint256"
        },
        {
          "internalType": "enum Raffle.RaffleStatus",
          "name": "_status",
          "type": "uint8"
        },
        {
          "internalType": "address",
          "name": "_creator",
          "type": "address"
        },
        {
          "internalType": "address",
          "name": "_winner",
          "type": "address"
        },
        {
          "internalType": "uint256",
          "name": "_creatorCommissionBps",
          "type": "uint256"
        }
      ],
      "stateMutability": "view",
      "type": "function"
    },
    {
      "inputs": [],
      "name": "getTotalTickets",
      "outputs": [
        {
          "internalType": "uint256",
          "name": "",
          "type": "uint256"
        }
      ],
      "stateMutability": "view",
      "type": "function"
    },
    {
      "inputs": [
        {
          "internalType": "address",
          "name": "_user",
          "type": "address"
        }
      ],
      "name": "getUserTicketCount",
      "outputs": [
        {
          "internalType": "uint256",
          "name": "",
          "type": "uint256"
        }
      ],
      "stateMutability": "view",
      "type": "function"
    },
    {
      "inputs": [
        {
          "internalType": "uint256",
          "name": "_ticketCount",
          "type": "uint256"
        }
      ],
      "name": "joinRaffle",
      "outputs": [],
      "stateMutability": "payable",
      "type": "function"
    },
    {
      "inputs": [],
      "name": "maxParticipants",
      "outputs": [
        {
          "internalType": "uint256",
          "name": "",
          "type": "uint256"
        }
      ],
      "stateMutability": "view",
      "type": "function"
    },
    {
      "inputs": [
        {
          "internalType": "uint256",
          "name": "",
          "type": "uint256"
        }
      ],
      "name": "participants",
      "outputs": [
        {
          "internalType": "address",
          "name": "",
          "type": "address"
        }
      ],
      "stateMutability": "view",
      "type": "function"
    },
    {
      "inputs": [],
      "name": "prizeDescription",
      "outputs": [
        {
          "internalType": "string",
          "name": "",
          "type": "string"
        }
      ],
      "stateMutability": "view",
      "type": "function"
    },
    {
      "inputs": [],
      "name": "randomResult",
      "outputs": [
        {
          "internalType": "uint256",
          "name": "",
          "type": "uint256"
        }
      ],
      "stateMutability": "view",
      "type": "function"
    },
    {
      "inputs": [],
      "name": "status",
      "outputs": [
        {
          "internalType": "enum Raffle.RaffleStatus",
          "name": "",
          "type": "uint8"
        }
      ],
      "stateMutability": "view",
      "type": "function"
    },
    {
      "inputs": [
        {
          "internalType": "address",
          "name": "",
          "type": "address"
        }
      ],
      "name": "ticketCount",
      "outputs": [
        {
          "internalType": "uint256",
          "name": "",
          "type": "uint256"
        }
      ],
      "stateMutability": "view",
      "type": "function"
    },
    {
      "inputs": [],
      "name": "title",
      "outputs": [
        {
          "internalType": "string",
          "name": "",
          "type": "string"
        }
      ],
      "stateMutability": "view",
      "type": "function"
    },
    {
      "inputs": [],
      "name": "vrfRequestId",
      "outputs": [
        {
          "internalType": "uint256",
          "name": "",
          "type": "uint256"
        }
      ],
      "stateMutability": "view",
      "type": "function"
    },
    {
      "inputs": [],
      "name": "winner",
      "outputs": [
        {
          "internalType": "address",
          "name": "",
          "type": "address"
        }
      ],
      "stateMutability": "view",
      "type": "function"
    },
    {
      "inputs": [],
      "name": "winnerIndex",
      "outputs": [
        {
          "internalType": "uint256",
          "name": "",
          "type": "uint256"
        }
      ],
      "stateMutability": "view",
      "type": "function"
    }
  ],
  "bytecode": "0x60a06040523480156200001157600080fd5b5060405162001998380380620019988339810160408190526200003491620002c3565b60016000554285116200005a57604051630642ce7760e01b815260040160405180910390fd5b6200006a426301e13380620003a1565b8511156200008b576040516324787d7360e11b815260040160405180910390fd5b85600003620000ad576040516315801e6b60e21b815260040160405180910390fd5b68056bc75e2d63100000861115620000d857604051631a3dc29960e21b815260040160405180910390fd5b83600103620000fa57604051630def91b560e41b815260040160405180910390fd5b6127108411156200011e57604051630c2e7b5760e41b815260040160405180910390fd5b6001600160a01b0382166200014657604051635c7bfbe960e01b815260040160405180910390fd5b6103e88111156200016a5760405163dc81db8560e01b815260040160405180910390fd5b6001620001788a826200045a565b5060026200018789826200045a565b5060036200019688826200045a565b5060049590955560059390935560069190915560078054600160a01b6001600160a81b03199091166001600160a01b0393841617179055166080526008555062000526915050565b634e487b7160e01b600052604160045260246000fd5b600082601f8301126200020657600080fd5b81516001600160401b0380821115620002235762000223620001de565b604051601f8301601f19908116603f011681019082821181831017156200024e576200024e620001de565b81604052838152602092508660208588010111156200026c57600080fd5b600091505b8382101562000290578582018301518183018401529082019062000271565b6000602085830101528094505050505092915050565b80516001600160a01b0381168114620002be57600080fd5b919050565b60008060008060008060008060006101208a8c031215620002e357600080fd5b89516001600160401b0380821115620002fb57600080fd5b620003098d838e01620001f4565b9a5060208c01519150808211156200032057600080fd5b6200032e8d838e01620001f4565b995060408c01519150808211156200034557600080fd5b50620003548c828d01620001f4565b97505060608a0151955060808a0151945060a08a015193506200037a60c08b01620002a6565b92506200038a60e08b01620002a6565b91506101008a015190509295985092959850929598565b80820180821115620003c357634e487b7160e01b600052601160045260246000fd5b92915050565b600181811c90821680620003de57607f821691505b602082108103620003ff57634e487b7160e01b600052602260045260246000fd5b50919050565b601f82111562000455576000816000526020600020601f850160051c81016020861015620004305750805b601f850160051c820191505b8181101562000451578281556001016200043c565b5050505b505050565b81516001600160401b03811115620004765762000476620001de565b6200048e81620004878454620003c9565b8462000405565b602080601f831160018114620004c65760008415620004ad5750858301515b600019600386901b1c1916600185901b17855562000451565b600085815260208120601f198616915b82811015620004f757888601518255948401946001909101908401620004d6565b5085821015620005165787850151600019600388901b60f8161c191681555b5050505050600190811b01905550565b608051611448620005506000396000818161044a015281816104ac015261104501526114486000f3fe6080604052600436106101815760003560e01c806370533250116100d1578063936afab31161008a578063b2185bb111610064578063b2185bb114610423578063c45a015514610438578063dfbf53ae1461046c578063efeed2241461048c57600080fd5b8063936afab3146103ac578063963ef2a2146103d7578063aec3c1731461040d57600080fd5b8063705332501461031757806370740ac91461032c57806370ca5bbe146103415780637284e4161461036e578063884bf67c146103835780638f00cbfa1461039657600080fd5b806324924bf71161013e57806342619f661161011857806342619f66146102aa5780634758eca9146102c05780634a79d50c146102d35780635aa68ac0146102f557600080fd5b806324924bf71461025e57806329dcb0cf1461027457806335c1d3491461028a57600080fd5b806302d05d3f146101865780630695a252146101c357806306e8337f146101e5578063072ea61c1461020457806318a7ea5f1461021a578063200d2ed214610230575b600080fd5b34801561019257600080fd5b506007546101a6906001600160a01b031681565b6040516001600160a01b0390911681526020015b60405180910390f35b3480156101cf57600080fd5b506101e36101de36600461113c565b6104a1565b005b3480156101f157600080fd5b506009545b6040519081526020016101ba565b34801561021057600080fd5b506101f660045481565b34801561022657600080fd5b506101f6600e5481565b34801561023c57600080fd5b5060075461025190600160a01b900460ff1681565b6040516101ba9190611196565b34801561026a57600080fd5b506101f660065481565b34801561028057600080fd5b506101f660055481565b34801561029657600080fd5b506101a66102a53660046111aa565b6105eb565b3480156102b657600080fd5b506101f6600d5481565b6101e36102ce3660046111aa565b610615565b3480156102df57600080fd5b506102e8610856565b6040516101ba9190611209565b34801561030157600080fd5b5061030a6108e4565b6040516101ba9190611223565b34801561032357600080fd5b506101e3610946565b34801561033857600080fd5b506101e3610ba1565b34801561034d57600080fd5b506101f661035c366004611270565b600a6020526000908152604090205481565b34801561037a57600080fd5b506102e8610dd4565b34801561038f57600080fd5b50476101f6565b3480156103a257600080fd5b506101f6600c5481565b3480156103b857600080fd5b506103c1610de1565b6040516101ba9a99989796959493929190611299565b3480156103e357600080fd5b506101f66103f2366004611270565b6001600160a01b03166000908152600a602052604090205490565b34801561041957600080fd5b506101f660085481565b34801561042f57600080fd5b506101f6610f7a565b34801561044457600080fd5b506101a67f000000000000000000000000000000000000000000000000000000000000000081565b34801561047857600080fd5b50600b546101a6906001600160a01b031681565b34801561049857600080fd5b506102e8611105565b336001600160a01b037f000000000000000000000000000000000000000000000000000000000000000016146104ea57604051630636a15760e11b815260040160405180910390fd5b600e54821461050c576040516302e8145360e61b815260040160405180910390fd5b600b546001600160a01b0316156105365760405163636ed8dd60e11b815260040160405180910390fd5b600d819055600954610548908261132e565b600c819055506009600c548154811061056357610563611342565b60009182526020918290200154600b80546001600160a01b0319166001600160a01b0390921691821790556007805460ff60a01b1916600360a01b179055600c54600d546040805192835293820152808301859052915190917ff52fac7e26724c6e0808da8161af0a1263330646f3989bb031cc71fbaa7bf521919081900360600190a25050565b600981815481106105fb57600080fd5b6000918252602090912001546001600160a01b0316905081565b6001600754600160a01b900460ff1660048111156106355761063561115e565b1461065357604051632ae47f7360e01b815260040160405180910390fd5b60055442106106755760405163502fd88d60e01b815260040160405180910390fd5b8060000361069657604051638e71bef960e01b815260040160405180910390fd5b6000816004546106a6919061136e565b9050803410156106c95760405163cd1c886760e01b815260040160405180910390fd5b60065415610701576006546009546106e2908490611385565b111561070157604051630771de3360e01b815260040160405180910390fd5b60005b828110156107555760098054600181810183556000929092527f6e1540171b6c0c960b71a7020d9f60077f6af931a8bbf590da0223dacf75c7af0180546001600160a01b0319163317905501610704565b50336000908152600a602052604081208054849290610775908490611385565b9091555050600954336000818152600a60209081526040918290205482518781529182019490945290810192909252907fe367e10777f2a25a834ba205395c23c7f7175d3d6d36137ee22c3f056d780c0a9060600160405180910390a260006107de8234611398565b9050801561085157604051600090339083908381818185875af1925050503d8060008114610828576040519150601f19603f3d011682016040523d82523d6000602084013e61082d565b606091505b505090508061084f576040516312171d8360e31b815260040160405180910390fd5b505b505050565b60018054610863906113ab565b80601f016020809104026020016040519081016040528092919081815260200182805461088f906113ab565b80156108dc5780601f106108b1576101008083540402835291602001916108dc565b820191906000526020600020905b8154815290600101906020018083116108bf57829003601f168201915b505050505081565b6060600980548060200260200160405190810160405280929190818152602001828054801561093c57602002820191906000526020600020905b81546001600160a01b0316815260019091019060200180831161091e575b5050505050905090565b61094e611112565b6000600554421015801561096457506009546002115b6007549091506001600160a01b03163314801590610980575080155b1561099e576040516393687c0b60e01b815260040160405180910390fd5b6003600754600160a01b900460ff1660048111156109be576109be61115e565b14806109e757506004600754600160a01b900460ff1660048111156109e5576109e561115e565b145b15610a055760405163502fd88d60e01b815260040160405180910390fd5b6007805460ff60a01b1916600160a21b1790556040517f90e8484a98b653b6def19811c0e3811715da0de9c6b90d013442ba7e7541295190600090a1600454600980546040805160208084028201810190925282815260009390929091830182828015610a9b57602002820191906000526020600020905b81546001600160a01b03168152600190910190602001808311610a7d575b505050505090506000805b8251811015610b90576000838281518110610ac357610ac3611342565b60200260200101519050826001600160a01b0316816001600160a01b031614610b87576001600160a01b0381166000908152600a602052604081205490610b0a878361136e565b90506000836001600160a01b03168260405160006040518083038185875af1925050503d8060008114610b59576040519150601f19603f3d011682016040523d82523d6000602084013e610b5e565b606091505b5050905080610b80576040516312171d8360e31b815260040160405180910390fd5b8395505050505b50600101610aa6565b5050505050610b9f6001600055565b565b610ba9611112565b600b546001600160a01b03163314610bd4576040516330c6392160e11b815260040160405180910390fd5b6003600754600160a01b900460ff166004811115610bf457610bf461115e565b14610c1257604051630770596760e11b815260040160405180910390fd5b6007805460ff60a01b1916600160a21b179055600854479060009061271090610c3b908461136e565b610c4591906113e5565b90506000610c538284611398565b600b546040518281529192506001600160a01b0316907f95681e512bc0fe659e195e06c283eada494316f3d801213e48e7101af92bf7709060200160405180910390a2600b546040516000916001600160a01b03169083908381818185875af1925050503d8060008114610ce3576040519150601f19603f3d011682016040523d82523d6000602084013e610ce8565b606091505b5050905080610d0a576040516312171d8360e31b815260040160405180910390fd5b8215610dc6576007546040518481526001600160a01b03909116907ffced7da42f0f076c425d7fa774af80c6fb4c4337cd595e67a56de7ff5c90be2d9060200160405180910390a26007546040516000916001600160a01b03169085908381818185875af1925050503d8060008114610d9f576040519150601f19603f3d011682016040523d82523d6000602084013e610da4565b606091505b5050905080610b90576040516312171d8360e31b815260040160405180910390fd5b50505050610b9f6001600055565b60028054610863906113ab565b60608060008060008060008060008060016002600454600554600654600980549050600760149054906101000a900460ff16600760009054906101000a90046001600160a01b0316600b60009054906101000a90046001600160a01b0316600854898054610e4e906113ab565b80601f0160208091040260200160405190810160405280929190818152602001828054610e7a906113ab565b8015610ec75780601f10610e9c57610100808354040283529160200191610ec7565b820191906000526020600020905b815481529060010190602001808311610eaa57829003601f168201915b50505050509950888054610eda906113ab565b80601f0160208091040260200160405190810160405280929190818152602001828054610f06906113ab565b8015610f535780601f10610f2857610100808354040283529160200191610f53565b820191906000526020600020905b815481529060010190602001808311610f3657829003601f168201915b50505050509850995099509950995099509950995099509950995090919293949596979899565b600060055442108015610f9a57506006541580610f9a5750600654600954105b15610fb857604051633376277360e11b815260040160405180910390fd5b600954600003610fdb576040516308b6a47360e41b815260040160405180910390fd5b60095460021115610fff576040516399f46cd560e01b815260040160405180910390fd5b600b546001600160a01b03161561102957604051630770596760e11b815260040160405180910390fd5b600780546002919060ff60a01b1916600160a01b8302179055507f00000000000000000000000000000000000000000000000000000000000000006001600160a01b0316631b930e996040518163ffffffff1660e01b81526004016020604051808303816000875af11580156110a3573d6000803e3d6000fd5b505050506040513d601f19601f820116820180604052508101906110c791906113f9565b600e8190556040518181529091507f9ac10fb18c93d33ad7b0a941897aef048d0f8d30756684e82b4552ba12764d459060200160405180910390a190565b60038054610863906113ab565b60026000540361113557604051633ee5aeb560e01b815260040160405180910390fd5b6002600055565b6000806040838503121561114f57600080fd5b50508035926020909101359150565b634e487b7160e01b600052602160045260246000fd5b6005811061119257634e487b7160e01b600052602160045260246000fd5b9052565b602081016111a48284611174565b92915050565b6000602082840312156111bc57600080fd5b5035919050565b6000815180845260005b818110156111e9576020818501810151868301820152016111cd565b506000602082860101526020601f19601f83011685010191505092915050565b60208152600061121c60208301846111c3565b9392505050565b6020808252825182820181905260009190848201906040850190845b818110156112645783516001600160a01b03168352928401929184019160010161123f565b50909695505050505050565b60006020828403121561128257600080fd5b81356001600160a01b038116811461121c57600080fd5b60006101408083526112ad8184018e6111c3565b905082810360208401526112c1818d6111c3565b9150508960408301528860608301528760808301528660a08301526112e960c0830187611174565b6001600160a01b0394851660e08301529290931661010084015261012090920191909152979650505050505050565b634e487b7160e01b600052601260045260246000fd5b60008261133d5761133d611318565b500690565b634e487b7160e01b600052603260045260246000fd5b634e487b7160e01b600052601160045260246000fd5b80820281158282048414176111a4576111a4611358565b808201808211156111a4576111a4611358565b818103818111156111a4576111a4611358565b600181811c908216806113bf57607f821691505b6020821081036113df57634e487b7160e01b600052602260045260246000fd5b50919050565b6000826113f4576113f4611318565b500490565b60006020828403121561140b57600080fd5b505191905056fea26469706673582212208f7a1e11f4e61e7e429f7d9d91be41160413247934ab9cded8d61ffd6d33413864736f6c63430008180033",
  "linkReferences": {},
  "deployedLinkReferences": {}
}