{
  "_format": "hh-sol-artifact-1",
  "contractName": "Raffle",
  "sourceName": "contracts/Raffle.sol",
  "abi": [
    {
      "inputs": [
        {
          "internalType": "string",
          "name": "_title",
          "type": "string"
        },
        {
          "internalType": "string",
          "name": "_description",
          "type": "string"
        },
        {
          "internalType": "string",
          "name": "_prizeDescription",
          "type": "string"
        },
        {
          "internalType": "uint256",
          "name": "_entryFee",
          "type": "uint256"
        },
        {
          "internalType": "uint256",
          "name": "_deadline",
          "type": "uint256"
        },
        {
          "internalType": "uint256",
          "name": "_maxParticipants",
          "type": "uint256"
        },
        {
          "internalType": "address",
          "name": "_creator",
          "type": "address"
        },
        {
          "internalType": "address",
          "name": "_factory",
          "type": "address"
        }
      ],
      "stateMutability": "nonpayable",
      "type": "constructor"
    },
    {
      "inputs": [],
      "name": "DeadlineMustBeInFuture",
      "type": "error"
    },
    {
      "inputs": [],
      "name": "DeadlineNotReached",
      "type": "error"
    },
    {
      "inputs": [],
      "name": "DeadlineTooFar",
      "type": "error"
    },
    {
      "inputs": [],
      "name": "EntryFeeMustBePositive",
      "type": "error"
    },
    {
      "inputs": [],
      "name": "EntryFeeTooHigh",
      "type": "error"
    },
    {
      "inputs": [],
      "name": "InsufficientPayment",
      "type": "error"
    },
    {
      "inputs": [],
      "name": "InvalidFactoryAddress",
      "type": "error"
    },
    {
      "inputs": [],
      "name": "InvalidRequestId",
      "type": "error"
    },
    {
      "inputs": [],
      "name": "InvalidTicketCount",
      "type": "error"
    },
    {
      "inputs": [],
      "name": "MaxParticipantsTooHigh",
      "type": "error"
    },
    {
      "inputs": [],
      "name": "MinParticipantsTooLow",
      "type": "error"
    },
    {
      "inputs": [],
      "name": "NoParticipants",
      "type": "error"
    },
    {
      "inputs": [],
      "name": "NotCreator",
      "type": "error"
    },
    {
      "inputs": [],
      "name": "NotWinner",
      "type": "error"
    },
    {
      "inputs": [],
      "name": "OnlyFactory",
      "type": "error"
    },
    {
      "inputs": [],
      "name": "PrizeAlreadyClaimed",
      "type": "error"
    },
    {
      "inputs": [],
      "name": "RaffleEnded",
      "type": "error"
    },
    {
      "inputs": [],
      "name": "RaffleFull",
      "type": "error"
    },
    {
      "inputs": [],
      "name": "RaffleNotActive",
      "type": "error"
    },
    {
      "inputs": [],
      "name": "ReentrancyGuardReentrantCall",
      "type": "error"
    },
    {
      "inputs": [],
      "name": "TransferFailed",
      "type": "error"
    },
    {
      "inputs": [],
      "name": "WinnerAlreadyDrawn",
      "type": "error"
    },
    {
      "inputs": [],
      "name": "WinnerAlreadySet",
      "type": "error"
    },
    {
      "anonymous": false,
      "inputs": [
        {
          "indexed": true,
          "internalType": "address",
          "name": "participant",
          "type": "address"
        },
        {
          "indexed": false,
          "internalType": "uint256",
          "name": "ticketsBought",
          "type": "uint256"
        },
        {
          "indexed": false,
          "internalType": "uint256",
          "name": "totalTickets",
          "type": "uint256"
        },
        {
          "indexed": false,
          "internalType": "uint256",
          "name": "participantTicketCount",
          "type": "uint256"
        }
      ],
      "name": "ParticipantJoined",
      "type": "event"
    },
    {
      "anonymous": false,
      "inputs": [
        {
          "indexed": true,
          "internalType": "address",
          "name": "winner",
          "type": "address"
        },
        {
          "indexed": false,
          "internalType": "uint256",
          "name": "amount",
          "type": "uint256"
        }
      ],
      "name": "PrizeClaimed",
      "type": "event"
    },
    {
      "anonymous": false,
      "inputs": [],
      "name": "RaffleCancelled",
      "type": "event"
    },
    {
      "anonymous": false,
      "inputs": [
        {
          "indexed": false,
          "internalType": "uint256",
          "name": "requestId",
          "type": "uint256"
        }
      ],
      "name": "RandomnessRequested",
      "type": "event"
    },
    {
      "anonymous": false,
      "inputs": [
        {
          "indexed": true,
          "internalType": "address",
          "name": "winner",
          "type": "address"
        },
        {
          "indexed": false,
          "internalType": "uint256",
          "name": "winnerIndex",
          "type": "uint256"
        },
        {
          "indexed": false,
          "internalType": "uint256",
          "name": "randomNumber",
          "type": "uint256"
        },
        {
          "indexed": false,
          "internalType": "uint256",
          "name": "vrfRequestId",
          "type": "uint256"
        }
      ],
      "name": "WinnerDrawn",
      "type": "event"
    },
    {
      "inputs": [],
      "name": "cancelRaffle",
      "outputs": [],
      "stateMutability": "nonpayable",
      "type": "function"
    },
    {
      "inputs": [],
      "name": "claimPrize",
      "outputs": [],
      "stateMutability": "nonpayable",
      "type": "function"
    },
    {
      "inputs": [],
      "name": "creator",
      "outputs": [
        {
          "internalType": "address",
          "name": "",
          "type": "address"
        }
      ],
      "stateMutability": "view",
      "type": "function"
    },
    {
      "inputs": [],
      "name": "deadline",
      "outputs": [
        {
          "internalType": "uint256",
          "name": "",
          "type": "uint256"
        }
      ],
      "stateMutability": "view",
      "type": "function"
    },
    {
      "inputs": [],
      "name": "description",
      "outputs": [
        {
          "internalType": "string",
          "name": "",
          "type": "string"
        }
      ],
      "stateMutability": "view",
      "type": "function"
    },
    {
      "inputs": [],
      "name": "drawWinner",
      "outputs": [
        {
          "internalType": "uint256",
          "name": "requestId",
          "type": "uint256"
        }
      ],
      "stateMutability": "nonpayable",
      "type": "function"
    },
    {
      "inputs": [],
      "name": "entryFee",
      "outputs": [
        {
          "internalType": "uint256",
          "name": "",
          "type": "uint256"
        }
      ],
      "stateMutability": "view",
      "type": "function"
    },
    {
      "inputs": [],
      "name": "factory",
      "outputs": [
        {
          "internalType": "contract IRaffleFactory",
          "name": "",
          "type": "address"
        }
      ],
      "stateMutability": "view",
      "type": "function"
    },
    {
      "inputs": [
        {
          "internalType": "uint256",
          "name": "_requestId",
          "type": "uint256"
        },
        {
          "internalType": "uint256",
          "name": "_randomWord",
          "type": "uint256"
        }
      ],
      "name": "fulfillRandomness",
      "outputs": [],
      "stateMutability": "nonpayable",
      "type": "function"
    },
    {
      "inputs": [],
      "name": "getParticipants",
      "outputs": [
        {
          "internalType": "address[]",
          "name": "",
          "type": "address[]"
        }
      ],
      "stateMutability": "view",
      "type": "function"
    },
    {
      "inputs": [],
      "name": "getPrizePool",
      "outputs": [
        {
          "internalType": "uint256",
          "name": "",
          "type": "uint256"
        }
      ],
      "stateMutability": "view",
      "type": "function"
    },
    {
      "inputs": [],
      "name": "getRaffleDetails",
      "outputs": [
        {
          "internalType": "string",
          "name": "_title",
          "type": "string"
        },
        {
          "internalType": "string",
          "name": "_description",
          "type": "string"
        },
        {
          "internalType": "uint256",
          "name": "_entryFee",
          "type": "uint256"
        },
        {
          "internalType": "uint256",
          "name": "_deadline",
          "type": "uint256"
        },
        {
          "internalType": "uint256",
          "name": "_maxParticipants",
          "type": "uint256"
        },
        {
          "internalType": "uint256",
          "name": "_currentParticipants",
          "type": "uint256"
        },
        {
          "internalType": "enum Raffle.RaffleStatus",
          "name": "_status",
          "type": "uint8"
        },
        {
          "internalType": "address",
          "name": "_creator",
          "type": "address"
        },
        {
          "internalType": "address",
          "name": "_winner",
          "type": "address"
        }
      ],
      "stateMutability": "view",
      "type": "function"
    },
    {
      "inputs": [],
      "name": "getTotalTickets",
      "outputs": [
        {
          "internalType": "uint256",
          "name": "",
          "type": "uint256"
        }
      ],
      "stateMutability": "view",
      "type": "function"
    },
    {
      "inputs": [
        {
          "internalType": "address",
          "name": "_user",
          "type": "address"
        }
      ],
      "name": "getUserTicketCount",
      "outputs": [
        {
          "internalType": "uint256",
          "name": "",
          "type": "uint256"
        }
      ],
      "stateMutability": "view",
      "type": "function"
    },
    {
      "inputs": [
        {
          "internalType": "uint256",
          "name": "_ticketCount",
          "type": "uint256"
        }
      ],
      "name": "joinRaffle",
      "outputs": [],
      "stateMutability": "payable",
      "type": "function"
    },
    {
      "inputs": [],
      "name": "maxParticipants",
      "outputs": [
        {
          "internalType": "uint256",
          "name": "",
          "type": "uint256"
        }
      ],
      "stateMutability": "view",
      "type": "function"
    },
    {
      "inputs": [
        {
          "internalType": "uint256",
          "name": "",
          "type": "uint256"
        }
      ],
      "name": "participants",
      "outputs": [
        {
          "internalType": "address",
          "name": "",
          "type": "address"
        }
      ],
      "stateMutability": "view",
      "type": "function"
    },
    {
      "inputs": [],
      "name": "prizeDescription",
      "outputs": [
        {
          "internalType": "string",
          "name": "",
          "type": "string"
        }
      ],
      "stateMutability": "view",
      "type": "function"
    },
    {
      "inputs": [],
      "name": "randomResult",
      "outputs": [
        {
          "internalType": "uint256",
          "name": "",
          "type": "uint256"
        }
      ],
      "stateMutability": "view",
      "type": "function"
    },
    {
      "inputs": [],
      "name": "status",
      "outputs": [
        {
          "internalType": "enum Raffle.RaffleStatus",
          "name": "",
          "type": "uint8"
        }
      ],
      "stateMutability": "view",
      "type": "function"
    },
    {
      "inputs": [
        {
          "internalType": "address",
          "name": "",
          "type": "address"
        }
      ],
      "name": "ticketCount",
      "outputs": [
        {
          "internalType": "uint256",
          "name": "",
          "type": "uint256"
        }
      ],
      "stateMutability": "view",
      "type": "function"
    },
    {
      "inputs": [],
      "name": "title",
      "outputs": [
        {
          "internalType": "string",
          "name": "",
          "type": "string"
        }
      ],
      "stateMutability": "view",
      "type": "function"
    },
    {
      "inputs": [],
      "name": "vrfRequestId",
      "outputs": [
        {
          "internalType": "uint256",
          "name": "",
          "type": "uint256"
        }
      ],
      "stateMutability": "view",
      "type": "function"
    },
    {
      "inputs": [],
      "name": "winner",
      "outputs": [
        {
          "internalType": "address",
          "name": "",
          "type": "address"
        }
      ],
      "stateMutability": "view",
      "type": "function"
    },
    {
      "inputs": [],
      "name": "winnerIndex",
      "outputs": [
        {
          "internalType": "uint256",
          "name": "",
          "type": "uint256"
        }
      ],
      "stateMutability": "view",
      "type": "function"
    }
  ],
  "bytecode": "0x60a06040523480156200001157600080fd5b50604051620017d4380380620017d4833981016040819052620000349162000299565b60016000554284116200005a57604051630642ce7760e01b815260040160405180910390fd5b6200006a426301e133806200036d565b8411156200008b576040516324787d7360e11b815260040160405180910390fd5b84600003620000ad576040516315801e6b60e21b815260040160405180910390fd5b68056bc75e2d63100000851115620000d857604051631a3dc29960e21b815260040160405180910390fd5b82600103620000fa57604051630def91b560e41b815260040160405180910390fd5b6127108311156200011e57604051630c2e7b5760e41b815260040160405180910390fd5b6001600160a01b0381166200014657604051635c7bfbe960e01b815260040160405180910390fd5b600162000154898262000426565b50600262000163888262000426565b50600362000172878262000426565b5060049490945560059290925560065560078054600160a01b6001600160a81b03199091166001600160a01b03938416171790551660805250620004f2915050565b634e487b7160e01b600052604160045260246000fd5b600082601f830112620001dc57600080fd5b81516001600160401b0380821115620001f957620001f9620001b4565b604051601f8301601f19908116603f01168101908282118183101715620002245762000224620001b4565b81604052838152602092508660208588010111156200024257600080fd5b600091505b8382101562000266578582018301518183018401529082019062000247565b6000602085830101528094505050505092915050565b80516001600160a01b03811681146200029457600080fd5b919050565b600080600080600080600080610100898b031215620002b757600080fd5b88516001600160401b0380821115620002cf57600080fd5b620002dd8c838d01620001ca565b995060208b0151915080821115620002f457600080fd5b620003028c838d01620001ca565b985060408b01519150808211156200031957600080fd5b50620003288b828c01620001ca565b965050606089015194506080890151935060a089015192506200034e60c08a016200027c565b91506200035e60e08a016200027c565b90509295985092959890939650565b808201808211156200038f57634e487b7160e01b600052601160045260246000fd5b92915050565b600181811c90821680620003aa57607f821691505b602082108103620003cb57634e487b7160e01b600052602260045260246000fd5b50919050565b601f82111562000421576000816000526020600020601f850160051c81016020861015620003fc5750805b601f850160051c820191505b818110156200041d5782815560010162000408565b5050505b505050565b81516001600160401b03811115620004425762000442620001b4565b6200045a8162000453845462000395565b84620003d1565b602080601f831160018114620004925760008415620004795750858301515b600019600386901b1c1916600185901b1785556200041d565b600085815260208120601f198616915b82811015620004c357888601518255948401946001909101908401620004a2565b5085821015620004e25787850151600019600388901b60f8161c191681555b5050505050600190811b01905550565b6080516112b86200051c600039600081816104180152818161047a0152610ed701526112b86000f3fe6080604052600436106101665760003560e01c80635aa68ac0116100d15780638f00cbfa1161008a578063b2185bb111610064578063b2185bb1146103f1578063c45a015514610406578063dfbf53ae1461043a578063efeed2241461045a57600080fd5b80638f00cbfa1461037b578063936afab314610391578063963ef2a2146103bb57600080fd5b80635aa68ac0146102da57806370533250146102fc57806370740ac91461031157806370ca5bbe146103265780637284e41614610353578063884bf67c1461036857600080fd5b806324924bf71161012357806324924bf71461024357806329dcb0cf1461025957806335c1d3491461026f57806342619f661461028f5780634758eca9146102a55780634a79d50c146102b857600080fd5b806302d05d3f1461016b5780630695a252146101a857806306e8337f146101ca578063072ea61c146101e957806318a7ea5f146101ff578063200d2ed214610215575b600080fd5b34801561017757600080fd5b5060075461018b906001600160a01b031681565b6040516001600160a01b0390911681526020015b60405180910390f35b3480156101b457600080fd5b506101c86101c3366004610fce565b61046f565b005b3480156101d657600080fd5b506008545b60405190815260200161019f565b3480156101f557600080fd5b506101db60045481565b34801561020b57600080fd5b506101db600d5481565b34801561022157600080fd5b5060075461023690600160a01b900460ff1681565b60405161019f9190611028565b34801561024f57600080fd5b506101db60065481565b34801561026557600080fd5b506101db60055481565b34801561027b57600080fd5b5061018b61028a36600461103c565b6105b9565b34801561029b57600080fd5b506101db600c5481565b6101c86102b336600461103c565b6105e3565b3480156102c457600080fd5b506102cd610824565b60405161019f919061109b565b3480156102e657600080fd5b506102ef6108b2565b60405161019f91906110b5565b34801561030857600080fd5b506101c8610914565b34801561031d57600080fd5b506101c8610b49565b34801561033257600080fd5b506101db610341366004611102565b60096020526000908152604090205481565b34801561035f57600080fd5b506102cd610c91565b34801561037457600080fd5b50476101db565b34801561038757600080fd5b506101db600b5481565b34801561039d57600080fd5b506103a6610c9e565b60405161019f9998979695949392919061112b565b3480156103c757600080fd5b506101db6103d6366004611102565b6001600160a01b031660009081526009602052604090205490565b3480156103fd57600080fd5b506101db610e30565b34801561041257600080fd5b5061018b7f000000000000000000000000000000000000000000000000000000000000000081565b34801561044657600080fd5b50600a5461018b906001600160a01b031681565b34801561046657600080fd5b506102cd610f97565b336001600160a01b037f000000000000000000000000000000000000000000000000000000000000000016146104b857604051630636a15760e11b815260040160405180910390fd5b600d5482146104da576040516302e8145360e61b815260040160405180910390fd5b600a546001600160a01b0316156105045760405163636ed8dd60e11b815260040160405180910390fd5b600c81905560085461051690826111a4565b600b819055506008600b5481548110610531576105316111c6565b60009182526020918290200154600a80546001600160a01b0319166001600160a01b0390921691821790556007805460ff60a01b1916600360a01b179055600b54600c546040805192835293820152808301859052915190917ff52fac7e26724c6e0808da8161af0a1263330646f3989bb031cc71fbaa7bf521919081900360600190a25050565b600881815481106105c957600080fd5b6000918252602090912001546001600160a01b0316905081565b6001600754600160a01b900460ff16600481111561060357610603610ff0565b1461062157604051632ae47f7360e01b815260040160405180910390fd5b60055442106106435760405163502fd88d60e01b815260040160405180910390fd5b8060000361066457604051638e71bef960e01b815260040160405180910390fd5b60008160045461067491906111f2565b9050803410156106975760405163cd1c886760e01b815260040160405180910390fd5b600654156106cf576006546008546106b0908490611209565b11156106cf57604051630771de3360e01b815260040160405180910390fd5b60005b828110156107235760088054600181810183556000929092527ff3f7a9fe364faab93b216da50a3214154f22a0a2b415b23a84c8169e8b636ee30180546001600160a01b03191633179055016106d2565b503360009081526009602052604081208054849290610743908490611209565b9091555050600854336000818152600960209081526040918290205482518781529182019490945290810192909252907fe367e10777f2a25a834ba205395c23c7f7175d3d6d36137ee22c3f056d780c0a9060600160405180910390a260006107ac823461121c565b9050801561081f57604051600090339083908381818185875af1925050503d80600081146107f6576040519150601f19603f3d011682016040523d82523d6000602084013e6107fb565b606091505b505090508061081d576040516312171d8360e31b815260040160405180910390fd5b505b505050565b600180546108319061122f565b80601f016020809104026020016040519081016040528092919081815260200182805461085d9061122f565b80156108aa5780601f1061087f576101008083540402835291602001916108aa565b820191906000526020600020905b81548152906001019060200180831161088d57829003601f168201915b505050505081565b6060600880548060200260200160405190810160405280929190818152602001828054801561090a57602002820191906000526020600020905b81546001600160a01b031681526001909101906020018083116108ec575b5050505050905090565b61091c610fa4565b6007546001600160a01b03163314610947576040516393687c0b60e01b815260040160405180910390fd5b6003600754600160a01b900460ff16600481111561096757610967610ff0565b148061099057506004600754600160a01b900460ff16600481111561098e5761098e610ff0565b145b156109ae5760405163502fd88d60e01b815260040160405180910390fd5b6007805460ff60a01b1916600160a21b1790556040517f90e8484a98b653b6def19811c0e3811715da0de9c6b90d013442ba7e7541295190600090a1600454600880546040805160208084028201810190925282815260009390929091830182828015610a4457602002820191906000526020600020905b81546001600160a01b03168152600190910190602001808311610a26575b505050505090506000805b8251811015610b39576000838281518110610a6c57610a6c6111c6565b60200260200101519050826001600160a01b0316816001600160a01b031614610b30576001600160a01b03811660009081526009602052604081205490610ab387836111f2565b90506000836001600160a01b03168260405160006040518083038185875af1925050503d8060008114610b02576040519150601f19603f3d011682016040523d82523d6000602084013e610b07565b606091505b5050905080610b29576040516312171d8360e31b815260040160405180910390fd5b8395505050505b50600101610a4f565b50505050610b476001600055565b565b610b51610fa4565b600a546001600160a01b03163314610b7c576040516330c6392160e11b815260040160405180910390fd5b6003600754600160a01b900460ff166004811115610b9c57610b9c610ff0565b14610bba57604051630770596760e11b815260040160405180910390fd5b60078054600160a21b60ff60a01b19909116179055600a5460405147808252916001600160a01b0316907f95681e512bc0fe659e195e06c283eada494316f3d801213e48e7101af92bf7709060200160405180910390a2600a546040516000916001600160a01b03169083908381818185875af1925050503d8060008114610c5e576040519150601f19603f3d011682016040523d82523d6000602084013e610c63565b606091505b5050905080610c85576040516312171d8360e31b815260040160405180910390fd5b5050610b476001600055565b600280546108319061122f565b606080600080600080600080600060016002600454600554600654600880549050600760149054906101000a900460ff16600760009054906101000a90046001600160a01b0316600a60009054906101000a90046001600160a01b0316888054610d079061122f565b80601f0160208091040260200160405190810160405280929190818152602001828054610d339061122f565b8015610d805780601f10610d5557610100808354040283529160200191610d80565b820191906000526020600020905b815481529060010190602001808311610d6357829003601f168201915b50505050509850878054610d939061122f565b80601f0160208091040260200160405190810160405280929190818152602001828054610dbf9061122f565b8015610e0c5780601f10610de157610100808354040283529160200191610e0c565b820191906000526020600020905b815481529060010190602001808311610def57829003601f168201915b50505050509750985098509850985098509850985098509850909192939495969798565b600060055442108015610e5057506006541580610e505750600654600854105b15610e6e57604051633376277360e11b815260040160405180910390fd5b600854600003610e91576040516308b6a47360e41b815260040160405180910390fd5b600a546001600160a01b031615610ebb57604051630770596760e11b815260040160405180910390fd5b600780546002919060ff60a01b1916600160a01b8302179055507f00000000000000000000000000000000000000000000000000000000000000006001600160a01b0316631b930e996040518163ffffffff1660e01b81526004016020604051808303816000875af1158015610f35573d6000803e3d6000fd5b505050506040513d601f19601f82011682018060405250810190610f599190611269565b600d8190556040518181529091507f9ac10fb18c93d33ad7b0a941897aef048d0f8d30756684e82b4552ba12764d459060200160405180910390a190565b600380546108319061122f565b600260005403610fc757604051633ee5aeb560e01b815260040160405180910390fd5b6002600055565b60008060408385031215610fe157600080fd5b50508035926020909101359150565b634e487b7160e01b600052602160045260246000fd5b6005811061102457634e487b7160e01b600052602160045260246000fd5b9052565b602081016110368284611006565b92915050565b60006020828403121561104e57600080fd5b5035919050565b6000815180845260005b8181101561107b5760208185018101518683018201520161105f565b506000602082860101526020601f19601f83011685010191505092915050565b6020815260006110ae6020830184611055565b9392505050565b6020808252825182820181905260009190848201906040850190845b818110156110f65783516001600160a01b0316835292840192918401916001016110d1565b50909695505050505050565b60006020828403121561111457600080fd5b81356001600160a01b03811681146110ae57600080fd5b600061012080835261113f8184018d611055565b90508281036020840152611153818c611055565b9150508860408301528760608301528660808301528560a083015261117b60c0830186611006565b6001600160a01b0393841660e08301529190921661010090920191909152979650505050505050565b6000826111c157634e487b7160e01b600052601260045260246000fd5b500690565b634e487b7160e01b600052603260045260246000fd5b634e487b7160e01b600052601160045260246000fd5b8082028115828204841417611036576110366111dc565b80820180821115611036576110366111dc565b81810381811115611036576110366111dc565b600181811c9082168061124357607f821691505b60208210810361126357634e487b7160e01b600052602260045260246000fd5b50919050565b60006020828403121561127b57600080fd5b505191905056fea2646970667358221220039d1a615218c9fd2420fc8d0ab3476fb7f4bca5d7e35921922f447ccb5d9d7264736f6c63430008180033",
  "linkReferences": {},
  "deployedLinkReferences": {}
}