{
  "_format": "hh-sol-artifact-1",
  "contractName": "Raffle",
  "sourceName": "contracts/Raffle.sol",
  "abi": [
    {
      "inputs": [
        {
          "internalType": "string",
          "name": "_title",
          "type": "string"
        },
        {
          "internalType": "string",
          "name": "_description",
          "type": "string"
        },
        {
          "internalType": "string",
          "name": "_prizeDescription",
          "type": "string"
        },
        {
          "internalType": "uint256",
          "name": "_entryFee",
          "type": "uint256"
        },
        {
          "internalType": "uint256",
          "name": "_deadline",
          "type": "uint256"
        },
        {
          "internalType": "uint256",
          "name": "_maxParticipants",
          "type": "uint256"
        },
        {
          "internalType": "address",
          "name": "_factory",
          "type": "address"
        }
      ],
      "stateMutability": "nonpayable",
      "type": "constructor"
    },
    {
      "inputs": [],
      "name": "DeadlineNotReached",
      "type": "error"
    },
    {
      "inputs": [],
      "name": "InsufficientPayment",
      "type": "error"
    },
    {
      "inputs": [],
      "name": "InvalidTicketCount",
      "type": "error"
    },
    {
      "inputs": [],
      "name": "NoParticipants",
      "type": "error"
    },
    {
      "inputs": [],
      "name": "NotCreator",
      "type": "error"
    },
    {
      "inputs": [],
      "name": "NotWinner",
      "type": "error"
    },
    {
      "inputs": [],
      "name": "OnlyFactory",
      "type": "error"
    },
    {
      "inputs": [],
      "name": "PrizeAlreadyClaimed",
      "type": "error"
    },
    {
      "inputs": [],
      "name": "RaffleEnded",
      "type": "error"
    },
    {
      "inputs": [],
      "name": "RaffleFull",
      "type": "error"
    },
    {
      "inputs": [],
      "name": "RaffleNotActive",
      "type": "error"
    },
    {
      "inputs": [],
      "name": "WinnerAlreadyDrawn",
      "type": "error"
    },
    {
      "anonymous": false,
      "inputs": [
        {
          "indexed": true,
          "internalType": "address",
          "name": "participant",
          "type": "address"
        },
        {
          "indexed": false,
          "internalType": "uint256",
          "name": "ticketsBought",
          "type": "uint256"
        },
        {
          "indexed": false,
          "internalType": "uint256",
          "name": "totalTickets",
          "type": "uint256"
        },
        {
          "indexed": false,
          "internalType": "uint256",
          "name": "participantTicketCount",
          "type": "uint256"
        }
      ],
      "name": "ParticipantJoined",
      "type": "event"
    },
    {
      "anonymous": false,
      "inputs": [
        {
          "indexed": true,
          "internalType": "address",
          "name": "winner",
          "type": "address"
        },
        {
          "indexed": false,
          "internalType": "uint256",
          "name": "amount",
          "type": "uint256"
        }
      ],
      "name": "PrizeClaimed",
      "type": "event"
    },
    {
      "anonymous": false,
      "inputs": [],
      "name": "RaffleCancelled",
      "type": "event"
    },
    {
      "anonymous": false,
      "inputs": [
        {
          "indexed": false,
          "internalType": "uint256",
          "name": "requestId",
          "type": "uint256"
        }
      ],
      "name": "RandomnessRequested",
      "type": "event"
    },
    {
      "anonymous": false,
      "inputs": [
        {
          "indexed": true,
          "internalType": "address",
          "name": "winner",
          "type": "address"
        },
        {
          "indexed": false,
          "internalType": "uint256",
          "name": "winnerIndex",
          "type": "uint256"
        },
        {
          "indexed": false,
          "internalType": "uint256",
          "name": "randomNumber",
          "type": "uint256"
        },
        {
          "indexed": false,
          "internalType": "uint256",
          "name": "vrfRequestId",
          "type": "uint256"
        }
      ],
      "name": "WinnerDrawn",
      "type": "event"
    },
    {
      "inputs": [],
      "name": "cancelRaffle",
      "outputs": [],
      "stateMutability": "nonpayable",
      "type": "function"
    },
    {
      "inputs": [],
      "name": "claimPrize",
      "outputs": [],
      "stateMutability": "nonpayable",
      "type": "function"
    },
    {
      "inputs": [],
      "name": "creator",
      "outputs": [
        {
          "internalType": "address",
          "name": "",
          "type": "address"
        }
      ],
      "stateMutability": "view",
      "type": "function"
    },
    {
      "inputs": [],
      "name": "deadline",
      "outputs": [
        {
          "internalType": "uint256",
          "name": "",
          "type": "uint256"
        }
      ],
      "stateMutability": "view",
      "type": "function"
    },
    {
      "inputs": [],
      "name": "description",
      "outputs": [
        {
          "internalType": "string",
          "name": "",
          "type": "string"
        }
      ],
      "stateMutability": "view",
      "type": "function"
    },
    {
      "inputs": [],
      "name": "drawWinner",
      "outputs": [
        {
          "internalType": "uint256",
          "name": "requestId",
          "type": "uint256"
        }
      ],
      "stateMutability": "nonpayable",
      "type": "function"
    },
    {
      "inputs": [],
      "name": "entryFee",
      "outputs": [
        {
          "internalType": "uint256",
          "name": "",
          "type": "uint256"
        }
      ],
      "stateMutability": "view",
      "type": "function"
    },
    {
      "inputs": [],
      "name": "factory",
      "outputs": [
        {
          "internalType": "contract IRaffleFactory",
          "name": "",
          "type": "address"
        }
      ],
      "stateMutability": "view",
      "type": "function"
    },
    {
      "inputs": [
        {
          "internalType": "uint256",
          "name": "_requestId",
          "type": "uint256"
        },
        {
          "internalType": "uint256",
          "name": "_randomWord",
          "type": "uint256"
        }
      ],
      "name": "fulfillRandomness",
      "outputs": [],
      "stateMutability": "nonpayable",
      "type": "function"
    },
    {
      "inputs": [],
      "name": "getParticipants",
      "outputs": [
        {
          "internalType": "address[]",
          "name": "",
          "type": "address[]"
        }
      ],
      "stateMutability": "view",
      "type": "function"
    },
    {
      "inputs": [],
      "name": "getPrizePool",
      "outputs": [
        {
          "internalType": "uint256",
          "name": "",
          "type": "uint256"
        }
      ],
      "stateMutability": "view",
      "type": "function"
    },
    {
      "inputs": [],
      "name": "getRaffleDetails",
      "outputs": [
        {
          "internalType": "string",
          "name": "_title",
          "type": "string"
        },
        {
          "internalType": "string",
          "name": "_description",
          "type": "string"
        },
        {
          "internalType": "uint256",
          "name": "_entryFee",
          "type": "uint256"
        },
        {
          "internalType": "uint256",
          "name": "_deadline",
          "type": "uint256"
        },
        {
          "internalType": "uint256",
          "name": "_maxParticipants",
          "type": "uint256"
        },
        {
          "internalType": "uint256",
          "name": "_currentParticipants",
          "type": "uint256"
        },
        {
          "internalType": "enum Raffle.RaffleStatus",
          "name": "_status",
          "type": "uint8"
        },
        {
          "internalType": "address",
          "name": "_creator",
          "type": "address"
        },
        {
          "internalType": "address",
          "name": "_winner",
          "type": "address"
        }
      ],
      "stateMutability": "view",
      "type": "function"
    },
    {
      "inputs": [],
      "name": "getTotalTickets",
      "outputs": [
        {
          "internalType": "uint256",
          "name": "",
          "type": "uint256"
        }
      ],
      "stateMutability": "view",
      "type": "function"
    },
    {
      "inputs": [
        {
          "internalType": "address",
          "name": "_user",
          "type": "address"
        }
      ],
      "name": "getUserTicketCount",
      "outputs": [
        {
          "internalType": "uint256",
          "name": "",
          "type": "uint256"
        }
      ],
      "stateMutability": "view",
      "type": "function"
    },
    {
      "inputs": [
        {
          "internalType": "uint256",
          "name": "_ticketCount",
          "type": "uint256"
        }
      ],
      "name": "joinRaffle",
      "outputs": [],
      "stateMutability": "payable",
      "type": "function"
    },
    {
      "inputs": [],
      "name": "maxParticipants",
      "outputs": [
        {
          "internalType": "uint256",
          "name": "",
          "type": "uint256"
        }
      ],
      "stateMutability": "view",
      "type": "function"
    },
    {
      "inputs": [
        {
          "internalType": "uint256",
          "name": "",
          "type": "uint256"
        }
      ],
      "name": "participants",
      "outputs": [
        {
          "internalType": "address",
          "name": "",
          "type": "address"
        }
      ],
      "stateMutability": "view",
      "type": "function"
    },
    {
      "inputs": [],
      "name": "prizeDescription",
      "outputs": [
        {
          "internalType": "string",
          "name": "",
          "type": "string"
        }
      ],
      "stateMutability": "view",
      "type": "function"
    },
    {
      "inputs": [],
      "name": "randomResult",
      "outputs": [
        {
          "internalType": "uint256",
          "name": "",
          "type": "uint256"
        }
      ],
      "stateMutability": "view",
      "type": "function"
    },
    {
      "inputs": [],
      "name": "status",
      "outputs": [
        {
          "internalType": "enum Raffle.RaffleStatus",
          "name": "",
          "type": "uint8"
        }
      ],
      "stateMutability": "view",
      "type": "function"
    },
    {
      "inputs": [
        {
          "internalType": "address",
          "name": "",
          "type": "address"
        }
      ],
      "name": "ticketCount",
      "outputs": [
        {
          "internalType": "uint256",
          "name": "",
          "type": "uint256"
        }
      ],
      "stateMutability": "view",
      "type": "function"
    },
    {
      "inputs": [],
      "name": "title",
      "outputs": [
        {
          "internalType": "string",
          "name": "",
          "type": "string"
        }
      ],
      "stateMutability": "view",
      "type": "function"
    },
    {
      "inputs": [],
      "name": "vrfRequestId",
      "outputs": [
        {
          "internalType": "uint256",
          "name": "",
          "type": "uint256"
        }
      ],
      "stateMutability": "view",
      "type": "function"
    },
    {
      "inputs": [],
      "name": "winner",
      "outputs": [
        {
          "internalType": "address",
          "name": "",
          "type": "address"
        }
      ],
      "stateMutability": "view",
      "type": "function"
    },
    {
      "inputs": [],
      "name": "winnerIndex",
      "outputs": [
        {
          "internalType": "uint256",
          "name": "",
          "type": "uint256"
        }
      ],
      "stateMutability": "view",
      "type": "function"
    }
  ],
  "bytecode": "0x60a06040523480156200001157600080fd5b50604051620016c5380380620016c583398101604081905262000034916200026c565b428311620000895760405162461bcd60e51b815260206004820152601e60248201527f446561646c696e65206d75737420626520696e2074686520667574757265000060448201526064015b60405180910390fd5b60008411620000db5760405162461bcd60e51b815260206004820181905260248201527f456e74727920666565206d7573742062652067726561746572207468616e2030604482015260640162000080565b6001600160a01b038116620001335760405162461bcd60e51b815260206004820152601760248201527f496e76616c696420666163746f72792061646472657373000000000000000000604482015260640162000080565b6000620001418882620003d0565b506001620001508782620003d0565b5060026200015f8682620003d0565b50600393909355600491909155600555600680546001600160a81b0319163260ff60a01b191617600160a01b1790556001600160a01b0316608052506200049c915050565b634e487b7160e01b600052604160045260246000fd5b600082601f830112620001cc57600080fd5b81516001600160401b0380821115620001e957620001e9620001a4565b604051601f8301601f19908116603f01168101908282118183101715620002145762000214620001a4565b81604052838152602092508660208588010111156200023257600080fd5b600091505b8382101562000256578582018301518183018401529082019062000237565b6000602085830101528094505050505092915050565b600080600080600080600060e0888a0312156200028857600080fd5b87516001600160401b0380821115620002a057600080fd5b620002ae8b838c01620001ba565b985060208a0151915080821115620002c557600080fd5b620002d38b838c01620001ba565b975060408a0151915080821115620002ea57600080fd5b50620002f98a828b01620001ba565b60608a015160808b015160a08c015160c08d01519399509197509550935090506001600160a01b03811681146200032f57600080fd5b8091505092959891949750929550565b600181811c908216806200035457607f821691505b6020821081036200037557634e487b7160e01b600052602260045260246000fd5b50919050565b601f821115620003cb576000816000526020600020601f850160051c81016020861015620003a65750805b601f850160051c820191505b81811015620003c757828155600101620003b2565b5050505b505050565b81516001600160401b03811115620003ec57620003ec620001a4565b6200040481620003fd84546200033f565b846200037b565b602080601f8311600181146200043c5760008415620004235750858301515b600019600386901b1c1916600185901b178555620003c7565b600085815260208120601f198616915b828110156200046d578886015182559484019460019091019084016200044c565b50858210156200048c5787850151600019600388901b60f8161c191681555b5050505050600190811b01905550565b6080516111ff620004c6600039600081816104180152818161047a0152610e4801526111ff6000f3fe6080604052600436106101665760003560e01c80635aa68ac0116100d15780638f00cbfa1161008a578063b2185bb111610064578063b2185bb1146103f1578063c45a015514610406578063dfbf53ae1461043a578063efeed2241461045a57600080fd5b80638f00cbfa1461037b578063936afab314610391578063963ef2a2146103bb57600080fd5b80635aa68ac0146102da57806370533250146102fc57806370740ac91461031157806370ca5bbe146103265780637284e41614610353578063884bf67c1461036857600080fd5b806324924bf71161012357806324924bf71461024357806329dcb0cf1461025957806335c1d3491461026f57806342619f661461028f5780634758eca9146102a55780634a79d50c146102b857600080fd5b806302d05d3f1461016b5780630695a252146101a857806306e8337f146101ca578063072ea61c146101e957806318a7ea5f146101ff578063200d2ed214610215575b600080fd5b34801561017757600080fd5b5060065461018b906001600160a01b031681565b6040516001600160a01b0390911681526020015b60405180910390f35b3480156101b457600080fd5b506101c86101c3366004610f15565b61046f565b005b3480156101d657600080fd5b506007545b60405190815260200161019f565b3480156101f557600080fd5b506101db60035481565b34801561020b57600080fd5b506101db600c5481565b34801561022157600080fd5b5060065461023690600160a01b900460ff1681565b60405161019f9190610f6f565b34801561024f57600080fd5b506101db60055481565b34801561026557600080fd5b506101db60045481565b34801561027b57600080fd5b5061018b61028a366004610f83565b610606565b34801561029b57600080fd5b506101db600b5481565b6101c86102b3366004610f83565b610630565b3480156102c457600080fd5b506102cd610835565b60405161019f9190610fe2565b3480156102e657600080fd5b506102ef6108c3565b60405161019f9190610ffc565b34801561030857600080fd5b506101c8610925565b34801561031d57600080fd5b506101c8610b05565b34801561033257600080fd5b506101db610341366004611049565b60086020526000908152604090205481565b34801561035f57600080fd5b506102cd610c03565b34801561037457600080fd5b50476101db565b34801561038757600080fd5b506101db600a5481565b34801561039d57600080fd5b506103a6610c10565b60405161019f99989796959493929190611072565b3480156103c757600080fd5b506101db6103d6366004611049565b6001600160a01b031660009081526008602052604090205490565b3480156103fd57600080fd5b506101db610da1565b34801561041257600080fd5b5061018b7f000000000000000000000000000000000000000000000000000000000000000081565b34801561044657600080fd5b5060095461018b906001600160a01b031681565b34801561046657600080fd5b506102cd610f08565b336001600160a01b037f000000000000000000000000000000000000000000000000000000000000000016146104b857604051630636a15760e11b815260040160405180910390fd5b600c5482146105035760405162461bcd60e51b8152602060048201526012602482015271125b9d985b1a59081c995c5d595cdd08125160721b60448201526064015b60405180910390fd5b6009546001600160a01b0316156105515760405162461bcd60e51b815260206004820152601260248201527115da5b9b995c88185b1c9958591e481cd95d60721b60448201526064016104fa565b600b81905560075461056390826110eb565b600a819055506007600a548154811061057e5761057e61110d565b60009182526020918290200154600980546001600160a01b0319166001600160a01b0390921691821790556006805460ff60a01b1916600360a01b179055600a54600b546040805192835293820152808301859052915190917ff52fac7e26724c6e0808da8161af0a1263330646f3989bb031cc71fbaa7bf521919081900360600190a25050565b6007818154811061061657600080fd5b6000918252602090912001546001600160a01b0316905081565b6001600654600160a01b900460ff16600481111561065057610650610f37565b1461066e57604051632ae47f7360e01b815260040160405180910390fd5b60045442106106905760405163502fd88d60e01b815260040160405180910390fd5b806000036106b157604051638e71bef960e01b815260040160405180910390fd5b6000816003546106c19190611139565b9050803410156106e45760405163cd1c886760e01b815260040160405180910390fd5b6005541561071c576005546007546106fd908490611150565b111561071c57604051630771de3360e01b815260040160405180910390fd5b60005b828110156107705760078054600181810183556000929092527fa66cc928b5edb82af9bd49922954155ab7b0942694bea4ce44661d9a8736c6880180546001600160a01b031916331790550161071f565b503360009081526008602052604081208054849290610790908490611150565b9091555050600754336000818152600860209081526040918290205482518781529182019490945290810192909252907fe367e10777f2a25a834ba205395c23c7f7175d3d6d36137ee22c3f056d780c0a9060600160405180910390a260006107f98234611163565b9050801561083057604051339082156108fc029083906000818181858888f1935050505015801561082e573d6000803e3d6000fd5b505b505050565b6000805461084290611176565b80601f016020809104026020016040519081016040528092919081815260200182805461086e90611176565b80156108bb5780601f10610890576101008083540402835291602001916108bb565b820191906000526020600020905b81548152906001019060200180831161089e57829003601f168201915b505050505081565b6060600780548060200260200160405190810160405280929190818152602001828054801561091b57602002820191906000526020600020905b81546001600160a01b031681526001909101906020018083116108fd575b5050505050905090565b6006546001600160a01b03163314610950576040516393687c0b60e01b815260040160405180910390fd5b6003600654600160a01b900460ff16600481111561097057610970610f37565b148061099957506004600654600160a01b900460ff16600481111561099757610997610f37565b145b156109b75760405163502fd88d60e01b815260040160405180910390fd5b6006805460ff60a01b1916600160a21b1790556040517f90e8484a98b653b6def19811c0e3811715da0de9c6b90d013442ba7e7541295190600090a1600354600780546040805160208084028201810190925282815260009390929091830182828015610a4d57602002820191906000526020600020905b81546001600160a01b03168152600190910190602001808311610a2f575b505050505090506000805b825181101561082e576000838281518110610a7557610a7561110d565b60200260200101519050826001600160a01b0316816001600160a01b031614610afc576001600160a01b03811660009081526008602052604081205490610abc8783611139565b6040519091506001600160a01b0384169082156108fc029083906000818181858888f19350505050158015610af5573d6000803e3d6000fd5b5082945050505b50600101610a58565b6009546001600160a01b03163314610b30576040516330c6392160e11b815260040160405180910390fd5b6003600654600160a01b900460ff166004811115610b5057610b50610f37565b14610b6e57604051630770596760e11b815260040160405180910390fd5b60068054600160a21b60ff60a01b1990911617905560095460405147808252916001600160a01b0316907f95681e512bc0fe659e195e06c283eada494316f3d801213e48e7101af92bf7709060200160405180910390a26009546040516001600160a01b039091169082156108fc029083906000818181858888f19350505050158015610bff573d6000803e3d6000fd5b5050565b6001805461084290611176565b6060806000806000806000806000806001600354600454600554600780549050600660149054906101000a900460ff16600660009054906101000a90046001600160a01b0316600960009054906101000a90046001600160a01b0316888054610c7890611176565b80601f0160208091040260200160405190810160405280929190818152602001828054610ca490611176565b8015610cf15780601f10610cc657610100808354040283529160200191610cf1565b820191906000526020600020905b815481529060010190602001808311610cd457829003601f168201915b50505050509850878054610d0490611176565b80601f0160208091040260200160405190810160405280929190818152602001828054610d3090611176565b8015610d7d5780601f10610d5257610100808354040283529160200191610d7d565b820191906000526020600020905b815481529060010190602001808311610d6057829003601f168201915b50505050509750985098509850985098509850985098509850909192939495969798565b600060045442108015610dc157506005541580610dc15750600554600754105b15610ddf57604051633376277360e11b815260040160405180910390fd5b600754600003610e02576040516308b6a47360e41b815260040160405180910390fd5b6009546001600160a01b031615610e2c57604051630770596760e11b815260040160405180910390fd5b600680546002919060ff60a01b1916600160a01b8302179055507f00000000000000000000000000000000000000000000000000000000000000006001600160a01b0316631b930e996040518163ffffffff1660e01b81526004016020604051808303816000875af1158015610ea6573d6000803e3d6000fd5b505050506040513d601f19601f82011682018060405250810190610eca91906111b0565b600c8190556040518181529091507f9ac10fb18c93d33ad7b0a941897aef048d0f8d30756684e82b4552ba12764d459060200160405180910390a190565b6002805461084290611176565b60008060408385031215610f2857600080fd5b50508035926020909101359150565b634e487b7160e01b600052602160045260246000fd5b60058110610f6b57634e487b7160e01b600052602160045260246000fd5b9052565b60208101610f7d8284610f4d565b92915050565b600060208284031215610f9557600080fd5b5035919050565b6000815180845260005b81811015610fc257602081850181015186830182015201610fa6565b506000602082860101526020601f19601f83011685010191505092915050565b602081526000610ff56020830184610f9c565b9392505050565b6020808252825182820181905260009190848201906040850190845b8181101561103d5783516001600160a01b031683529284019291840191600101611018565b50909695505050505050565b60006020828403121561105b57600080fd5b81356001600160a01b0381168114610ff557600080fd5b60006101208083526110868184018d610f9c565b9050828103602084015261109a818c610f9c565b9150508860408301528760608301528660808301528560a08301526110c260c0830186610f4d565b6001600160a01b0393841660e08301529190921661010090920191909152979650505050505050565b60008261110857634e487b7160e01b600052601260045260246000fd5b500690565b634e487b7160e01b600052603260045260246000fd5b634e487b7160e01b600052601160045260246000fd5b8082028115828204841417610f7d57610f7d611123565b80820180821115610f7d57610f7d611123565b81810381811115610f7d57610f7d611123565b600181811c9082168061118a57607f821691505b6020821081036111aa57634e487b7160e01b600052602260045260246000fd5b50919050565b6000602082840312156111c257600080fd5b505191905056fea264697066735822122029c6f8cb468472e3f832f3120e24e55986e67d11c43e7f975643ecfedd8bbde664736f6c63430008180033",
  "linkReferences": {},
  "deployedLinkReferences": {}
}