{
  "_format": "hh-sol-artifact-1",
  "contractName": "Raffle",
  "sourceName": "contracts/Raffle.sol",
  "abi": [
    {
      "inputs": [
        {
          "internalType": "string",
          "name": "_title",
          "type": "string"
        },
        {
          "internalType": "string",
          "name": "_description",
          "type": "string"
        },
        {
          "internalType": "string",
          "name": "_prizeDescription",
          "type": "string"
        },
        {
          "internalType": "uint256",
          "name": "_entryFee",
          "type": "uint256"
        },
        {
          "internalType": "uint256",
          "name": "_deadline",
          "type": "uint256"
        },
        {
          "internalType": "uint256",
          "name": "_maxParticipants",
          "type": "uint256"
        },
        {
          "internalType": "address",
          "name": "_creator",
          "type": "address"
        },
        {
          "internalType": "address",
          "name": "_factory",
          "type": "address"
        },
        {
          "internalType": "uint256",
          "name": "_creatorCommissionBps",
          "type": "uint256"
        },
        {
          "internalType": "address",
          "name": "_usdc",
          "type": "address"
        }
      ],
      "stateMutability": "nonpayable",
      "type": "constructor"
    },
    {
      "inputs": [],
      "name": "DeadlineMustBeInFuture",
      "type": "error"
    },
    {
      "inputs": [],
      "name": "DeadlineNotReached",
      "type": "error"
    },
    {
      "inputs": [],
      "name": "DeadlineTooFar",
      "type": "error"
    },
    {
      "inputs": [],
      "name": "DrawInProgress",
      "type": "error"
    },
    {
      "inputs": [],
      "name": "EntryFeeMustBePositive",
      "type": "error"
    },
    {
      "inputs": [],
      "name": "EntryFeeTooHigh",
      "type": "error"
    },
    {
      "inputs": [],
      "name": "EntryFeeTooLow",
      "type": "error"
    },
    {
      "inputs": [],
      "name": "InvalidCommission",
      "type": "error"
    },
    {
      "inputs": [],
      "name": "InvalidFactoryAddress",
      "type": "error"
    },
    {
      "inputs": [],
      "name": "InvalidRequestId",
      "type": "error"
    },
    {
      "inputs": [],
      "name": "InvalidTicketCount",
      "type": "error"
    },
    {
      "inputs": [],
      "name": "InvalidUSDCAddress",
      "type": "error"
    },
    {
      "inputs": [],
      "name": "MaxParticipantsTooHigh",
      "type": "error"
    },
    {
      "inputs": [],
      "name": "MinParticipantsTooLow",
      "type": "error"
    },
    {
      "inputs": [],
      "name": "NoParticipants",
      "type": "error"
    },
    {
      "inputs": [],
      "name": "NoRefundAvailable",
      "type": "error"
    },
    {
      "inputs": [],
      "name": "NotCreator",
      "type": "error"
    },
    {
      "inputs": [],
      "name": "NotEnoughParticipants",
      "type": "error"
    },
    {
      "inputs": [],
      "name": "NotWinner",
      "type": "error"
    },
    {
      "inputs": [],
      "name": "OnlyFactory",
      "type": "error"
    },
    {
      "inputs": [],
      "name": "PrizeAlreadyClaimed",
      "type": "error"
    },
    {
      "inputs": [],
      "name": "RaffleEnded",
      "type": "error"
    },
    {
      "inputs": [],
      "name": "RaffleFull",
      "type": "error"
    },
    {
      "inputs": [],
      "name": "RaffleNotActive",
      "type": "error"
    },
    {
      "inputs": [],
      "name": "RaffleNotCancelled",
      "type": "error"
    },
    {
      "inputs": [],
      "name": "ReentrancyGuardReentrantCall",
      "type": "error"
    },
    {
      "inputs": [
        {
          "internalType": "address",
          "name": "token",
          "type": "address"
        }
      ],
      "name": "SafeERC20FailedOperation",
      "type": "error"
    },
    {
      "inputs": [],
      "name": "WinnerAlreadyDrawn",
      "type": "error"
    },
    {
      "inputs": [],
      "name": "WinnerAlreadySet",
      "type": "error"
    },
    {
      "anonymous": false,
      "inputs": [
        {
          "indexed": true,
          "internalType": "address",
          "name": "creator",
          "type": "address"
        },
        {
          "indexed": false,
          "internalType": "uint256",
          "name": "amount",
          "type": "uint256"
        }
      ],
      "name": "CreatorCommissionPaid",
      "type": "event"
    },
    {
      "anonymous": false,
      "inputs": [
        {
          "indexed": true,
          "internalType": "address",
          "name": "participant",
          "type": "address"
        },
        {
          "indexed": false,
          "internalType": "uint256",
          "name": "ticketsBought",
          "type": "uint256"
        },
        {
          "indexed": false,
          "internalType": "uint256",
          "name": "totalTickets",
          "type": "uint256"
        },
        {
          "indexed": false,
          "internalType": "uint256",
          "name": "participantTicketCount",
          "type": "uint256"
        }
      ],
      "name": "ParticipantJoined",
      "type": "event"
    },
    {
      "anonymous": false,
      "inputs": [
        {
          "indexed": true,
          "internalType": "address",
          "name": "platform",
          "type": "address"
        },
        {
          "indexed": false,
          "internalType": "uint256",
          "name": "amount",
          "type": "uint256"
        }
      ],
      "name": "PlatformFeePaid",
      "type": "event"
    },
    {
      "anonymous": false,
      "inputs": [
        {
          "indexed": true,
          "internalType": "address",
          "name": "winner",
          "type": "address"
        },
        {
          "indexed": false,
          "internalType": "uint256",
          "name": "amount",
          "type": "uint256"
        }
      ],
      "name": "PrizeClaimed",
      "type": "event"
    },
    {
      "anonymous": false,
      "inputs": [],
      "name": "RaffleCancelled",
      "type": "event"
    },
    {
      "anonymous": false,
      "inputs": [
        {
          "indexed": false,
          "internalType": "uint256",
          "name": "requestId",
          "type": "uint256"
        }
      ],
      "name": "RandomnessRequested",
      "type": "event"
    },
    {
      "anonymous": false,
      "inputs": [
        {
          "indexed": true,
          "internalType": "address",
          "name": "participant",
          "type": "address"
        },
        {
          "indexed": false,
          "internalType": "uint256",
          "name": "amount",
          "type": "uint256"
        }
      ],
      "name": "RefundWithdrawn",
      "type": "event"
    },
    {
      "anonymous": false,
      "inputs": [
        {
          "indexed": true,
          "internalType": "address",
          "name": "winner",
          "type": "address"
        },
        {
          "indexed": false,
          "internalType": "uint256",
          "name": "winnerIndex",
          "type": "uint256"
        },
        {
          "indexed": false,
          "internalType": "uint256",
          "name": "randomNumber",
          "type": "uint256"
        },
        {
          "indexed": false,
          "internalType": "uint256",
          "name": "vrfRequestId",
          "type": "uint256"
        }
      ],
      "name": "WinnerDrawn",
      "type": "event"
    },
    {
      "inputs": [],
      "name": "cancelRaffle",
      "outputs": [],
      "stateMutability": "nonpayable",
      "type": "function"
    },
    {
      "inputs": [],
      "name": "claimPrize",
      "outputs": [],
      "stateMutability": "nonpayable",
      "type": "function"
    },
    {
      "inputs": [],
      "name": "creator",
      "outputs": [
        {
          "internalType": "address",
          "name": "",
          "type": "address"
        }
      ],
      "stateMutability": "view",
      "type": "function"
    },
    {
      "inputs": [],
      "name": "creatorCommissionBps",
      "outputs": [
        {
          "internalType": "uint256",
          "name": "",
          "type": "uint256"
        }
      ],
      "stateMutability": "view",
      "type": "function"
    },
    {
      "inputs": [],
      "name": "deadline",
      "outputs": [
        {
          "internalType": "uint256",
          "name": "",
          "type": "uint256"
        }
      ],
      "stateMutability": "view",
      "type": "function"
    },
    {
      "inputs": [],
      "name": "description",
      "outputs": [
        {
          "internalType": "string",
          "name": "",
          "type": "string"
        }
      ],
      "stateMutability": "view",
      "type": "function"
    },
    {
      "inputs": [],
      "name": "drawWinner",
      "outputs": [
        {
          "internalType": "uint256",
          "name": "requestId",
          "type": "uint256"
        }
      ],
      "stateMutability": "nonpayable",
      "type": "function"
    },
    {
      "inputs": [],
      "name": "entryFee",
      "outputs": [
        {
          "internalType": "uint256",
          "name": "",
          "type": "uint256"
        }
      ],
      "stateMutability": "view",
      "type": "function"
    },
    {
      "inputs": [],
      "name": "factory",
      "outputs": [
        {
          "internalType": "contract IRaffleFactory",
          "name": "",
          "type": "address"
        }
      ],
      "stateMutability": "view",
      "type": "function"
    },
    {
      "inputs": [
        {
          "internalType": "uint256",
          "name": "_requestId",
          "type": "uint256"
        },
        {
          "internalType": "uint256",
          "name": "_randomWord",
          "type": "uint256"
        }
      ],
      "name": "fulfillRandomness",
      "outputs": [],
      "stateMutability": "nonpayable",
      "type": "function"
    },
    {
      "inputs": [],
      "name": "getParticipants",
      "outputs": [
        {
          "internalType": "address[]",
          "name": "",
          "type": "address[]"
        }
      ],
      "stateMutability": "view",
      "type": "function"
    },
    {
      "inputs": [],
      "name": "getPrizePool",
      "outputs": [
        {
          "internalType": "uint256",
          "name": "",
          "type": "uint256"
        }
      ],
      "stateMutability": "view",
      "type": "function"
    },
    {
      "inputs": [],
      "name": "getRaffleDetails",
      "outputs": [
        {
          "internalType": "string",
          "name": "_title",
          "type": "string"
        },
        {
          "internalType": "string",
          "name": "_description",
          "type": "string"
        },
        {
          "internalType": "uint256",
          "name": "_entryFee",
          "type": "uint256"
        },
        {
          "internalType": "uint256",
          "name": "_deadline",
          "type": "uint256"
        },
        {
          "internalType": "uint256",
          "name": "_maxParticipants",
          "type": "uint256"
        },
        {
          "internalType": "uint256",
          "name": "_currentParticipants",
          "type": "uint256"
        },
        {
          "internalType": "enum Raffle.RaffleStatus",
          "name": "_status",
          "type": "uint8"
        },
        {
          "internalType": "address",
          "name": "_creator",
          "type": "address"
        },
        {
          "internalType": "address",
          "name": "_winner",
          "type": "address"
        },
        {
          "internalType": "uint256",
          "name": "_creatorCommissionBps",
          "type": "uint256"
        }
      ],
      "stateMutability": "view",
      "type": "function"
    },
    {
      "inputs": [],
      "name": "getTotalTickets",
      "outputs": [
        {
          "internalType": "uint256",
          "name": "",
          "type": "uint256"
        }
      ],
      "stateMutability": "view",
      "type": "function"
    },
    {
      "inputs": [
        {
          "internalType": "address",
          "name": "_user",
          "type": "address"
        }
      ],
      "name": "getUserTicketCount",
      "outputs": [
        {
          "internalType": "uint256",
          "name": "",
          "type": "uint256"
        }
      ],
      "stateMutability": "view",
      "type": "function"
    },
    {
      "inputs": [],
      "name": "maxParticipants",
      "outputs": [
        {
          "internalType": "uint256",
          "name": "",
          "type": "uint256"
        }
      ],
      "stateMutability": "view",
      "type": "function"
    },
    {
      "inputs": [
        {
          "internalType": "uint256",
          "name": "",
          "type": "uint256"
        }
      ],
      "name": "participants",
      "outputs": [
        {
          "internalType": "address",
          "name": "",
          "type": "address"
        }
      ],
      "stateMutability": "view",
      "type": "function"
    },
    {
      "inputs": [],
      "name": "prizeDescription",
      "outputs": [
        {
          "internalType": "string",
          "name": "",
          "type": "string"
        }
      ],
      "stateMutability": "view",
      "type": "function"
    },
    {
      "inputs": [],
      "name": "randomResult",
      "outputs": [
        {
          "internalType": "uint256",
          "name": "",
          "type": "uint256"
        }
      ],
      "stateMutability": "view",
      "type": "function"
    },
    {
      "inputs": [
        {
          "internalType": "address",
          "name": "_participant",
          "type": "address"
        },
        {
          "internalType": "uint256",
          "name": "_ticketCount",
          "type": "uint256"
        }
      ],
      "name": "registerTickets",
      "outputs": [],
      "stateMutability": "nonpayable",
      "type": "function"
    },
    {
      "inputs": [],
      "name": "status",
      "outputs": [
        {
          "internalType": "enum Raffle.RaffleStatus",
          "name": "",
          "type": "uint8"
        }
      ],
      "stateMutability": "view",
      "type": "function"
    },
    {
      "inputs": [
        {
          "internalType": "address",
          "name": "",
          "type": "address"
        }
      ],
      "name": "ticketCount",
      "outputs": [
        {
          "internalType": "uint256",
          "name": "",
          "type": "uint256"
        }
      ],
      "stateMutability": "view",
      "type": "function"
    },
    {
      "inputs": [],
      "name": "title",
      "outputs": [
        {
          "internalType": "string",
          "name": "",
          "type": "string"
        }
      ],
      "stateMutability": "view",
      "type": "function"
    },
    {
      "inputs": [],
      "name": "usdc",
      "outputs": [
        {
          "internalType": "contract IERC20",
          "name": "",
          "type": "address"
        }
      ],
      "stateMutability": "view",
      "type": "function"
    },
    {
      "inputs": [],
      "name": "vrfRequestId",
      "outputs": [
        {
          "internalType": "uint256",
          "name": "",
          "type": "uint256"
        }
      ],
      "stateMutability": "view",
      "type": "function"
    },
    {
      "inputs": [],
      "name": "winner",
      "outputs": [
        {
          "internalType": "address",
          "name": "",
          "type": "address"
        }
      ],
      "stateMutability": "view",
      "type": "function"
    },
    {
      "inputs": [],
      "name": "winnerIndex",
      "outputs": [
        {
          "internalType": "uint256",
          "name": "",
          "type": "uint256"
        }
      ],
      "stateMutability": "view",
      "type": "function"
    },
    {
      "inputs": [],
      "name": "withdrawRefund",
      "outputs": [],
      "stateMutability": "nonpayable",
      "type": "function"
    }
  ],
  "bytecode": "0x60c06040523480156200001157600080fd5b5060405162001c9438038062001c948339810160408190526200003491620002f2565b60016000554286116200005a57604051630642ce7760e01b815260040160405180910390fd5b6200006a426301e13380620003e4565b8611156200008b576040516324787d7360e11b815260040160405180910390fd5b612710871015620000af57604051630ec537a760e11b815260040160405180910390fd5b6402540be400871115620000d657604051631a3dc29960e21b815260040160405180910390fd5b84600103620000f857604051630def91b560e41b815260040160405180910390fd5b6127108511156200011c57604051630c2e7b5760e41b815260040160405180910390fd5b6001600160a01b0383166200014457604051635c7bfbe960e01b815260040160405180910390fd5b6001600160a01b0381166200016c576040516303ec08db60e41b815260040160405180910390fd5b6103e8821115620001905760405163dc81db8560e01b815260040160405180910390fd5b60016200019e8b826200049d565b506002620001ad8a826200049d565b506003620001bc89826200049d565b5060049690965560059490945560069290925560078054600160a01b6001600160a81b03199091166001600160a01b03938416171790559081166080526008919091551660a0525062000569915050565b634e487b7160e01b600052604160045260246000fd5b600082601f8301126200023557600080fd5b81516001600160401b03808211156200025257620002526200020d565b604051601f8301601f19908116603f011681019082821181831017156200027d576200027d6200020d565b81604052838152602092508660208588010111156200029b57600080fd5b600091505b83821015620002bf5785820183015181830184015290820190620002a0565b6000602085830101528094505050505092915050565b80516001600160a01b0381168114620002ed57600080fd5b919050565b6000806000806000806000806000806101408b8d0312156200031357600080fd5b8a516001600160401b03808211156200032b57600080fd5b620003398e838f0162000223565b9b5060208d01519150808211156200035057600080fd5b6200035e8e838f0162000223565b9a5060408d01519150808211156200037557600080fd5b50620003848d828e0162000223565b98505060608b0151965060808b0151955060a08b01519450620003aa60c08c01620002d5565b9350620003ba60e08c01620002d5565b92506101008b01519150620003d36101208c01620002d5565b90509295989b9194979a5092959850565b808201808211156200040657634e487b7160e01b600052601160045260246000fd5b92915050565b600181811c908216806200042157607f821691505b6020821081036200044257634e487b7160e01b600052602260045260246000fd5b50919050565b601f82111562000498576000816000526020600020601f850160051c81016020861015620004735750805b601f850160051c820191505b8181101562000494578281556001016200047f565b5050505b505050565b81516001600160401b03811115620004b957620004b96200020d565b620004d181620004ca84546200040c565b8462000448565b602080601f831160018114620005095760008415620004f05750858301515b600019600386901b1c1916600185901b17855562000494565b600085815260208120601f198616915b828110156200053a5788860151825594840194600190910190840162000519565b5085821015620005595787850151600019600388901b60f8161c191681555b5050505050600190811b01905550565b60805160a0516116b8620005dc60003960008181610285015281816105f501528181610b3101528181610d1301528181610dd101528181610e530152610eb2015260008181610393015281816103db0152818161065f01528181610ba201528181610c43015261118e01526116b86000f3fe608060405234801561001057600080fd5b50600436106101c45760003560e01c80635aa68ac0116100f9578063936afab311610097578063b2185bb111610071578063b2185bb114610386578063c45a01551461038e578063dfbf53ae146103b5578063efeed224146103c857600080fd5b8063936afab314610336578063963ef2a214610354578063aec3c1731461037d57600080fd5b806370ca5bbe116100d357806370ca5bbe146102fd5780637284e4161461031d578063884bf67c146103255780638f00cbfa1461032d57600080fd5b80635aa68ac0146102d857806370533250146102ed57806370740ac9146102f557600080fd5b806324924bf7116101665780633e413bee116101405780633e413bee1461028057806342619f66146102a757806344ef848a146102b05780634a79d50c146102c357600080fd5b806324924bf71461025b57806329dcb0cf1461026457806335c1d3491461026d57600080fd5b8063072ea61c116101a2578063072ea61c14610220578063110f88741461022957806318a7ea5f14610231578063200d2ed21461023a57600080fd5b806302d05d3f146101c95780630695a252146101f957806306e8337f1461020e575b600080fd5b6007546101dc906001600160a01b031681565b6040516001600160a01b0390911681526020015b60405180910390f35b61020c610207366004611357565b6103d0565b005b6009545b6040519081526020016101f0565b61021260045481565b61020c61051a565b610212600e5481565b60075461024e90600160a01b900460ff1681565b6040516101f091906113b1565b61021260065481565b61021260055481565b6101dc61027b3660046113c5565b61062a565b6101dc7f000000000000000000000000000000000000000000000000000000000000000081565b610212600d5481565b61020c6102be3660046113f6565b610654565b6102cb61083f565b6040516101f09190611468565b6102e06108cd565b6040516101f09190611482565b61020c61092f565b61020c610a8b565b61021261030b3660046114cf565b600a6020526000908152604090205481565b6102cb610e8d565b610212610e9a565b610212600c5481565b61033e610f2a565b6040516101f09a999897969594939291906114ec565b6102126103623660046114cf565b6001600160a01b03166000908152600a602052604090205490565b61021260085481565b6102126110c3565b6101dc7f000000000000000000000000000000000000000000000000000000000000000081565b600b546101dc906001600160a01b031681565b6102cb61124e565b336001600160a01b037f0000000000000000000000000000000000000000000000000000000000000000161461041957604051630636a15760e11b815260040160405180910390fd5b600e54821461043b576040516302e8145360e61b815260040160405180910390fd5b600b546001600160a01b0316156104655760405163636ed8dd60e11b815260040160405180910390fd5b600d8190556009546104779082611581565b600c819055506009600c548154811061049257610492611595565b60009182526020918290200154600b80546001600160a01b0319166001600160a01b0390921691821790556007805460ff60a01b1916600360a01b179055600c54600d546040805192835293820152918201849052907ff52fac7e26724c6e0808da8161af0a1263330646f3989bb031cc71fbaa7bf521906060015b60405180910390a25050565b61052261125b565b6004600754600160a01b900460ff16600581111561054257610542611379565b146105605760405163f60bb00b60e01b815260040160405180910390fd5b336000908152600a6020526040812054908190036105915760405163e49c14cb60e01b815260040160405180910390fd5b336000908152600a602052604081208190556004546105b090836115c1565b60405181815290915033907f3d97f39b86d061200a7834082f5926e58ec10fd85a9d6930f497729d5e6cc35c9060200160405180910390a261061c6001600160a01b037f0000000000000000000000000000000000000000000000000000000000000000163383611285565b50506106286001600055565b565b6009818154811061063a57600080fd5b6000918252602090912001546001600160a01b0316905081565b336001600160a01b037f0000000000000000000000000000000000000000000000000000000000000000161461069d57604051630636a15760e11b815260040160405180910390fd5b6001600754600160a01b900460ff1660058111156106bd576106bd611379565b146106db57604051632ae47f7360e01b815260040160405180910390fd5b60055442106106fd5760405163502fd88d60e01b815260040160405180910390fd5b8060000361071e57604051638e71bef960e01b815260040160405180910390fd5b60065415610756576006546009546107379083906115d8565b111561075657604051630771de3360e01b815260040160405180910390fd5b60005b818110156107b35760098054600180820183556000929092527f6e1540171b6c0c960b71a7020d9f60077f6af931a8bbf590da0223dacf75c7af0180546001600160a01b0319166001600160a01b03861617905501610759565b506001600160a01b0382166000908152600a6020526040812080548392906107dc9084906115d8565b90915550506009546001600160a01b0383166000818152600a60209081526040918290205482518681529182019490945290810192909252907fe367e10777f2a25a834ba205395c23c7f7175d3d6d36137ee22c3f056d780c0a9060600161050e565b6001805461084c906115eb565b80601f0160208091040260200160405190810160405280929190818152602001828054610878906115eb565b80156108c55780601f1061089a576101008083540402835291602001916108c5565b820191906000526020600020905b8154815290600101906020018083116108a857829003601f168201915b505050505081565b6060600980548060200260200160405190810160405280929190818152602001828054801561092557602002820191906000526020600020905b81546001600160a01b03168152600190910190602001808311610907575b5050505050905090565b6000600554421015801561094557506009546002115b6007549091506001600160a01b03163314801590610961575080155b1561097f576040516393687c0b60e01b815260040160405180910390fd5b6002600754600160a01b900460ff16600581111561099f5761099f611379565b036109bd57604051634d4754b160e01b815260040160405180910390fd5b6003600754600160a01b900460ff1660058111156109dd576109dd611379565b1480610a0657506004600754600160a01b900460ff166005811115610a0457610a04611379565b145b80610a2e57506005600754600160a01b900460ff166005811115610a2c57610a2c611379565b145b15610a4c5760405163502fd88d60e01b815260040160405180910390fd5b6007805460ff60a01b1916600160a21b1790556040517f90e8484a98b653b6def19811c0e3811715da0de9c6b90d013442ba7e7541295190600090a150565b610a9361125b565b600b546001600160a01b03163314610abe576040516330c6392160e11b815260040160405180910390fd5b6003600754600160a01b900460ff166005811115610ade57610ade611379565b14610afc5760405163611ab18960e11b815260040160405180910390fd5b60078054600560a01b60ff60a01b199091161790556040516370a0823160e01b81523060048201526000906001600160a01b037f000000000000000000000000000000000000000000000000000000000000000016906370a0823190602401602060405180830381865afa158015610b78573d6000803e3d6000fd5b505050506040513d601f19601f82011682018060405250810190610b9c9190611625565b905060007f00000000000000000000000000000000000000000000000000000000000000006001600160a01b031663539aa77f6040518163ffffffff1660e01b8152600401602060405180830381865afa158015610bfe573d6000803e3d6000fd5b505050506040513d601f19601f82011682018060405250810190610c229190611625565b90506000612710610c3383856115c1565b610c3d919061163e565b905060007f00000000000000000000000000000000000000000000000000000000000000006001600160a01b0316634df8ccb16040518163ffffffff1660e01b8152600401602060405180830381865afa158015610c9f573d6000803e3d6000fd5b505050506040513d601f19601f82011682018060405250810190610cc39190611652565b90506000610cd1838661166f565b9050600061271060085483610ce691906115c1565b610cf0919061163e565b90506000610cfe828461166f565b90508415610d7e57610d3a6001600160a01b037f0000000000000000000000000000000000000000000000000000000000000000168587611285565b836001600160a01b03167fd41276ecc17acbed0bc9679330bc8489b0f58dc5e84c17ad653d71402df1f40486604051610d7591815260200190565b60405180910390a25b600b546040518281526001600160a01b03909116907f95681e512bc0fe659e195e06c283eada494316f3d801213e48e7101af92bf7709060200160405180910390a2600b54610dfa906001600160a01b037f00000000000000000000000000000000000000000000000000000000000000008116911683611285565b8115610e7c576007546040518381526001600160a01b03909116907ffced7da42f0f076c425d7fa774af80c6fb4c4337cd595e67a56de7ff5c90be2d9060200160405180910390a2600754610e7c906001600160a01b037f00000000000000000000000000000000000000000000000000000000000000008116911684611285565b505050505050506106286001600055565b6002805461084c906115eb565b6040516370a0823160e01b81523060048201526000907f00000000000000000000000000000000000000000000000000000000000000006001600160a01b0316906370a0823190602401602060405180830381865afa158015610f01573d6000803e3d6000fd5b505050506040513d601f19601f82011682018060405250810190610f259190611625565b905090565b60608060008060008060008060008060016002600454600554600654600980549050600760149054906101000a900460ff16600760009054906101000a90046001600160a01b0316600b60009054906101000a90046001600160a01b0316600854898054610f97906115eb565b80601f0160208091040260200160405190810160405280929190818152602001828054610fc3906115eb565b80156110105780601f10610fe557610100808354040283529160200191611010565b820191906000526020600020905b815481529060010190602001808311610ff357829003601f168201915b50505050509950888054611023906115eb565b80601f016020809104026020016040519081016040528092919081815260200182805461104f906115eb565b801561109c5780601f106110715761010080835404028352916020019161109c565b820191906000526020600020905b81548152906001019060200180831161107f57829003601f168201915b50505050509850995099509950995099509950995099509950995090919293949596979899565b6000600554421080156110e3575060065415806110e35750600654600954105b1561110157604051633376277360e11b815260040160405180910390fd5b600954600003611124576040516308b6a47360e41b815260040160405180910390fd5b60095460021115611148576040516399f46cd560e01b815260040160405180910390fd5b600b546001600160a01b03161561117257604051630770596760e11b815260040160405180910390fd5b600780546002919060ff60a01b1916600160a01b8302179055507f00000000000000000000000000000000000000000000000000000000000000006001600160a01b0316631b930e996040518163ffffffff1660e01b81526004016020604051808303816000875af11580156111ec573d6000803e3d6000fd5b505050506040513d601f19601f820116820180604052508101906112109190611625565b600e8190556040518181529091507f9ac10fb18c93d33ad7b0a941897aef048d0f8d30756684e82b4552ba12764d459060200160405180910390a190565b6003805461084c906115eb565b60026000540361127e57604051633ee5aeb560e01b815260040160405180910390fd5b6002600055565b604080516001600160a01b038416602482015260448082018490528251808303909101815260649091019091526020810180516001600160e01b031663a9059cbb60e01b1790526112d79084906112dc565b505050565b600080602060008451602086016000885af1806112ff576040513d6000823e3d81fd5b50506000513d91508115611317578060011415611324565b6001600160a01b0384163b155b1561135157604051635274afe760e01b81526001600160a01b038516600482015260240160405180910390fd5b50505050565b6000806040838503121561136a57600080fd5b50508035926020909101359150565b634e487b7160e01b600052602160045260246000fd5b600681106113ad57634e487b7160e01b600052602160045260246000fd5b9052565b602081016113bf828461138f565b92915050565b6000602082840312156113d757600080fd5b5035919050565b6001600160a01b03811681146113f357600080fd5b50565b6000806040838503121561140957600080fd5b8235611414816113de565b946020939093013593505050565b6000815180845260005b818110156114485760208185018101518683018201520161142c565b506000602082860101526020601f19601f83011685010191505092915050565b60208152600061147b6020830184611422565b9392505050565b6020808252825182820181905260009190848201906040850190845b818110156114c35783516001600160a01b03168352928401929184019160010161149e565b50909695505050505050565b6000602082840312156114e157600080fd5b813561147b816113de565b60006101408083526115008184018e611422565b90508281036020840152611514818d611422565b9150508960408301528860608301528760808301528660a083015261153c60c083018761138f565b6001600160a01b0394851660e08301529290931661010084015261012090920191909152979650505050505050565b634e487b7160e01b600052601260045260246000fd5b6000826115905761159061156b565b500690565b634e487b7160e01b600052603260045260246000fd5b634e487b7160e01b600052601160045260246000fd5b80820281158282048414176113bf576113bf6115ab565b808201808211156113bf576113bf6115ab565b600181811c908216806115ff57607f821691505b60208210810361161f57634e487b7160e01b600052602260045260246000fd5b50919050565b60006020828403121561163757600080fd5b5051919050565b60008261164d5761164d61156b565b500490565b60006020828403121561166457600080fd5b815161147b816113de565b818103818111156113bf576113bf6115ab56fea2646970667358221220e09f7097e5ca825dff5396b138ba8dceab91262ce27de26249544e533d4a028664736f6c63430008180033",
  "linkReferences": {},
  "deployedLinkReferences": {}
}