{
  "_format": "hh-sol-artifact-1",
  "contractName": "Raffle",
  "sourceName": "contracts/Raffle.sol",
  "abi": [
    {
      "inputs": [
        {
          "internalType": "string",
          "name": "_title",
          "type": "string"
        },
        {
          "internalType": "string",
          "name": "_description",
          "type": "string"
        },
        {
          "internalType": "string",
          "name": "_prizeDescription",
          "type": "string"
        },
        {
          "internalType": "uint256",
          "name": "_entryFee",
          "type": "uint256"
        },
        {
          "internalType": "uint256",
          "name": "_deadline",
          "type": "uint256"
        },
        {
          "internalType": "uint256",
          "name": "_maxParticipants",
          "type": "uint256"
        },
        {
          "internalType": "address",
          "name": "_vrfCoordinator",
          "type": "address"
        },
        {
          "internalType": "bytes32",
          "name": "_keyHash",
          "type": "bytes32"
        },
        {
          "internalType": "uint256",
          "name": "_subscriptionId",
          "type": "uint256"
        }
      ],
      "stateMutability": "nonpayable",
      "type": "constructor"
    },
    {
      "inputs": [],
      "name": "DeadlineNotReached",
      "type": "error"
    },
    {
      "inputs": [],
      "name": "InsufficientPayment",
      "type": "error"
    },
    {
      "inputs": [],
      "name": "InvalidTicketCount",
      "type": "error"
    },
    {
      "inputs": [],
      "name": "NoParticipants",
      "type": "error"
    },
    {
      "inputs": [],
      "name": "NotCreator",
      "type": "error"
    },
    {
      "inputs": [],
      "name": "NotWinner",
      "type": "error"
    },
    {
      "inputs": [
        {
          "internalType": "address",
          "name": "have",
          "type": "address"
        },
        {
          "internalType": "address",
          "name": "want",
          "type": "address"
        }
      ],
      "name": "OnlyCoordinatorCanFulfill",
      "type": "error"
    },
    {
      "inputs": [
        {
          "internalType": "address",
          "name": "have",
          "type": "address"
        },
        {
          "internalType": "address",
          "name": "owner",
          "type": "address"
        },
        {
          "internalType": "address",
          "name": "coordinator",
          "type": "address"
        }
      ],
      "name": "OnlyOwnerOrCoordinator",
      "type": "error"
    },
    {
      "inputs": [],
      "name": "PrizeAlreadyClaimed",
      "type": "error"
    },
    {
      "inputs": [],
      "name": "RaffleEnded",
      "type": "error"
    },
    {
      "inputs": [],
      "name": "RaffleFull",
      "type": "error"
    },
    {
      "inputs": [],
      "name": "RaffleNotActive",
      "type": "error"
    },
    {
      "inputs": [],
      "name": "WinnerAlreadyDrawn",
      "type": "error"
    },
    {
      "inputs": [],
      "name": "ZeroAddress",
      "type": "error"
    },
    {
      "anonymous": false,
      "inputs": [
        {
          "indexed": false,
          "internalType": "uint256",
          "name": "timestamp",
          "type": "uint256"
        },
        {
          "indexed": false,
          "internalType": "string",
          "name": "reason",
          "type": "string"
        }
      ],
      "name": "AutoDrawTriggered",
      "type": "event"
    },
    {
      "anonymous": false,
      "inputs": [
        {
          "indexed": false,
          "internalType": "address",
          "name": "vrfCoordinator",
          "type": "address"
        }
      ],
      "name": "CoordinatorSet",
      "type": "event"
    },
    {
      "anonymous": false,
      "inputs": [
        {
          "indexed": true,
          "internalType": "address",
          "name": "from",
          "type": "address"
        },
        {
          "indexed": true,
          "internalType": "address",
          "name": "to",
          "type": "address"
        }
      ],
      "name": "OwnershipTransferRequested",
      "type": "event"
    },
    {
      "anonymous": false,
      "inputs": [
        {
          "indexed": true,
          "internalType": "address",
          "name": "from",
          "type": "address"
        },
        {
          "indexed": true,
          "internalType": "address",
          "name": "to",
          "type": "address"
        }
      ],
      "name": "OwnershipTransferred",
      "type": "event"
    },
    {
      "anonymous": false,
      "inputs": [
        {
          "indexed": true,
          "internalType": "address",
          "name": "participant",
          "type": "address"
        },
        {
          "indexed": false,
          "internalType": "uint256",
          "name": "ticketsBought",
          "type": "uint256"
        },
        {
          "indexed": false,
          "internalType": "uint256",
          "name": "totalTickets",
          "type": "uint256"
        },
        {
          "indexed": false,
          "internalType": "uint256",
          "name": "participantTicketCount",
          "type": "uint256"
        }
      ],
      "name": "ParticipantJoined",
      "type": "event"
    },
    {
      "anonymous": false,
      "inputs": [
        {
          "indexed": true,
          "internalType": "address",
          "name": "winner",
          "type": "address"
        },
        {
          "indexed": false,
          "internalType": "uint256",
          "name": "amount",
          "type": "uint256"
        }
      ],
      "name": "PrizeClaimed",
      "type": "event"
    },
    {
      "anonymous": false,
      "inputs": [],
      "name": "RaffleCancelled",
      "type": "event"
    },
    {
      "anonymous": false,
      "inputs": [
        {
          "indexed": true,
          "internalType": "address",
          "name": "winner",
          "type": "address"
        },
        {
          "indexed": false,
          "internalType": "uint256",
          "name": "winnerIndex",
          "type": "uint256"
        },
        {
          "indexed": false,
          "internalType": "uint256",
          "name": "randomNumber",
          "type": "uint256"
        },
        {
          "indexed": false,
          "internalType": "uint256",
          "name": "vrfRequestId",
          "type": "uint256"
        }
      ],
      "name": "WinnerDrawn",
      "type": "event"
    },
    {
      "inputs": [],
      "name": "acceptOwnership",
      "outputs": [],
      "stateMutability": "nonpayable",
      "type": "function"
    },
    {
      "inputs": [
        {
          "internalType": "uint256",
          "name": "numberOfTickets",
          "type": "uint256"
        }
      ],
      "name": "buyTickets",
      "outputs": [],
      "stateMutability": "payable",
      "type": "function"
    },
    {
      "inputs": [],
      "name": "cancelRaffle",
      "outputs": [],
      "stateMutability": "nonpayable",
      "type": "function"
    },
    {
      "inputs": [
        {
          "internalType": "bytes",
          "name": "",
          "type": "bytes"
        }
      ],
      "name": "checkUpkeep",
      "outputs": [
        {
          "internalType": "bool",
          "name": "upkeepNeeded",
          "type": "bool"
        },
        {
          "internalType": "bytes",
          "name": "performData",
          "type": "bytes"
        }
      ],
      "stateMutability": "view",
      "type": "function"
    },
    {
      "inputs": [],
      "name": "claimPrize",
      "outputs": [],
      "stateMutability": "nonpayable",
      "type": "function"
    },
    {
      "inputs": [],
      "name": "creator",
      "outputs": [
        {
          "internalType": "address",
          "name": "",
          "type": "address"
        }
      ],
      "stateMutability": "view",
      "type": "function"
    },
    {
      "inputs": [],
      "name": "deadline",
      "outputs": [
        {
          "internalType": "uint256",
          "name": "",
          "type": "uint256"
        }
      ],
      "stateMutability": "view",
      "type": "function"
    },
    {
      "inputs": [],
      "name": "description",
      "outputs": [
        {
          "internalType": "string",
          "name": "",
          "type": "string"
        }
      ],
      "stateMutability": "view",
      "type": "function"
    },
    {
      "inputs": [],
      "name": "drawWinner",
      "outputs": [
        {
          "internalType": "uint256",
          "name": "requestId",
          "type": "uint256"
        }
      ],
      "stateMutability": "nonpayable",
      "type": "function"
    },
    {
      "inputs": [],
      "name": "entryFee",
      "outputs": [
        {
          "internalType": "uint256",
          "name": "",
          "type": "uint256"
        }
      ],
      "stateMutability": "view",
      "type": "function"
    },
    {
      "inputs": [],
      "name": "getParticipantCount",
      "outputs": [
        {
          "internalType": "uint256",
          "name": "",
          "type": "uint256"
        }
      ],
      "stateMutability": "view",
      "type": "function"
    },
    {
      "inputs": [],
      "name": "getParticipants",
      "outputs": [
        {
          "internalType": "address[]",
          "name": "",
          "type": "address[]"
        }
      ],
      "stateMutability": "view",
      "type": "function"
    },
    {
      "inputs": [],
      "name": "getPrizePool",
      "outputs": [
        {
          "internalType": "uint256",
          "name": "",
          "type": "uint256"
        }
      ],
      "stateMutability": "view",
      "type": "function"
    },
    {
      "inputs": [],
      "name": "getRaffleInfo",
      "outputs": [
        {
          "internalType": "string",
          "name": "_title",
          "type": "string"
        },
        {
          "internalType": "string",
          "name": "_description",
          "type": "string"
        },
        {
          "internalType": "string",
          "name": "_prizeDescription",
          "type": "string"
        },
        {
          "internalType": "uint256",
          "name": "_entryFee",
          "type": "uint256"
        },
        {
          "internalType": "uint256",
          "name": "_deadline",
          "type": "uint256"
        },
        {
          "internalType": "uint256",
          "name": "_maxParticipants",
          "type": "uint256"
        },
        {
          "internalType": "uint256",
          "name": "_currentParticipants",
          "type": "uint256"
        },
        {
          "internalType": "address",
          "name": "_creator",
          "type": "address"
        },
        {
          "internalType": "enum Raffle.RaffleStatus",
          "name": "_status",
          "type": "uint8"
        }
      ],
      "stateMutability": "view",
      "type": "function"
    },
    {
      "inputs": [
        {
          "internalType": "address",
          "name": "_participant",
          "type": "address"
        }
      ],
      "name": "getTicketCount",
      "outputs": [
        {
          "internalType": "uint256",
          "name": "",
          "type": "uint256"
        }
      ],
      "stateMutability": "view",
      "type": "function"
    },
    {
      "inputs": [],
      "name": "getUniqueParticipantCount",
      "outputs": [
        {
          "internalType": "uint256",
          "name": "",
          "type": "uint256"
        }
      ],
      "stateMutability": "view",
      "type": "function"
    },
    {
      "inputs": [],
      "name": "joinRaffle",
      "outputs": [],
      "stateMutability": "payable",
      "type": "function"
    },
    {
      "inputs": [],
      "name": "maxParticipants",
      "outputs": [
        {
          "internalType": "uint256",
          "name": "",
          "type": "uint256"
        }
      ],
      "stateMutability": "view",
      "type": "function"
    },
    {
      "inputs": [],
      "name": "owner",
      "outputs": [
        {
          "internalType": "address",
          "name": "",
          "type": "address"
        }
      ],
      "stateMutability": "view",
      "type": "function"
    },
    {
      "inputs": [
        {
          "internalType": "uint256",
          "name": "",
          "type": "uint256"
        }
      ],
      "name": "participants",
      "outputs": [
        {
          "internalType": "address",
          "name": "",
          "type": "address"
        }
      ],
      "stateMutability": "view",
      "type": "function"
    },
    {
      "inputs": [
        {
          "internalType": "bytes",
          "name": "performData",
          "type": "bytes"
        }
      ],
      "name": "performUpkeep",
      "outputs": [],
      "stateMutability": "nonpayable",
      "type": "function"
    },
    {
      "inputs": [],
      "name": "prizeDescription",
      "outputs": [
        {
          "internalType": "string",
          "name": "",
          "type": "string"
        }
      ],
      "stateMutability": "view",
      "type": "function"
    },
    {
      "inputs": [],
      "name": "randomResult",
      "outputs": [
        {
          "internalType": "uint256",
          "name": "",
          "type": "uint256"
        }
      ],
      "stateMutability": "view",
      "type": "function"
    },
    {
      "inputs": [
        {
          "internalType": "uint256",
          "name": "requestId",
          "type": "uint256"
        },
        {
          "internalType": "uint256[]",
          "name": "randomWords",
          "type": "uint256[]"
        }
      ],
      "name": "rawFulfillRandomWords",
      "outputs": [],
      "stateMutability": "nonpayable",
      "type": "function"
    },
    {
      "inputs": [],
      "name": "s_vrfCoordinator",
      "outputs": [
        {
          "internalType": "contract IVRFCoordinatorV2Plus",
          "name": "",
          "type": "address"
        }
      ],
      "stateMutability": "view",
      "type": "function"
    },
    {
      "inputs": [
        {
          "internalType": "address",
          "name": "_vrfCoordinator",
          "type": "address"
        }
      ],
      "name": "setCoordinator",
      "outputs": [],
      "stateMutability": "nonpayable",
      "type": "function"
    },
    {
      "inputs": [],
      "name": "shouldAutoDraw",
      "outputs": [
        {
          "internalType": "bool",
          "name": "shouldDraw",
          "type": "bool"
        },
        {
          "internalType": "string",
          "name": "reason",
          "type": "string"
        }
      ],
      "stateMutability": "view",
      "type": "function"
    },
    {
      "inputs": [],
      "name": "status",
      "outputs": [
        {
          "internalType": "enum Raffle.RaffleStatus",
          "name": "",
          "type": "uint8"
        }
      ],
      "stateMutability": "view",
      "type": "function"
    },
    {
      "inputs": [
        {
          "internalType": "address",
          "name": "",
          "type": "address"
        }
      ],
      "name": "ticketCount",
      "outputs": [
        {
          "internalType": "uint256",
          "name": "",
          "type": "uint256"
        }
      ],
      "stateMutability": "view",
      "type": "function"
    },
    {
      "inputs": [],
      "name": "title",
      "outputs": [
        {
          "internalType": "string",
          "name": "",
          "type": "string"
        }
      ],
      "stateMutability": "view",
      "type": "function"
    },
    {
      "inputs": [
        {
          "internalType": "address",
          "name": "to",
          "type": "address"
        }
      ],
      "name": "transferOwnership",
      "outputs": [],
      "stateMutability": "nonpayable",
      "type": "function"
    },
    {
      "inputs": [],
      "name": "vrfRequestId",
      "outputs": [
        {
          "internalType": "uint256",
          "name": "",
          "type": "uint256"
        }
      ],
      "stateMutability": "view",
      "type": "function"
    },
    {
      "inputs": [],
      "name": "winner",
      "outputs": [
        {
          "internalType": "address",
          "name": "",
          "type": "address"
        }
      ],
      "stateMutability": "view",
      "type": "function"
    },
    {
      "inputs": [],
      "name": "winnerIndex",
      "outputs": [
        {
          "internalType": "uint256",
          "name": "",
          "type": "uint256"
        }
      ],
      "stateMutability": "view",
      "type": "function"
    }
  ],
  "bytecode": "0x60e06040523480156200001157600080fd5b50604051620026d5380380620026d58339810160408190526200003491620003b7565b8233806000816200008c5760405162461bcd60e51b815260206004820152601860248201527f43616e6e6f7420736574206f776e657220746f207a65726f000000000000000060448201526064015b60405180910390fd5b600080546001600160a01b0319166001600160a01b0384811691909117909155811615620000bf57620000bf8162000227565b5050506001600160a01b038116620000ea5760405163d92e233d60e01b815260040160405180910390fd5b600280546001600160a01b0319166001600160a01b03929092169190911790554285116200015b5760405162461bcd60e51b815260206004820152601e60248201527f446561646c696e65206d75737420626520696e20746865206675747572650000604482015260640162000083565b60008611620001ad5760405162461bcd60e51b815260206004820181905260248201527f456e74727920666565206d7573742062652067726561746572207468616e2030604482015260640162000083565b6003620001bb8a826200051d565b506004620001ca89826200051d565b506005620001d988826200051d565b50600695909555600793909355600891909155600980546001600160a81b0319163360ff60a01b191617600160a01b1790556001600160a01b031660805260a05260c05250620005e9915050565b336001600160a01b03821603620002815760405162461bcd60e51b815260206004820152601760248201527f43616e6e6f74207472616e7366657220746f2073656c66000000000000000000604482015260640162000083565b600180546001600160a01b0319166001600160a01b0383811691821790925560008054604051929316917fed8889f560326eb138920d842192f0eb3dd22b4f139c87a2c57538e05bae12789190a350565b634e487b7160e01b600052604160045260246000fd5b600082601f830112620002fa57600080fd5b81516001600160401b0380821115620003175762000317620002d2565b604051601f8301601f19908116603f01168101908282118183101715620003425762000342620002d2565b81604052838152602092508660208588010111156200036057600080fd5b600091505b8382101562000384578582018301518183018401529082019062000365565b6000602085830101528094505050505092915050565b80516001600160a01b0381168114620003b257600080fd5b919050565b60008060008060008060008060006101208a8c031215620003d757600080fd5b89516001600160401b0380821115620003ef57600080fd5b620003fd8d838e01620002e8565b9a5060208c01519150808211156200041457600080fd5b620004228d838e01620002e8565b995060408c01519150808211156200043957600080fd5b50620004488c828d01620002e8565b97505060608a0151955060808a0151945060a08a015193506200046e60c08b016200039a565b925060e08a015191506101008a015190509295985092959850929598565b600181811c90821680620004a157607f821691505b602082108103620004c257634e487b7160e01b600052602260045260246000fd5b50919050565b601f82111562000518576000816000526020600020601f850160051c81016020861015620004f35750805b601f850160051c820191505b818110156200051457828155600101620004ff565b5050505b505050565b81516001600160401b03811115620005395762000539620002d2565b62000551816200054a84546200048c565b84620004c8565b602080601f831160018114620005895760008415620005705750858301515b600019600386901b1c1916600185901b17855562000514565b600085815260208120601f198616915b82811015620005ba5788860151825594840194600190910190840162000599565b5085821015620005d95787850151600019600388901b60f8161c191681555b5050505050600190811b01905550565b60805160a05160c0516120bc62000619600039600061161b015260006115f80152600061166701526120bc6000f3fe6080604052600436106101f95760003560e01c806370740ac91161010d5780638f00cbfa116100a0578063cff82e221161006f578063cff82e2214610545578063dfbf53ae1461057b578063e8880e941461059b578063efeed224146105b0578063f2fde38b146105c557600080fd5b80638f00cbfa146104e55780639eccacf6146104fb578063ad6057291461051b578063b2185bb11461053057600080fd5b80638166f6b2116100dc5780638166f6b21461046a578063884bf67c146104945780638da5cb5b146104a75780638ea98117146104c557600080fd5b806370740ac9146103fe57806370ca5bbe146104135780637284e4161461044057806379ba50971461045557600080fd5b80632f366637116101905780634585e33b1161015f5780634585e33b146103575780634a79d50c146103775780635aa68ac0146103995780636e04ff0d146103bb57806370533250146103e957600080fd5b80632f366637146102f957806333b88b8e1461030c57806335c1d3491461032157806342619f661461034157600080fd5b80631fe543e3116101cc5780631fe543e31461027f578063200d2ed21461029f57806324924bf7146102cd57806329dcb0cf146102e357600080fd5b806302d05d3f146101fe578063072ea61c1461023b578063136b33921461025f57806318a7ea5f14610269575b600080fd5b34801561020a57600080fd5b5060095461021e906001600160a01b031681565b6040516001600160a01b0390911681526020015b60405180910390f35b34801561024757600080fd5b5061025160065481565b604051908152602001610232565b6102676105e5565b005b34801561027557600080fd5b50610251600f5481565b34801561028b57600080fd5b5061026761029a366004611b3e565b610860565b3480156102ab57600080fd5b506009546102c090600160a01b900460ff1681565b6040516102329190611bf5565b3480156102d957600080fd5b5061025160085481565b3480156102ef57600080fd5b5061025160075481565b610267610307366004611c09565b6108b0565b34801561031857600080fd5b50610251610a30565b34801561032d57600080fd5b5061021e61033c366004611c09565b610b7d565b34801561034d57600080fd5b50610251600e5481565b34801561036357600080fd5b50610267610372366004611c22565b610ba7565b34801561038357600080fd5b5061038c610cc9565b6040516102329190611cda565b3480156103a557600080fd5b506103ae610d57565b6040516102329190611cf4565b3480156103c757600080fd5b506103db6103d6366004611c22565b610db9565b604051610232929190611d41565b3480156103f557600080fd5b50610267610ef3565b34801561040a57600080fd5b50610267611047565b34801561041f57600080fd5b5061025161042e366004611d64565b600b6020526000908152604090205481565b34801561044c57600080fd5b5061038c61119b565b34801561046157600080fd5b506102676111a8565b34801561047657600080fd5b5061047f611252565b60405161023299989796959493929190611d8d565b3480156104a057600080fd5b5047610251565b3480156104b357600080fd5b506000546001600160a01b031661021e565b3480156104d157600080fd5b506102676104e0366004611d64565b61145c565b3480156104f157600080fd5b50610251600d5481565b34801561050757600080fd5b5060025461021e906001600160a01b031681565b34801561052757600080fd5b50600a54610251565b34801561053c57600080fd5b5061025161154e565b34801561055157600080fd5b50610251610560366004611d64565b6001600160a01b03166000908152600b602052604090205490565b34801561058757600080fd5b50600c5461021e906001600160a01b031681565b3480156105a757600080fd5b506103db611711565b3480156105bc57600080fd5b5061038c6118dc565b3480156105d157600080fd5b506102676105e0366004611d64565b6118e9565b6001600954600160a01b900460ff16600481111561060557610605611bbd565b1461062357604051632ae47f7360e01b815260040160405180910390fd5b60075442106106455760405163502fd88d60e01b815260040160405180910390fd5b6006543410156106685760405163cd1c886760e01b815260040160405180910390fd5b6000600654346106789190611e3a565b90508060000361069b57604051638e71bef960e01b815260040160405180910390fd5b600854156106da57600a546008546000916106b591611e4e565b9050808211156106d857604051630771de3360e01b815260040160405180910390fd5b505b60005b8181101561072e57600a8054600181810183556000929092527fc65a7bb8d6351c1cf70c95a316cc6a92839c986682d98bc35f958f4883f9d2a80180546001600160a01b03191633179055016106dd565b50336000908152600b60205260408120805483929061074e908490611e61565b90915550506006546000906107639083611e74565b9050803411156108035760003361077a8334611e4e565b604051600081818185875af1925050503d80600081146107b6576040519150601f19603f3d011682016040523d82523d6000602084013e6107bb565b606091505b50509050806108015760405162461bcd60e51b815260206004820152600d60248201526c1499599d5b990819985a5b1959609a1b60448201526064015b60405180910390fd5b505b600a54336000818152600b60209081526040918290205482518781529182019490945290810192909252907fe367e10777f2a25a834ba205395c23c7f7175d3d6d36137ee22c3f056d780c0a906060015b60405180910390a25050565b6002546001600160a01b031633146108a05760025460405163073e64fd60e21b81523360048201526001600160a01b0390911660248201526044016107f8565b6108ab8383836118fd565b505050565b6001600954600160a01b900460ff1660048111156108d0576108d0611bbd565b146108ee57604051632ae47f7360e01b815260040160405180910390fd5b60075442106109105760405163502fd88d60e01b815260040160405180910390fd5b8060000361093157604051638e71bef960e01b815260040160405180910390fd5b6000600654826109419190611e74565b9050803410156109645760405163cd1c886760e01b815260040160405180910390fd5b60006008541180156109845750600854600a54610982908490611e61565b115b156109a257604051630771de3360e01b815260040160405180910390fd5b60005b828110156109f657600a8054600181810183556000929092527fc65a7bb8d6351c1cf70c95a316cc6a92839c986682d98bc35f958f4883f9d2a80180546001600160a01b03191633179055016109a5565b50336000908152600b602052604081208054849290610a16908490611e61565b9091555050348110156108035760003361077a8334611e4e565b600a54600090819067ffffffffffffffff811115610a5057610a50611e8b565b604051908082528060200260200182016040528015610a79578160200160208202803683370190505b5090506000805b600a54811015610b7657600160005b83811015610afd57600a8381548110610aaa57610aaa611ea1565b60009182526020909120015485516001600160a01b0390911690869083908110610ad657610ad6611ea1565b60200260200101516001600160a01b031603610af55760009150610afd565b600101610a8f565b508015610b6d57600a8281548110610b1757610b17611ea1565b9060005260206000200160009054906101000a90046001600160a01b0316848481518110610b4757610b47611ea1565b6001600160a01b039092166020928302919091019091015282610b6981611eb7565b9350505b50600101610a80565b5092915050565b600a8181548110610b8d57600080fd5b6000918252602090912001546001600160a01b0316905081565b60006007544210159050600080600854118015610bc85750600854600a5410155b600a54600c549192501515906001600160a01b03161560006001600954600160a01b900460ff166004811115610c0057610c00611bbd565b149050808015610c0d5750825b8015610c165750815b8015610c2657508480610c265750835b610c665760405162461bcd60e51b8152602060048201526011602482015270155c1ad9595c081b9bdd081b9959591959607a1b60448201526064016107f8565b8515610cb7576000610c7a87890189611ed0565b90507f3a3c33f0bfa6d41cbc15413ca631379b7e1b8ff3d9d47a93271de84c509b664d4282604051610cad929190611f81565b60405180910390a1505b610cbf61154e565b5050505050505050565b60038054610cd690611f9a565b80601f0160208091040260200160405190810160405280929190818152602001828054610d0290611f9a565b8015610d4f5780601f10610d2457610100808354040283529160200191610d4f565b820191906000526020600020905b815481529060010190602001808311610d3257829003601f168201915b505050505081565b6060600a805480602002602001604051908101604052809291908181526020018280548015610daf57602002820191906000526020600020905b81546001600160a01b03168152600190910190602001808311610d91575b5050505050905090565b6000606060006007544210159050600080600854118015610dde5750600854600a5410155b600a54600c549192501515906001600160a01b03161560006001600954600160a01b900460ff166004811115610e1657610e16611bbd565b149050808015610e235750825b8015610e2c5750815b8015610e3c57508480610e3c5750835b96508415610e8d57604051602001610e77906020808252600f908201526e191958591b1a5b9957dc185cdcd959608a1b604082015260600190565b6040516020818303038152906040529550610ee7565b8315610ed457604051602001610e779060208082526018908201527f6d61785f7061727469636970616e74735f726561636865640000000000000000604082015260600190565b6040518060200160405280600081525095505b50505050509250929050565b6009546001600160a01b03163314610f1e576040516393687c0b60e01b815260040160405180910390fd5b6007544210610f4057604051633376277360e11b815260040160405180910390fd5b6009805460ff60a01b1916600160a21b17905560005b600a5481101561101b576000600a8281548110610f7557610f75611ea1565b60009182526020822001546006546040516001600160a01b039092169290919081818185875af1925050503d8060008114610fcc576040519150601f19603f3d011682016040523d82523d6000602084013e610fd1565b606091505b50509050806110125760405162461bcd60e51b815260206004820152600d60248201526c1499599d5b990819985a5b1959609a1b60448201526064016107f8565b50600101610f56565b506040517f90e8484a98b653b6def19811c0e3811715da0de9c6b90d013442ba7e7541295190600090a1565b600c546001600160a01b03163314611072576040516330c6392160e11b815260040160405180910390fd5b6003600954600160a01b900460ff16600481111561109257611092611bbd565b146110b057604051630770596760e11b815260040160405180910390fd5b6009805460ff60a01b1916600360a01b179055600c5460405147916000916001600160a01b039091169083908381818185875af1925050503d8060008114611114576040519150601f19603f3d011682016040523d82523d6000602084013e611119565b606091505b505090508061115c5760405162461bcd60e51b815260206004820152600f60248201526e151c985b9cd9995c8819985a5b1959608a1b60448201526064016107f8565b600c546040518381526001600160a01b03909116907f95681e512bc0fe659e195e06c283eada494316f3d801213e48e7101af92bf77090602001610854565b60048054610cd690611f9a565b6001546001600160a01b031633146111fb5760405162461bcd60e51b815260206004820152601660248201527526bab9ba10313290383937b837b9b2b21037bbb732b960511b60448201526064016107f8565b60008054336001600160a01b0319808316821784556001805490911690556040516001600160a01b0390921692909183917f8be0079c531659141344cd1fd0a4f28419497f9722a3daafe3b4186f6b6457e091a350565b6060806060600080600080600080600360046005600654600754600854600a80549050600960009054906101000a90046001600160a01b0316600960149054906101000a900460ff168880546112a790611f9a565b80601f01602080910402602001604051908101604052809291908181526020018280546112d390611f9a565b80156113205780601f106112f557610100808354040283529160200191611320565b820191906000526020600020905b81548152906001019060200180831161130357829003601f168201915b5050505050985087805461133390611f9a565b80601f016020809104026020016040519081016040528092919081815260200182805461135f90611f9a565b80156113ac5780601f10611381576101008083540402835291602001916113ac565b820191906000526020600020905b81548152906001019060200180831161138f57829003601f168201915b505050505097508680546113bf90611f9a565b80601f01602080910402602001604051908101604052809291908181526020018280546113eb90611f9a565b80156114385780601f1061140d57610100808354040283529160200191611438565b820191906000526020600020905b81548152906001019060200180831161141b57829003601f168201915b50505050509650985098509850985098509850985098509850909192939495969798565b6000546001600160a01b0316331480159061148257506002546001600160a01b03163314155b156114d3573361149a6000546001600160a01b031690565b60025460405163061db9c160e01b81526001600160a01b03938416600482015291831660248301529190911660448201526064016107f8565b6001600160a01b0381166114fa5760405163d92e233d60e01b815260040160405180910390fd5b600280546001600160a01b0319166001600160a01b0383169081179091556040519081527fd1a6a14209a385a964d036e404cb5cfb71f4000cdb03c9366292430787261be69060200160405180910390a150565b60006007544210801561156e5750600854158061156e5750600854600a54105b1561158c57604051633376277360e11b815260040160405180910390fd5b600a546000036115af576040516308b6a47360e41b815260040160405180910390fd5b600c546001600160a01b0316156115d957604051630770596760e11b815260040160405180910390fd5b6009805460ff60a01b1916600160a11b1790556040805160c0810182527f000000000000000000000000000000000000000000000000000000000000000081527f0000000000000000000000000000000000000000000000000000000000000000602080830191909152600382840152620186a06060830152600160808301528251908101909252600082527f00000000000000000000000000000000000000000000000000000000000000006001600160a01b031691639b1c385e919060a08201906116a5906119cf565b8152506040518263ffffffff1660e01b81526004016116c49190611fd4565b6020604051808303816000875af11580156116e3573d6000803e3d6000fd5b505050506040513d601f19601f820116820180604052508101906117079190612031565b600f819055919050565b60006060600060075442101590506000806008541180156117365750600854600a5410155b600a54600c549192501515906001600160a01b03161560006001600954600160a01b900460ff16600481111561176e5761176e611bbd565b149050806117af57600060405180604001604052806011815260200170526166666c65206e6f742061637469766560781b8152509650965050505050509091565b826117eb5760006040518060400160405280600f81526020016e4e6f207061727469636970616e747360881b8152509650965050505050509091565b8161182c576000604051806040016040528060148152602001732bb4b73732b91030b63932b0b23c90323930bbb760611b8152509650965050505050509091565b84156118695760016040518060400160405280600f81526020016e111958591b1a5b99481c185cdcd959608a1b8152509650965050505050509091565b83156118b45760016040518060400160405280601881526020017f4d6178207061727469636970616e7473207265616368656400000000000000008152509650965050505050509091565b600060405180606001604052806028815260200161205f602891399650965050505050509091565b60058054610cd690611f9a565b6118f1611a40565b6118fa81611a95565b50565b8181600081811061191057611910611ea1565b6020029190910135600e819055600a5461192b92509061204a565b600d81905550600a600d548154811061194657611946611ea1565b60009182526020918290200154600c80546001600160a01b0319166001600160a01b0390921691821790556009805460ff60a01b1916600360a01b179055600d54600e546040805192835293820152808301869052915190917ff52fac7e26724c6e0808da8161af0a1263330646f3989bb031cc71fbaa7bf521919081900360600190a2505050565b60607f92fd13387c7fe7befbc38d303d6468778fb9731bc4583f17d92989c6fcfdeaaa82604051602401611a0891511515815260200190565b60408051601f198184030181529190526020810180516001600160e01b03166001600160e01b03199093169290921790915292915050565b6000546001600160a01b03163314611a935760405162461bcd60e51b815260206004820152601660248201527527b7363c9031b0b63630b1363290313c9037bbb732b960511b60448201526064016107f8565b565b336001600160a01b03821603611aed5760405162461bcd60e51b815260206004820152601760248201527f43616e6e6f74207472616e7366657220746f2073656c6600000000000000000060448201526064016107f8565b600180546001600160a01b0319166001600160a01b0383811691821790925560008054604051929316917fed8889f560326eb138920d842192f0eb3dd22b4f139c87a2c57538e05bae12789190a350565b600080600060408486031215611b5357600080fd5b83359250602084013567ffffffffffffffff80821115611b7257600080fd5b818601915086601f830112611b8657600080fd5b813581811115611b9557600080fd5b8760208260051b8501011115611baa57600080fd5b6020830194508093505050509250925092565b634e487b7160e01b600052602160045260246000fd5b60058110611bf157634e487b7160e01b600052602160045260246000fd5b9052565b60208101611c038284611bd3565b92915050565b600060208284031215611c1b57600080fd5b5035919050565b60008060208385031215611c3557600080fd5b823567ffffffffffffffff80821115611c4d57600080fd5b818501915085601f830112611c6157600080fd5b813581811115611c7057600080fd5b866020828501011115611c8257600080fd5b60209290920196919550909350505050565b6000815180845260005b81811015611cba57602081850181015186830182015201611c9e565b506000602082860101526020601f19601f83011685010191505092915050565b602081526000611ced6020830184611c94565b9392505050565b6020808252825182820181905260009190848201906040850190845b81811015611d355783516001600160a01b031683529284019291840191600101611d10565b50909695505050505050565b8215158152604060208201526000611d5c6040830184611c94565b949350505050565b600060208284031215611d7657600080fd5b81356001600160a01b0381168114611ced57600080fd5b6000610120808352611da18184018d611c94565b90508281036020840152611db5818c611c94565b90508281036040840152611dc9818b611c94565b9150508760608301528660808301528560a08301528460c083015260018060a01b03841660e0830152611e00610100830184611bd3565b9a9950505050505050505050565b634e487b7160e01b600052601260045260246000fd5b634e487b7160e01b600052601160045260246000fd5b600082611e4957611e49611e0e565b500490565b81810381811115611c0357611c03611e24565b80820180821115611c0357611c03611e24565b8082028115828204841417611c0357611c03611e24565b634e487b7160e01b600052604160045260246000fd5b634e487b7160e01b600052603260045260246000fd5b600060018201611ec957611ec9611e24565b5060010190565b600060208284031215611ee257600080fd5b813567ffffffffffffffff80821115611efa57600080fd5b818401915084601f830112611f0e57600080fd5b813581811115611f2057611f20611e8b565b604051601f8201601f19908116603f01168101908382118183101715611f4857611f48611e8b565b81604052828152876020848701011115611f6157600080fd5b826020860160208301376000928101602001929092525095945050505050565b828152604060208201526000611d5c6040830184611c94565b600181811c90821680611fae57607f821691505b602082108103611fce57634e487b7160e01b600052602260045260246000fd5b50919050565b60208152815160208201526020820151604082015261ffff60408301511660608201526000606083015163ffffffff80821660808501528060808601511660a0850152505060a083015160c080840152611d5c60e0840182611c94565b60006020828403121561204357600080fd5b5051919050565b60008261205957612059611e0e565b50069056fe57616974696e6720666f7220646561646c696e65206f72206d6178207061727469636970616e7473a2646970667358221220bdd340a828f452f747e0aa004138fd8d6966a42d3381f5191a0760c4e992bbe064736f6c63430008180033",
  "linkReferences": {},
  "deployedLinkReferences": {}
}