{
  "_format": "hh-sol-artifact-1",
  "contractName": "Raffle",
  "sourceName": "contracts/Raffle.sol",
  "abi": [
    {
      "inputs": [
        {
          "internalType": "string",
          "name": "_title",
          "type": "string"
        },
        {
          "internalType": "string",
          "name": "_description",
          "type": "string"
        },
        {
          "internalType": "string",
          "name": "_prizeDescription",
          "type": "string"
        },
        {
          "internalType": "uint256",
          "name": "_entryFee",
          "type": "uint256"
        },
        {
          "internalType": "uint256",
          "name": "_deadline",
          "type": "uint256"
        },
        {
          "internalType": "uint256",
          "name": "_maxParticipants",
          "type": "uint256"
        },
        {
          "internalType": "address",
          "name": "_creator",
          "type": "address"
        },
        {
          "internalType": "address",
          "name": "_factory",
          "type": "address"
        },
        {
          "internalType": "uint256",
          "name": "_creatorCommissionBps",
          "type": "uint256"
        }
      ],
      "stateMutability": "nonpayable",
      "type": "constructor"
    },
    {
      "inputs": [],
      "name": "DeadlineMustBeInFuture",
      "type": "error"
    },
    {
      "inputs": [],
      "name": "DeadlineNotReached",
      "type": "error"
    },
    {
      "inputs": [],
      "name": "DeadlineTooFar",
      "type": "error"
    },
    {
      "inputs": [],
      "name": "DrawInProgress",
      "type": "error"
    },
    {
      "inputs": [],
      "name": "EntryFeeMustBePositive",
      "type": "error"
    },
    {
      "inputs": [],
      "name": "EntryFeeTooHigh",
      "type": "error"
    },
    {
      "inputs": [],
      "name": "InsufficientPayment",
      "type": "error"
    },
    {
      "inputs": [],
      "name": "InvalidCommission",
      "type": "error"
    },
    {
      "inputs": [],
      "name": "InvalidFactoryAddress",
      "type": "error"
    },
    {
      "inputs": [],
      "name": "InvalidRequestId",
      "type": "error"
    },
    {
      "inputs": [],
      "name": "InvalidTicketCount",
      "type": "error"
    },
    {
      "inputs": [],
      "name": "MaxParticipantsTooHigh",
      "type": "error"
    },
    {
      "inputs": [],
      "name": "MinParticipantsTooLow",
      "type": "error"
    },
    {
      "inputs": [],
      "name": "NoParticipants",
      "type": "error"
    },
    {
      "inputs": [],
      "name": "NoRefundAvailable",
      "type": "error"
    },
    {
      "inputs": [],
      "name": "NotCreator",
      "type": "error"
    },
    {
      "inputs": [],
      "name": "NotEnoughParticipants",
      "type": "error"
    },
    {
      "inputs": [],
      "name": "NotWinner",
      "type": "error"
    },
    {
      "inputs": [],
      "name": "OnlyFactory",
      "type": "error"
    },
    {
      "inputs": [],
      "name": "PrizeAlreadyClaimed",
      "type": "error"
    },
    {
      "inputs": [],
      "name": "RaffleEnded",
      "type": "error"
    },
    {
      "inputs": [],
      "name": "RaffleFull",
      "type": "error"
    },
    {
      "inputs": [],
      "name": "RaffleNotActive",
      "type": "error"
    },
    {
      "inputs": [],
      "name": "RaffleNotCancelled",
      "type": "error"
    },
    {
      "inputs": [],
      "name": "ReentrancyGuardReentrantCall",
      "type": "error"
    },
    {
      "inputs": [],
      "name": "TransferFailed",
      "type": "error"
    },
    {
      "inputs": [],
      "name": "WinnerAlreadyDrawn",
      "type": "error"
    },
    {
      "inputs": [],
      "name": "WinnerAlreadySet",
      "type": "error"
    },
    {
      "anonymous": false,
      "inputs": [
        {
          "indexed": true,
          "internalType": "address",
          "name": "creator",
          "type": "address"
        },
        {
          "indexed": false,
          "internalType": "uint256",
          "name": "amount",
          "type": "uint256"
        }
      ],
      "name": "CreatorCommissionPaid",
      "type": "event"
    },
    {
      "anonymous": false,
      "inputs": [
        {
          "indexed": true,
          "internalType": "address",
          "name": "participant",
          "type": "address"
        },
        {
          "indexed": false,
          "internalType": "uint256",
          "name": "ticketsBought",
          "type": "uint256"
        },
        {
          "indexed": false,
          "internalType": "uint256",
          "name": "totalTickets",
          "type": "uint256"
        },
        {
          "indexed": false,
          "internalType": "uint256",
          "name": "participantTicketCount",
          "type": "uint256"
        }
      ],
      "name": "ParticipantJoined",
      "type": "event"
    },
    {
      "anonymous": false,
      "inputs": [
        {
          "indexed": true,
          "internalType": "address",
          "name": "winner",
          "type": "address"
        },
        {
          "indexed": false,
          "internalType": "uint256",
          "name": "amount",
          "type": "uint256"
        }
      ],
      "name": "PrizeClaimed",
      "type": "event"
    },
    {
      "anonymous": false,
      "inputs": [],
      "name": "RaffleCancelled",
      "type": "event"
    },
    {
      "anonymous": false,
      "inputs": [
        {
          "indexed": false,
          "internalType": "uint256",
          "name": "requestId",
          "type": "uint256"
        }
      ],
      "name": "RandomnessRequested",
      "type": "event"
    },
    {
      "anonymous": false,
      "inputs": [
        {
          "indexed": true,
          "internalType": "address",
          "name": "participant",
          "type": "address"
        },
        {
          "indexed": false,
          "internalType": "uint256",
          "name": "amount",
          "type": "uint256"
        }
      ],
      "name": "RefundWithdrawn",
      "type": "event"
    },
    {
      "anonymous": false,
      "inputs": [
        {
          "indexed": true,
          "internalType": "address",
          "name": "winner",
          "type": "address"
        },
        {
          "indexed": false,
          "internalType": "uint256",
          "name": "winnerIndex",
          "type": "uint256"
        },
        {
          "indexed": false,
          "internalType": "uint256",
          "name": "randomNumber",
          "type": "uint256"
        },
        {
          "indexed": false,
          "internalType": "uint256",
          "name": "vrfRequestId",
          "type": "uint256"
        }
      ],
      "name": "WinnerDrawn",
      "type": "event"
    },
    {
      "inputs": [],
      "name": "cancelRaffle",
      "outputs": [],
      "stateMutability": "nonpayable",
      "type": "function"
    },
    {
      "inputs": [],
      "name": "claimPrize",
      "outputs": [],
      "stateMutability": "nonpayable",
      "type": "function"
    },
    {
      "inputs": [],
      "name": "creator",
      "outputs": [
        {
          "internalType": "address",
          "name": "",
          "type": "address"
        }
      ],
      "stateMutability": "view",
      "type": "function"
    },
    {
      "inputs": [],
      "name": "creatorCommissionBps",
      "outputs": [
        {
          "internalType": "uint256",
          "name": "",
          "type": "uint256"
        }
      ],
      "stateMutability": "view",
      "type": "function"
    },
    {
      "inputs": [],
      "name": "deadline",
      "outputs": [
        {
          "internalType": "uint256",
          "name": "",
          "type": "uint256"
        }
      ],
      "stateMutability": "view",
      "type": "function"
    },
    {
      "inputs": [],
      "name": "description",
      "outputs": [
        {
          "internalType": "string",
          "name": "",
          "type": "string"
        }
      ],
      "stateMutability": "view",
      "type": "function"
    },
    {
      "inputs": [],
      "name": "drawWinner",
      "outputs": [
        {
          "internalType": "uint256",
          "name": "requestId",
          "type": "uint256"
        }
      ],
      "stateMutability": "nonpayable",
      "type": "function"
    },
    {
      "inputs": [],
      "name": "entryFee",
      "outputs": [
        {
          "internalType": "uint256",
          "name": "",
          "type": "uint256"
        }
      ],
      "stateMutability": "view",
      "type": "function"
    },
    {
      "inputs": [],
      "name": "factory",
      "outputs": [
        {
          "internalType": "contract IRaffleFactory",
          "name": "",
          "type": "address"
        }
      ],
      "stateMutability": "view",
      "type": "function"
    },
    {
      "inputs": [
        {
          "internalType": "uint256",
          "name": "_requestId",
          "type": "uint256"
        },
        {
          "internalType": "uint256",
          "name": "_randomWord",
          "type": "uint256"
        }
      ],
      "name": "fulfillRandomness",
      "outputs": [],
      "stateMutability": "nonpayable",
      "type": "function"
    },
    {
      "inputs": [],
      "name": "getParticipants",
      "outputs": [
        {
          "internalType": "address[]",
          "name": "",
          "type": "address[]"
        }
      ],
      "stateMutability": "view",
      "type": "function"
    },
    {
      "inputs": [],
      "name": "getPrizePool",
      "outputs": [
        {
          "internalType": "uint256",
          "name": "",
          "type": "uint256"
        }
      ],
      "stateMutability": "view",
      "type": "function"
    },
    {
      "inputs": [],
      "name": "getRaffleDetails",
      "outputs": [
        {
          "internalType": "string",
          "name": "_title",
          "type": "string"
        },
        {
          "internalType": "string",
          "name": "_description",
          "type": "string"
        },
        {
          "internalType": "uint256",
          "name": "_entryFee",
          "type": "uint256"
        },
        {
          "internalType": "uint256",
          "name": "_deadline",
          "type": "uint256"
        },
        {
          "internalType": "uint256",
          "name": "_maxParticipants",
          "type": "uint256"
        },
        {
          "internalType": "uint256",
          "name": "_currentParticipants",
          "type": "uint256"
        },
        {
          "internalType": "enum Raffle.RaffleStatus",
          "name": "_status",
          "type": "uint8"
        },
        {
          "internalType": "address",
          "name": "_creator",
          "type": "address"
        },
        {
          "internalType": "address",
          "name": "_winner",
          "type": "address"
        },
        {
          "internalType": "uint256",
          "name": "_creatorCommissionBps",
          "type": "uint256"
        }
      ],
      "stateMutability": "view",
      "type": "function"
    },
    {
      "inputs": [],
      "name": "getTotalTickets",
      "outputs": [
        {
          "internalType": "uint256",
          "name": "",
          "type": "uint256"
        }
      ],
      "stateMutability": "view",
      "type": "function"
    },
    {
      "inputs": [
        {
          "internalType": "address",
          "name": "_user",
          "type": "address"
        }
      ],
      "name": "getUserTicketCount",
      "outputs": [
        {
          "internalType": "uint256",
          "name": "",
          "type": "uint256"
        }
      ],
      "stateMutability": "view",
      "type": "function"
    },
    {
      "inputs": [
        {
          "internalType": "uint256",
          "name": "_ticketCount",
          "type": "uint256"
        }
      ],
      "name": "joinRaffle",
      "outputs": [],
      "stateMutability": "payable",
      "type": "function"
    },
    {
      "inputs": [],
      "name": "maxParticipants",
      "outputs": [
        {
          "internalType": "uint256",
          "name": "",
          "type": "uint256"
        }
      ],
      "stateMutability": "view",
      "type": "function"
    },
    {
      "inputs": [
        {
          "internalType": "uint256",
          "name": "",
          "type": "uint256"
        }
      ],
      "name": "participants",
      "outputs": [
        {
          "internalType": "address",
          "name": "",
          "type": "address"
        }
      ],
      "stateMutability": "view",
      "type": "function"
    },
    {
      "inputs": [],
      "name": "prizeDescription",
      "outputs": [
        {
          "internalType": "string",
          "name": "",
          "type": "string"
        }
      ],
      "stateMutability": "view",
      "type": "function"
    },
    {
      "inputs": [],
      "name": "randomResult",
      "outputs": [
        {
          "internalType": "uint256",
          "name": "",
          "type": "uint256"
        }
      ],
      "stateMutability": "view",
      "type": "function"
    },
    {
      "inputs": [],
      "name": "status",
      "outputs": [
        {
          "internalType": "enum Raffle.RaffleStatus",
          "name": "",
          "type": "uint8"
        }
      ],
      "stateMutability": "view",
      "type": "function"
    },
    {
      "inputs": [
        {
          "internalType": "address",
          "name": "",
          "type": "address"
        }
      ],
      "name": "ticketCount",
      "outputs": [
        {
          "internalType": "uint256",
          "name": "",
          "type": "uint256"
        }
      ],
      "stateMutability": "view",
      "type": "function"
    },
    {
      "inputs": [],
      "name": "title",
      "outputs": [
        {
          "internalType": "string",
          "name": "",
          "type": "string"
        }
      ],
      "stateMutability": "view",
      "type": "function"
    },
    {
      "inputs": [],
      "name": "vrfRequestId",
      "outputs": [
        {
          "internalType": "uint256",
          "name": "",
          "type": "uint256"
        }
      ],
      "stateMutability": "view",
      "type": "function"
    },
    {
      "inputs": [],
      "name": "winner",
      "outputs": [
        {
          "internalType": "address",
          "name": "",
          "type": "address"
        }
      ],
      "stateMutability": "view",
      "type": "function"
    },
    {
      "inputs": [],
      "name": "winnerIndex",
      "outputs": [
        {
          "internalType": "uint256",
          "name": "",
          "type": "uint256"
        }
      ],
      "stateMutability": "view",
      "type": "function"
    },
    {
      "inputs": [],
      "name": "withdrawRefund",
      "outputs": [],
      "stateMutability": "nonpayable",
      "type": "function"
    }
  ],
  "bytecode": "0x60a06040523480156200001157600080fd5b5060405162001a2338038062001a238339810160408190526200003491620002c3565b60016000554285116200005a57604051630642ce7760e01b815260040160405180910390fd5b6200006a426301e13380620003a1565b8511156200008b576040516324787d7360e11b815260040160405180910390fd5b85600003620000ad576040516315801e6b60e21b815260040160405180910390fd5b68056bc75e2d63100000861115620000d857604051631a3dc29960e21b815260040160405180910390fd5b83600103620000fa57604051630def91b560e41b815260040160405180910390fd5b6127108411156200011e57604051630c2e7b5760e41b815260040160405180910390fd5b6001600160a01b0382166200014657604051635c7bfbe960e01b815260040160405180910390fd5b6103e88111156200016a5760405163dc81db8560e01b815260040160405180910390fd5b6001620001788a826200045a565b5060026200018789826200045a565b5060036200019688826200045a565b5060049590955560059390935560069190915560078054600160a01b6001600160a81b03199091166001600160a01b0393841617179055166080526008555062000526915050565b634e487b7160e01b600052604160045260246000fd5b600082601f8301126200020657600080fd5b81516001600160401b0380821115620002235762000223620001de565b604051601f8301601f19908116603f011681019082821181831017156200024e576200024e620001de565b81604052838152602092508660208588010111156200026c57600080fd5b600091505b8382101562000290578582018301518183018401529082019062000271565b6000602085830101528094505050505092915050565b80516001600160a01b0381168114620002be57600080fd5b919050565b60008060008060008060008060006101208a8c031215620002e357600080fd5b89516001600160401b0380821115620002fb57600080fd5b620003098d838e01620001f4565b9a5060208c01519150808211156200032057600080fd5b6200032e8d838e01620001f4565b995060408c01519150808211156200034557600080fd5b50620003548c828d01620001f4565b97505060608a0151955060808a0151945060a08a015193506200037a60c08b01620002a6565b92506200038a60e08b01620002a6565b91506101008a015190509295985092959850929598565b80820180821115620003c357634e487b7160e01b600052601160045260246000fd5b92915050565b600181811c90821680620003de57607f821691505b602082108103620003ff57634e487b7160e01b600052602260045260246000fd5b50919050565b601f82111562000455576000816000526020600020601f850160051c81016020861015620004305750805b601f850160051c820191505b8181101562000451578281556001016200043c565b5050505b505050565b81516001600160401b03811115620004765762000476620001de565b6200048e81620004878454620003c9565b8462000405565b602080601f831160018114620004c65760008415620004ad5750858301515b600019600386901b1c1916600185901b17855562000451565b600085815260208120601f198616915b82811015620004f757888601518255948401946001909101908401620004d6565b5085821015620005165787850151600019600388901b60f8161c191681555b5050505050600190811b01905550565b6080516114d3620005506000396000818161047a015281816104dc01526110d001526114d36000f3fe60806040526004361061019c5760003560e01c80635aa68ac0116100ec578063936afab31161008a578063b2185bb111610064578063b2185bb114610453578063c45a015514610468578063dfbf53ae1461049c578063efeed224146104bc57600080fd5b8063936afab3146103dc578063963ef2a214610407578063aec3c1731461043d57600080fd5b806370ca5bbe116100c657806370ca5bbe146103715780637284e4161461039e578063884bf67c146103b35780638f00cbfa146103c657600080fd5b80635aa68ac014610325578063705332501461034757806370740ac91461035c57600080fd5b8063200d2ed21161015957806335c1d3491161013357806335c1d349146102ba57806342619f66146102da5780634758eca9146102f05780634a79d50c1461030357600080fd5b8063200d2ed21461026057806324924bf71461028e57806329dcb0cf146102a457600080fd5b806302d05d3f146101a15780630695a252146101de57806306e8337f14610200578063072ea61c1461021f578063110f88741461023557806318a7ea5f1461024a575b600080fd5b3480156101ad57600080fd5b506007546101c1906001600160a01b031681565b6040516001600160a01b0390911681526020015b60405180910390f35b3480156101ea57600080fd5b506101fe6101f93660046111c7565b6104d1565b005b34801561020c57600080fd5b506009545b6040519081526020016101d5565b34801561022b57600080fd5b5061021160045481565b34801561024157600080fd5b506101fe61061b565b34801561025657600080fd5b50610211600e5481565b34801561026c57600080fd5b5060075461028190600160a01b900460ff1681565b6040516101d59190611221565b34801561029a57600080fd5b5061021160065481565b3480156102b057600080fd5b5061021160055481565b3480156102c657600080fd5b506101c16102d5366004611235565b610761565b3480156102e657600080fd5b50610211600d5481565b6101fe6102fe366004611235565b61078b565b34801561030f57600080fd5b506103186109de565b6040516101d59190611294565b34801561033157600080fd5b5061033a610a6c565b6040516101d591906112ae565b34801561035357600080fd5b506101fe610ace565b34801561036857600080fd5b506101fe610c2a565b34801561037d57600080fd5b5061021161038c3660046112fb565b600a6020526000908152604090205481565b3480156103aa57600080fd5b50610318610e5f565b3480156103bf57600080fd5b5047610211565b3480156103d257600080fd5b50610211600c5481565b3480156103e857600080fd5b506103f1610e6c565b6040516101d59a99989796959493929190611324565b34801561041357600080fd5b506102116104223660046112fb565b6001600160a01b03166000908152600a602052604090205490565b34801561044957600080fd5b5061021160085481565b34801561045f57600080fd5b50610211611005565b34801561047457600080fd5b506101c17f000000000000000000000000000000000000000000000000000000000000000081565b3480156104a857600080fd5b50600b546101c1906001600160a01b031681565b3480156104c857600080fd5b50610318611190565b336001600160a01b037f0000000000000000000000000000000000000000000000000000000000000000161461051a57604051630636a15760e11b815260040160405180910390fd5b600e54821461053c576040516302e8145360e61b815260040160405180910390fd5b600b546001600160a01b0316156105665760405163636ed8dd60e11b815260040160405180910390fd5b600d81905560095461057890826113b9565b600c819055506009600c5481548110610593576105936113cd565b60009182526020918290200154600b80546001600160a01b0319166001600160a01b0390921691821790556007805460ff60a01b1916600360a01b179055600c54600d546040805192835293820152808301859052915190917ff52fac7e26724c6e0808da8161af0a1263330646f3989bb031cc71fbaa7bf521919081900360600190a25050565b61062361119d565b6004600754600160a01b900460ff166005811115610643576106436111e9565b146106615760405163f60bb00b60e01b815260040160405180910390fd5b336000908152600a6020526040812054908190036106925760405163e49c14cb60e01b815260040160405180910390fd5b336000908152600a602052604081208190556004546106b190836113f9565b60405181815290915033907f3d97f39b86d061200a7834082f5926e58ec10fd85a9d6930f497729d5e6cc35c9060200160405180910390a2604051600090339083908381818185875af1925050503d806000811461072b576040519150601f19603f3d011682016040523d82523d6000602084013e610730565b606091505b5050905080610752576040516312171d8360e31b815260040160405180910390fd5b50505061075f6001600055565b565b6009818154811061077157600080fd5b6000918252602090912001546001600160a01b0316905081565b61079361119d565b6001600754600160a01b900460ff1660058111156107b3576107b36111e9565b146107d157604051632ae47f7360e01b815260040160405180910390fd5b60055442106107f35760405163502fd88d60e01b815260040160405180910390fd5b8060000361081457604051638e71bef960e01b815260040160405180910390fd5b60008160045461082491906113f9565b9050803410156108475760405163cd1c886760e01b815260040160405180910390fd5b6006541561087f57600654600954610860908490611410565b111561087f57604051630771de3360e01b815260040160405180910390fd5b60005b828110156108d35760098054600181810183556000929092527f6e1540171b6c0c960b71a7020d9f60077f6af931a8bbf590da0223dacf75c7af0180546001600160a01b0319163317905501610882565b50336000908152600a6020526040812080548492906108f3908490611410565b9091555050600954336000818152600a60209081526040918290205482518781529182019490945290810192909252907fe367e10777f2a25a834ba205395c23c7f7175d3d6d36137ee22c3f056d780c0a9060600160405180910390a2600061095c8234611423565b905080156109cf57604051600090339083908381818185875af1925050503d80600081146109a6576040519150601f19603f3d011682016040523d82523d6000602084013e6109ab565b606091505b50509050806109cd576040516312171d8360e31b815260040160405180910390fd5b505b50506109db6001600055565b50565b600180546109eb90611436565b80601f0160208091040260200160405190810160405280929190818152602001828054610a1790611436565b8015610a645780601f10610a3957610100808354040283529160200191610a64565b820191906000526020600020905b815481529060010190602001808311610a4757829003601f168201915b505050505081565b60606009805480602002602001604051908101604052809291908181526020018280548015610ac457602002820191906000526020600020905b81546001600160a01b03168152600190910190602001808311610aa6575b5050505050905090565b60006005544210158015610ae457506009546002115b6007549091506001600160a01b03163314801590610b00575080155b15610b1e576040516393687c0b60e01b815260040160405180910390fd5b6002600754600160a01b900460ff166005811115610b3e57610b3e6111e9565b03610b5c57604051634d4754b160e01b815260040160405180910390fd5b6003600754600160a01b900460ff166005811115610b7c57610b7c6111e9565b1480610ba557506004600754600160a01b900460ff166005811115610ba357610ba36111e9565b145b80610bcd57506005600754600160a01b900460ff166005811115610bcb57610bcb6111e9565b145b15610beb5760405163502fd88d60e01b815260040160405180910390fd5b6007805460ff60a01b1916600160a21b1790556040517f90e8484a98b653b6def19811c0e3811715da0de9c6b90d013442ba7e7541295190600090a150565b610c3261119d565b600b546001600160a01b03163314610c5d576040516330c6392160e11b815260040160405180910390fd5b6003600754600160a01b900460ff166005811115610c7d57610c7d6111e9565b14610c9b5760405163611ab18960e11b815260040160405180910390fd5b6007805460ff60a01b1916600560a01b179055600854479060009061271090610cc490846113f9565b610cce9190611470565b90506000610cdc8284611423565b600b546040518281529192506001600160a01b0316907f95681e512bc0fe659e195e06c283eada494316f3d801213e48e7101af92bf7709060200160405180910390a2600b546040516000916001600160a01b03169083908381818185875af1925050503d8060008114610d6c576040519150601f19603f3d011682016040523d82523d6000602084013e610d71565b606091505b5050905080610d93576040516312171d8360e31b815260040160405180910390fd5b8215610e51576007546040518481526001600160a01b03909116907ffced7da42f0f076c425d7fa774af80c6fb4c4337cd595e67a56de7ff5c90be2d9060200160405180910390a26007546040516000916001600160a01b03169085908381818185875af1925050503d8060008114610e28576040519150601f19603f3d011682016040523d82523d6000602084013e610e2d565b606091505b5050905080610e4f576040516312171d8360e31b815260040160405180910390fd5b505b5050505061075f6001600055565b600280546109eb90611436565b60608060008060008060008060008060016002600454600554600654600980549050600760149054906101000a900460ff16600760009054906101000a90046001600160a01b0316600b60009054906101000a90046001600160a01b0316600854898054610ed990611436565b80601f0160208091040260200160405190810160405280929190818152602001828054610f0590611436565b8015610f525780601f10610f2757610100808354040283529160200191610f52565b820191906000526020600020905b815481529060010190602001808311610f3557829003601f168201915b50505050509950888054610f6590611436565b80601f0160208091040260200160405190810160405280929190818152602001828054610f9190611436565b8015610fde5780601f10610fb357610100808354040283529160200191610fde565b820191906000526020600020905b815481529060010190602001808311610fc157829003601f168201915b50505050509850995099509950995099509950995099509950995090919293949596979899565b600060055442108015611025575060065415806110255750600654600954105b1561104357604051633376277360e11b815260040160405180910390fd5b600954600003611066576040516308b6a47360e41b815260040160405180910390fd5b6009546002111561108a576040516399f46cd560e01b815260040160405180910390fd5b600b546001600160a01b0316156110b457604051630770596760e11b815260040160405180910390fd5b600780546002919060ff60a01b1916600160a01b8302179055507f00000000000000000000000000000000000000000000000000000000000000006001600160a01b0316631b930e996040518163ffffffff1660e01b81526004016020604051808303816000875af115801561112e573d6000803e3d6000fd5b505050506040513d601f19601f820116820180604052508101906111529190611484565b600e8190556040518181529091507f9ac10fb18c93d33ad7b0a941897aef048d0f8d30756684e82b4552ba12764d459060200160405180910390a190565b600380546109eb90611436565b6002600054036111c057604051633ee5aeb560e01b815260040160405180910390fd5b6002600055565b600080604083850312156111da57600080fd5b50508035926020909101359150565b634e487b7160e01b600052602160045260246000fd5b6006811061121d57634e487b7160e01b600052602160045260246000fd5b9052565b6020810161122f82846111ff565b92915050565b60006020828403121561124757600080fd5b5035919050565b6000815180845260005b8181101561127457602081850181015186830182015201611258565b506000602082860101526020601f19601f83011685010191505092915050565b6020815260006112a7602083018461124e565b9392505050565b6020808252825182820181905260009190848201906040850190845b818110156112ef5783516001600160a01b0316835292840192918401916001016112ca565b50909695505050505050565b60006020828403121561130d57600080fd5b81356001600160a01b03811681146112a757600080fd5b60006101408083526113388184018e61124e565b9050828103602084015261134c818d61124e565b9150508960408301528860608301528760808301528660a083015261137460c08301876111ff565b6001600160a01b0394851660e08301529290931661010084015261012090920191909152979650505050505050565b634e487b7160e01b600052601260045260246000fd5b6000826113c8576113c86113a3565b500690565b634e487b7160e01b600052603260045260246000fd5b634e487b7160e01b600052601160045260246000fd5b808202811582820484141761122f5761122f6113e3565b8082018082111561122f5761122f6113e3565b8181038181111561122f5761122f6113e3565b600181811c9082168061144a57607f821691505b60208210810361146a57634e487b7160e01b600052602260045260246000fd5b50919050565b60008261147f5761147f6113a3565b500490565b60006020828403121561149657600080fd5b505191905056fea26469706673582212202fb871faf86db4563e9a7b92ec168fd1c280978bcf52315e9f0d3b886aa8479d64736f6c63430008180033",
  "linkReferences": {},
  "deployedLinkReferences": {}
}