{
  "_format": "hh-sol-artifact-1",
  "contractName": "RaffleFactory",
  "sourceName": "contracts/RaffleFactory.sol",
  "abi": [
    {
      "inputs": [
        {
          "internalType": "address",
          "name": "_vrfCoordinator",
          "type": "address"
        },
        {
          "internalType": "bytes32",
          "name": "_keyHash",
          "type": "bytes32"
        },
        {
          "internalType": "uint256",
          "name": "_subscriptionId",
          "type": "uint256"
        }
      ],
      "stateMutability": "nonpayable",
      "type": "constructor"
    },
    {
      "inputs": [],
      "name": "InsufficientCreationFee",
      "type": "error"
    },
    {
      "inputs": [],
      "name": "NotPlatformOwner",
      "type": "error"
    },
    {
      "inputs": [
        {
          "internalType": "address",
          "name": "have",
          "type": "address"
        },
        {
          "internalType": "address",
          "name": "want",
          "type": "address"
        }
      ],
      "name": "OnlyCoordinatorCanFulfill",
      "type": "error"
    },
    {
      "inputs": [
        {
          "internalType": "address",
          "name": "have",
          "type": "address"
        },
        {
          "internalType": "address",
          "name": "owner",
          "type": "address"
        },
        {
          "internalType": "address",
          "name": "coordinator",
          "type": "address"
        }
      ],
      "name": "OnlyOwnerOrCoordinator",
      "type": "error"
    },
    {
      "inputs": [],
      "name": "WithdrawFailed",
      "type": "error"
    },
    {
      "inputs": [],
      "name": "ZeroAddress",
      "type": "error"
    },
    {
      "anonymous": false,
      "inputs": [
        {
          "indexed": false,
          "internalType": "address",
          "name": "vrfCoordinator",
          "type": "address"
        }
      ],
      "name": "CoordinatorSet",
      "type": "event"
    },
    {
      "anonymous": false,
      "inputs": [
        {
          "indexed": true,
          "internalType": "address",
          "name": "owner",
          "type": "address"
        },
        {
          "indexed": false,
          "internalType": "uint256",
          "name": "amount",
          "type": "uint256"
        }
      ],
      "name": "FeesWithdrawn",
      "type": "event"
    },
    {
      "anonymous": false,
      "inputs": [
        {
          "indexed": true,
          "internalType": "address",
          "name": "from",
          "type": "address"
        },
        {
          "indexed": true,
          "internalType": "address",
          "name": "to",
          "type": "address"
        }
      ],
      "name": "OwnershipTransferRequested",
      "type": "event"
    },
    {
      "anonymous": false,
      "inputs": [
        {
          "indexed": true,
          "internalType": "address",
          "name": "from",
          "type": "address"
        },
        {
          "indexed": true,
          "internalType": "address",
          "name": "to",
          "type": "address"
        }
      ],
      "name": "OwnershipTransferred",
      "type": "event"
    },
    {
      "anonymous": false,
      "inputs": [
        {
          "indexed": true,
          "internalType": "address",
          "name": "raffleAddress",
          "type": "address"
        },
        {
          "indexed": true,
          "internalType": "address",
          "name": "creator",
          "type": "address"
        },
        {
          "indexed": false,
          "internalType": "string",
          "name": "title",
          "type": "string"
        },
        {
          "indexed": false,
          "internalType": "uint256",
          "name": "entryFee",
          "type": "uint256"
        },
        {
          "indexed": false,
          "internalType": "uint256",
          "name": "deadline",
          "type": "uint256"
        },
        {
          "indexed": false,
          "internalType": "uint256",
          "name": "maxParticipants",
          "type": "uint256"
        }
      ],
      "name": "RaffleCreated",
      "type": "event"
    },
    {
      "anonymous": false,
      "inputs": [
        {
          "indexed": true,
          "internalType": "address",
          "name": "raffle",
          "type": "address"
        },
        {
          "indexed": true,
          "internalType": "uint256",
          "name": "requestId",
          "type": "uint256"
        },
        {
          "indexed": false,
          "internalType": "uint256",
          "name": "randomWord",
          "type": "uint256"
        }
      ],
      "name": "RandomnessFulfilled",
      "type": "event"
    },
    {
      "anonymous": false,
      "inputs": [
        {
          "indexed": true,
          "internalType": "address",
          "name": "raffle",
          "type": "address"
        },
        {
          "indexed": true,
          "internalType": "uint256",
          "name": "requestId",
          "type": "uint256"
        }
      ],
      "name": "RandomnessRequested",
      "type": "event"
    },
    {
      "inputs": [],
      "name": "CREATION_FEE_BPS",
      "outputs": [
        {
          "internalType": "uint256",
          "name": "",
          "type": "uint256"
        }
      ],
      "stateMutability": "view",
      "type": "function"
    },
    {
      "inputs": [],
      "name": "MAX_FEE",
      "outputs": [
        {
          "internalType": "uint256",
          "name": "",
          "type": "uint256"
        }
      ],
      "stateMutability": "view",
      "type": "function"
    },
    {
      "inputs": [],
      "name": "MIN_FEE",
      "outputs": [
        {
          "internalType": "uint256",
          "name": "",
          "type": "uint256"
        }
      ],
      "stateMutability": "view",
      "type": "function"
    },
    {
      "inputs": [],
      "name": "acceptOwnership",
      "outputs": [],
      "stateMutability": "nonpayable",
      "type": "function"
    },
    {
      "inputs": [
        {
          "internalType": "uint256",
          "name": "",
          "type": "uint256"
        }
      ],
      "name": "allRaffles",
      "outputs": [
        {
          "internalType": "address",
          "name": "",
          "type": "address"
        }
      ],
      "stateMutability": "view",
      "type": "function"
    },
    {
      "inputs": [
        {
          "internalType": "uint256",
          "name": "_entryFee",
          "type": "uint256"
        },
        {
          "internalType": "uint256",
          "name": "_maxParticipants",
          "type": "uint256"
        }
      ],
      "name": "calculateCreationFee",
      "outputs": [
        {
          "internalType": "uint256",
          "name": "fee",
          "type": "uint256"
        }
      ],
      "stateMutability": "pure",
      "type": "function"
    },
    {
      "inputs": [
        {
          "internalType": "string",
          "name": "_title",
          "type": "string"
        },
        {
          "internalType": "string",
          "name": "_description",
          "type": "string"
        },
        {
          "internalType": "string",
          "name": "_prizeDescription",
          "type": "string"
        },
        {
          "internalType": "uint256",
          "name": "_entryFee",
          "type": "uint256"
        },
        {
          "internalType": "uint256",
          "name": "_deadline",
          "type": "uint256"
        },
        {
          "internalType": "uint256",
          "name": "_maxParticipants",
          "type": "uint256"
        }
      ],
      "name": "createRaffle",
      "outputs": [
        {
          "internalType": "address",
          "name": "raffleAddress",
          "type": "address"
        }
      ],
      "stateMutability": "payable",
      "type": "function"
    },
    {
      "inputs": [],
      "name": "getAccumulatedFees",
      "outputs": [
        {
          "internalType": "uint256",
          "name": "",
          "type": "uint256"
        }
      ],
      "stateMutability": "view",
      "type": "function"
    },
    {
      "inputs": [],
      "name": "getAllRaffles",
      "outputs": [
        {
          "internalType": "address[]",
          "name": "",
          "type": "address[]"
        }
      ],
      "stateMutability": "view",
      "type": "function"
    },
    {
      "inputs": [
        {
          "internalType": "address",
          "name": "_creator",
          "type": "address"
        }
      ],
      "name": "getCreatorRaffleCount",
      "outputs": [
        {
          "internalType": "uint256",
          "name": "",
          "type": "uint256"
        }
      ],
      "stateMutability": "view",
      "type": "function"
    },
    {
      "inputs": [],
      "name": "getRaffleCount",
      "outputs": [
        {
          "internalType": "uint256",
          "name": "",
          "type": "uint256"
        }
      ],
      "stateMutability": "view",
      "type": "function"
    },
    {
      "inputs": [
        {
          "internalType": "address",
          "name": "_creator",
          "type": "address"
        }
      ],
      "name": "getRafflesByCreator",
      "outputs": [
        {
          "internalType": "address[]",
          "name": "",
          "type": "address[]"
        }
      ],
      "stateMutability": "view",
      "type": "function"
    },
    {
      "inputs": [
        {
          "internalType": "address",
          "name": "",
          "type": "address"
        }
      ],
      "name": "isRaffle",
      "outputs": [
        {
          "internalType": "bool",
          "name": "",
          "type": "bool"
        }
      ],
      "stateMutability": "view",
      "type": "function"
    },
    {
      "inputs": [],
      "name": "keyHash",
      "outputs": [
        {
          "internalType": "bytes32",
          "name": "",
          "type": "bytes32"
        }
      ],
      "stateMutability": "view",
      "type": "function"
    },
    {
      "inputs": [],
      "name": "owner",
      "outputs": [
        {
          "internalType": "address",
          "name": "",
          "type": "address"
        }
      ],
      "stateMutability": "view",
      "type": "function"
    },
    {
      "inputs": [],
      "name": "platformOwner",
      "outputs": [
        {
          "internalType": "address",
          "name": "",
          "type": "address"
        }
      ],
      "stateMutability": "view",
      "type": "function"
    },
    {
      "inputs": [
        {
          "internalType": "address",
          "name": "",
          "type": "address"
        },
        {
          "internalType": "uint256",
          "name": "",
          "type": "uint256"
        }
      ],
      "name": "rafflesByCreator",
      "outputs": [
        {
          "internalType": "address",
          "name": "",
          "type": "address"
        }
      ],
      "stateMutability": "view",
      "type": "function"
    },
    {
      "inputs": [
        {
          "internalType": "uint256",
          "name": "requestId",
          "type": "uint256"
        },
        {
          "internalType": "uint256[]",
          "name": "randomWords",
          "type": "uint256[]"
        }
      ],
      "name": "rawFulfillRandomWords",
      "outputs": [],
      "stateMutability": "nonpayable",
      "type": "function"
    },
    {
      "inputs": [
        {
          "internalType": "uint256",
          "name": "",
          "type": "uint256"
        }
      ],
      "name": "requestIdToRaffle",
      "outputs": [
        {
          "internalType": "address",
          "name": "",
          "type": "address"
        }
      ],
      "stateMutability": "view",
      "type": "function"
    },
    {
      "inputs": [],
      "name": "requestRandomnessForRaffle",
      "outputs": [
        {
          "internalType": "uint256",
          "name": "requestId",
          "type": "uint256"
        }
      ],
      "stateMutability": "nonpayable",
      "type": "function"
    },
    {
      "inputs": [],
      "name": "s_vrfCoordinator",
      "outputs": [
        {
          "internalType": "contract IVRFCoordinatorV2Plus",
          "name": "",
          "type": "address"
        }
      ],
      "stateMutability": "view",
      "type": "function"
    },
    {
      "inputs": [
        {
          "internalType": "address",
          "name": "_vrfCoordinator",
          "type": "address"
        }
      ],
      "name": "setCoordinator",
      "outputs": [],
      "stateMutability": "nonpayable",
      "type": "function"
    },
    {
      "inputs": [],
      "name": "subscriptionId",
      "outputs": [
        {
          "internalType": "uint256",
          "name": "",
          "type": "uint256"
        }
      ],
      "stateMutability": "view",
      "type": "function"
    },
    {
      "inputs": [
        {
          "internalType": "address",
          "name": "to",
          "type": "address"
        }
      ],
      "name": "transferOwnership",
      "outputs": [],
      "stateMutability": "nonpayable",
      "type": "function"
    },
    {
      "inputs": [],
      "name": "withdrawFees",
      "outputs": [],
      "stateMutability": "nonpayable",
      "type": "function"
    }
  ],
  "bytecode": "0x60e06040523480156200001157600080fd5b5060405162002ea338038062002ea38339810160408190526200003491620001c9565b8233806000816200008c5760405162461bcd60e51b815260206004820152601860248201527f43616e6e6f7420736574206f776e657220746f207a65726f000000000000000060448201526064015b60405180910390fd5b600080546001600160a01b0319166001600160a01b0384811691909117909155811615620000bf57620000bf816200011e565b5050506001600160a01b038116620000ea5760405163d92e233d60e01b815260040160405180910390fd5b600280546001600160a01b0319166001600160a01b039290921691909117905560809190915260a052503360c0526200020e565b336001600160a01b03821603620001785760405162461bcd60e51b815260206004820152601760248201527f43616e6e6f74207472616e7366657220746f2073656c66000000000000000000604482015260640162000083565b600180546001600160a01b0319166001600160a01b0383811691821790925560008054604051929316917fed8889f560326eb138920d842192f0eb3dd22b4f139c87a2c57538e05bae12789190a350565b600080600060608486031215620001df57600080fd5b83516001600160a01b0381168114620001f757600080fd5b602085015160409095015190969495509392505050565b60805160a05160c051612c4262000261600039600081816102b7015281816107fd0152818161084e01526108d501526000818161019d01526105fb01526000818161031901526105d80152612c426000f3fe608060405260043610620001845760003560e01c806376c7a3c711620000e25780639eb067181162000095578063a6a278d3116200006c578063a6a278d314620004a4578063b26f9a6a14620004de578063bc063e1a1462000518578063f2fde38b146200053557600080fd5b80639eb0671814620004385780639eccacf6146200045d578063a043347d146200047f57600080fd5b806376c7a3c7146200035257806379ba5097146200036f5780638da5cb5b14620003875780638ea9811714620003a7578063933eea6b14620003cc5780639b00e10a14620003f357600080fd5b806349391898116200013b5780634939189814620002655780634df8ccb114620002a35780635195838c14620002d95780635df45a3714620002f057806361728f391462000305578063713c9ea9146200033b57600080fd5b806309c1ba2e14620001895780631b930e9914620001d25780631d8c608614620001ea5780631fe543e3146200020157806338bc13051462000228578063476343ee146200024d575b600080fd5b3480156200019657600080fd5b50620001bf7f000000000000000000000000000000000000000000000000000000000000000081565b6040519081526020015b60405180910390f35b348015620001df57600080fd5b50620001bf6200055a565b348015620001f757600080fd5b50600354620001bf565b3480156200020e57600080fd5b50620002266200022036600462001087565b6200071f565b005b3480156200023557600080fd5b50620001bf620002473660046200110b565b62000773565b3480156200025a57600080fd5b5062000226620007f2565b3480156200027257600080fd5b506200028a620002843660046200114b565b6200093b565b6040516001600160a01b039091168152602001620001c9565b348015620002b057600080fd5b506200028a7f000000000000000000000000000000000000000000000000000000000000000081565b348015620002e657600080fd5b50620001bf606481565b348015620002fd57600080fd5b5047620001bf565b3480156200031257600080fd5b50620001bf7f000000000000000000000000000000000000000000000000000000000000000081565b6200028a6200034c36600462001223565b62000974565b3480156200035f57600080fd5b50620001bf66016bcc41e9000081565b3480156200037c57600080fd5b506200022662000b13565b3480156200039457600080fd5b506000546001600160a01b03166200028a565b348015620003b457600080fd5b5062000226620003c6366004620012d1565b62000bbf565b348015620003d957600080fd5b50620003e462000cb6565b604051620001c99190620012f6565b3480156200040057600080fd5b506200042762000412366004620012d1565b60056020526000908152604090205460ff1681565b6040519015158152602001620001c9565b3480156200044557600080fd5b506200028a6200045736600462001345565b62000d1a565b3480156200046a57600080fd5b506002546200028a906001600160a01b031681565b3480156200048c57600080fd5b50620003e46200049e366004620012d1565b62000d45565b348015620004b157600080fd5b50620001bf620004c3366004620012d1565b6001600160a01b031660009081526004602052604090205490565b348015620004eb57600080fd5b506200028a620004fd36600462001345565b6006602052600090815260409020546001600160a01b031681565b3480156200052557600080fd5b50620001bf66b1a2bc2ec5000081565b3480156200054257600080fd5b506200022662000554366004620012d1565b62000dbd565b3360009081526005602052604081205460ff16620005c95760405162461bcd60e51b815260206004820152602160248201527f4f6e6c7920726166666c6520636f6e7472616374732063616e207265717565736044820152601d60fa1b60648201526084015b60405180910390fd5b6002546040805160c0810182527f000000000000000000000000000000000000000000000000000000000000000081527f0000000000000000000000000000000000000000000000000000000000000000602080830191909152600382840152620493e06060830152600160808301528251908101909252600082526001600160a01b0390921691639b1c385e9160a0820190620006679062000dd5565b8152506040518263ffffffff1660e01b8152600401620006889190620013a7565b6020604051808303816000875af1158015620006a8573d6000803e3d6000fd5b505050506040513d601f19601f82011682018060405250810190620006ce91906200140e565b60008181526006602052604080822080546001600160a01b031916339081179091559051929350839290917fc0412d082261082b733ae39d66dd3b4c4d14c47283f37f52dc3a3bb8a70efabe91a390565b6002546001600160a01b03163314620007615760025460405163073e64fd60e21b81523360048201526001600160a01b039091166024820152604401620005c0565b6200076e83838362000e47565b505050565b6000816000036200078d575066b1a2bc2ec50000620007ec565b61271060646200079e84866200143e565b620007aa91906200143e565b620007b6919062001458565b905066016bcc41e90000811015620007d2575066016bcc41e900005b66b1a2bc2ec50000811115620007ec575066b1a2bc2ec500005b92915050565b336001600160a01b037f000000000000000000000000000000000000000000000000000000000000000016146200083c57604051631c30e10760e11b815260040160405180910390fd5b60405147906000906001600160a01b037f0000000000000000000000000000000000000000000000000000000000000000169083908381818185875af1925050503d8060008114620008ab576040519150601f19603f3d011682016040523d82523d6000602084013e620008b0565b606091505b5050905080620008d357604051631d42c86760e21b815260040160405180910390fd5b7f00000000000000000000000000000000000000000000000000000000000000006001600160a01b03167fc0819c13be868895eb93e40eaceb96de976442fa1d404e5c55f14bb65a8c489a836040516200092f91815260200190565b60405180910390a25050565b600460205281600052604060002081815481106200095857600080fd5b6000918252602090912001546001600160a01b03169150829050565b60008062000983858462000773565b905080341015620009a757604051630535b74760e41b815260040160405180910390fd5b600088888888888830604051620009be9062001079565b620009d097969594939291906200147b565b604051809103906000f080158015620009ed573d6000803e3d6000fd5b506003805460018181019092557fc2575a0e9e593c00f959f8c92f12db2869c3395a3b0502d05e2516446f71f85b0180546001600160a01b0384166001600160a01b0319918216811790925533600081815260046020908152604080832080548089018255908452828420018054909516861790945584825260059052829020805460ff19169094179093555192955085935090917f91571601f3ebc295a5a4506ad067c4424cb1dab2f5a76b5359d4c3ae4328440e9062000ab7908d908b908b908b90620014ea565b60405180910390a3600062000acd83346200151b565b9050801562000b0657604051339082156108fc029083906000818181858888f1935050505015801562000b04573d6000803e3d6000fd5b505b5050509695505050505050565b6001546001600160a01b0316331462000b685760405162461bcd60e51b815260206004820152601660248201527526bab9ba10313290383937b837b9b2b21037bbb732b960511b6044820152606401620005c0565b60008054336001600160a01b0319808316821784556001805490911690556040516001600160a01b0390921692909183917f8be0079c531659141344cd1fd0a4f28419497f9722a3daafe3b4186f6b6457e091a350565b6000546001600160a01b0316331480159062000be657506002546001600160a01b03163314155b1562000c3a573362000c006000546001600160a01b031690565b60025460405163061db9c160e01b81526001600160a01b0393841660048201529183166024830152919091166044820152606401620005c0565b6001600160a01b03811662000c625760405163d92e233d60e01b815260040160405180910390fd5b600280546001600160a01b0319166001600160a01b0383169081179091556040519081527fd1a6a14209a385a964d036e404cb5cfb71f4000cdb03c9366292430787261be69060200160405180910390a150565b6060600380548060200260200160405190810160405280929190818152602001828054801562000d1057602002820191906000526020600020905b81546001600160a01b0316815260019091019060200180831162000cf1575b5050505050905090565b6003818154811062000d2b57600080fd5b6000918252602090912001546001600160a01b0316905081565b6001600160a01b03811660009081526004602090815260409182902080548351818402810184019094528084526060939283018282801562000db157602002820191906000526020600020905b81546001600160a01b0316815260019091019060200180831162000d92575b50505050509050919050565b62000dc762000f77565b62000dd28162000fce565b50565b60607f92fd13387c7fe7befbc38d303d6468778fb9731bc4583f17d92989c6fcfdeaaa8260405160240162000e0f91511515815260200190565b60408051601f198184030181529190526020810180516001600160e01b03166001600160e01b03199093169290921790915292915050565b6000838152600660205260409020546001600160a01b03168062000ea35760405162461bcd60e51b8152602060048201526012602482015271125b9d985b1a59081c995c5d595cdd08125160721b6044820152606401620005c0565b60008383600081811062000ebb5762000ebb62001531565b60405163034ad12960e11b81526004810189905260209091029290920135602483018190529250506001600160a01b03831690630695a25290604401600060405180830381600087803b15801562000f1257600080fd5b505af115801562000f27573d6000803e3d6000fd5b5050505084826001600160a01b03167f3f5afb14643da8820864941a73a1425f52f86fa88863febd0998122629fdb2758360405162000f6891815260200190565b60405180910390a35050505050565b6000546001600160a01b0316331462000fcc5760405162461bcd60e51b815260206004820152601660248201527527b7363c9031b0b63630b1363290313c9037bbb732b960511b6044820152606401620005c0565b565b336001600160a01b03821603620010285760405162461bcd60e51b815260206004820152601760248201527f43616e6e6f74207472616e7366657220746f2073656c660000000000000000006044820152606401620005c0565b600180546001600160a01b0319166001600160a01b0383811691821790925560008054604051929316917fed8889f560326eb138920d842192f0eb3dd22b4f139c87a2c57538e05bae12789190a350565b6116c5806200154883390190565b6000806000604084860312156200109d57600080fd5b83359250602084013567ffffffffffffffff80821115620010bd57600080fd5b818601915086601f830112620010d257600080fd5b813581811115620010e257600080fd5b8760208260051b8501011115620010f857600080fd5b6020830194508093505050509250925092565b600080604083850312156200111f57600080fd5b50508035926020909101359150565b80356001600160a01b03811681146200114657600080fd5b919050565b600080604083850312156200115f57600080fd5b6200116a836200112e565b946020939093013593505050565b634e487b7160e01b600052604160045260246000fd5b600082601f830112620011a057600080fd5b813567ffffffffffffffff80821115620011be57620011be62001178565b604051601f8301601f19908116603f01168101908282118183101715620011e957620011e962001178565b816040528381528660208588010111156200120357600080fd5b836020870160208301376000602085830101528094505050505092915050565b60008060008060008060c087890312156200123d57600080fd5b863567ffffffffffffffff808211156200125657600080fd5b620012648a838b016200118e565b975060208901359150808211156200127b57600080fd5b620012898a838b016200118e565b96506040890135915080821115620012a057600080fd5b50620012af89828a016200118e565b945050606087013592506080870135915060a087013590509295509295509295565b600060208284031215620012e457600080fd5b620012ef826200112e565b9392505050565b6020808252825182820181905260009190848201906040850190845b81811015620013395783516001600160a01b03168352928401929184019160010162001312565b50909695505050505050565b6000602082840312156200135857600080fd5b5035919050565b6000815180845260005b81811015620013875760208185018101518683018201520162001369565b506000602082860101526020601f19601f83011685010191505092915050565b60208152815160208201526020820151604082015261ffff60408301511660608201526000606083015163ffffffff80821660808501528060808601511660a0850152505060a083015160c0808401526200140660e08401826200135f565b949350505050565b6000602082840312156200142157600080fd5b5051919050565b634e487b7160e01b600052601160045260246000fd5b8082028115828204841417620007ec57620007ec62001428565b6000826200147657634e487b7160e01b600052601260045260246000fd5b500490565b60e0815260006200149060e083018a6200135f565b8281036020840152620014a4818a6200135f565b90508281036040840152620014ba81896200135f565b60608401979097525050608081019390935260a08301919091526001600160a01b031660c0909101529392505050565b608081526000620014ff60808301876200135f565b6020830195909552506040810192909252606090910152919050565b81810381811115620007ec57620007ec62001428565b634e487b7160e01b600052603260045260246000fdfe60a06040523480156200001157600080fd5b50604051620016c5380380620016c583398101604081905262000034916200026c565b428311620000895760405162461bcd60e51b815260206004820152601e60248201527f446561646c696e65206d75737420626520696e2074686520667574757265000060448201526064015b60405180910390fd5b60008411620000db5760405162461bcd60e51b815260206004820181905260248201527f456e74727920666565206d7573742062652067726561746572207468616e2030604482015260640162000080565b6001600160a01b038116620001335760405162461bcd60e51b815260206004820152601760248201527f496e76616c696420666163746f72792061646472657373000000000000000000604482015260640162000080565b6000620001418882620003d0565b506001620001508782620003d0565b5060026200015f8682620003d0565b50600393909355600491909155600555600680546001600160a81b0319163260ff60a01b191617600160a01b1790556001600160a01b0316608052506200049c915050565b634e487b7160e01b600052604160045260246000fd5b600082601f830112620001cc57600080fd5b81516001600160401b0380821115620001e957620001e9620001a4565b604051601f8301601f19908116603f01168101908282118183101715620002145762000214620001a4565b81604052838152602092508660208588010111156200023257600080fd5b600091505b8382101562000256578582018301518183018401529082019062000237565b6000602085830101528094505050505092915050565b600080600080600080600060e0888a0312156200028857600080fd5b87516001600160401b0380821115620002a057600080fd5b620002ae8b838c01620001ba565b985060208a0151915080821115620002c557600080fd5b620002d38b838c01620001ba565b975060408a0151915080821115620002ea57600080fd5b50620002f98a828b01620001ba565b60608a015160808b015160a08c015160c08d01519399509197509550935090506001600160a01b03811681146200032f57600080fd5b8091505092959891949750929550565b600181811c908216806200035457607f821691505b6020821081036200037557634e487b7160e01b600052602260045260246000fd5b50919050565b601f821115620003cb576000816000526020600020601f850160051c81016020861015620003a65750805b601f850160051c820191505b81811015620003c757828155600101620003b2565b5050505b505050565b81516001600160401b03811115620003ec57620003ec620001a4565b6200040481620003fd84546200033f565b846200037b565b602080601f8311600181146200043c5760008415620004235750858301515b600019600386901b1c1916600185901b178555620003c7565b600085815260208120601f198616915b828110156200046d578886015182559484019460019091019084016200044c565b50858210156200048c5787850151600019600388901b60f8161c191681555b5050505050600190811b01905550565b6080516111ff620004c6600039600081816104180152818161047a0152610e4801526111ff6000f3fe6080604052600436106101665760003560e01c80635aa68ac0116100d15780638f00cbfa1161008a578063b2185bb111610064578063b2185bb1146103f1578063c45a015514610406578063dfbf53ae1461043a578063efeed2241461045a57600080fd5b80638f00cbfa1461037b578063936afab314610391578063963ef2a2146103bb57600080fd5b80635aa68ac0146102da57806370533250146102fc57806370740ac91461031157806370ca5bbe146103265780637284e41614610353578063884bf67c1461036857600080fd5b806324924bf71161012357806324924bf71461024357806329dcb0cf1461025957806335c1d3491461026f57806342619f661461028f5780634758eca9146102a55780634a79d50c146102b857600080fd5b806302d05d3f1461016b5780630695a252146101a857806306e8337f146101ca578063072ea61c146101e957806318a7ea5f146101ff578063200d2ed214610215575b600080fd5b34801561017757600080fd5b5060065461018b906001600160a01b031681565b6040516001600160a01b0390911681526020015b60405180910390f35b3480156101b457600080fd5b506101c86101c3366004610f15565b61046f565b005b3480156101d657600080fd5b506007545b60405190815260200161019f565b3480156101f557600080fd5b506101db60035481565b34801561020b57600080fd5b506101db600c5481565b34801561022157600080fd5b5060065461023690600160a01b900460ff1681565b60405161019f9190610f6f565b34801561024f57600080fd5b506101db60055481565b34801561026557600080fd5b506101db60045481565b34801561027b57600080fd5b5061018b61028a366004610f83565b610606565b34801561029b57600080fd5b506101db600b5481565b6101c86102b3366004610f83565b610630565b3480156102c457600080fd5b506102cd610835565b60405161019f9190610fe2565b3480156102e657600080fd5b506102ef6108c3565b60405161019f9190610ffc565b34801561030857600080fd5b506101c8610925565b34801561031d57600080fd5b506101c8610b05565b34801561033257600080fd5b506101db610341366004611049565b60086020526000908152604090205481565b34801561035f57600080fd5b506102cd610c03565b34801561037457600080fd5b50476101db565b34801561038757600080fd5b506101db600a5481565b34801561039d57600080fd5b506103a6610c10565b60405161019f99989796959493929190611072565b3480156103c757600080fd5b506101db6103d6366004611049565b6001600160a01b031660009081526008602052604090205490565b3480156103fd57600080fd5b506101db610da1565b34801561041257600080fd5b5061018b7f000000000000000000000000000000000000000000000000000000000000000081565b34801561044657600080fd5b5060095461018b906001600160a01b031681565b34801561046657600080fd5b506102cd610f08565b336001600160a01b037f000000000000000000000000000000000000000000000000000000000000000016146104b857604051630636a15760e11b815260040160405180910390fd5b600c5482146105035760405162461bcd60e51b8152602060048201526012602482015271125b9d985b1a59081c995c5d595cdd08125160721b60448201526064015b60405180910390fd5b6009546001600160a01b0316156105515760405162461bcd60e51b815260206004820152601260248201527115da5b9b995c88185b1c9958591e481cd95d60721b60448201526064016104fa565b600b81905560075461056390826110eb565b600a819055506007600a548154811061057e5761057e61110d565b60009182526020918290200154600980546001600160a01b0319166001600160a01b0390921691821790556006805460ff60a01b1916600360a01b179055600a54600b546040805192835293820152808301859052915190917ff52fac7e26724c6e0808da8161af0a1263330646f3989bb031cc71fbaa7bf521919081900360600190a25050565b6007818154811061061657600080fd5b6000918252602090912001546001600160a01b0316905081565b6001600654600160a01b900460ff16600481111561065057610650610f37565b1461066e57604051632ae47f7360e01b815260040160405180910390fd5b60045442106106905760405163502fd88d60e01b815260040160405180910390fd5b806000036106b157604051638e71bef960e01b815260040160405180910390fd5b6000816003546106c19190611139565b9050803410156106e45760405163cd1c886760e01b815260040160405180910390fd5b6005541561071c576005546007546106fd908490611150565b111561071c57604051630771de3360e01b815260040160405180910390fd5b60005b828110156107705760078054600181810183556000929092527fa66cc928b5edb82af9bd49922954155ab7b0942694bea4ce44661d9a8736c6880180546001600160a01b031916331790550161071f565b503360009081526008602052604081208054849290610790908490611150565b9091555050600754336000818152600860209081526040918290205482518781529182019490945290810192909252907fe367e10777f2a25a834ba205395c23c7f7175d3d6d36137ee22c3f056d780c0a9060600160405180910390a260006107f98234611163565b9050801561083057604051339082156108fc029083906000818181858888f1935050505015801561082e573d6000803e3d6000fd5b505b505050565b6000805461084290611176565b80601f016020809104026020016040519081016040528092919081815260200182805461086e90611176565b80156108bb5780601f10610890576101008083540402835291602001916108bb565b820191906000526020600020905b81548152906001019060200180831161089e57829003601f168201915b505050505081565b6060600780548060200260200160405190810160405280929190818152602001828054801561091b57602002820191906000526020600020905b81546001600160a01b031681526001909101906020018083116108fd575b5050505050905090565b6006546001600160a01b03163314610950576040516393687c0b60e01b815260040160405180910390fd5b6003600654600160a01b900460ff16600481111561097057610970610f37565b148061099957506004600654600160a01b900460ff16600481111561099757610997610f37565b145b156109b75760405163502fd88d60e01b815260040160405180910390fd5b6006805460ff60a01b1916600160a21b1790556040517f90e8484a98b653b6def19811c0e3811715da0de9c6b90d013442ba7e7541295190600090a1600354600780546040805160208084028201810190925282815260009390929091830182828015610a4d57602002820191906000526020600020905b81546001600160a01b03168152600190910190602001808311610a2f575b505050505090506000805b825181101561082e576000838281518110610a7557610a7561110d565b60200260200101519050826001600160a01b0316816001600160a01b031614610afc576001600160a01b03811660009081526008602052604081205490610abc8783611139565b6040519091506001600160a01b0384169082156108fc029083906000818181858888f19350505050158015610af5573d6000803e3d6000fd5b5082945050505b50600101610a58565b6009546001600160a01b03163314610b30576040516330c6392160e11b815260040160405180910390fd5b6003600654600160a01b900460ff166004811115610b5057610b50610f37565b14610b6e57604051630770596760e11b815260040160405180910390fd5b60068054600160a21b60ff60a01b1990911617905560095460405147808252916001600160a01b0316907f95681e512bc0fe659e195e06c283eada494316f3d801213e48e7101af92bf7709060200160405180910390a26009546040516001600160a01b039091169082156108fc029083906000818181858888f19350505050158015610bff573d6000803e3d6000fd5b5050565b6001805461084290611176565b6060806000806000806000806000806001600354600454600554600780549050600660149054906101000a900460ff16600660009054906101000a90046001600160a01b0316600960009054906101000a90046001600160a01b0316888054610c7890611176565b80601f0160208091040260200160405190810160405280929190818152602001828054610ca490611176565b8015610cf15780601f10610cc657610100808354040283529160200191610cf1565b820191906000526020600020905b815481529060010190602001808311610cd457829003601f168201915b50505050509850878054610d0490611176565b80601f0160208091040260200160405190810160405280929190818152602001828054610d3090611176565b8015610d7d5780601f10610d5257610100808354040283529160200191610d7d565b820191906000526020600020905b815481529060010190602001808311610d6057829003601f168201915b50505050509750985098509850985098509850985098509850909192939495969798565b600060045442108015610dc157506005541580610dc15750600554600754105b15610ddf57604051633376277360e11b815260040160405180910390fd5b600754600003610e02576040516308b6a47360e41b815260040160405180910390fd5b6009546001600160a01b031615610e2c57604051630770596760e11b815260040160405180910390fd5b600680546002919060ff60a01b1916600160a01b8302179055507f00000000000000000000000000000000000000000000000000000000000000006001600160a01b0316631b930e996040518163ffffffff1660e01b81526004016020604051808303816000875af1158015610ea6573d6000803e3d6000fd5b505050506040513d601f19601f82011682018060405250810190610eca91906111b0565b600c8190556040518181529091507f9ac10fb18c93d33ad7b0a941897aef048d0f8d30756684e82b4552ba12764d459060200160405180910390a190565b6002805461084290611176565b60008060408385031215610f2857600080fd5b50508035926020909101359150565b634e487b7160e01b600052602160045260246000fd5b60058110610f6b57634e487b7160e01b600052602160045260246000fd5b9052565b60208101610f7d8284610f4d565b92915050565b600060208284031215610f9557600080fd5b5035919050565b6000815180845260005b81811015610fc257602081850181015186830182015201610fa6565b506000602082860101526020601f19601f83011685010191505092915050565b602081526000610ff56020830184610f9c565b9392505050565b6020808252825182820181905260009190848201906040850190845b8181101561103d5783516001600160a01b031683529284019291840191600101611018565b50909695505050505050565b60006020828403121561105b57600080fd5b81356001600160a01b0381168114610ff557600080fd5b60006101208083526110868184018d610f9c565b9050828103602084015261109a818c610f9c565b9150508860408301528760608301528660808301528560a08301526110c260c0830186610f4d565b6001600160a01b0393841660e08301529190921661010090920191909152979650505050505050565b60008261110857634e487b7160e01b600052601260045260246000fd5b500690565b634e487b7160e01b600052603260045260246000fd5b634e487b7160e01b600052601160045260246000fd5b8082028115828204841417610f7d57610f7d611123565b80820180821115610f7d57610f7d611123565b81810381811115610f7d57610f7d611123565b600181811c9082168061118a57607f821691505b6020821081036111aa57634e487b7160e01b600052602260045260246000fd5b50919050565b6000602082840312156111c257600080fd5b505191905056fea264697066735822122029c6f8cb468472e3f832f3120e24e55986e67d11c43e7f975643ecfedd8bbde664736f6c63430008180033a2646970667358221220d4ac9c81d9133cabfc0c595863c5779acb757aa9db1055b57b3699307ef7ef0464736f6c63430008180033",
  "linkReferences": {},
  "deployedLinkReferences": {}
}