{
  "_format": "hh-sol-artifact-1",
  "contractName": "RaffleFactory",
  "sourceName": "contracts/RaffleFactory.sol",
  "abi": [
    {
      "inputs": [
        {
          "internalType": "address",
          "name": "_vrfCoordinator",
          "type": "address"
        },
        {
          "internalType": "bytes32",
          "name": "_keyHash",
          "type": "bytes32"
        },
        {
          "internalType": "uint256",
          "name": "_subscriptionId",
          "type": "uint256"
        }
      ],
      "stateMutability": "nonpayable",
      "type": "constructor"
    },
    {
      "inputs": [],
      "name": "EnforcedPause",
      "type": "error"
    },
    {
      "inputs": [],
      "name": "ExpectedPause",
      "type": "error"
    },
    {
      "inputs": [],
      "name": "InsufficientCreationFee",
      "type": "error"
    },
    {
      "inputs": [],
      "name": "InvalidRequestId",
      "type": "error"
    },
    {
      "inputs": [],
      "name": "NotPlatformOwner",
      "type": "error"
    },
    {
      "inputs": [
        {
          "internalType": "address",
          "name": "have",
          "type": "address"
        },
        {
          "internalType": "address",
          "name": "want",
          "type": "address"
        }
      ],
      "name": "OnlyCoordinatorCanFulfill",
      "type": "error"
    },
    {
      "inputs": [
        {
          "internalType": "address",
          "name": "have",
          "type": "address"
        },
        {
          "internalType": "address",
          "name": "owner",
          "type": "address"
        },
        {
          "internalType": "address",
          "name": "coordinator",
          "type": "address"
        }
      ],
      "name": "OnlyOwnerOrCoordinator",
      "type": "error"
    },
    {
      "inputs": [],
      "name": "OnlyRaffleContract",
      "type": "error"
    },
    {
      "inputs": [],
      "name": "TransferFailed",
      "type": "error"
    },
    {
      "inputs": [],
      "name": "WithdrawFailed",
      "type": "error"
    },
    {
      "inputs": [],
      "name": "ZeroAddress",
      "type": "error"
    },
    {
      "anonymous": false,
      "inputs": [
        {
          "indexed": false,
          "internalType": "address",
          "name": "vrfCoordinator",
          "type": "address"
        }
      ],
      "name": "CoordinatorSet",
      "type": "event"
    },
    {
      "anonymous": false,
      "inputs": [
        {
          "indexed": true,
          "internalType": "address",
          "name": "owner",
          "type": "address"
        },
        {
          "indexed": false,
          "internalType": "uint256",
          "name": "amount",
          "type": "uint256"
        }
      ],
      "name": "FeesWithdrawn",
      "type": "event"
    },
    {
      "anonymous": false,
      "inputs": [
        {
          "indexed": true,
          "internalType": "address",
          "name": "from",
          "type": "address"
        },
        {
          "indexed": true,
          "internalType": "address",
          "name": "to",
          "type": "address"
        }
      ],
      "name": "OwnershipTransferRequested",
      "type": "event"
    },
    {
      "anonymous": false,
      "inputs": [
        {
          "indexed": true,
          "internalType": "address",
          "name": "from",
          "type": "address"
        },
        {
          "indexed": true,
          "internalType": "address",
          "name": "to",
          "type": "address"
        }
      ],
      "name": "OwnershipTransferred",
      "type": "event"
    },
    {
      "anonymous": false,
      "inputs": [
        {
          "indexed": false,
          "internalType": "address",
          "name": "account",
          "type": "address"
        }
      ],
      "name": "Paused",
      "type": "event"
    },
    {
      "anonymous": false,
      "inputs": [
        {
          "indexed": true,
          "internalType": "address",
          "name": "raffleAddress",
          "type": "address"
        },
        {
          "indexed": true,
          "internalType": "address",
          "name": "creator",
          "type": "address"
        },
        {
          "indexed": false,
          "internalType": "string",
          "name": "title",
          "type": "string"
        },
        {
          "indexed": false,
          "internalType": "uint256",
          "name": "entryFee",
          "type": "uint256"
        },
        {
          "indexed": false,
          "internalType": "uint256",
          "name": "deadline",
          "type": "uint256"
        },
        {
          "indexed": false,
          "internalType": "uint256",
          "name": "maxParticipants",
          "type": "uint256"
        },
        {
          "indexed": false,
          "internalType": "uint256",
          "name": "creatorCommissionBps",
          "type": "uint256"
        }
      ],
      "name": "RaffleCreated",
      "type": "event"
    },
    {
      "anonymous": false,
      "inputs": [
        {
          "indexed": true,
          "internalType": "address",
          "name": "raffle",
          "type": "address"
        },
        {
          "indexed": true,
          "internalType": "uint256",
          "name": "requestId",
          "type": "uint256"
        },
        {
          "indexed": false,
          "internalType": "uint256",
          "name": "randomWord",
          "type": "uint256"
        }
      ],
      "name": "RandomnessFulfilled",
      "type": "event"
    },
    {
      "anonymous": false,
      "inputs": [
        {
          "indexed": true,
          "internalType": "address",
          "name": "raffle",
          "type": "address"
        },
        {
          "indexed": true,
          "internalType": "uint256",
          "name": "requestId",
          "type": "uint256"
        }
      ],
      "name": "RandomnessRequested",
      "type": "event"
    },
    {
      "anonymous": false,
      "inputs": [
        {
          "indexed": false,
          "internalType": "address",
          "name": "account",
          "type": "address"
        }
      ],
      "name": "Unpaused",
      "type": "event"
    },
    {
      "inputs": [],
      "name": "CREATION_FEE_BPS",
      "outputs": [
        {
          "internalType": "uint256",
          "name": "",
          "type": "uint256"
        }
      ],
      "stateMutability": "view",
      "type": "function"
    },
    {
      "inputs": [],
      "name": "MAX_FEE",
      "outputs": [
        {
          "internalType": "uint256",
          "name": "",
          "type": "uint256"
        }
      ],
      "stateMutability": "view",
      "type": "function"
    },
    {
      "inputs": [],
      "name": "MIN_FEE",
      "outputs": [
        {
          "internalType": "uint256",
          "name": "",
          "type": "uint256"
        }
      ],
      "stateMutability": "view",
      "type": "function"
    },
    {
      "inputs": [],
      "name": "acceptOwnership",
      "outputs": [],
      "stateMutability": "nonpayable",
      "type": "function"
    },
    {
      "inputs": [
        {
          "internalType": "uint256",
          "name": "",
          "type": "uint256"
        }
      ],
      "name": "allRaffles",
      "outputs": [
        {
          "internalType": "address",
          "name": "",
          "type": "address"
        }
      ],
      "stateMutability": "view",
      "type": "function"
    },
    {
      "inputs": [
        {
          "internalType": "uint256",
          "name": "_entryFee",
          "type": "uint256"
        },
        {
          "internalType": "uint256",
          "name": "_maxParticipants",
          "type": "uint256"
        }
      ],
      "name": "calculateCreationFee",
      "outputs": [
        {
          "internalType": "uint256",
          "name": "fee",
          "type": "uint256"
        }
      ],
      "stateMutability": "pure",
      "type": "function"
    },
    {
      "inputs": [
        {
          "internalType": "string",
          "name": "_title",
          "type": "string"
        },
        {
          "internalType": "string",
          "name": "_description",
          "type": "string"
        },
        {
          "internalType": "string",
          "name": "_prizeDescription",
          "type": "string"
        },
        {
          "internalType": "uint256",
          "name": "_entryFee",
          "type": "uint256"
        },
        {
          "internalType": "uint256",
          "name": "_deadline",
          "type": "uint256"
        },
        {
          "internalType": "uint256",
          "name": "_maxParticipants",
          "type": "uint256"
        },
        {
          "internalType": "uint256",
          "name": "_creatorCommissionBps",
          "type": "uint256"
        }
      ],
      "name": "createRaffle",
      "outputs": [
        {
          "internalType": "address",
          "name": "raffleAddress",
          "type": "address"
        }
      ],
      "stateMutability": "payable",
      "type": "function"
    },
    {
      "inputs": [],
      "name": "getAccumulatedFees",
      "outputs": [
        {
          "internalType": "uint256",
          "name": "",
          "type": "uint256"
        }
      ],
      "stateMutability": "view",
      "type": "function"
    },
    {
      "inputs": [],
      "name": "getAllRaffles",
      "outputs": [
        {
          "internalType": "address[]",
          "name": "",
          "type": "address[]"
        }
      ],
      "stateMutability": "view",
      "type": "function"
    },
    {
      "inputs": [
        {
          "internalType": "address",
          "name": "_creator",
          "type": "address"
        }
      ],
      "name": "getCreatorRaffleCount",
      "outputs": [
        {
          "internalType": "uint256",
          "name": "",
          "type": "uint256"
        }
      ],
      "stateMutability": "view",
      "type": "function"
    },
    {
      "inputs": [],
      "name": "getRaffleCount",
      "outputs": [
        {
          "internalType": "uint256",
          "name": "",
          "type": "uint256"
        }
      ],
      "stateMutability": "view",
      "type": "function"
    },
    {
      "inputs": [
        {
          "internalType": "address",
          "name": "_creator",
          "type": "address"
        }
      ],
      "name": "getRafflesByCreator",
      "outputs": [
        {
          "internalType": "address[]",
          "name": "",
          "type": "address[]"
        }
      ],
      "stateMutability": "view",
      "type": "function"
    },
    {
      "inputs": [
        {
          "internalType": "address",
          "name": "",
          "type": "address"
        }
      ],
      "name": "isRaffle",
      "outputs": [
        {
          "internalType": "bool",
          "name": "",
          "type": "bool"
        }
      ],
      "stateMutability": "view",
      "type": "function"
    },
    {
      "inputs": [],
      "name": "keyHash",
      "outputs": [
        {
          "internalType": "bytes32",
          "name": "",
          "type": "bytes32"
        }
      ],
      "stateMutability": "view",
      "type": "function"
    },
    {
      "inputs": [],
      "name": "owner",
      "outputs": [
        {
          "internalType": "address",
          "name": "",
          "type": "address"
        }
      ],
      "stateMutability": "view",
      "type": "function"
    },
    {
      "inputs": [],
      "name": "pause",
      "outputs": [],
      "stateMutability": "nonpayable",
      "type": "function"
    },
    {
      "inputs": [],
      "name": "paused",
      "outputs": [
        {
          "internalType": "bool",
          "name": "",
          "type": "bool"
        }
      ],
      "stateMutability": "view",
      "type": "function"
    },
    {
      "inputs": [],
      "name": "platformOwner",
      "outputs": [
        {
          "internalType": "address",
          "name": "",
          "type": "address"
        }
      ],
      "stateMutability": "view",
      "type": "function"
    },
    {
      "inputs": [
        {
          "internalType": "address",
          "name": "",
          "type": "address"
        },
        {
          "internalType": "uint256",
          "name": "",
          "type": "uint256"
        }
      ],
      "name": "rafflesByCreator",
      "outputs": [
        {
          "internalType": "address",
          "name": "",
          "type": "address"
        }
      ],
      "stateMutability": "view",
      "type": "function"
    },
    {
      "inputs": [
        {
          "internalType": "uint256",
          "name": "requestId",
          "type": "uint256"
        },
        {
          "internalType": "uint256[]",
          "name": "randomWords",
          "type": "uint256[]"
        }
      ],
      "name": "rawFulfillRandomWords",
      "outputs": [],
      "stateMutability": "nonpayable",
      "type": "function"
    },
    {
      "inputs": [
        {
          "internalType": "uint256",
          "name": "",
          "type": "uint256"
        }
      ],
      "name": "requestIdToRaffle",
      "outputs": [
        {
          "internalType": "address",
          "name": "",
          "type": "address"
        }
      ],
      "stateMutability": "view",
      "type": "function"
    },
    {
      "inputs": [],
      "name": "requestRandomnessForRaffle",
      "outputs": [
        {
          "internalType": "uint256",
          "name": "requestId",
          "type": "uint256"
        }
      ],
      "stateMutability": "nonpayable",
      "type": "function"
    },
    {
      "inputs": [],
      "name": "s_vrfCoordinator",
      "outputs": [
        {
          "internalType": "contract IVRFCoordinatorV2Plus",
          "name": "",
          "type": "address"
        }
      ],
      "stateMutability": "view",
      "type": "function"
    },
    {
      "inputs": [
        {
          "internalType": "address",
          "name": "_vrfCoordinator",
          "type": "address"
        }
      ],
      "name": "setCoordinator",
      "outputs": [],
      "stateMutability": "nonpayable",
      "type": "function"
    },
    {
      "inputs": [],
      "name": "subscriptionId",
      "outputs": [
        {
          "internalType": "uint256",
          "name": "",
          "type": "uint256"
        }
      ],
      "stateMutability": "view",
      "type": "function"
    },
    {
      "inputs": [
        {
          "internalType": "address",
          "name": "to",
          "type": "address"
        }
      ],
      "name": "transferOwnership",
      "outputs": [],
      "stateMutability": "nonpayable",
      "type": "function"
    },
    {
      "inputs": [],
      "name": "unpause",
      "outputs": [],
      "stateMutability": "nonpayable",
      "type": "function"
    },
    {
      "inputs": [],
      "name": "withdrawFees",
      "outputs": [],
      "stateMutability": "nonpayable",
      "type": "function"
    }
  ],
  "bytecode": "0x60e06040523480156200001157600080fd5b50604051620033d6380380620033d68339810160408190526200003491620001c9565b8233806000816200008c5760405162461bcd60e51b815260206004820152601860248201527f43616e6e6f7420736574206f776e657220746f207a65726f000000000000000060448201526064015b60405180910390fd5b600080546001600160a01b0319166001600160a01b0384811691909117909155811615620000bf57620000bf816200011e565b5050506001600160a01b038116620000ea5760405163d92e233d60e01b815260040160405180910390fd5b600280546001600160a01b0319166001600160a01b039290921691909117905560809190915260a052503360c0526200020e565b336001600160a01b03821603620001785760405162461bcd60e51b815260206004820152601760248201527f43616e6e6f74207472616e7366657220746f2073656c66000000000000000000604482015260640162000083565b600180546001600160a01b0319166001600160a01b0383811691821790925560008054604051929316917fed8889f560326eb138920d842192f0eb3dd22b4f139c87a2c57538e05bae12789190a350565b600080600060608486031215620001df57600080fd5b83516001600160a01b0381168114620001f757600080fd5b602085015160409095015190969495509392505050565b60805160a05160c0516131676200026f6000396000818161033d01528181610a5501528181610aab01528181610afc01528181610b830152610cd90152600081816101f401526106600152600081816103cc015261063d01526131676000f3fe608060405260043610620001db5760003560e01c806376c7a3c711620000ff5780639eb067181162000095578063a6a278d3116200006c578063a6a278d31462000547578063b26f9a6a1462000581578063bc063e1a14620005bb578063f2fde38b14620005d857600080fd5b80639eb0671814620004db5780639eccacf61462000500578063a043347d146200052257600080fd5b80638da5cb5b11620000d65780638da5cb5b146200043b5780638ea98117146200045b578063933eea6b14620004805780639b00e10a14620004a757600080fd5b806376c7a3c714620003ee57806379ba5097146200040b5780638456cb59146200042357600080fd5b8063476343ee11620001755780635195838c116200014c5780635195838c146200035f5780635c975abb14620003765780635df45a3714620003a357806361728f3914620003b857600080fd5b8063476343ee14620002ec5780634939189814620003045780634df8ccb1146200032957600080fd5b80631fe543e311620001b65780631fe543e31462000258578063227f337c146200027f57806338bc130514620002af5780633f4ba83a14620002d457600080fd5b806309c1ba2e14620001e05780631b930e9914620002295780631d8c60861462000241575b600080fd5b348015620001ed57600080fd5b50620002167f000000000000000000000000000000000000000000000000000000000000000081565b6040519081526020015b60405180910390f35b3480156200023657600080fd5b5062000216620005fd565b3480156200024e57600080fd5b5060035462000216565b3480156200026557600080fd5b506200027d62000277366004620012b7565b62000784565b005b6200029662000290366004620013e6565b620007dc565b6040516001600160a01b03909116815260200162000220565b348015620002bc57600080fd5b5062000216620002ce3660046200149d565b620009cb565b348015620002e157600080fd5b506200027d62000a4a565b348015620002f957600080fd5b506200027d62000aa0565b3480156200031157600080fd5b506200029662000323366004620014dd565b62000be9565b3480156200033657600080fd5b50620002967f000000000000000000000000000000000000000000000000000000000000000081565b3480156200036c57600080fd5b5062000216606481565b3480156200038357600080fd5b50600254600160a01b900460ff165b604051901515815260200162000220565b348015620003b057600080fd5b504762000216565b348015620003c557600080fd5b50620002167f000000000000000000000000000000000000000000000000000000000000000081565b348015620003fb57600080fd5b506200021666016bcc41e9000081565b3480156200041857600080fd5b506200027d62000c22565b3480156200043057600080fd5b506200027d62000cce565b3480156200044857600080fd5b506000546001600160a01b031662000296565b3480156200046857600080fd5b506200027d6200047a3660046200150a565b62000d22565b3480156200048d57600080fd5b506200049862000e19565b6040516200022091906200152f565b348015620004b457600080fd5b5062000392620004c63660046200150a565b60056020526000908152604090205460ff1681565b348015620004e857600080fd5b5062000296620004fa3660046200157e565b62000e7d565b3480156200050d57600080fd5b5060025462000296906001600160a01b031681565b3480156200052f57600080fd5b5062000498620005413660046200150a565b62000ea8565b3480156200055457600080fd5b5062000216620005663660046200150a565b6001600160a01b031660009081526004602052604090205490565b3480156200058e57600080fd5b5062000296620005a03660046200157e565b6006602052600090815260409020546001600160a01b031681565b348015620005c857600080fd5b506200021666b1a2bc2ec5000081565b348015620005e557600080fd5b506200027d620005f73660046200150a565b62000f20565b3360009081526005602052604081205460ff166200062e57604051634ac9cc8360e01b815260040160405180910390fd5b6002546040805160c0810182527f000000000000000000000000000000000000000000000000000000000000000081527f0000000000000000000000000000000000000000000000000000000000000000602080830191909152600382840152620493e06060830152600160808301528251908101909252600082526001600160a01b0390921691639b1c385e9160a0820190620006cc9062000f38565b8152506040518263ffffffff1660e01b8152600401620006ed9190620015e0565b6020604051808303816000875af11580156200070d573d6000803e3d6000fd5b505050506040513d601f19601f8201168201806040525081019062000733919062001647565b60008181526006602052604080822080546001600160a01b031916339081179091559051929350839290917fc0412d082261082b733ae39d66dd3b4c4d14c47283f37f52dc3a3bb8a70efabe91a390565b6002546001600160a01b03163314620007ca5760025460405163073e64fd60e21b81523360048201526001600160a01b0390911660248201526044015b60405180910390fd5b620007d783838362000faa565b505050565b6000620007e8620010b5565b6000620007f68685620009cb565b9050803410156200081a57604051630535b74760e41b815260040160405180910390fd5b600089898989898933308b6040516200083390620012a9565b620008479998979695949392919062001661565b604051809103906000f08015801562000864573d6000803e3d6000fd5b506003805460018181019092557fc2575a0e9e593c00f959f8c92f12db2869c3395a3b0502d05e2516446f71f85b0180546001600160a01b0384166001600160a01b0319918216811790925533600081815260046020908152604080832080548089018255908452828420018054909516861790945584825260059052829020805460ff19169094179093555192955085935090917fecf1803f7a0ca17444577815651e32175f27b5c454ff663fcb4de6ccc39466c09062000930908e908c908c908c908c90620016e1565b60405180910390a3600062000946833462001730565b90508015620009bd57604051600090339083908381818185875af1925050503d806000811462000993576040519150601f19603f3d011682016040523d82523d6000602084013e62000998565b606091505b5050905080620009bb576040516312171d8360e31b815260040160405180910390fd5b505b505050979650505050505050565b600081600003620009e5575066b1a2bc2ec5000062000a44565b6127106064620009f6848662001746565b62000a02919062001746565b62000a0e919062001760565b905066016bcc41e9000081101562000a2a575066016bcc41e900005b66b1a2bc2ec5000081111562000a44575066b1a2bc2ec500005b92915050565b336001600160a01b037f0000000000000000000000000000000000000000000000000000000000000000161462000a9457604051631c30e10760e11b815260040160405180910390fd5b62000a9e620010e1565b565b336001600160a01b037f0000000000000000000000000000000000000000000000000000000000000000161462000aea57604051631c30e10760e11b815260040160405180910390fd5b60405147906000906001600160a01b037f0000000000000000000000000000000000000000000000000000000000000000169083908381818185875af1925050503d806000811462000b59576040519150601f19603f3d011682016040523d82523d6000602084013e62000b5e565b606091505b505090508062000b8157604051631d42c86760e21b815260040160405180910390fd5b7f00000000000000000000000000000000000000000000000000000000000000006001600160a01b03167fc0819c13be868895eb93e40eaceb96de976442fa1d404e5c55f14bb65a8c489a8360405162000bdd91815260200190565b60405180910390a25050565b6004602052816000526040600020818154811062000c0657600080fd5b6000918252602090912001546001600160a01b03169150829050565b6001546001600160a01b0316331462000c775760405162461bcd60e51b815260206004820152601660248201527526bab9ba10313290383937b837b9b2b21037bbb732b960511b6044820152606401620007c1565b60008054336001600160a01b0319808316821784556001805490911690556040516001600160a01b0390921692909183917f8be0079c531659141344cd1fd0a4f28419497f9722a3daafe3b4186f6b6457e091a350565b336001600160a01b037f0000000000000000000000000000000000000000000000000000000000000000161462000d1857604051631c30e10760e11b815260040160405180910390fd5b62000a9e62001138565b6000546001600160a01b0316331480159062000d4957506002546001600160a01b03163314155b1562000d9d573362000d636000546001600160a01b031690565b60025460405163061db9c160e01b81526001600160a01b0393841660048201529183166024830152919091166044820152606401620007c1565b6001600160a01b03811662000dc55760405163d92e233d60e01b815260040160405180910390fd5b600280546001600160a01b0319166001600160a01b0383169081179091556040519081527fd1a6a14209a385a964d036e404cb5cfb71f4000cdb03c9366292430787261be69060200160405180910390a150565b6060600380548060200260200160405190810160405280929190818152602001828054801562000e7357602002820191906000526020600020905b81546001600160a01b0316815260019091019060200180831162000e54575b5050505050905090565b6003818154811062000e8e57600080fd5b6000918252602090912001546001600160a01b0316905081565b6001600160a01b03811660009081526004602090815260409182902080548351818402810184019094528084526060939283018282801562000f1457602002820191906000526020600020905b81546001600160a01b0316815260019091019060200180831162000ef5575b50505050509050919050565b62000f2a6200117e565b62000f3581620011d3565b50565b60607f92fd13387c7fe7befbc38d303d6468778fb9731bc4583f17d92989c6fcfdeaaa8260405160240162000f7291511515815260200190565b60408051601f198184030181529190526020810180516001600160e01b03166001600160e01b03199093169290921790915292915050565b6000838152600660205260409020546001600160a01b03168062000fe1576040516302e8145360e61b815260040160405180910390fd5b60008383600081811062000ff95762000ff962001783565b60405163034ad12960e11b81526004810189905260209091029290920135602483018190529250506001600160a01b03831690630695a25290604401600060405180830381600087803b1580156200105057600080fd5b505af115801562001065573d6000803e3d6000fd5b5050505084826001600160a01b03167f3f5afb14643da8820864941a73a1425f52f86fa88863febd0998122629fdb27583604051620010a691815260200190565b60405180910390a35050505050565b600254600160a01b900460ff161562000a9e5760405163d93c066560e01b815260040160405180910390fd5b620010eb6200127e565b6002805460ff60a01b191690557f5db9ee0a495bf2e6ff9c91a7834c1ba4fdd244a5e8aa4e537bd38aeae4b073aa335b6040516001600160a01b03909116815260200160405180910390a1565b62001142620010b5565b6002805460ff60a01b1916600160a01b1790557f62e78cea01bee320cd4e420270b5ea74000d11b0c9f74754ebdbfc544b05a2586200111b3390565b6000546001600160a01b0316331462000a9e5760405162461bcd60e51b815260206004820152601660248201527527b7363c9031b0b63630b1363290313c9037bbb732b960511b6044820152606401620007c1565b336001600160a01b038216036200122d5760405162461bcd60e51b815260206004820152601760248201527f43616e6e6f74207472616e7366657220746f2073656c660000000000000000006044820152606401620007c1565b600180546001600160a01b0319166001600160a01b0383811691821790925560008054604051929316917fed8889f560326eb138920d842192f0eb3dd22b4f139c87a2c57538e05bae12789190a350565b600254600160a01b900460ff1662000a9e57604051638dfc202b60e01b815260040160405180910390fd5b611998806200179a83390190565b600080600060408486031215620012cd57600080fd5b83359250602084013567ffffffffffffffff80821115620012ed57600080fd5b818601915086601f8301126200130257600080fd5b8135818111156200131257600080fd5b8760208260051b85010111156200132857600080fd5b6020830194508093505050509250925092565b634e487b7160e01b600052604160045260246000fd5b600082601f8301126200136357600080fd5b813567ffffffffffffffff808211156200138157620013816200133b565b604051601f8301601f19908116603f01168101908282118183101715620013ac57620013ac6200133b565b81604052838152866020858801011115620013c657600080fd5b836020870160208301376000602085830101528094505050505092915050565b600080600080600080600060e0888a0312156200140257600080fd5b873567ffffffffffffffff808211156200141b57600080fd5b620014298b838c0162001351565b985060208a01359150808211156200144057600080fd5b6200144e8b838c0162001351565b975060408a01359150808211156200146557600080fd5b50620014748a828b0162001351565b979a96995096976060810135975060808101359660a0820135965060c090910135945092505050565b60008060408385031215620014b157600080fd5b50508035926020909101359150565b80356001600160a01b0381168114620014d857600080fd5b919050565b60008060408385031215620014f157600080fd5b620014fc83620014c0565b946020939093013593505050565b6000602082840312156200151d57600080fd5b6200152882620014c0565b9392505050565b6020808252825182820181905260009190848201906040850190845b81811015620015725783516001600160a01b0316835292840192918401916001016200154b565b50909695505050505050565b6000602082840312156200159157600080fd5b5035919050565b6000815180845260005b81811015620015c057602081850181015186830182015201620015a2565b506000602082860101526020601f19601f83011685010191505092915050565b60208152815160208201526020820151604082015261ffff60408301511660608201526000606083015163ffffffff80821660808501528060808601511660a0850152505060a083015160c0808401526200163f60e084018262001598565b949350505050565b6000602082840312156200165a57600080fd5b5051919050565b6000610120808352620016778184018d62001598565b905082810360208401526200168d818c62001598565b90508281036040840152620016a3818b62001598565b60608401999099525050608081019590955260a08501939093526001600160a01b0391821660c08501521660e0830152610100909101529392505050565b60a081526000620016f660a083018862001598565b90508560208301528460408301528360608301528260808301529695505050505050565b634e487b7160e01b600052601160045260246000fd5b8181038181111562000a445762000a446200171a565b808202811582820484141762000a445762000a446200171a565b6000826200177e57634e487b7160e01b600052601260045260246000fd5b500490565b634e487b7160e01b600052603260045260246000fdfe60a06040523480156200001157600080fd5b5060405162001998380380620019988339810160408190526200003491620002c3565b60016000554285116200005a57604051630642ce7760e01b815260040160405180910390fd5b6200006a426301e13380620003a1565b8511156200008b576040516324787d7360e11b815260040160405180910390fd5b85600003620000ad576040516315801e6b60e21b815260040160405180910390fd5b68056bc75e2d63100000861115620000d857604051631a3dc29960e21b815260040160405180910390fd5b83600103620000fa57604051630def91b560e41b815260040160405180910390fd5b6127108411156200011e57604051630c2e7b5760e41b815260040160405180910390fd5b6001600160a01b0382166200014657604051635c7bfbe960e01b815260040160405180910390fd5b6103e88111156200016a5760405163dc81db8560e01b815260040160405180910390fd5b6001620001788a826200045a565b5060026200018789826200045a565b5060036200019688826200045a565b5060049590955560059390935560069190915560078054600160a01b6001600160a81b03199091166001600160a01b0393841617179055166080526008555062000526915050565b634e487b7160e01b600052604160045260246000fd5b600082601f8301126200020657600080fd5b81516001600160401b0380821115620002235762000223620001de565b604051601f8301601f19908116603f011681019082821181831017156200024e576200024e620001de565b81604052838152602092508660208588010111156200026c57600080fd5b600091505b8382101562000290578582018301518183018401529082019062000271565b6000602085830101528094505050505092915050565b80516001600160a01b0381168114620002be57600080fd5b919050565b60008060008060008060008060006101208a8c031215620002e357600080fd5b89516001600160401b0380821115620002fb57600080fd5b620003098d838e01620001f4565b9a5060208c01519150808211156200032057600080fd5b6200032e8d838e01620001f4565b995060408c01519150808211156200034557600080fd5b50620003548c828d01620001f4565b97505060608a0151955060808a0151945060a08a015193506200037a60c08b01620002a6565b92506200038a60e08b01620002a6565b91506101008a015190509295985092959850929598565b80820180821115620003c357634e487b7160e01b600052601160045260246000fd5b92915050565b600181811c90821680620003de57607f821691505b602082108103620003ff57634e487b7160e01b600052602260045260246000fd5b50919050565b601f82111562000455576000816000526020600020601f850160051c81016020861015620004305750805b601f850160051c820191505b8181101562000451578281556001016200043c565b5050505b505050565b81516001600160401b03811115620004765762000476620001de565b6200048e81620004878454620003c9565b8462000405565b602080601f831160018114620004c65760008415620004ad5750858301515b600019600386901b1c1916600185901b17855562000451565b600085815260208120601f198616915b82811015620004f757888601518255948401946001909101908401620004d6565b5085821015620005165787850151600019600388901b60f8161c191681555b5050505050600190811b01905550565b608051611448620005506000396000818161044a015281816104ac015261104501526114486000f3fe6080604052600436106101815760003560e01c806370533250116100d1578063936afab31161008a578063b2185bb111610064578063b2185bb114610423578063c45a015514610438578063dfbf53ae1461046c578063efeed2241461048c57600080fd5b8063936afab3146103ac578063963ef2a2146103d7578063aec3c1731461040d57600080fd5b8063705332501461031757806370740ac91461032c57806370ca5bbe146103415780637284e4161461036e578063884bf67c146103835780638f00cbfa1461039657600080fd5b806324924bf71161013e57806342619f661161011857806342619f66146102aa5780634758eca9146102c05780634a79d50c146102d35780635aa68ac0146102f557600080fd5b806324924bf71461025e57806329dcb0cf1461027457806335c1d3491461028a57600080fd5b806302d05d3f146101865780630695a252146101c357806306e8337f146101e5578063072ea61c1461020457806318a7ea5f1461021a578063200d2ed214610230575b600080fd5b34801561019257600080fd5b506007546101a6906001600160a01b031681565b6040516001600160a01b0390911681526020015b60405180910390f35b3480156101cf57600080fd5b506101e36101de36600461113c565b6104a1565b005b3480156101f157600080fd5b506009545b6040519081526020016101ba565b34801561021057600080fd5b506101f660045481565b34801561022657600080fd5b506101f6600e5481565b34801561023c57600080fd5b5060075461025190600160a01b900460ff1681565b6040516101ba9190611196565b34801561026a57600080fd5b506101f660065481565b34801561028057600080fd5b506101f660055481565b34801561029657600080fd5b506101a66102a53660046111aa565b6105eb565b3480156102b657600080fd5b506101f6600d5481565b6101e36102ce3660046111aa565b610615565b3480156102df57600080fd5b506102e8610856565b6040516101ba9190611209565b34801561030157600080fd5b5061030a6108e4565b6040516101ba9190611223565b34801561032357600080fd5b506101e3610946565b34801561033857600080fd5b506101e3610ba1565b34801561034d57600080fd5b506101f661035c366004611270565b600a6020526000908152604090205481565b34801561037a57600080fd5b506102e8610dd4565b34801561038f57600080fd5b50476101f6565b3480156103a257600080fd5b506101f6600c5481565b3480156103b857600080fd5b506103c1610de1565b6040516101ba9a99989796959493929190611299565b3480156103e357600080fd5b506101f66103f2366004611270565b6001600160a01b03166000908152600a602052604090205490565b34801561041957600080fd5b506101f660085481565b34801561042f57600080fd5b506101f6610f7a565b34801561044457600080fd5b506101a67f000000000000000000000000000000000000000000000000000000000000000081565b34801561047857600080fd5b50600b546101a6906001600160a01b031681565b34801561049857600080fd5b506102e8611105565b336001600160a01b037f000000000000000000000000000000000000000000000000000000000000000016146104ea57604051630636a15760e11b815260040160405180910390fd5b600e54821461050c576040516302e8145360e61b815260040160405180910390fd5b600b546001600160a01b0316156105365760405163636ed8dd60e11b815260040160405180910390fd5b600d819055600954610548908261132e565b600c819055506009600c548154811061056357610563611342565b60009182526020918290200154600b80546001600160a01b0319166001600160a01b0390921691821790556007805460ff60a01b1916600360a01b179055600c54600d546040805192835293820152808301859052915190917ff52fac7e26724c6e0808da8161af0a1263330646f3989bb031cc71fbaa7bf521919081900360600190a25050565b600981815481106105fb57600080fd5b6000918252602090912001546001600160a01b0316905081565b6001600754600160a01b900460ff1660048111156106355761063561115e565b1461065357604051632ae47f7360e01b815260040160405180910390fd5b60055442106106755760405163502fd88d60e01b815260040160405180910390fd5b8060000361069657604051638e71bef960e01b815260040160405180910390fd5b6000816004546106a6919061136e565b9050803410156106c95760405163cd1c886760e01b815260040160405180910390fd5b60065415610701576006546009546106e2908490611385565b111561070157604051630771de3360e01b815260040160405180910390fd5b60005b828110156107555760098054600181810183556000929092527f6e1540171b6c0c960b71a7020d9f60077f6af931a8bbf590da0223dacf75c7af0180546001600160a01b0319163317905501610704565b50336000908152600a602052604081208054849290610775908490611385565b9091555050600954336000818152600a60209081526040918290205482518781529182019490945290810192909252907fe367e10777f2a25a834ba205395c23c7f7175d3d6d36137ee22c3f056d780c0a9060600160405180910390a260006107de8234611398565b9050801561085157604051600090339083908381818185875af1925050503d8060008114610828576040519150601f19603f3d011682016040523d82523d6000602084013e61082d565b606091505b505090508061084f576040516312171d8360e31b815260040160405180910390fd5b505b505050565b60018054610863906113ab565b80601f016020809104026020016040519081016040528092919081815260200182805461088f906113ab565b80156108dc5780601f106108b1576101008083540402835291602001916108dc565b820191906000526020600020905b8154815290600101906020018083116108bf57829003601f168201915b505050505081565b6060600980548060200260200160405190810160405280929190818152602001828054801561093c57602002820191906000526020600020905b81546001600160a01b0316815260019091019060200180831161091e575b5050505050905090565b61094e611112565b6000600554421015801561096457506009546002115b6007549091506001600160a01b03163314801590610980575080155b1561099e576040516393687c0b60e01b815260040160405180910390fd5b6003600754600160a01b900460ff1660048111156109be576109be61115e565b14806109e757506004600754600160a01b900460ff1660048111156109e5576109e561115e565b145b15610a055760405163502fd88d60e01b815260040160405180910390fd5b6007805460ff60a01b1916600160a21b1790556040517f90e8484a98b653b6def19811c0e3811715da0de9c6b90d013442ba7e7541295190600090a1600454600980546040805160208084028201810190925282815260009390929091830182828015610a9b57602002820191906000526020600020905b81546001600160a01b03168152600190910190602001808311610a7d575b505050505090506000805b8251811015610b90576000838281518110610ac357610ac3611342565b60200260200101519050826001600160a01b0316816001600160a01b031614610b87576001600160a01b0381166000908152600a602052604081205490610b0a878361136e565b90506000836001600160a01b03168260405160006040518083038185875af1925050503d8060008114610b59576040519150601f19603f3d011682016040523d82523d6000602084013e610b5e565b606091505b5050905080610b80576040516312171d8360e31b815260040160405180910390fd5b8395505050505b50600101610aa6565b5050505050610b9f6001600055565b565b610ba9611112565b600b546001600160a01b03163314610bd4576040516330c6392160e11b815260040160405180910390fd5b6003600754600160a01b900460ff166004811115610bf457610bf461115e565b14610c1257604051630770596760e11b815260040160405180910390fd5b6007805460ff60a01b1916600160a21b179055600854479060009061271090610c3b908461136e565b610c4591906113e5565b90506000610c538284611398565b600b546040518281529192506001600160a01b0316907f95681e512bc0fe659e195e06c283eada494316f3d801213e48e7101af92bf7709060200160405180910390a2600b546040516000916001600160a01b03169083908381818185875af1925050503d8060008114610ce3576040519150601f19603f3d011682016040523d82523d6000602084013e610ce8565b606091505b5050905080610d0a576040516312171d8360e31b815260040160405180910390fd5b8215610dc6576007546040518481526001600160a01b03909116907ffced7da42f0f076c425d7fa774af80c6fb4c4337cd595e67a56de7ff5c90be2d9060200160405180910390a26007546040516000916001600160a01b03169085908381818185875af1925050503d8060008114610d9f576040519150601f19603f3d011682016040523d82523d6000602084013e610da4565b606091505b5050905080610b90576040516312171d8360e31b815260040160405180910390fd5b50505050610b9f6001600055565b60028054610863906113ab565b60608060008060008060008060008060016002600454600554600654600980549050600760149054906101000a900460ff16600760009054906101000a90046001600160a01b0316600b60009054906101000a90046001600160a01b0316600854898054610e4e906113ab565b80601f0160208091040260200160405190810160405280929190818152602001828054610e7a906113ab565b8015610ec75780601f10610e9c57610100808354040283529160200191610ec7565b820191906000526020600020905b815481529060010190602001808311610eaa57829003601f168201915b50505050509950888054610eda906113ab565b80601f0160208091040260200160405190810160405280929190818152602001828054610f06906113ab565b8015610f535780601f10610f2857610100808354040283529160200191610f53565b820191906000526020600020905b815481529060010190602001808311610f3657829003601f168201915b50505050509850995099509950995099509950995099509950995090919293949596979899565b600060055442108015610f9a57506006541580610f9a5750600654600954105b15610fb857604051633376277360e11b815260040160405180910390fd5b600954600003610fdb576040516308b6a47360e41b815260040160405180910390fd5b60095460021115610fff576040516399f46cd560e01b815260040160405180910390fd5b600b546001600160a01b03161561102957604051630770596760e11b815260040160405180910390fd5b600780546002919060ff60a01b1916600160a01b8302179055507f00000000000000000000000000000000000000000000000000000000000000006001600160a01b0316631b930e996040518163ffffffff1660e01b81526004016020604051808303816000875af11580156110a3573d6000803e3d6000fd5b505050506040513d601f19601f820116820180604052508101906110c791906113f9565b600e8190556040518181529091507f9ac10fb18c93d33ad7b0a941897aef048d0f8d30756684e82b4552ba12764d459060200160405180910390a190565b60038054610863906113ab565b60026000540361113557604051633ee5aeb560e01b815260040160405180910390fd5b6002600055565b6000806040838503121561114f57600080fd5b50508035926020909101359150565b634e487b7160e01b600052602160045260246000fd5b6005811061119257634e487b7160e01b600052602160045260246000fd5b9052565b602081016111a48284611174565b92915050565b6000602082840312156111bc57600080fd5b5035919050565b6000815180845260005b818110156111e9576020818501810151868301820152016111cd565b506000602082860101526020601f19601f83011685010191505092915050565b60208152600061121c60208301846111c3565b9392505050565b6020808252825182820181905260009190848201906040850190845b818110156112645783516001600160a01b03168352928401929184019160010161123f565b50909695505050505050565b60006020828403121561128257600080fd5b81356001600160a01b038116811461121c57600080fd5b60006101408083526112ad8184018e6111c3565b905082810360208401526112c1818d6111c3565b9150508960408301528860608301528760808301528660a08301526112e960c0830187611174565b6001600160a01b0394851660e08301529290931661010084015261012090920191909152979650505050505050565b634e487b7160e01b600052601260045260246000fd5b60008261133d5761133d611318565b500690565b634e487b7160e01b600052603260045260246000fd5b634e487b7160e01b600052601160045260246000fd5b80820281158282048414176111a4576111a4611358565b808201808211156111a4576111a4611358565b818103818111156111a4576111a4611358565b600181811c908216806113bf57607f821691505b6020821081036113df57634e487b7160e01b600052602260045260246000fd5b50919050565b6000826113f4576113f4611318565b500490565b60006020828403121561140b57600080fd5b505191905056fea26469706673582212208f7a1e11f4e61e7e429f7d9d91be41160413247934ab9cded8d61ffd6d33413864736f6c63430008180033a26469706673582212207d1c1456449324ee271c1f034f555b85e53d7f2ae6d53c2494e87af71c8f260d64736f6c63430008180033",
  "linkReferences": {},
  "deployedLinkReferences": {}
}