{
  "_format": "hh-sol-artifact-1",
  "contractName": "RaffleFactory",
  "sourceName": "contracts/RaffleFactory.sol",
  "abi": [
    {
      "inputs": [
        {
          "internalType": "address",
          "name": "_vrfCoordinator",
          "type": "address"
        },
        {
          "internalType": "bytes32",
          "name": "_keyHash",
          "type": "bytes32"
        },
        {
          "internalType": "uint256",
          "name": "_subscriptionId",
          "type": "uint256"
        }
      ],
      "stateMutability": "nonpayable",
      "type": "constructor"
    },
    {
      "anonymous": false,
      "inputs": [
        {
          "indexed": true,
          "internalType": "address",
          "name": "raffleAddress",
          "type": "address"
        },
        {
          "indexed": true,
          "internalType": "address",
          "name": "creator",
          "type": "address"
        },
        {
          "indexed": false,
          "internalType": "string",
          "name": "title",
          "type": "string"
        },
        {
          "indexed": false,
          "internalType": "uint256",
          "name": "entryFee",
          "type": "uint256"
        },
        {
          "indexed": false,
          "internalType": "uint256",
          "name": "deadline",
          "type": "uint256"
        },
        {
          "indexed": false,
          "internalType": "uint256",
          "name": "maxParticipants",
          "type": "uint256"
        }
      ],
      "name": "RaffleCreated",
      "type": "event"
    },
    {
      "inputs": [
        {
          "internalType": "uint256",
          "name": "",
          "type": "uint256"
        }
      ],
      "name": "allRaffles",
      "outputs": [
        {
          "internalType": "address",
          "name": "",
          "type": "address"
        }
      ],
      "stateMutability": "view",
      "type": "function"
    },
    {
      "inputs": [
        {
          "internalType": "string",
          "name": "_title",
          "type": "string"
        },
        {
          "internalType": "string",
          "name": "_description",
          "type": "string"
        },
        {
          "internalType": "string",
          "name": "_prizeDescription",
          "type": "string"
        },
        {
          "internalType": "uint256",
          "name": "_entryFee",
          "type": "uint256"
        },
        {
          "internalType": "uint256",
          "name": "_deadline",
          "type": "uint256"
        },
        {
          "internalType": "uint256",
          "name": "_maxParticipants",
          "type": "uint256"
        }
      ],
      "name": "createRaffle",
      "outputs": [
        {
          "internalType": "address",
          "name": "raffleAddress",
          "type": "address"
        }
      ],
      "stateMutability": "nonpayable",
      "type": "function"
    },
    {
      "inputs": [],
      "name": "getAllRaffles",
      "outputs": [
        {
          "internalType": "address[]",
          "name": "",
          "type": "address[]"
        }
      ],
      "stateMutability": "view",
      "type": "function"
    },
    {
      "inputs": [
        {
          "internalType": "address",
          "name": "_creator",
          "type": "address"
        }
      ],
      "name": "getCreatorRaffleCount",
      "outputs": [
        {
          "internalType": "uint256",
          "name": "",
          "type": "uint256"
        }
      ],
      "stateMutability": "view",
      "type": "function"
    },
    {
      "inputs": [],
      "name": "getRaffleCount",
      "outputs": [
        {
          "internalType": "uint256",
          "name": "",
          "type": "uint256"
        }
      ],
      "stateMutability": "view",
      "type": "function"
    },
    {
      "inputs": [
        {
          "internalType": "address",
          "name": "_creator",
          "type": "address"
        }
      ],
      "name": "getRafflesByCreator",
      "outputs": [
        {
          "internalType": "address[]",
          "name": "",
          "type": "address[]"
        }
      ],
      "stateMutability": "view",
      "type": "function"
    },
    {
      "inputs": [
        {
          "internalType": "address",
          "name": "",
          "type": "address"
        }
      ],
      "name": "isRaffle",
      "outputs": [
        {
          "internalType": "bool",
          "name": "",
          "type": "bool"
        }
      ],
      "stateMutability": "view",
      "type": "function"
    },
    {
      "inputs": [],
      "name": "keyHash",
      "outputs": [
        {
          "internalType": "bytes32",
          "name": "",
          "type": "bytes32"
        }
      ],
      "stateMutability": "view",
      "type": "function"
    },
    {
      "inputs": [
        {
          "internalType": "address",
          "name": "",
          "type": "address"
        },
        {
          "internalType": "uint256",
          "name": "",
          "type": "uint256"
        }
      ],
      "name": "rafflesByCreator",
      "outputs": [
        {
          "internalType": "address",
          "name": "",
          "type": "address"
        }
      ],
      "stateMutability": "view",
      "type": "function"
    },
    {
      "inputs": [],
      "name": "subscriptionId",
      "outputs": [
        {
          "internalType": "uint256",
          "name": "",
          "type": "uint256"
        }
      ],
      "stateMutability": "view",
      "type": "function"
    },
    {
      "inputs": [],
      "name": "vrfCoordinator",
      "outputs": [
        {
          "internalType": "address",
          "name": "",
          "type": "address"
        }
      ],
      "stateMutability": "view",
      "type": "function"
    }
  ],
  "bytecode": "0x60e060405234801561001057600080fd5b5060405161259738038061259783398101604081905261002f916100a2565b6001600160a01b0383166100895760405162461bcd60e51b815260206004820152601760248201527f496e76616c69642056524620436f6f7264696e61746f72000000000000000000604482015260640160405180910390fd5b6001600160a01b0390921660805260a05260c0526100e5565b6000806000606084860312156100b757600080fd5b83516001600160a01b03811681146100ce57600080fd5b602085015160409095015190969495509392505050565b60805160a05160c05161246f6101286000396000818160c201526102c701526000818161013601526102a60152600081816101f30152610285015261246f6000f3fe60806040523480156200001157600080fd5b5060043610620000b75760003560e01c8063933eea6b116200007a578063933eea6b146200016f5780639b00e10a14620001885780639eb0671814620001bf578063a043347d14620001d6578063a3e56fa814620001ed578063a6a278d3146200021557600080fd5b806309c1ba2e14620000bc5780631d8c608614620000f757806349391898146200010057806361728f391462000130578063713c9ea91462000158575b600080fd5b620000e47f000000000000000000000000000000000000000000000000000000000000000081565b6040519081526020015b60405180910390f35b600054620000e4565b620001176200011136600462000533565b62000241565b6040516001600160a01b039091168152602001620000ee565b620000e47f000000000000000000000000000000000000000000000000000000000000000081565b62000117620001693660046200060b565b6200027a565b6200017962000401565b604051620000ee9190620006b9565b620001ae6200019936600462000708565b60026020526000908152604090205460ff1681565b6040519015158152602001620000ee565b62000117620001d03660046200072d565b62000465565b62000179620001e736600462000708565b62000490565b620001177f000000000000000000000000000000000000000000000000000000000000000081565b620000e46200022636600462000708565b6001600160a01b031660009081526001602052604090205490565b600160205281600052604060002081815481106200025e57600080fd5b6000918252602090912001546001600160a01b03169150829050565b6000808787878787877f00000000000000000000000000000000000000000000000000000000000000007f00000000000000000000000000000000000000000000000000000000000000007f0000000000000000000000000000000000000000000000000000000000000000604051620002f49062000508565b62000308999897969594939291906200078f565b604051809103906000f08015801562000325573d6000803e3d6000fd5b5060008054600181810183557f290decd9548b62a8d60345a988386fc84ba6bc95484008f6362f93160ef3e56390910180546001600160a01b0385166001600160a01b0319918216811790925533808552602084815260408087208054808801825590885282882001805490941685179093558386526002905293819020805460ff1916909317909255905192945084935090917f91571601f3ebc295a5a4506ad067c4424cb1dab2f5a76b5359d4c3ae4328440e90620003ee908c908a908a908a906200080f565b60405180910390a3509695505050505050565b606060008054806020026020016040519081016040528092919081815260200182805480156200045b57602002820191906000526020600020905b81546001600160a01b031681526001909101906020018083116200043c575b5050505050905090565b600081815481106200047657600080fd5b6000918252602090912001546001600160a01b0316905081565b6001600160a01b038116600090815260016020908152604091829020805483518184028101840190945280845260609392830182828015620004fc57602002820191906000526020600020905b81546001600160a01b03168152600190910190602001808311620004dd575b50505050509050919050565b611bf9806200084183390190565b80356001600160a01b03811681146200052e57600080fd5b919050565b600080604083850312156200054757600080fd5b620005528362000516565b946020939093013593505050565b634e487b7160e01b600052604160045260246000fd5b600082601f8301126200058857600080fd5b813567ffffffffffffffff80821115620005a657620005a662000560565b604051601f8301601f19908116603f01168101908282118183101715620005d157620005d162000560565b81604052838152866020858801011115620005eb57600080fd5b836020870160208301376000602085830101528094505050505092915050565b60008060008060008060c087890312156200062557600080fd5b863567ffffffffffffffff808211156200063e57600080fd5b6200064c8a838b0162000576565b975060208901359150808211156200066357600080fd5b620006718a838b0162000576565b965060408901359150808211156200068857600080fd5b506200069789828a0162000576565b945050606087013592506080870135915060a087013590509295509295509295565b6020808252825182820181905260009190848201906040850190845b81811015620006fc5783516001600160a01b031683529284019291840191600101620006d5565b50909695505050505050565b6000602082840312156200071b57600080fd5b620007268262000516565b9392505050565b6000602082840312156200074057600080fd5b5035919050565b6000815180845260005b818110156200076f5760208185018101518683018201520162000751565b506000602082860101526020601f19601f83011685010191505092915050565b6000610120808352620007a58184018d62000747565b90508281036020840152620007bb818c62000747565b90508281036040840152620007d1818b62000747565b60608401999099525050608081019590955260a08501939093526001600160a01b039190911660c084015260e0830152610100909101529392505050565b60808152600062000824608083018762000747565b602083019590955250604081019290925260609091015291905056fe60e06040523480156200001157600080fd5b5060405162001bf938038062001bf98339810160408190526200003491620003b7565b8233806000816200008c5760405162461bcd60e51b815260206004820152601860248201527f43616e6e6f7420736574206f776e657220746f207a65726f000000000000000060448201526064015b60405180910390fd5b600080546001600160a01b0319166001600160a01b0384811691909117909155811615620000bf57620000bf8162000227565b5050506001600160a01b038116620000ea5760405163d92e233d60e01b815260040160405180910390fd5b600280546001600160a01b0319166001600160a01b03929092169190911790554285116200015b5760405162461bcd60e51b815260206004820152601e60248201527f446561646c696e65206d75737420626520696e20746865206675747572650000604482015260640162000083565b60008611620001ad5760405162461bcd60e51b815260206004820181905260248201527f456e74727920666565206d7573742062652067726561746572207468616e2030604482015260640162000083565b6003620001bb8a826200051d565b506004620001ca89826200051d565b506005620001d988826200051d565b50600695909555600793909355600891909155600980546001600160a81b0319163360ff60a01b191617600160a01b1790556001600160a01b031660805260a05260c05250620005e9915050565b336001600160a01b03821603620002815760405162461bcd60e51b815260206004820152601760248201527f43616e6e6f74207472616e7366657220746f2073656c66000000000000000000604482015260640162000083565b600180546001600160a01b0319166001600160a01b0383811691821790925560008054604051929316917fed8889f560326eb138920d842192f0eb3dd22b4f139c87a2c57538e05bae12789190a350565b634e487b7160e01b600052604160045260246000fd5b600082601f830112620002fa57600080fd5b81516001600160401b0380821115620003175762000317620002d2565b604051601f8301601f19908116603f01168101908282118183101715620003425762000342620002d2565b81604052838152602092508660208588010111156200036057600080fd5b600091505b8382101562000384578582018301518183018401529082019062000365565b6000602085830101528094505050505092915050565b80516001600160a01b0381168114620003b257600080fd5b919050565b60008060008060008060008060006101208a8c031215620003d757600080fd5b89516001600160401b0380821115620003ef57600080fd5b620003fd8d838e01620002e8565b9a5060208c01519150808211156200041457600080fd5b620004228d838e01620002e8565b995060408c01519150808211156200043957600080fd5b50620004488c828d01620002e8565b97505060608a0151955060808a0151945060a08a015193506200046e60c08b016200039a565b925060e08a015191506101008a015190509295985092959850929598565b600181811c90821680620004a157607f821691505b602082108103620004c257634e487b7160e01b600052602260045260246000fd5b50919050565b601f82111562000518576000816000526020600020601f850160051c81016020861015620004f35750805b601f850160051c820191505b818110156200051457828155600101620004ff565b5050505b505050565b81516001600160401b03811115620005395762000539620002d2565b62000551816200054a84546200048c565b84620004c8565b602080601f831160018114620005895760008415620005705750858301515b600019600386901b1c1916600185901b17855562000514565b600085815260208120601f198616915b82811015620005ba5788860151825594840194600190910190840162000599565b5085821015620005d95787850151600019600388901b60f8161c191681555b5050505050600190811b01905550565b60805160a05160c0516115e0620006196000396000610f2701526000610f0401526000610f7301526115e06000f3fe6080604052600436106101b75760003560e01c80637284e416116100ec5780638f00cbfa1161008a578063b2185bb111610064578063b2185bb11461048b578063dfbf53ae146104a0578063efeed224146104c0578063f2fde38b146104d557600080fd5b80638f00cbfa146104405780639eccacf614610456578063ad6057291461047657600080fd5b8063877f4e12116100c6578063877f4e12146103af578063884bf67c146103ef5780638da5cb5b146104025780638ea981171461042057600080fd5b80637284e4161461035b57806379ba5097146103705780638166f6b21461038557600080fd5b806329dcb0cf116101595780634a79d50c116101335780634a79d50c146102ed5780635aa68ac01461030f578063705332501461033157806370740ac91461034657600080fd5b806329dcb0cf146102a157806335c1d349146102b757806342619f66146102d757600080fd5b806318a7ea5f1161019557806318a7ea5f146102275780631fe543e31461023d578063200d2ed21461025d57806324924bf71461028b57600080fd5b806302d05d3f146101bc578063072ea61c146101f9578063136b33921461021d575b600080fd5b3480156101c857600080fd5b506009546101dc906001600160a01b031681565b6040516001600160a01b0390911681526020015b60405180910390f35b34801561020557600080fd5b5061020f60065481565b6040519081526020016101f0565b6102256104f5565b005b34801561023357600080fd5b5061020f600f5481565b34801561024957600080fd5b5061022561025836600461127f565b610676565b34801561026957600080fd5b5060095461027e90600160a01b900460ff1681565b6040516101f09190611336565b34801561029757600080fd5b5061020f60085481565b3480156102ad57600080fd5b5061020f60075481565b3480156102c357600080fd5b506101dc6102d236600461134a565b6106cb565b3480156102e357600080fd5b5061020f600e5481565b3480156102f957600080fd5b506103026106f5565b6040516101f091906113a9565b34801561031b57600080fd5b50610324610783565b6040516101f091906113c3565b34801561033d57600080fd5b506102256107e5565b34801561035257600080fd5b50610225610939565b34801561036757600080fd5b50610302610a94565b34801561037c57600080fd5b50610225610aa1565b34801561039157600080fd5b5061039a610b4b565b6040516101f099989796959493929190611410565b3480156103bb57600080fd5b506103df6103ca366004611491565b600b6020526000908152604090205460ff1681565b60405190151581526020016101f0565b3480156103fb57600080fd5b504761020f565b34801561040e57600080fd5b506000546001600160a01b03166101dc565b34801561042c57600080fd5b5061022561043b366004611491565b610d55565b34801561044c57600080fd5b5061020f600d5481565b34801561046257600080fd5b506002546101dc906001600160a01b031681565b34801561048257600080fd5b50600a5461020f565b34801561049757600080fd5b5061020f610e47565b3480156104ac57600080fd5b50600c546101dc906001600160a01b031681565b3480156104cc57600080fd5b5061030261101d565b3480156104e157600080fd5b506102256104f0366004611491565b61102a565b6001600954600160a01b900460ff166004811115610515576105156112fe565b1461053357604051632ae47f7360e01b815260040160405180910390fd5b60075442106105555760405163502fd88d60e01b815260040160405180910390fd5b336000908152600b602052604090205460ff161561058557604051621d934160e11b815260040160405180910390fd5b60065434146105a7576040516388935db960e01b815260040160405180910390fd5b60006008541180156105bd5750600854600a5410155b156105db57604051630771de3360e01b815260040160405180910390fd5b600a8054600181810183557fc65a7bb8d6351c1cf70c95a316cc6a92839c986682d98bc35f958f4883f9d2a890910180546001600160a01b031916339081179091556000818152600b602052604090819020805460ff1916909317909255915490517f8123641a38ad3476ac345fc38496fa9edc26a110698c8c0c9fffc30f546f918c9161066c9190815260200190565b60405180910390a2565b6002546001600160a01b031633146106bb5760025460405163073e64fd60e21b81523360048201526001600160a01b0390911660248201526044015b60405180910390fd5b6106c683838361103e565b505050565b600a81815481106106db57600080fd5b6000918252602090912001546001600160a01b0316905081565b60038054610702906114ba565b80601f016020809104026020016040519081016040528092919081815260200182805461072e906114ba565b801561077b5780601f106107505761010080835404028352916020019161077b565b820191906000526020600020905b81548152906001019060200180831161075e57829003601f168201915b505050505081565b6060600a8054806020026020016040519081016040528092919081815260200182805480156107db57602002820191906000526020600020905b81546001600160a01b031681526001909101906020018083116107bd575b5050505050905090565b6009546001600160a01b03163314610810576040516393687c0b60e01b815260040160405180910390fd5b600754421061083257604051633376277360e11b815260040160405180910390fd5b6009805460ff60a01b1916600160a21b17905560005b600a5481101561090d576000600a8281548110610867576108676114f4565b60009182526020822001546006546040516001600160a01b039092169290919081818185875af1925050503d80600081146108be576040519150601f19603f3d011682016040523d82523d6000602084013e6108c3565b606091505b50509050806109045760405162461bcd60e51b815260206004820152600d60248201526c1499599d5b990819985a5b1959609a1b60448201526064016106b2565b50600101610848565b506040517f90e8484a98b653b6def19811c0e3811715da0de9c6b90d013442ba7e7541295190600090a1565b600c546001600160a01b03163314610964576040516330c6392160e11b815260040160405180910390fd5b6003600954600160a01b900460ff166004811115610984576109846112fe565b146109a257604051630770596760e11b815260040160405180910390fd5b6009805460ff60a01b1916600360a01b179055600c5460405147916000916001600160a01b039091169083908381818185875af1925050503d8060008114610a06576040519150601f19603f3d011682016040523d82523d6000602084013e610a0b565b606091505b5050905080610a4e5760405162461bcd60e51b815260206004820152600f60248201526e151c985b9cd9995c8819985a5b1959608a1b60448201526064016106b2565b600c546040518381526001600160a01b03909116907f95681e512bc0fe659e195e06c283eada494316f3d801213e48e7101af92bf7709060200160405180910390a25050565b60048054610702906114ba565b6001546001600160a01b03163314610af45760405162461bcd60e51b815260206004820152601660248201527526bab9ba10313290383937b837b9b2b21037bbb732b960511b60448201526064016106b2565b60008054336001600160a01b0319808316821784556001805490911690556040516001600160a01b0390921692909183917f8be0079c531659141344cd1fd0a4f28419497f9722a3daafe3b4186f6b6457e091a350565b6060806060600080600080600080600360046005600654600754600854600a80549050600960009054906101000a90046001600160a01b0316600960149054906101000a900460ff16888054610ba0906114ba565b80601f0160208091040260200160405190810160405280929190818152602001828054610bcc906114ba565b8015610c195780601f10610bee57610100808354040283529160200191610c19565b820191906000526020600020905b815481529060010190602001808311610bfc57829003601f168201915b50505050509850878054610c2c906114ba565b80601f0160208091040260200160405190810160405280929190818152602001828054610c58906114ba565b8015610ca55780601f10610c7a57610100808354040283529160200191610ca5565b820191906000526020600020905b815481529060010190602001808311610c8857829003601f168201915b50505050509750868054610cb8906114ba565b80601f0160208091040260200160405190810160405280929190818152602001828054610ce4906114ba565b8015610d315780601f10610d0657610100808354040283529160200191610d31565b820191906000526020600020905b815481529060010190602001808311610d1457829003601f168201915b50505050509650985098509850985098509850985098509850909192939495969798565b6000546001600160a01b03163314801590610d7b57506002546001600160a01b03163314155b15610dcc5733610d936000546001600160a01b031690565b60025460405163061db9c160e01b81526001600160a01b03938416600482015291831660248301529190911660448201526064016106b2565b6001600160a01b038116610df35760405163d92e233d60e01b815260040160405180910390fd5b600280546001600160a01b0319166001600160a01b0383169081179091556040519081527fd1a6a14209a385a964d036e404cb5cfb71f4000cdb03c9366292430787261be69060200160405180910390a150565b6009546000906001600160a01b03163314610e75576040516393687c0b60e01b815260040160405180910390fd5b600754421015610e9857604051633376277360e11b815260040160405180910390fd5b600a54600003610ebb576040516308b6a47360e41b815260040160405180910390fd5b600c546001600160a01b031615610ee557604051630770596760e11b815260040160405180910390fd5b6009805460ff60a01b1916600160a11b1790556040805160c0810182527f000000000000000000000000000000000000000000000000000000000000000081527f0000000000000000000000000000000000000000000000000000000000000000602080830191909152600382840152620186a06060830152600160808301528251908101909252600082527f00000000000000000000000000000000000000000000000000000000000000006001600160a01b031691639b1c385e919060a0820190610fb190611110565b8152506040518263ffffffff1660e01b8152600401610fd0919061150a565b6020604051808303816000875af1158015610fef573d6000803e3d6000fd5b505050506040513d601f19601f82011682018060405250810190611013919061156f565b600f819055919050565b60058054610702906114ba565b611032611181565b61103b816111d6565b50565b81816000818110611051576110516114f4565b6020029190910135600e819055600a5461106c925090611588565b600d81905550600a600d5481548110611087576110876114f4565b60009182526020918290200154600c80546001600160a01b0319166001600160a01b0390921691821790556009805460ff60a01b1916600360a01b179055600d54600e546040805192835293820152808301869052915190917ff52fac7e26724c6e0808da8161af0a1263330646f3989bb031cc71fbaa7bf521919081900360600190a2505050565b60607f92fd13387c7fe7befbc38d303d6468778fb9731bc4583f17d92989c6fcfdeaaa8260405160240161114991511515815260200190565b60408051601f198184030181529190526020810180516001600160e01b03166001600160e01b03199093169290921790915292915050565b6000546001600160a01b031633146111d45760405162461bcd60e51b815260206004820152601660248201527527b7363c9031b0b63630b1363290313c9037bbb732b960511b60448201526064016106b2565b565b336001600160a01b0382160361122e5760405162461bcd60e51b815260206004820152601760248201527f43616e6e6f74207472616e7366657220746f2073656c6600000000000000000060448201526064016106b2565b600180546001600160a01b0319166001600160a01b0383811691821790925560008054604051929316917fed8889f560326eb138920d842192f0eb3dd22b4f139c87a2c57538e05bae12789190a350565b60008060006040848603121561129457600080fd5b83359250602084013567ffffffffffffffff808211156112b357600080fd5b818601915086601f8301126112c757600080fd5b8135818111156112d657600080fd5b8760208260051b85010111156112eb57600080fd5b6020830194508093505050509250925092565b634e487b7160e01b600052602160045260246000fd5b6005811061133257634e487b7160e01b600052602160045260246000fd5b9052565b602081016113448284611314565b92915050565b60006020828403121561135c57600080fd5b5035919050565b6000815180845260005b818110156113895760208185018101518683018201520161136d565b506000602082860101526020601f19601f83011685010191505092915050565b6020815260006113bc6020830184611363565b9392505050565b6020808252825182820181905260009190848201906040850190845b818110156114045783516001600160a01b0316835292840192918401916001016113df565b50909695505050505050565b60006101208083526114248184018d611363565b90508281036020840152611438818c611363565b9050828103604084015261144c818b611363565b9150508760608301528660808301528560a08301528460c083015260018060a01b03841660e0830152611483610100830184611314565b9a9950505050505050505050565b6000602082840312156114a357600080fd5b81356001600160a01b03811681146113bc57600080fd5b600181811c908216806114ce57607f821691505b6020821081036114ee57634e487b7160e01b600052602260045260246000fd5b50919050565b634e487b7160e01b600052603260045260246000fd5b60208152815160208201526020820151604082015261ffff60408301511660608201526000606083015163ffffffff80821660808501528060808601511660a0850152505060a083015160c08084015261156760e0840182611363565b949350505050565b60006020828403121561158157600080fd5b5051919050565b6000826115a557634e487b7160e01b600052601260045260246000fd5b50069056fea2646970667358221220147d289026f994e9f2017b518b73c9ba04da6efe36a2597055214924fef4bbf664736f6c63430008180033a2646970667358221220efa0920b32eae0b9107680a2407c88958d0624580c158cbb6fc49a08ff9e017e64736f6c63430008180033",
  "linkReferences": {},
  "deployedLinkReferences": {}
}