{
  "_format": "hh-sol-artifact-1",
  "contractName": "RaffleFactory",
  "sourceName": "contracts/RaffleFactory.sol",
  "abi": [
    {
      "inputs": [
        {
          "internalType": "address",
          "name": "_vrfCoordinator",
          "type": "address"
        },
        {
          "internalType": "bytes32",
          "name": "_keyHash",
          "type": "bytes32"
        },
        {
          "internalType": "uint256",
          "name": "_subscriptionId",
          "type": "uint256"
        }
      ],
      "stateMutability": "nonpayable",
      "type": "constructor"
    },
    {
      "inputs": [],
      "name": "EnforcedPause",
      "type": "error"
    },
    {
      "inputs": [],
      "name": "ExpectedPause",
      "type": "error"
    },
    {
      "inputs": [],
      "name": "InsufficientCreationFee",
      "type": "error"
    },
    {
      "inputs": [],
      "name": "InvalidRequestId",
      "type": "error"
    },
    {
      "inputs": [],
      "name": "NotPlatformOwner",
      "type": "error"
    },
    {
      "inputs": [
        {
          "internalType": "address",
          "name": "have",
          "type": "address"
        },
        {
          "internalType": "address",
          "name": "want",
          "type": "address"
        }
      ],
      "name": "OnlyCoordinatorCanFulfill",
      "type": "error"
    },
    {
      "inputs": [
        {
          "internalType": "address",
          "name": "have",
          "type": "address"
        },
        {
          "internalType": "address",
          "name": "owner",
          "type": "address"
        },
        {
          "internalType": "address",
          "name": "coordinator",
          "type": "address"
        }
      ],
      "name": "OnlyOwnerOrCoordinator",
      "type": "error"
    },
    {
      "inputs": [],
      "name": "OnlyRaffleContract",
      "type": "error"
    },
    {
      "inputs": [],
      "name": "TransferFailed",
      "type": "error"
    },
    {
      "inputs": [],
      "name": "WithdrawFailed",
      "type": "error"
    },
    {
      "inputs": [],
      "name": "ZeroAddress",
      "type": "error"
    },
    {
      "anonymous": false,
      "inputs": [
        {
          "indexed": false,
          "internalType": "address",
          "name": "vrfCoordinator",
          "type": "address"
        }
      ],
      "name": "CoordinatorSet",
      "type": "event"
    },
    {
      "anonymous": false,
      "inputs": [
        {
          "indexed": true,
          "internalType": "address",
          "name": "owner",
          "type": "address"
        },
        {
          "indexed": false,
          "internalType": "uint256",
          "name": "amount",
          "type": "uint256"
        }
      ],
      "name": "FeesWithdrawn",
      "type": "event"
    },
    {
      "anonymous": false,
      "inputs": [
        {
          "indexed": true,
          "internalType": "address",
          "name": "from",
          "type": "address"
        },
        {
          "indexed": true,
          "internalType": "address",
          "name": "to",
          "type": "address"
        }
      ],
      "name": "OwnershipTransferRequested",
      "type": "event"
    },
    {
      "anonymous": false,
      "inputs": [
        {
          "indexed": true,
          "internalType": "address",
          "name": "from",
          "type": "address"
        },
        {
          "indexed": true,
          "internalType": "address",
          "name": "to",
          "type": "address"
        }
      ],
      "name": "OwnershipTransferred",
      "type": "event"
    },
    {
      "anonymous": false,
      "inputs": [
        {
          "indexed": false,
          "internalType": "address",
          "name": "account",
          "type": "address"
        }
      ],
      "name": "Paused",
      "type": "event"
    },
    {
      "anonymous": false,
      "inputs": [
        {
          "indexed": true,
          "internalType": "address",
          "name": "raffleAddress",
          "type": "address"
        },
        {
          "indexed": true,
          "internalType": "address",
          "name": "creator",
          "type": "address"
        },
        {
          "indexed": false,
          "internalType": "string",
          "name": "title",
          "type": "string"
        },
        {
          "indexed": false,
          "internalType": "uint256",
          "name": "entryFee",
          "type": "uint256"
        },
        {
          "indexed": false,
          "internalType": "uint256",
          "name": "deadline",
          "type": "uint256"
        },
        {
          "indexed": false,
          "internalType": "uint256",
          "name": "maxParticipants",
          "type": "uint256"
        },
        {
          "indexed": false,
          "internalType": "uint256",
          "name": "creatorCommissionBps",
          "type": "uint256"
        }
      ],
      "name": "RaffleCreated",
      "type": "event"
    },
    {
      "anonymous": false,
      "inputs": [
        {
          "indexed": true,
          "internalType": "address",
          "name": "raffle",
          "type": "address"
        },
        {
          "indexed": true,
          "internalType": "uint256",
          "name": "requestId",
          "type": "uint256"
        },
        {
          "indexed": false,
          "internalType": "uint256",
          "name": "randomWord",
          "type": "uint256"
        }
      ],
      "name": "RandomnessFulfilled",
      "type": "event"
    },
    {
      "anonymous": false,
      "inputs": [
        {
          "indexed": true,
          "internalType": "address",
          "name": "raffle",
          "type": "address"
        },
        {
          "indexed": true,
          "internalType": "uint256",
          "name": "requestId",
          "type": "uint256"
        }
      ],
      "name": "RandomnessRequested",
      "type": "event"
    },
    {
      "anonymous": false,
      "inputs": [
        {
          "indexed": false,
          "internalType": "address",
          "name": "account",
          "type": "address"
        }
      ],
      "name": "Unpaused",
      "type": "event"
    },
    {
      "inputs": [],
      "name": "CREATION_FEE_BPS",
      "outputs": [
        {
          "internalType": "uint256",
          "name": "",
          "type": "uint256"
        }
      ],
      "stateMutability": "view",
      "type": "function"
    },
    {
      "inputs": [],
      "name": "MAX_FEE",
      "outputs": [
        {
          "internalType": "uint256",
          "name": "",
          "type": "uint256"
        }
      ],
      "stateMutability": "view",
      "type": "function"
    },
    {
      "inputs": [],
      "name": "MIN_FEE",
      "outputs": [
        {
          "internalType": "uint256",
          "name": "",
          "type": "uint256"
        }
      ],
      "stateMutability": "view",
      "type": "function"
    },
    {
      "inputs": [],
      "name": "acceptOwnership",
      "outputs": [],
      "stateMutability": "nonpayable",
      "type": "function"
    },
    {
      "inputs": [
        {
          "internalType": "uint256",
          "name": "",
          "type": "uint256"
        }
      ],
      "name": "allRaffles",
      "outputs": [
        {
          "internalType": "address",
          "name": "",
          "type": "address"
        }
      ],
      "stateMutability": "view",
      "type": "function"
    },
    {
      "inputs": [
        {
          "internalType": "uint256",
          "name": "_entryFee",
          "type": "uint256"
        },
        {
          "internalType": "uint256",
          "name": "_maxParticipants",
          "type": "uint256"
        }
      ],
      "name": "calculateCreationFee",
      "outputs": [
        {
          "internalType": "uint256",
          "name": "fee",
          "type": "uint256"
        }
      ],
      "stateMutability": "pure",
      "type": "function"
    },
    {
      "inputs": [
        {
          "internalType": "string",
          "name": "_title",
          "type": "string"
        },
        {
          "internalType": "string",
          "name": "_description",
          "type": "string"
        },
        {
          "internalType": "string",
          "name": "_prizeDescription",
          "type": "string"
        },
        {
          "internalType": "uint256",
          "name": "_entryFee",
          "type": "uint256"
        },
        {
          "internalType": "uint256",
          "name": "_deadline",
          "type": "uint256"
        },
        {
          "internalType": "uint256",
          "name": "_maxParticipants",
          "type": "uint256"
        },
        {
          "internalType": "uint256",
          "name": "_creatorCommissionBps",
          "type": "uint256"
        }
      ],
      "name": "createRaffle",
      "outputs": [
        {
          "internalType": "address",
          "name": "raffleAddress",
          "type": "address"
        }
      ],
      "stateMutability": "payable",
      "type": "function"
    },
    {
      "inputs": [],
      "name": "getAccumulatedFees",
      "outputs": [
        {
          "internalType": "uint256",
          "name": "",
          "type": "uint256"
        }
      ],
      "stateMutability": "view",
      "type": "function"
    },
    {
      "inputs": [],
      "name": "getAllRaffles",
      "outputs": [
        {
          "internalType": "address[]",
          "name": "",
          "type": "address[]"
        }
      ],
      "stateMutability": "view",
      "type": "function"
    },
    {
      "inputs": [
        {
          "internalType": "address",
          "name": "_creator",
          "type": "address"
        }
      ],
      "name": "getCreatorRaffleCount",
      "outputs": [
        {
          "internalType": "uint256",
          "name": "",
          "type": "uint256"
        }
      ],
      "stateMutability": "view",
      "type": "function"
    },
    {
      "inputs": [],
      "name": "getRaffleCount",
      "outputs": [
        {
          "internalType": "uint256",
          "name": "",
          "type": "uint256"
        }
      ],
      "stateMutability": "view",
      "type": "function"
    },
    {
      "inputs": [
        {
          "internalType": "address",
          "name": "_creator",
          "type": "address"
        }
      ],
      "name": "getRafflesByCreator",
      "outputs": [
        {
          "internalType": "address[]",
          "name": "",
          "type": "address[]"
        }
      ],
      "stateMutability": "view",
      "type": "function"
    },
    {
      "inputs": [
        {
          "internalType": "address",
          "name": "",
          "type": "address"
        }
      ],
      "name": "isRaffle",
      "outputs": [
        {
          "internalType": "bool",
          "name": "",
          "type": "bool"
        }
      ],
      "stateMutability": "view",
      "type": "function"
    },
    {
      "inputs": [],
      "name": "keyHash",
      "outputs": [
        {
          "internalType": "bytes32",
          "name": "",
          "type": "bytes32"
        }
      ],
      "stateMutability": "view",
      "type": "function"
    },
    {
      "inputs": [],
      "name": "owner",
      "outputs": [
        {
          "internalType": "address",
          "name": "",
          "type": "address"
        }
      ],
      "stateMutability": "view",
      "type": "function"
    },
    {
      "inputs": [],
      "name": "pause",
      "outputs": [],
      "stateMutability": "nonpayable",
      "type": "function"
    },
    {
      "inputs": [],
      "name": "paused",
      "outputs": [
        {
          "internalType": "bool",
          "name": "",
          "type": "bool"
        }
      ],
      "stateMutability": "view",
      "type": "function"
    },
    {
      "inputs": [],
      "name": "platformOwner",
      "outputs": [
        {
          "internalType": "address",
          "name": "",
          "type": "address"
        }
      ],
      "stateMutability": "view",
      "type": "function"
    },
    {
      "inputs": [
        {
          "internalType": "address",
          "name": "",
          "type": "address"
        },
        {
          "internalType": "uint256",
          "name": "",
          "type": "uint256"
        }
      ],
      "name": "rafflesByCreator",
      "outputs": [
        {
          "internalType": "address",
          "name": "",
          "type": "address"
        }
      ],
      "stateMutability": "view",
      "type": "function"
    },
    {
      "inputs": [
        {
          "internalType": "uint256",
          "name": "requestId",
          "type": "uint256"
        },
        {
          "internalType": "uint256[]",
          "name": "randomWords",
          "type": "uint256[]"
        }
      ],
      "name": "rawFulfillRandomWords",
      "outputs": [],
      "stateMutability": "nonpayable",
      "type": "function"
    },
    {
      "inputs": [
        {
          "internalType": "uint256",
          "name": "",
          "type": "uint256"
        }
      ],
      "name": "requestIdToRaffle",
      "outputs": [
        {
          "internalType": "address",
          "name": "",
          "type": "address"
        }
      ],
      "stateMutability": "view",
      "type": "function"
    },
    {
      "inputs": [],
      "name": "requestRandomnessForRaffle",
      "outputs": [
        {
          "internalType": "uint256",
          "name": "requestId",
          "type": "uint256"
        }
      ],
      "stateMutability": "nonpayable",
      "type": "function"
    },
    {
      "inputs": [],
      "name": "s_vrfCoordinator",
      "outputs": [
        {
          "internalType": "contract IVRFCoordinatorV2Plus",
          "name": "",
          "type": "address"
        }
      ],
      "stateMutability": "view",
      "type": "function"
    },
    {
      "inputs": [
        {
          "internalType": "address",
          "name": "_vrfCoordinator",
          "type": "address"
        }
      ],
      "name": "setCoordinator",
      "outputs": [],
      "stateMutability": "nonpayable",
      "type": "function"
    },
    {
      "inputs": [],
      "name": "subscriptionId",
      "outputs": [
        {
          "internalType": "uint256",
          "name": "",
          "type": "uint256"
        }
      ],
      "stateMutability": "view",
      "type": "function"
    },
    {
      "inputs": [
        {
          "internalType": "address",
          "name": "to",
          "type": "address"
        }
      ],
      "name": "transferOwnership",
      "outputs": [],
      "stateMutability": "nonpayable",
      "type": "function"
    },
    {
      "inputs": [],
      "name": "unpause",
      "outputs": [],
      "stateMutability": "nonpayable",
      "type": "function"
    },
    {
      "inputs": [],
      "name": "withdrawFees",
      "outputs": [],
      "stateMutability": "nonpayable",
      "type": "function"
    }
  ],
  "bytecode": "0x60e06040523480156200001157600080fd5b5060405162003461380380620034618339810160408190526200003491620001c9565b8233806000816200008c5760405162461bcd60e51b815260206004820152601860248201527f43616e6e6f7420736574206f776e657220746f207a65726f000000000000000060448201526064015b60405180910390fd5b600080546001600160a01b0319166001600160a01b0384811691909117909155811615620000bf57620000bf816200011e565b5050506001600160a01b038116620000ea5760405163d92e233d60e01b815260040160405180910390fd5b600280546001600160a01b0319166001600160a01b039290921691909117905560809190915260a052503360c0526200020e565b336001600160a01b03821603620001785760405162461bcd60e51b815260206004820152601760248201527f43616e6e6f74207472616e7366657220746f2073656c66000000000000000000604482015260640162000083565b600180546001600160a01b0319166001600160a01b0383811691821790925560008054604051929316917fed8889f560326eb138920d842192f0eb3dd22b4f139c87a2c57538e05bae12789190a350565b600080600060608486031215620001df57600080fd5b83516001600160a01b0381168114620001f757600080fd5b602085015160409095015190969495509392505050565b60805160a05160c0516131f26200026f6000396000818161033d01528181610a5501528181610aab01528181610afc01528181610b830152610cd90152600081816101f401526106600152600081816103cc015261063d01526131f26000f3fe608060405260043610620001db5760003560e01c806376c7a3c711620000ff5780639eb067181162000095578063a6a278d3116200006c578063a6a278d31462000547578063b26f9a6a1462000581578063bc063e1a14620005bb578063f2fde38b14620005d857600080fd5b80639eb0671814620004db5780639eccacf61462000500578063a043347d146200052257600080fd5b80638da5cb5b11620000d65780638da5cb5b146200043b5780638ea98117146200045b578063933eea6b14620004805780639b00e10a14620004a757600080fd5b806376c7a3c714620003ee57806379ba5097146200040b5780638456cb59146200042357600080fd5b8063476343ee11620001755780635195838c116200014c5780635195838c146200035f5780635c975abb14620003765780635df45a3714620003a357806361728f3914620003b857600080fd5b8063476343ee14620002ec5780634939189814620003045780634df8ccb1146200032957600080fd5b80631fe543e311620001b65780631fe543e31462000258578063227f337c146200027f57806338bc130514620002af5780633f4ba83a14620002d457600080fd5b806309c1ba2e14620001e05780631b930e9914620002295780631d8c60861462000241575b600080fd5b348015620001ed57600080fd5b50620002167f000000000000000000000000000000000000000000000000000000000000000081565b6040519081526020015b60405180910390f35b3480156200023657600080fd5b5062000216620005fd565b3480156200024e57600080fd5b5060035462000216565b3480156200026557600080fd5b506200027d62000277366004620012b7565b62000784565b005b6200029662000290366004620013e6565b620007dc565b6040516001600160a01b03909116815260200162000220565b348015620002bc57600080fd5b5062000216620002ce3660046200149d565b620009cb565b348015620002e157600080fd5b506200027d62000a4a565b348015620002f957600080fd5b506200027d62000aa0565b3480156200031157600080fd5b506200029662000323366004620014dd565b62000be9565b3480156200033657600080fd5b50620002967f000000000000000000000000000000000000000000000000000000000000000081565b3480156200036c57600080fd5b5062000216606481565b3480156200038357600080fd5b50600254600160a01b900460ff165b604051901515815260200162000220565b348015620003b057600080fd5b504762000216565b348015620003c557600080fd5b50620002167f000000000000000000000000000000000000000000000000000000000000000081565b348015620003fb57600080fd5b506200021666016bcc41e9000081565b3480156200041857600080fd5b506200027d62000c22565b3480156200043057600080fd5b506200027d62000cce565b3480156200044857600080fd5b506000546001600160a01b031662000296565b3480156200046857600080fd5b506200027d6200047a3660046200150a565b62000d22565b3480156200048d57600080fd5b506200049862000e19565b6040516200022091906200152f565b348015620004b457600080fd5b5062000392620004c63660046200150a565b60056020526000908152604090205460ff1681565b348015620004e857600080fd5b5062000296620004fa3660046200157e565b62000e7d565b3480156200050d57600080fd5b5060025462000296906001600160a01b031681565b3480156200052f57600080fd5b5062000498620005413660046200150a565b62000ea8565b3480156200055457600080fd5b5062000216620005663660046200150a565b6001600160a01b031660009081526004602052604090205490565b3480156200058e57600080fd5b5062000296620005a03660046200157e565b6006602052600090815260409020546001600160a01b031681565b348015620005c857600080fd5b506200021666b1a2bc2ec5000081565b348015620005e557600080fd5b506200027d620005f73660046200150a565b62000f20565b3360009081526005602052604081205460ff166200062e57604051634ac9cc8360e01b815260040160405180910390fd5b6002546040805160c0810182527f000000000000000000000000000000000000000000000000000000000000000081527f0000000000000000000000000000000000000000000000000000000000000000602080830191909152600382840152620493e06060830152600160808301528251908101909252600082526001600160a01b0390921691639b1c385e9160a0820190620006cc9062000f38565b8152506040518263ffffffff1660e01b8152600401620006ed9190620015e0565b6020604051808303816000875af11580156200070d573d6000803e3d6000fd5b505050506040513d601f19601f8201168201806040525081019062000733919062001647565b60008181526006602052604080822080546001600160a01b031916339081179091559051929350839290917fc0412d082261082b733ae39d66dd3b4c4d14c47283f37f52dc3a3bb8a70efabe91a390565b6002546001600160a01b03163314620007ca5760025460405163073e64fd60e21b81523360048201526001600160a01b0390911660248201526044015b60405180910390fd5b620007d783838362000faa565b505050565b6000620007e8620010b5565b6000620007f68685620009cb565b9050803410156200081a57604051630535b74760e41b815260040160405180910390fd5b600089898989898933308b6040516200083390620012a9565b620008479998979695949392919062001661565b604051809103906000f08015801562000864573d6000803e3d6000fd5b506003805460018181019092557fc2575a0e9e593c00f959f8c92f12db2869c3395a3b0502d05e2516446f71f85b0180546001600160a01b0384166001600160a01b0319918216811790925533600081815260046020908152604080832080548089018255908452828420018054909516861790945584825260059052829020805460ff19169094179093555192955085935090917fecf1803f7a0ca17444577815651e32175f27b5c454ff663fcb4de6ccc39466c09062000930908e908c908c908c908c90620016e1565b60405180910390a3600062000946833462001730565b90508015620009bd57604051600090339083908381818185875af1925050503d806000811462000993576040519150601f19603f3d011682016040523d82523d6000602084013e62000998565b606091505b5050905080620009bb576040516312171d8360e31b815260040160405180910390fd5b505b505050979650505050505050565b600081600003620009e5575066b1a2bc2ec5000062000a44565b6127106064620009f6848662001746565b62000a02919062001746565b62000a0e919062001760565b905066016bcc41e9000081101562000a2a575066016bcc41e900005b66b1a2bc2ec5000081111562000a44575066b1a2bc2ec500005b92915050565b336001600160a01b037f0000000000000000000000000000000000000000000000000000000000000000161462000a9457604051631c30e10760e11b815260040160405180910390fd5b62000a9e620010e1565b565b336001600160a01b037f0000000000000000000000000000000000000000000000000000000000000000161462000aea57604051631c30e10760e11b815260040160405180910390fd5b60405147906000906001600160a01b037f0000000000000000000000000000000000000000000000000000000000000000169083908381818185875af1925050503d806000811462000b59576040519150601f19603f3d011682016040523d82523d6000602084013e62000b5e565b606091505b505090508062000b8157604051631d42c86760e21b815260040160405180910390fd5b7f00000000000000000000000000000000000000000000000000000000000000006001600160a01b03167fc0819c13be868895eb93e40eaceb96de976442fa1d404e5c55f14bb65a8c489a8360405162000bdd91815260200190565b60405180910390a25050565b6004602052816000526040600020818154811062000c0657600080fd5b6000918252602090912001546001600160a01b03169150829050565b6001546001600160a01b0316331462000c775760405162461bcd60e51b815260206004820152601660248201527526bab9ba10313290383937b837b9b2b21037bbb732b960511b6044820152606401620007c1565b60008054336001600160a01b0319808316821784556001805490911690556040516001600160a01b0390921692909183917f8be0079c531659141344cd1fd0a4f28419497f9722a3daafe3b4186f6b6457e091a350565b336001600160a01b037f0000000000000000000000000000000000000000000000000000000000000000161462000d1857604051631c30e10760e11b815260040160405180910390fd5b62000a9e62001138565b6000546001600160a01b0316331480159062000d4957506002546001600160a01b03163314155b1562000d9d573362000d636000546001600160a01b031690565b60025460405163061db9c160e01b81526001600160a01b0393841660048201529183166024830152919091166044820152606401620007c1565b6001600160a01b03811662000dc55760405163d92e233d60e01b815260040160405180910390fd5b600280546001600160a01b0319166001600160a01b0383169081179091556040519081527fd1a6a14209a385a964d036e404cb5cfb71f4000cdb03c9366292430787261be69060200160405180910390a150565b6060600380548060200260200160405190810160405280929190818152602001828054801562000e7357602002820191906000526020600020905b81546001600160a01b0316815260019091019060200180831162000e54575b5050505050905090565b6003818154811062000e8e57600080fd5b6000918252602090912001546001600160a01b0316905081565b6001600160a01b03811660009081526004602090815260409182902080548351818402810184019094528084526060939283018282801562000f1457602002820191906000526020600020905b81546001600160a01b0316815260019091019060200180831162000ef5575b50505050509050919050565b62000f2a6200117e565b62000f3581620011d3565b50565b60607f92fd13387c7fe7befbc38d303d6468778fb9731bc4583f17d92989c6fcfdeaaa8260405160240162000f7291511515815260200190565b60408051601f198184030181529190526020810180516001600160e01b03166001600160e01b03199093169290921790915292915050565b6000838152600660205260409020546001600160a01b03168062000fe1576040516302e8145360e61b815260040160405180910390fd5b60008383600081811062000ff95762000ff962001783565b60405163034ad12960e11b81526004810189905260209091029290920135602483018190529250506001600160a01b03831690630695a25290604401600060405180830381600087803b1580156200105057600080fd5b505af115801562001065573d6000803e3d6000fd5b5050505084826001600160a01b03167f3f5afb14643da8820864941a73a1425f52f86fa88863febd0998122629fdb27583604051620010a691815260200190565b60405180910390a35050505050565b600254600160a01b900460ff161562000a9e5760405163d93c066560e01b815260040160405180910390fd5b620010eb6200127e565b6002805460ff60a01b191690557f5db9ee0a495bf2e6ff9c91a7834c1ba4fdd244a5e8aa4e537bd38aeae4b073aa335b6040516001600160a01b03909116815260200160405180910390a1565b62001142620010b5565b6002805460ff60a01b1916600160a01b1790557f62e78cea01bee320cd4e420270b5ea74000d11b0c9f74754ebdbfc544b05a2586200111b3390565b6000546001600160a01b0316331462000a9e5760405162461bcd60e51b815260206004820152601660248201527527b7363c9031b0b63630b1363290313c9037bbb732b960511b6044820152606401620007c1565b336001600160a01b038216036200122d5760405162461bcd60e51b815260206004820152601760248201527f43616e6e6f74207472616e7366657220746f2073656c660000000000000000006044820152606401620007c1565b600180546001600160a01b0319166001600160a01b0383811691821790925560008054604051929316917fed8889f560326eb138920d842192f0eb3dd22b4f139c87a2c57538e05bae12789190a350565b600254600160a01b900460ff1662000a9e57604051638dfc202b60e01b815260040160405180910390fd5b611a23806200179a83390190565b600080600060408486031215620012cd57600080fd5b83359250602084013567ffffffffffffffff80821115620012ed57600080fd5b818601915086601f8301126200130257600080fd5b8135818111156200131257600080fd5b8760208260051b85010111156200132857600080fd5b6020830194508093505050509250925092565b634e487b7160e01b600052604160045260246000fd5b600082601f8301126200136357600080fd5b813567ffffffffffffffff808211156200138157620013816200133b565b604051601f8301601f19908116603f01168101908282118183101715620013ac57620013ac6200133b565b81604052838152866020858801011115620013c657600080fd5b836020870160208301376000602085830101528094505050505092915050565b600080600080600080600060e0888a0312156200140257600080fd5b873567ffffffffffffffff808211156200141b57600080fd5b620014298b838c0162001351565b985060208a01359150808211156200144057600080fd5b6200144e8b838c0162001351565b975060408a01359150808211156200146557600080fd5b50620014748a828b0162001351565b979a96995096976060810135975060808101359660a0820135965060c090910135945092505050565b60008060408385031215620014b157600080fd5b50508035926020909101359150565b80356001600160a01b0381168114620014d857600080fd5b919050565b60008060408385031215620014f157600080fd5b620014fc83620014c0565b946020939093013593505050565b6000602082840312156200151d57600080fd5b6200152882620014c0565b9392505050565b6020808252825182820181905260009190848201906040850190845b81811015620015725783516001600160a01b0316835292840192918401916001016200154b565b50909695505050505050565b6000602082840312156200159157600080fd5b5035919050565b6000815180845260005b81811015620015c057602081850181015186830182015201620015a2565b506000602082860101526020601f19601f83011685010191505092915050565b60208152815160208201526020820151604082015261ffff60408301511660608201526000606083015163ffffffff80821660808501528060808601511660a0850152505060a083015160c0808401526200163f60e084018262001598565b949350505050565b6000602082840312156200165a57600080fd5b5051919050565b6000610120808352620016778184018d62001598565b905082810360208401526200168d818c62001598565b90508281036040840152620016a3818b62001598565b60608401999099525050608081019590955260a08501939093526001600160a01b0391821660c08501521660e0830152610100909101529392505050565b60a081526000620016f660a083018862001598565b90508560208301528460408301528360608301528260808301529695505050505050565b634e487b7160e01b600052601160045260246000fd5b8181038181111562000a445762000a446200171a565b808202811582820484141762000a445762000a446200171a565b6000826200177e57634e487b7160e01b600052601260045260246000fd5b500490565b634e487b7160e01b600052603260045260246000fdfe60a06040523480156200001157600080fd5b5060405162001a2338038062001a238339810160408190526200003491620002c3565b60016000554285116200005a57604051630642ce7760e01b815260040160405180910390fd5b6200006a426301e13380620003a1565b8511156200008b576040516324787d7360e11b815260040160405180910390fd5b85600003620000ad576040516315801e6b60e21b815260040160405180910390fd5b68056bc75e2d63100000861115620000d857604051631a3dc29960e21b815260040160405180910390fd5b83600103620000fa57604051630def91b560e41b815260040160405180910390fd5b6127108411156200011e57604051630c2e7b5760e41b815260040160405180910390fd5b6001600160a01b0382166200014657604051635c7bfbe960e01b815260040160405180910390fd5b6103e88111156200016a5760405163dc81db8560e01b815260040160405180910390fd5b6001620001788a826200045a565b5060026200018789826200045a565b5060036200019688826200045a565b5060049590955560059390935560069190915560078054600160a01b6001600160a81b03199091166001600160a01b0393841617179055166080526008555062000526915050565b634e487b7160e01b600052604160045260246000fd5b600082601f8301126200020657600080fd5b81516001600160401b0380821115620002235762000223620001de565b604051601f8301601f19908116603f011681019082821181831017156200024e576200024e620001de565b81604052838152602092508660208588010111156200026c57600080fd5b600091505b8382101562000290578582018301518183018401529082019062000271565b6000602085830101528094505050505092915050565b80516001600160a01b0381168114620002be57600080fd5b919050565b60008060008060008060008060006101208a8c031215620002e357600080fd5b89516001600160401b0380821115620002fb57600080fd5b620003098d838e01620001f4565b9a5060208c01519150808211156200032057600080fd5b6200032e8d838e01620001f4565b995060408c01519150808211156200034557600080fd5b50620003548c828d01620001f4565b97505060608a0151955060808a0151945060a08a015193506200037a60c08b01620002a6565b92506200038a60e08b01620002a6565b91506101008a015190509295985092959850929598565b80820180821115620003c357634e487b7160e01b600052601160045260246000fd5b92915050565b600181811c90821680620003de57607f821691505b602082108103620003ff57634e487b7160e01b600052602260045260246000fd5b50919050565b601f82111562000455576000816000526020600020601f850160051c81016020861015620004305750805b601f850160051c820191505b8181101562000451578281556001016200043c565b5050505b505050565b81516001600160401b03811115620004765762000476620001de565b6200048e81620004878454620003c9565b8462000405565b602080601f831160018114620004c65760008415620004ad5750858301515b600019600386901b1c1916600185901b17855562000451565b600085815260208120601f198616915b82811015620004f757888601518255948401946001909101908401620004d6565b5085821015620005165787850151600019600388901b60f8161c191681555b5050505050600190811b01905550565b6080516114d3620005506000396000818161047a015281816104dc01526110d001526114d36000f3fe60806040526004361061019c5760003560e01c80635aa68ac0116100ec578063936afab31161008a578063b2185bb111610064578063b2185bb114610453578063c45a015514610468578063dfbf53ae1461049c578063efeed224146104bc57600080fd5b8063936afab3146103dc578063963ef2a214610407578063aec3c1731461043d57600080fd5b806370ca5bbe116100c657806370ca5bbe146103715780637284e4161461039e578063884bf67c146103b35780638f00cbfa146103c657600080fd5b80635aa68ac014610325578063705332501461034757806370740ac91461035c57600080fd5b8063200d2ed21161015957806335c1d3491161013357806335c1d349146102ba57806342619f66146102da5780634758eca9146102f05780634a79d50c1461030357600080fd5b8063200d2ed21461026057806324924bf71461028e57806329dcb0cf146102a457600080fd5b806302d05d3f146101a15780630695a252146101de57806306e8337f14610200578063072ea61c1461021f578063110f88741461023557806318a7ea5f1461024a575b600080fd5b3480156101ad57600080fd5b506007546101c1906001600160a01b031681565b6040516001600160a01b0390911681526020015b60405180910390f35b3480156101ea57600080fd5b506101fe6101f93660046111c7565b6104d1565b005b34801561020c57600080fd5b506009545b6040519081526020016101d5565b34801561022b57600080fd5b5061021160045481565b34801561024157600080fd5b506101fe61061b565b34801561025657600080fd5b50610211600e5481565b34801561026c57600080fd5b5060075461028190600160a01b900460ff1681565b6040516101d59190611221565b34801561029a57600080fd5b5061021160065481565b3480156102b057600080fd5b5061021160055481565b3480156102c657600080fd5b506101c16102d5366004611235565b610761565b3480156102e657600080fd5b50610211600d5481565b6101fe6102fe366004611235565b61078b565b34801561030f57600080fd5b506103186109de565b6040516101d59190611294565b34801561033157600080fd5b5061033a610a6c565b6040516101d591906112ae565b34801561035357600080fd5b506101fe610ace565b34801561036857600080fd5b506101fe610c2a565b34801561037d57600080fd5b5061021161038c3660046112fb565b600a6020526000908152604090205481565b3480156103aa57600080fd5b50610318610e5f565b3480156103bf57600080fd5b5047610211565b3480156103d257600080fd5b50610211600c5481565b3480156103e857600080fd5b506103f1610e6c565b6040516101d59a99989796959493929190611324565b34801561041357600080fd5b506102116104223660046112fb565b6001600160a01b03166000908152600a602052604090205490565b34801561044957600080fd5b5061021160085481565b34801561045f57600080fd5b50610211611005565b34801561047457600080fd5b506101c17f000000000000000000000000000000000000000000000000000000000000000081565b3480156104a857600080fd5b50600b546101c1906001600160a01b031681565b3480156104c857600080fd5b50610318611190565b336001600160a01b037f0000000000000000000000000000000000000000000000000000000000000000161461051a57604051630636a15760e11b815260040160405180910390fd5b600e54821461053c576040516302e8145360e61b815260040160405180910390fd5b600b546001600160a01b0316156105665760405163636ed8dd60e11b815260040160405180910390fd5b600d81905560095461057890826113b9565b600c819055506009600c5481548110610593576105936113cd565b60009182526020918290200154600b80546001600160a01b0319166001600160a01b0390921691821790556007805460ff60a01b1916600360a01b179055600c54600d546040805192835293820152808301859052915190917ff52fac7e26724c6e0808da8161af0a1263330646f3989bb031cc71fbaa7bf521919081900360600190a25050565b61062361119d565b6004600754600160a01b900460ff166005811115610643576106436111e9565b146106615760405163f60bb00b60e01b815260040160405180910390fd5b336000908152600a6020526040812054908190036106925760405163e49c14cb60e01b815260040160405180910390fd5b336000908152600a602052604081208190556004546106b190836113f9565b60405181815290915033907f3d97f39b86d061200a7834082f5926e58ec10fd85a9d6930f497729d5e6cc35c9060200160405180910390a2604051600090339083908381818185875af1925050503d806000811461072b576040519150601f19603f3d011682016040523d82523d6000602084013e610730565b606091505b5050905080610752576040516312171d8360e31b815260040160405180910390fd5b50505061075f6001600055565b565b6009818154811061077157600080fd5b6000918252602090912001546001600160a01b0316905081565b61079361119d565b6001600754600160a01b900460ff1660058111156107b3576107b36111e9565b146107d157604051632ae47f7360e01b815260040160405180910390fd5b60055442106107f35760405163502fd88d60e01b815260040160405180910390fd5b8060000361081457604051638e71bef960e01b815260040160405180910390fd5b60008160045461082491906113f9565b9050803410156108475760405163cd1c886760e01b815260040160405180910390fd5b6006541561087f57600654600954610860908490611410565b111561087f57604051630771de3360e01b815260040160405180910390fd5b60005b828110156108d35760098054600181810183556000929092527f6e1540171b6c0c960b71a7020d9f60077f6af931a8bbf590da0223dacf75c7af0180546001600160a01b0319163317905501610882565b50336000908152600a6020526040812080548492906108f3908490611410565b9091555050600954336000818152600a60209081526040918290205482518781529182019490945290810192909252907fe367e10777f2a25a834ba205395c23c7f7175d3d6d36137ee22c3f056d780c0a9060600160405180910390a2600061095c8234611423565b905080156109cf57604051600090339083908381818185875af1925050503d80600081146109a6576040519150601f19603f3d011682016040523d82523d6000602084013e6109ab565b606091505b50509050806109cd576040516312171d8360e31b815260040160405180910390fd5b505b50506109db6001600055565b50565b600180546109eb90611436565b80601f0160208091040260200160405190810160405280929190818152602001828054610a1790611436565b8015610a645780601f10610a3957610100808354040283529160200191610a64565b820191906000526020600020905b815481529060010190602001808311610a4757829003601f168201915b505050505081565b60606009805480602002602001604051908101604052809291908181526020018280548015610ac457602002820191906000526020600020905b81546001600160a01b03168152600190910190602001808311610aa6575b5050505050905090565b60006005544210158015610ae457506009546002115b6007549091506001600160a01b03163314801590610b00575080155b15610b1e576040516393687c0b60e01b815260040160405180910390fd5b6002600754600160a01b900460ff166005811115610b3e57610b3e6111e9565b03610b5c57604051634d4754b160e01b815260040160405180910390fd5b6003600754600160a01b900460ff166005811115610b7c57610b7c6111e9565b1480610ba557506004600754600160a01b900460ff166005811115610ba357610ba36111e9565b145b80610bcd57506005600754600160a01b900460ff166005811115610bcb57610bcb6111e9565b145b15610beb5760405163502fd88d60e01b815260040160405180910390fd5b6007805460ff60a01b1916600160a21b1790556040517f90e8484a98b653b6def19811c0e3811715da0de9c6b90d013442ba7e7541295190600090a150565b610c3261119d565b600b546001600160a01b03163314610c5d576040516330c6392160e11b815260040160405180910390fd5b6003600754600160a01b900460ff166005811115610c7d57610c7d6111e9565b14610c9b5760405163611ab18960e11b815260040160405180910390fd5b6007805460ff60a01b1916600560a01b179055600854479060009061271090610cc490846113f9565b610cce9190611470565b90506000610cdc8284611423565b600b546040518281529192506001600160a01b0316907f95681e512bc0fe659e195e06c283eada494316f3d801213e48e7101af92bf7709060200160405180910390a2600b546040516000916001600160a01b03169083908381818185875af1925050503d8060008114610d6c576040519150601f19603f3d011682016040523d82523d6000602084013e610d71565b606091505b5050905080610d93576040516312171d8360e31b815260040160405180910390fd5b8215610e51576007546040518481526001600160a01b03909116907ffced7da42f0f076c425d7fa774af80c6fb4c4337cd595e67a56de7ff5c90be2d9060200160405180910390a26007546040516000916001600160a01b03169085908381818185875af1925050503d8060008114610e28576040519150601f19603f3d011682016040523d82523d6000602084013e610e2d565b606091505b5050905080610e4f576040516312171d8360e31b815260040160405180910390fd5b505b5050505061075f6001600055565b600280546109eb90611436565b60608060008060008060008060008060016002600454600554600654600980549050600760149054906101000a900460ff16600760009054906101000a90046001600160a01b0316600b60009054906101000a90046001600160a01b0316600854898054610ed990611436565b80601f0160208091040260200160405190810160405280929190818152602001828054610f0590611436565b8015610f525780601f10610f2757610100808354040283529160200191610f52565b820191906000526020600020905b815481529060010190602001808311610f3557829003601f168201915b50505050509950888054610f6590611436565b80601f0160208091040260200160405190810160405280929190818152602001828054610f9190611436565b8015610fde5780601f10610fb357610100808354040283529160200191610fde565b820191906000526020600020905b815481529060010190602001808311610fc157829003601f168201915b50505050509850995099509950995099509950995099509950995090919293949596979899565b600060055442108015611025575060065415806110255750600654600954105b1561104357604051633376277360e11b815260040160405180910390fd5b600954600003611066576040516308b6a47360e41b815260040160405180910390fd5b6009546002111561108a576040516399f46cd560e01b815260040160405180910390fd5b600b546001600160a01b0316156110b457604051630770596760e11b815260040160405180910390fd5b600780546002919060ff60a01b1916600160a01b8302179055507f00000000000000000000000000000000000000000000000000000000000000006001600160a01b0316631b930e996040518163ffffffff1660e01b81526004016020604051808303816000875af115801561112e573d6000803e3d6000fd5b505050506040513d601f19601f820116820180604052508101906111529190611484565b600e8190556040518181529091507f9ac10fb18c93d33ad7b0a941897aef048d0f8d30756684e82b4552ba12764d459060200160405180910390a190565b600380546109eb90611436565b6002600054036111c057604051633ee5aeb560e01b815260040160405180910390fd5b6002600055565b600080604083850312156111da57600080fd5b50508035926020909101359150565b634e487b7160e01b600052602160045260246000fd5b6006811061121d57634e487b7160e01b600052602160045260246000fd5b9052565b6020810161122f82846111ff565b92915050565b60006020828403121561124757600080fd5b5035919050565b6000815180845260005b8181101561127457602081850181015186830182015201611258565b506000602082860101526020601f19601f83011685010191505092915050565b6020815260006112a7602083018461124e565b9392505050565b6020808252825182820181905260009190848201906040850190845b818110156112ef5783516001600160a01b0316835292840192918401916001016112ca565b50909695505050505050565b60006020828403121561130d57600080fd5b81356001600160a01b03811681146112a757600080fd5b60006101408083526113388184018e61124e565b9050828103602084015261134c818d61124e565b9150508960408301528860608301528760808301528660a083015261137460c08301876111ff565b6001600160a01b0394851660e08301529290931661010084015261012090920191909152979650505050505050565b634e487b7160e01b600052601260045260246000fd5b6000826113c8576113c86113a3565b500690565b634e487b7160e01b600052603260045260246000fd5b634e487b7160e01b600052601160045260246000fd5b808202811582820484141761122f5761122f6113e3565b8082018082111561122f5761122f6113e3565b8181038181111561122f5761122f6113e3565b600181811c9082168061144a57607f821691505b60208210810361146a57634e487b7160e01b600052602260045260246000fd5b50919050565b60008261147f5761147f6113a3565b500490565b60006020828403121561149657600080fd5b505191905056fea26469706673582212202fb871faf86db4563e9a7b92ec168fd1c280978bcf52315e9f0d3b886aa8479d64736f6c63430008180033a264697066735822122039737e0e5bba155409569a2f06e9e8d5ee9900b4008b957f8c85699d5aed800b64736f6c63430008180033",
  "linkReferences": {},
  "deployedLinkReferences": {}
}