{
  "_format": "hh-sol-artifact-1",
  "contractName": "RaffleFactory",
  "sourceName": "contracts/RaffleFactory.sol",
  "abi": [
    {
      "inputs": [
        {
          "internalType": "address",
          "name": "_vrfCoordinator",
          "type": "address"
        },
        {
          "internalType": "bytes32",
          "name": "_keyHash",
          "type": "bytes32"
        },
        {
          "internalType": "uint256",
          "name": "_subscriptionId",
          "type": "uint256"
        }
      ],
      "stateMutability": "nonpayable",
      "type": "constructor"
    },
    {
      "inputs": [],
      "name": "EnforcedPause",
      "type": "error"
    },
    {
      "inputs": [],
      "name": "ExpectedPause",
      "type": "error"
    },
    {
      "inputs": [],
      "name": "InsufficientCreationFee",
      "type": "error"
    },
    {
      "inputs": [],
      "name": "InvalidRequestId",
      "type": "error"
    },
    {
      "inputs": [],
      "name": "NotPlatformOwner",
      "type": "error"
    },
    {
      "inputs": [
        {
          "internalType": "address",
          "name": "have",
          "type": "address"
        },
        {
          "internalType": "address",
          "name": "want",
          "type": "address"
        }
      ],
      "name": "OnlyCoordinatorCanFulfill",
      "type": "error"
    },
    {
      "inputs": [
        {
          "internalType": "address",
          "name": "have",
          "type": "address"
        },
        {
          "internalType": "address",
          "name": "owner",
          "type": "address"
        },
        {
          "internalType": "address",
          "name": "coordinator",
          "type": "address"
        }
      ],
      "name": "OnlyOwnerOrCoordinator",
      "type": "error"
    },
    {
      "inputs": [],
      "name": "OnlyRaffleContract",
      "type": "error"
    },
    {
      "inputs": [],
      "name": "TransferFailed",
      "type": "error"
    },
    {
      "inputs": [],
      "name": "WithdrawFailed",
      "type": "error"
    },
    {
      "inputs": [],
      "name": "ZeroAddress",
      "type": "error"
    },
    {
      "anonymous": false,
      "inputs": [
        {
          "indexed": false,
          "internalType": "address",
          "name": "vrfCoordinator",
          "type": "address"
        }
      ],
      "name": "CoordinatorSet",
      "type": "event"
    },
    {
      "anonymous": false,
      "inputs": [
        {
          "indexed": true,
          "internalType": "address",
          "name": "owner",
          "type": "address"
        },
        {
          "indexed": false,
          "internalType": "uint256",
          "name": "amount",
          "type": "uint256"
        }
      ],
      "name": "FeesWithdrawn",
      "type": "event"
    },
    {
      "anonymous": false,
      "inputs": [
        {
          "indexed": true,
          "internalType": "address",
          "name": "from",
          "type": "address"
        },
        {
          "indexed": true,
          "internalType": "address",
          "name": "to",
          "type": "address"
        }
      ],
      "name": "OwnershipTransferRequested",
      "type": "event"
    },
    {
      "anonymous": false,
      "inputs": [
        {
          "indexed": true,
          "internalType": "address",
          "name": "from",
          "type": "address"
        },
        {
          "indexed": true,
          "internalType": "address",
          "name": "to",
          "type": "address"
        }
      ],
      "name": "OwnershipTransferred",
      "type": "event"
    },
    {
      "anonymous": false,
      "inputs": [
        {
          "indexed": false,
          "internalType": "address",
          "name": "account",
          "type": "address"
        }
      ],
      "name": "Paused",
      "type": "event"
    },
    {
      "anonymous": false,
      "inputs": [
        {
          "indexed": true,
          "internalType": "address",
          "name": "raffleAddress",
          "type": "address"
        },
        {
          "indexed": true,
          "internalType": "address",
          "name": "creator",
          "type": "address"
        },
        {
          "indexed": false,
          "internalType": "string",
          "name": "title",
          "type": "string"
        },
        {
          "indexed": false,
          "internalType": "uint256",
          "name": "entryFee",
          "type": "uint256"
        },
        {
          "indexed": false,
          "internalType": "uint256",
          "name": "deadline",
          "type": "uint256"
        },
        {
          "indexed": false,
          "internalType": "uint256",
          "name": "maxParticipants",
          "type": "uint256"
        }
      ],
      "name": "RaffleCreated",
      "type": "event"
    },
    {
      "anonymous": false,
      "inputs": [
        {
          "indexed": true,
          "internalType": "address",
          "name": "raffle",
          "type": "address"
        },
        {
          "indexed": true,
          "internalType": "uint256",
          "name": "requestId",
          "type": "uint256"
        },
        {
          "indexed": false,
          "internalType": "uint256",
          "name": "randomWord",
          "type": "uint256"
        }
      ],
      "name": "RandomnessFulfilled",
      "type": "event"
    },
    {
      "anonymous": false,
      "inputs": [
        {
          "indexed": true,
          "internalType": "address",
          "name": "raffle",
          "type": "address"
        },
        {
          "indexed": true,
          "internalType": "uint256",
          "name": "requestId",
          "type": "uint256"
        }
      ],
      "name": "RandomnessRequested",
      "type": "event"
    },
    {
      "anonymous": false,
      "inputs": [
        {
          "indexed": false,
          "internalType": "address",
          "name": "account",
          "type": "address"
        }
      ],
      "name": "Unpaused",
      "type": "event"
    },
    {
      "inputs": [],
      "name": "CREATION_FEE_BPS",
      "outputs": [
        {
          "internalType": "uint256",
          "name": "",
          "type": "uint256"
        }
      ],
      "stateMutability": "view",
      "type": "function"
    },
    {
      "inputs": [],
      "name": "MAX_FEE",
      "outputs": [
        {
          "internalType": "uint256",
          "name": "",
          "type": "uint256"
        }
      ],
      "stateMutability": "view",
      "type": "function"
    },
    {
      "inputs": [],
      "name": "MIN_FEE",
      "outputs": [
        {
          "internalType": "uint256",
          "name": "",
          "type": "uint256"
        }
      ],
      "stateMutability": "view",
      "type": "function"
    },
    {
      "inputs": [],
      "name": "acceptOwnership",
      "outputs": [],
      "stateMutability": "nonpayable",
      "type": "function"
    },
    {
      "inputs": [
        {
          "internalType": "uint256",
          "name": "",
          "type": "uint256"
        }
      ],
      "name": "allRaffles",
      "outputs": [
        {
          "internalType": "address",
          "name": "",
          "type": "address"
        }
      ],
      "stateMutability": "view",
      "type": "function"
    },
    {
      "inputs": [
        {
          "internalType": "uint256",
          "name": "_entryFee",
          "type": "uint256"
        },
        {
          "internalType": "uint256",
          "name": "_maxParticipants",
          "type": "uint256"
        }
      ],
      "name": "calculateCreationFee",
      "outputs": [
        {
          "internalType": "uint256",
          "name": "fee",
          "type": "uint256"
        }
      ],
      "stateMutability": "pure",
      "type": "function"
    },
    {
      "inputs": [
        {
          "internalType": "string",
          "name": "_title",
          "type": "string"
        },
        {
          "internalType": "string",
          "name": "_description",
          "type": "string"
        },
        {
          "internalType": "string",
          "name": "_prizeDescription",
          "type": "string"
        },
        {
          "internalType": "uint256",
          "name": "_entryFee",
          "type": "uint256"
        },
        {
          "internalType": "uint256",
          "name": "_deadline",
          "type": "uint256"
        },
        {
          "internalType": "uint256",
          "name": "_maxParticipants",
          "type": "uint256"
        }
      ],
      "name": "createRaffle",
      "outputs": [
        {
          "internalType": "address",
          "name": "raffleAddress",
          "type": "address"
        }
      ],
      "stateMutability": "payable",
      "type": "function"
    },
    {
      "inputs": [],
      "name": "getAccumulatedFees",
      "outputs": [
        {
          "internalType": "uint256",
          "name": "",
          "type": "uint256"
        }
      ],
      "stateMutability": "view",
      "type": "function"
    },
    {
      "inputs": [],
      "name": "getAllRaffles",
      "outputs": [
        {
          "internalType": "address[]",
          "name": "",
          "type": "address[]"
        }
      ],
      "stateMutability": "view",
      "type": "function"
    },
    {
      "inputs": [
        {
          "internalType": "address",
          "name": "_creator",
          "type": "address"
        }
      ],
      "name": "getCreatorRaffleCount",
      "outputs": [
        {
          "internalType": "uint256",
          "name": "",
          "type": "uint256"
        }
      ],
      "stateMutability": "view",
      "type": "function"
    },
    {
      "inputs": [],
      "name": "getRaffleCount",
      "outputs": [
        {
          "internalType": "uint256",
          "name": "",
          "type": "uint256"
        }
      ],
      "stateMutability": "view",
      "type": "function"
    },
    {
      "inputs": [
        {
          "internalType": "address",
          "name": "_creator",
          "type": "address"
        }
      ],
      "name": "getRafflesByCreator",
      "outputs": [
        {
          "internalType": "address[]",
          "name": "",
          "type": "address[]"
        }
      ],
      "stateMutability": "view",
      "type": "function"
    },
    {
      "inputs": [
        {
          "internalType": "address",
          "name": "",
          "type": "address"
        }
      ],
      "name": "isRaffle",
      "outputs": [
        {
          "internalType": "bool",
          "name": "",
          "type": "bool"
        }
      ],
      "stateMutability": "view",
      "type": "function"
    },
    {
      "inputs": [],
      "name": "keyHash",
      "outputs": [
        {
          "internalType": "bytes32",
          "name": "",
          "type": "bytes32"
        }
      ],
      "stateMutability": "view",
      "type": "function"
    },
    {
      "inputs": [],
      "name": "owner",
      "outputs": [
        {
          "internalType": "address",
          "name": "",
          "type": "address"
        }
      ],
      "stateMutability": "view",
      "type": "function"
    },
    {
      "inputs": [],
      "name": "pause",
      "outputs": [],
      "stateMutability": "nonpayable",
      "type": "function"
    },
    {
      "inputs": [],
      "name": "paused",
      "outputs": [
        {
          "internalType": "bool",
          "name": "",
          "type": "bool"
        }
      ],
      "stateMutability": "view",
      "type": "function"
    },
    {
      "inputs": [],
      "name": "platformOwner",
      "outputs": [
        {
          "internalType": "address",
          "name": "",
          "type": "address"
        }
      ],
      "stateMutability": "view",
      "type": "function"
    },
    {
      "inputs": [
        {
          "internalType": "address",
          "name": "",
          "type": "address"
        },
        {
          "internalType": "uint256",
          "name": "",
          "type": "uint256"
        }
      ],
      "name": "rafflesByCreator",
      "outputs": [
        {
          "internalType": "address",
          "name": "",
          "type": "address"
        }
      ],
      "stateMutability": "view",
      "type": "function"
    },
    {
      "inputs": [
        {
          "internalType": "uint256",
          "name": "requestId",
          "type": "uint256"
        },
        {
          "internalType": "uint256[]",
          "name": "randomWords",
          "type": "uint256[]"
        }
      ],
      "name": "rawFulfillRandomWords",
      "outputs": [],
      "stateMutability": "nonpayable",
      "type": "function"
    },
    {
      "inputs": [
        {
          "internalType": "uint256",
          "name": "",
          "type": "uint256"
        }
      ],
      "name": "requestIdToRaffle",
      "outputs": [
        {
          "internalType": "address",
          "name": "",
          "type": "address"
        }
      ],
      "stateMutability": "view",
      "type": "function"
    },
    {
      "inputs": [],
      "name": "requestRandomnessForRaffle",
      "outputs": [
        {
          "internalType": "uint256",
          "name": "requestId",
          "type": "uint256"
        }
      ],
      "stateMutability": "nonpayable",
      "type": "function"
    },
    {
      "inputs": [],
      "name": "s_vrfCoordinator",
      "outputs": [
        {
          "internalType": "contract IVRFCoordinatorV2Plus",
          "name": "",
          "type": "address"
        }
      ],
      "stateMutability": "view",
      "type": "function"
    },
    {
      "inputs": [
        {
          "internalType": "address",
          "name": "_vrfCoordinator",
          "type": "address"
        }
      ],
      "name": "setCoordinator",
      "outputs": [],
      "stateMutability": "nonpayable",
      "type": "function"
    },
    {
      "inputs": [],
      "name": "subscriptionId",
      "outputs": [
        {
          "internalType": "uint256",
          "name": "",
          "type": "uint256"
        }
      ],
      "stateMutability": "view",
      "type": "function"
    },
    {
      "inputs": [
        {
          "internalType": "address",
          "name": "to",
          "type": "address"
        }
      ],
      "name": "transferOwnership",
      "outputs": [],
      "stateMutability": "nonpayable",
      "type": "function"
    },
    {
      "inputs": [],
      "name": "unpause",
      "outputs": [],
      "stateMutability": "nonpayable",
      "type": "function"
    },
    {
      "inputs": [],
      "name": "withdrawFees",
      "outputs": [],
      "stateMutability": "nonpayable",
      "type": "function"
    }
  ],
  "bytecode": "0x60e06040523480156200001157600080fd5b50604051620031f6380380620031f68339810160408190526200003491620001c9565b8233806000816200008c5760405162461bcd60e51b815260206004820152601860248201527f43616e6e6f7420736574206f776e657220746f207a65726f000000000000000060448201526064015b60405180910390fd5b600080546001600160a01b0319166001600160a01b0384811691909117909155811615620000bf57620000bf816200011e565b5050506001600160a01b038116620000ea5760405163d92e233d60e01b815260040160405180910390fd5b600280546001600160a01b0319166001600160a01b039290921691909117905560809190915260a052503360c0526200020e565b336001600160a01b03821603620001785760405162461bcd60e51b815260206004820152601760248201527f43616e6e6f74207472616e7366657220746f2073656c66000000000000000000604482015260640162000083565b600180546001600160a01b0319166001600160a01b0383811691821790925560008054604051929316917fed8889f560326eb138920d842192f0eb3dd22b4f139c87a2c57538e05bae12789190a350565b600080600060608486031215620001df57600080fd5b83516001600160a01b0381168114620001f757600080fd5b602085015160409095015190969495509392505050565b60805160a05160c051612f876200026f6000396000818161032601528181610866015281816108bc0152818161090d015281816109940152610cd40152600081816101f401526106600152600081816103b5015261063d0152612f876000f3fe608060405260043610620001db5760003560e01c806376c7a3c711620000ff5780639eb067181162000095578063a6a278d3116200006c578063a6a278d31462000547578063b26f9a6a1462000581578063bc063e1a14620005bb578063f2fde38b14620005d857600080fd5b80639eb0671814620004db5780639eccacf61462000500578063a043347d146200052257600080fd5b80638da5cb5b11620000d65780638da5cb5b146200043b5780638ea98117146200045b578063933eea6b14620004805780639b00e10a14620004a757600080fd5b806376c7a3c714620003ee57806379ba5097146200040b5780638456cb59146200042357600080fd5b80634939189811620001755780635c975abb116200014c5780635c975abb146200035f5780635df45a37146200038c57806361728f3914620003a1578063713c9ea914620003d757600080fd5b80634939189814620002d45780634df8ccb114620003125780635195838c146200034857600080fd5b80631fe543e311620001b65780631fe543e3146200025857806338bc1305146200027f5780633f4ba83a14620002a4578063476343ee14620002bc57600080fd5b806309c1ba2e14620001e05780631b930e9914620002295780631d8c60861462000241575b600080fd5b348015620001ed57600080fd5b50620002167f000000000000000000000000000000000000000000000000000000000000000081565b6040519081526020015b60405180910390f35b3480156200023657600080fd5b5062000216620005fd565b3480156200024e57600080fd5b5060035462000216565b3480156200026557600080fd5b506200027d62000277366004620012b2565b62000784565b005b3480156200028c57600080fd5b50620002166200029e36600462001336565b620007dc565b348015620002b157600080fd5b506200027d6200085b565b348015620002c957600080fd5b506200027d620008b1565b348015620002e157600080fd5b50620002f9620002f336600462001376565b620009fa565b6040516001600160a01b03909116815260200162000220565b3480156200031f57600080fd5b50620002f97f000000000000000000000000000000000000000000000000000000000000000081565b3480156200035557600080fd5b5062000216606481565b3480156200036c57600080fd5b50600254600160a01b900460ff165b604051901515815260200162000220565b3480156200039957600080fd5b504762000216565b348015620003ae57600080fd5b50620002167f000000000000000000000000000000000000000000000000000000000000000081565b620002f9620003e83660046200144e565b62000a33565b348015620003fb57600080fd5b506200021666016bcc41e9000081565b3480156200041857600080fd5b506200027d62000c1d565b3480156200043057600080fd5b506200027d62000cc9565b3480156200044857600080fd5b506000546001600160a01b0316620002f9565b3480156200046857600080fd5b506200027d6200047a366004620014fc565b62000d1d565b3480156200048d57600080fd5b506200049862000e14565b60405162000220919062001521565b348015620004b457600080fd5b506200037b620004c6366004620014fc565b60056020526000908152604090205460ff1681565b348015620004e857600080fd5b50620002f9620004fa36600462001570565b62000e78565b3480156200050d57600080fd5b50600254620002f9906001600160a01b031681565b3480156200052f57600080fd5b506200049862000541366004620014fc565b62000ea3565b3480156200055457600080fd5b506200021662000566366004620014fc565b6001600160a01b031660009081526004602052604090205490565b3480156200058e57600080fd5b50620002f9620005a036600462001570565b6006602052600090815260409020546001600160a01b031681565b348015620005c857600080fd5b506200021666b1a2bc2ec5000081565b348015620005e557600080fd5b506200027d620005f7366004620014fc565b62000f1b565b3360009081526005602052604081205460ff166200062e57604051634ac9cc8360e01b815260040160405180910390fd5b6002546040805160c0810182527f000000000000000000000000000000000000000000000000000000000000000081527f0000000000000000000000000000000000000000000000000000000000000000602080830191909152600382840152620493e06060830152600160808301528251908101909252600082526001600160a01b0390921691639b1c385e9160a0820190620006cc9062000f33565b8152506040518263ffffffff1660e01b8152600401620006ed9190620015d2565b6020604051808303816000875af11580156200070d573d6000803e3d6000fd5b505050506040513d601f19601f8201168201806040525081019062000733919062001639565b60008181526006602052604080822080546001600160a01b031916339081179091559051929350839290917fc0412d082261082b733ae39d66dd3b4c4d14c47283f37f52dc3a3bb8a70efabe91a390565b6002546001600160a01b03163314620007ca5760025460405163073e64fd60e21b81523360048201526001600160a01b0390911660248201526044015b60405180910390fd5b620007d783838362000fa5565b505050565b600081600003620007f6575066b1a2bc2ec5000062000855565b612710606462000807848662001669565b62000813919062001669565b6200081f919062001683565b905066016bcc41e900008110156200083b575066016bcc41e900005b66b1a2bc2ec5000081111562000855575066b1a2bc2ec500005b92915050565b336001600160a01b037f00000000000000000000000000000000000000000000000000000000000000001614620008a557604051631c30e10760e11b815260040160405180910390fd5b620008af620010b0565b565b336001600160a01b037f00000000000000000000000000000000000000000000000000000000000000001614620008fb57604051631c30e10760e11b815260040160405180910390fd5b60405147906000906001600160a01b037f0000000000000000000000000000000000000000000000000000000000000000169083908381818185875af1925050503d80600081146200096a576040519150601f19603f3d011682016040523d82523d6000602084013e6200096f565b606091505b50509050806200099257604051631d42c86760e21b815260040160405180910390fd5b7f00000000000000000000000000000000000000000000000000000000000000006001600160a01b03167fc0819c13be868895eb93e40eaceb96de976442fa1d404e5c55f14bb65a8c489a83604051620009ee91815260200190565b60405180910390a25050565b6004602052816000526040600020818154811062000a1757600080fd5b6000918252602090912001546001600160a01b03169150829050565b600062000a3f62001107565b600062000a4d8584620007dc565b90508034101562000a7157604051630535b74760e41b815260040160405180910390fd5b6000888888888888333060405162000a8990620012a4565b62000a9c989796959493929190620016a6565b604051809103906000f08015801562000ab9573d6000803e3d6000fd5b506003805460018181019092557fc2575a0e9e593c00f959f8c92f12db2869c3395a3b0502d05e2516446f71f85b0180546001600160a01b0384166001600160a01b0319918216811790925533600081815260046020908152604080832080548089018255908452828420018054909516861790945584825260059052829020805460ff19169094179093555192955085935090917f91571601f3ebc295a5a4506ad067c4424cb1dab2f5a76b5359d4c3ae4328440e9062000b83908d908b908b908b9062001720565b60405180910390a3600062000b99833462001751565b9050801562000c1057604051600090339083908381818185875af1925050503d806000811462000be6576040519150601f19603f3d011682016040523d82523d6000602084013e62000beb565b606091505b505090508062000c0e576040516312171d8360e31b815260040160405180910390fd5b505b5050509695505050505050565b6001546001600160a01b0316331462000c725760405162461bcd60e51b815260206004820152601660248201527526bab9ba10313290383937b837b9b2b21037bbb732b960511b6044820152606401620007c1565b60008054336001600160a01b0319808316821784556001805490911690556040516001600160a01b0390921692909183917f8be0079c531659141344cd1fd0a4f28419497f9722a3daafe3b4186f6b6457e091a350565b336001600160a01b037f0000000000000000000000000000000000000000000000000000000000000000161462000d1357604051631c30e10760e11b815260040160405180910390fd5b620008af62001133565b6000546001600160a01b0316331480159062000d4457506002546001600160a01b03163314155b1562000d98573362000d5e6000546001600160a01b031690565b60025460405163061db9c160e01b81526001600160a01b0393841660048201529183166024830152919091166044820152606401620007c1565b6001600160a01b03811662000dc05760405163d92e233d60e01b815260040160405180910390fd5b600280546001600160a01b0319166001600160a01b0383169081179091556040519081527fd1a6a14209a385a964d036e404cb5cfb71f4000cdb03c9366292430787261be69060200160405180910390a150565b6060600380548060200260200160405190810160405280929190818152602001828054801562000e6e57602002820191906000526020600020905b81546001600160a01b0316815260019091019060200180831162000e4f575b5050505050905090565b6003818154811062000e8957600080fd5b6000918252602090912001546001600160a01b0316905081565b6001600160a01b03811660009081526004602090815260409182902080548351818402810184019094528084526060939283018282801562000f0f57602002820191906000526020600020905b81546001600160a01b0316815260019091019060200180831162000ef0575b50505050509050919050565b62000f2562001179565b62000f3081620011ce565b50565b60607f92fd13387c7fe7befbc38d303d6468778fb9731bc4583f17d92989c6fcfdeaaa8260405160240162000f6d91511515815260200190565b60408051601f198184030181529190526020810180516001600160e01b03166001600160e01b03199093169290921790915292915050565b6000838152600660205260409020546001600160a01b03168062000fdc576040516302e8145360e61b815260040160405180910390fd5b60008383600081811062000ff45762000ff462001767565b60405163034ad12960e11b81526004810189905260209091029290920135602483018190529250506001600160a01b03831690630695a25290604401600060405180830381600087803b1580156200104b57600080fd5b505af115801562001060573d6000803e3d6000fd5b5050505084826001600160a01b03167f3f5afb14643da8820864941a73a1425f52f86fa88863febd0998122629fdb27583604051620010a191815260200190565b60405180910390a35050505050565b620010ba62001279565b6002805460ff60a01b191690557f5db9ee0a495bf2e6ff9c91a7834c1ba4fdd244a5e8aa4e537bd38aeae4b073aa335b6040516001600160a01b03909116815260200160405180910390a1565b600254600160a01b900460ff1615620008af5760405163d93c066560e01b815260040160405180910390fd5b6200113d62001107565b6002805460ff60a01b1916600160a01b1790557f62e78cea01bee320cd4e420270b5ea74000d11b0c9f74754ebdbfc544b05a258620010ea3390565b6000546001600160a01b03163314620008af5760405162461bcd60e51b815260206004820152601660248201527527b7363c9031b0b63630b1363290313c9037bbb732b960511b6044820152606401620007c1565b336001600160a01b03821603620012285760405162461bcd60e51b815260206004820152601760248201527f43616e6e6f74207472616e7366657220746f2073656c660000000000000000006044820152606401620007c1565b600180546001600160a01b0319166001600160a01b0383811691821790925560008054604051929316917fed8889f560326eb138920d842192f0eb3dd22b4f139c87a2c57538e05bae12789190a350565b600254600160a01b900460ff16620008af57604051638dfc202b60e01b815260040160405180910390fd5b6117d4806200177e83390190565b600080600060408486031215620012c857600080fd5b83359250602084013567ffffffffffffffff80821115620012e857600080fd5b818601915086601f830112620012fd57600080fd5b8135818111156200130d57600080fd5b8760208260051b85010111156200132357600080fd5b6020830194508093505050509250925092565b600080604083850312156200134a57600080fd5b50508035926020909101359150565b80356001600160a01b03811681146200137157600080fd5b919050565b600080604083850312156200138a57600080fd5b620013958362001359565b946020939093013593505050565b634e487b7160e01b600052604160045260246000fd5b600082601f830112620013cb57600080fd5b813567ffffffffffffffff80821115620013e957620013e9620013a3565b604051601f8301601f19908116603f01168101908282118183101715620014145762001414620013a3565b816040528381528660208588010111156200142e57600080fd5b836020870160208301376000602085830101528094505050505092915050565b60008060008060008060c087890312156200146857600080fd5b863567ffffffffffffffff808211156200148157600080fd5b6200148f8a838b01620013b9565b97506020890135915080821115620014a657600080fd5b620014b48a838b01620013b9565b96506040890135915080821115620014cb57600080fd5b50620014da89828a01620013b9565b945050606087013592506080870135915060a087013590509295509295509295565b6000602082840312156200150f57600080fd5b6200151a8262001359565b9392505050565b6020808252825182820181905260009190848201906040850190845b81811015620015645783516001600160a01b0316835292840192918401916001016200153d565b50909695505050505050565b6000602082840312156200158357600080fd5b5035919050565b6000815180845260005b81811015620015b25760208185018101518683018201520162001594565b506000602082860101526020601f19601f83011685010191505092915050565b60208152815160208201526020820151604082015261ffff60408301511660608201526000606083015163ffffffff80821660808501528060808601511660a0850152505060a083015160c0808401526200163160e08401826200158a565b949350505050565b6000602082840312156200164c57600080fd5b5051919050565b634e487b7160e01b600052601160045260246000fd5b808202811582820484141762000855576200085562001653565b600082620016a157634e487b7160e01b600052601260045260246000fd5b500490565b6000610100808352620016bc8184018c6200158a565b90508281036020840152620016d2818b6200158a565b90508281036040840152620016e8818a6200158a565b60608401989098525050608081019490945260a08401929092526001600160a01b0390811660c08401521660e0909101529392505050565b6080815260006200173560808301876200158a565b6020830195909552506040810192909252606090910152919050565b8181038181111562000855576200085562001653565b634e487b7160e01b600052603260045260246000fdfe60a06040523480156200001157600080fd5b50604051620017d4380380620017d4833981016040819052620000349162000299565b60016000554284116200005a57604051630642ce7760e01b815260040160405180910390fd5b6200006a426301e133806200036d565b8411156200008b576040516324787d7360e11b815260040160405180910390fd5b84600003620000ad576040516315801e6b60e21b815260040160405180910390fd5b68056bc75e2d63100000851115620000d857604051631a3dc29960e21b815260040160405180910390fd5b82600103620000fa57604051630def91b560e41b815260040160405180910390fd5b6127108311156200011e57604051630c2e7b5760e41b815260040160405180910390fd5b6001600160a01b0381166200014657604051635c7bfbe960e01b815260040160405180910390fd5b600162000154898262000426565b50600262000163888262000426565b50600362000172878262000426565b5060049490945560059290925560065560078054600160a01b6001600160a81b03199091166001600160a01b03938416171790551660805250620004f2915050565b634e487b7160e01b600052604160045260246000fd5b600082601f830112620001dc57600080fd5b81516001600160401b0380821115620001f957620001f9620001b4565b604051601f8301601f19908116603f01168101908282118183101715620002245762000224620001b4565b81604052838152602092508660208588010111156200024257600080fd5b600091505b8382101562000266578582018301518183018401529082019062000247565b6000602085830101528094505050505092915050565b80516001600160a01b03811681146200029457600080fd5b919050565b600080600080600080600080610100898b031215620002b757600080fd5b88516001600160401b0380821115620002cf57600080fd5b620002dd8c838d01620001ca565b995060208b0151915080821115620002f457600080fd5b620003028c838d01620001ca565b985060408b01519150808211156200031957600080fd5b50620003288b828c01620001ca565b965050606089015194506080890151935060a089015192506200034e60c08a016200027c565b91506200035e60e08a016200027c565b90509295985092959890939650565b808201808211156200038f57634e487b7160e01b600052601160045260246000fd5b92915050565b600181811c90821680620003aa57607f821691505b602082108103620003cb57634e487b7160e01b600052602260045260246000fd5b50919050565b601f82111562000421576000816000526020600020601f850160051c81016020861015620003fc5750805b601f850160051c820191505b818110156200041d5782815560010162000408565b5050505b505050565b81516001600160401b03811115620004425762000442620001b4565b6200045a8162000453845462000395565b84620003d1565b602080601f831160018114620004925760008415620004795750858301515b600019600386901b1c1916600185901b1785556200041d565b600085815260208120601f198616915b82811015620004c357888601518255948401946001909101908401620004a2565b5085821015620004e25787850151600019600388901b60f8161c191681555b5050505050600190811b01905550565b6080516112b86200051c600039600081816104180152818161047a0152610ed701526112b86000f3fe6080604052600436106101665760003560e01c80635aa68ac0116100d15780638f00cbfa1161008a578063b2185bb111610064578063b2185bb1146103f1578063c45a015514610406578063dfbf53ae1461043a578063efeed2241461045a57600080fd5b80638f00cbfa1461037b578063936afab314610391578063963ef2a2146103bb57600080fd5b80635aa68ac0146102da57806370533250146102fc57806370740ac91461031157806370ca5bbe146103265780637284e41614610353578063884bf67c1461036857600080fd5b806324924bf71161012357806324924bf71461024357806329dcb0cf1461025957806335c1d3491461026f57806342619f661461028f5780634758eca9146102a55780634a79d50c146102b857600080fd5b806302d05d3f1461016b5780630695a252146101a857806306e8337f146101ca578063072ea61c146101e957806318a7ea5f146101ff578063200d2ed214610215575b600080fd5b34801561017757600080fd5b5060075461018b906001600160a01b031681565b6040516001600160a01b0390911681526020015b60405180910390f35b3480156101b457600080fd5b506101c86101c3366004610fce565b61046f565b005b3480156101d657600080fd5b506008545b60405190815260200161019f565b3480156101f557600080fd5b506101db60045481565b34801561020b57600080fd5b506101db600d5481565b34801561022157600080fd5b5060075461023690600160a01b900460ff1681565b60405161019f9190611028565b34801561024f57600080fd5b506101db60065481565b34801561026557600080fd5b506101db60055481565b34801561027b57600080fd5b5061018b61028a36600461103c565b6105b9565b34801561029b57600080fd5b506101db600c5481565b6101c86102b336600461103c565b6105e3565b3480156102c457600080fd5b506102cd610824565b60405161019f919061109b565b3480156102e657600080fd5b506102ef6108b2565b60405161019f91906110b5565b34801561030857600080fd5b506101c8610914565b34801561031d57600080fd5b506101c8610b49565b34801561033257600080fd5b506101db610341366004611102565b60096020526000908152604090205481565b34801561035f57600080fd5b506102cd610c91565b34801561037457600080fd5b50476101db565b34801561038757600080fd5b506101db600b5481565b34801561039d57600080fd5b506103a6610c9e565b60405161019f9998979695949392919061112b565b3480156103c757600080fd5b506101db6103d6366004611102565b6001600160a01b031660009081526009602052604090205490565b3480156103fd57600080fd5b506101db610e30565b34801561041257600080fd5b5061018b7f000000000000000000000000000000000000000000000000000000000000000081565b34801561044657600080fd5b50600a5461018b906001600160a01b031681565b34801561046657600080fd5b506102cd610f97565b336001600160a01b037f000000000000000000000000000000000000000000000000000000000000000016146104b857604051630636a15760e11b815260040160405180910390fd5b600d5482146104da576040516302e8145360e61b815260040160405180910390fd5b600a546001600160a01b0316156105045760405163636ed8dd60e11b815260040160405180910390fd5b600c81905560085461051690826111a4565b600b819055506008600b5481548110610531576105316111c6565b60009182526020918290200154600a80546001600160a01b0319166001600160a01b0390921691821790556007805460ff60a01b1916600360a01b179055600b54600c546040805192835293820152808301859052915190917ff52fac7e26724c6e0808da8161af0a1263330646f3989bb031cc71fbaa7bf521919081900360600190a25050565b600881815481106105c957600080fd5b6000918252602090912001546001600160a01b0316905081565b6001600754600160a01b900460ff16600481111561060357610603610ff0565b1461062157604051632ae47f7360e01b815260040160405180910390fd5b60055442106106435760405163502fd88d60e01b815260040160405180910390fd5b8060000361066457604051638e71bef960e01b815260040160405180910390fd5b60008160045461067491906111f2565b9050803410156106975760405163cd1c886760e01b815260040160405180910390fd5b600654156106cf576006546008546106b0908490611209565b11156106cf57604051630771de3360e01b815260040160405180910390fd5b60005b828110156107235760088054600181810183556000929092527ff3f7a9fe364faab93b216da50a3214154f22a0a2b415b23a84c8169e8b636ee30180546001600160a01b03191633179055016106d2565b503360009081526009602052604081208054849290610743908490611209565b9091555050600854336000818152600960209081526040918290205482518781529182019490945290810192909252907fe367e10777f2a25a834ba205395c23c7f7175d3d6d36137ee22c3f056d780c0a9060600160405180910390a260006107ac823461121c565b9050801561081f57604051600090339083908381818185875af1925050503d80600081146107f6576040519150601f19603f3d011682016040523d82523d6000602084013e6107fb565b606091505b505090508061081d576040516312171d8360e31b815260040160405180910390fd5b505b505050565b600180546108319061122f565b80601f016020809104026020016040519081016040528092919081815260200182805461085d9061122f565b80156108aa5780601f1061087f576101008083540402835291602001916108aa565b820191906000526020600020905b81548152906001019060200180831161088d57829003601f168201915b505050505081565b6060600880548060200260200160405190810160405280929190818152602001828054801561090a57602002820191906000526020600020905b81546001600160a01b031681526001909101906020018083116108ec575b5050505050905090565b61091c610fa4565b6007546001600160a01b03163314610947576040516393687c0b60e01b815260040160405180910390fd5b6003600754600160a01b900460ff16600481111561096757610967610ff0565b148061099057506004600754600160a01b900460ff16600481111561098e5761098e610ff0565b145b156109ae5760405163502fd88d60e01b815260040160405180910390fd5b6007805460ff60a01b1916600160a21b1790556040517f90e8484a98b653b6def19811c0e3811715da0de9c6b90d013442ba7e7541295190600090a1600454600880546040805160208084028201810190925282815260009390929091830182828015610a4457602002820191906000526020600020905b81546001600160a01b03168152600190910190602001808311610a26575b505050505090506000805b8251811015610b39576000838281518110610a6c57610a6c6111c6565b60200260200101519050826001600160a01b0316816001600160a01b031614610b30576001600160a01b03811660009081526009602052604081205490610ab387836111f2565b90506000836001600160a01b03168260405160006040518083038185875af1925050503d8060008114610b02576040519150601f19603f3d011682016040523d82523d6000602084013e610b07565b606091505b5050905080610b29576040516312171d8360e31b815260040160405180910390fd5b8395505050505b50600101610a4f565b50505050610b476001600055565b565b610b51610fa4565b600a546001600160a01b03163314610b7c576040516330c6392160e11b815260040160405180910390fd5b6003600754600160a01b900460ff166004811115610b9c57610b9c610ff0565b14610bba57604051630770596760e11b815260040160405180910390fd5b60078054600160a21b60ff60a01b19909116179055600a5460405147808252916001600160a01b0316907f95681e512bc0fe659e195e06c283eada494316f3d801213e48e7101af92bf7709060200160405180910390a2600a546040516000916001600160a01b03169083908381818185875af1925050503d8060008114610c5e576040519150601f19603f3d011682016040523d82523d6000602084013e610c63565b606091505b5050905080610c85576040516312171d8360e31b815260040160405180910390fd5b5050610b476001600055565b600280546108319061122f565b606080600080600080600080600060016002600454600554600654600880549050600760149054906101000a900460ff16600760009054906101000a90046001600160a01b0316600a60009054906101000a90046001600160a01b0316888054610d079061122f565b80601f0160208091040260200160405190810160405280929190818152602001828054610d339061122f565b8015610d805780601f10610d5557610100808354040283529160200191610d80565b820191906000526020600020905b815481529060010190602001808311610d6357829003601f168201915b50505050509850878054610d939061122f565b80601f0160208091040260200160405190810160405280929190818152602001828054610dbf9061122f565b8015610e0c5780601f10610de157610100808354040283529160200191610e0c565b820191906000526020600020905b815481529060010190602001808311610def57829003601f168201915b50505050509750985098509850985098509850985098509850909192939495969798565b600060055442108015610e5057506006541580610e505750600654600854105b15610e6e57604051633376277360e11b815260040160405180910390fd5b600854600003610e91576040516308b6a47360e41b815260040160405180910390fd5b600a546001600160a01b031615610ebb57604051630770596760e11b815260040160405180910390fd5b600780546002919060ff60a01b1916600160a01b8302179055507f00000000000000000000000000000000000000000000000000000000000000006001600160a01b0316631b930e996040518163ffffffff1660e01b81526004016020604051808303816000875af1158015610f35573d6000803e3d6000fd5b505050506040513d601f19601f82011682018060405250810190610f599190611269565b600d8190556040518181529091507f9ac10fb18c93d33ad7b0a941897aef048d0f8d30756684e82b4552ba12764d459060200160405180910390a190565b600380546108319061122f565b600260005403610fc757604051633ee5aeb560e01b815260040160405180910390fd5b6002600055565b60008060408385031215610fe157600080fd5b50508035926020909101359150565b634e487b7160e01b600052602160045260246000fd5b6005811061102457634e487b7160e01b600052602160045260246000fd5b9052565b602081016110368284611006565b92915050565b60006020828403121561104e57600080fd5b5035919050565b6000815180845260005b8181101561107b5760208185018101518683018201520161105f565b506000602082860101526020601f19601f83011685010191505092915050565b6020815260006110ae6020830184611055565b9392505050565b6020808252825182820181905260009190848201906040850190845b818110156110f65783516001600160a01b0316835292840192918401916001016110d1565b50909695505050505050565b60006020828403121561111457600080fd5b81356001600160a01b03811681146110ae57600080fd5b600061012080835261113f8184018d611055565b90508281036020840152611153818c611055565b9150508860408301528760608301528660808301528560a083015261117b60c0830186611006565b6001600160a01b0393841660e08301529190921661010090920191909152979650505050505050565b6000826111c157634e487b7160e01b600052601260045260246000fd5b500690565b634e487b7160e01b600052603260045260246000fd5b634e487b7160e01b600052601160045260246000fd5b8082028115828204841417611036576110366111dc565b80820180821115611036576110366111dc565b81810381811115611036576110366111dc565b600181811c9082168061124357607f821691505b60208210810361126357634e487b7160e01b600052602260045260246000fd5b50919050565b60006020828403121561127b57600080fd5b505191905056fea2646970667358221220039d1a615218c9fd2420fc8d0ab3476fb7f4bca5d7e35921922f447ccb5d9d7264736f6c63430008180033a2646970667358221220650474a09ebea06af087f0c5b0847ccbeccaf830453863d110319541849cc55d64736f6c63430008180033",
  "linkReferences": {},
  "deployedLinkReferences": {}
}