{
  "_format": "hh-sol-artifact-1",
  "contractName": "MockReceiver",
  "sourceName": "contracts/mocks/MockReceiver.sol",
  "abi": [
    {
      "inputs": [
        {
          "internalType": "address",
          "name": "usdc",
          "type": "address"
        },
        {
          "internalType": "address",
          "name": "spender",
          "type": "address"
        },
        {
          "internalType": "uint256",
          "name": "amount",
          "type": "uint256"
        }
      ],
      "name": "approveUSDC",
      "outputs": [],
      "stateMutability": "nonpayable",
      "type": "function"
    },
    {
      "inputs": [
        {
          "internalType": "address",
          "name": "raffleAddress",
          "type": "address"
        }
      ],
      "name": "claimPrize",
      "outputs": [],
      "stateMutability": "nonpayable",
      "type": "function"
    },
    {
      "inputs": [
        {
          "internalType": "address",
          "name": "usdc",
          "type": "address"
        }
      ],
      "name": "getUSDCBalance",
      "outputs": [
        {
          "internalType": "uint256",
          "name": "",
          "type": "uint256"
        }
      ],
      "stateMutability": "view",
      "type": "function"
    },
    {
      "inputs": [
        {
          "internalType": "address",
          "name": "factory",
          "type": "address"
        },
        {
          "internalType": "address",
          "name": "raffle",
          "type": "address"
        },
        {
          "internalType": "uint256",
          "name": "ticketCount",
          "type": "uint256"
        }
      ],
      "name": "joinRaffleViaFactory",
      "outputs": [],
      "stateMutability": "nonpayable",
      "type": "function"
    }
  ],
  "bytecode": "0x608060405234801561001057600080fd5b50610343806100206000396000f3fe608060405234801561001057600080fd5b506004361061004c5760003560e01c806351f7c4201461005157806368024717146100665780637323b5511461008b578063e5e9b6611461009e575b600080fd5b61006461005f366004610274565b6100b1565b005b6100796100743660046102b0565b610118565b60405190815260200160405180910390f35b610064610099366004610274565b610189565b6100646100ac3660046102b0565b610202565b6040516343a1ca7760e01b81526001600160a01b038381166004830152602482018390528416906343a1ca7790604401600060405180830381600087803b1580156100fb57600080fd5b505af115801561010f573d6000803e3d6000fd5b50505050505050565b6040516370a0823160e01b81523060048201526000906001600160a01b038316906370a0823190602401602060405180830381865afa15801561015f573d6000803e3d6000fd5b505050506040513d601f19601f8201168201806040525081019061018391906102d2565b92915050565b60405163095ea7b360e01b81526001600160a01b0383811660048301526024820183905284169063095ea7b3906044016020604051808303816000875af11580156101d8573d6000803e3d6000fd5b505050506040513d601f19601f820116820180604052508101906101fc91906102eb565b50505050565b806001600160a01b03166370740ac96040518163ffffffff1660e01b8152600401600060405180830381600087803b15801561023d57600080fd5b505af1158015610251573d6000803e3d6000fd5b5050505050565b80356001600160a01b038116811461026f57600080fd5b919050565b60008060006060848603121561028957600080fd5b61029284610258565b92506102a060208501610258565b9150604084013590509250925092565b6000602082840312156102c257600080fd5b6102cb82610258565b9392505050565b6000602082840312156102e457600080fd5b5051919050565b6000602082840312156102fd57600080fd5b815180151581146102cb57600080fdfea26469706673582212209a716644605dabbc226f517c121bb325f4253b0eff0990cd5972a236add5c4fb64736f6c63430008180033",
  "linkReferences": {},
  "deployedLinkReferences": {}
}