{
  "_format": "hh-sol-artifact-1",
  "contractName": "MockReceiver",
  "sourceName": "contracts/mocks/MockReceiver.sol",
  "abi": [
    {
      "inputs": [
        {
          "internalType": "address",
          "name": "raffleAddress",
          "type": "address"
        }
      ],
      "name": "claimPrize",
      "outputs": [],
      "stateMutability": "nonpayable",
      "type": "function"
    },
    {
      "inputs": [],
      "name": "getBalance",
      "outputs": [
        {
          "internalType": "uint256",
          "name": "",
          "type": "uint256"
        }
      ],
      "stateMutability": "view",
      "type": "function"
    },
    {
      "inputs": [
        {
          "internalType": "address",
          "name": "raffleAddress",
          "type": "address"
        },
        {
          "internalType": "uint256",
          "name": "ticketCount",
          "type": "uint256"
        },
        {
          "internalType": "uint256",
          "name": "value",
          "type": "uint256"
        }
      ],
      "name": "joinRaffle",
      "outputs": [],
      "stateMutability": "payable",
      "type": "function"
    },
    {
      "stateMutability": "payable",
      "type": "receive"
    }
  ],
  "bytecode": "0x608060405234801561001057600080fd5b506101f7806100206000396000f3fe6080604052600436106100385760003560e01c806312065fe014610044578063e3469eef14610064578063e5e9b6611461007957600080fd5b3661003f57005b600080fd5b34801561005057600080fd5b504760405190815260200160405180910390f35b61007761007236600461016c565b610099565b005b34801561008557600080fd5b5061007761009436600461019f565b6100fa565b604051634758eca960e01b8152600481018390526001600160a01b03841690634758eca99083906024016000604051808303818588803b1580156100dc57600080fd5b505af11580156100f0573d6000803e3d6000fd5b5050505050505050565b806001600160a01b03166370740ac96040518163ffffffff1660e01b8152600401600060405180830381600087803b15801561013557600080fd5b505af1158015610149573d6000803e3d6000fd5b5050505050565b80356001600160a01b038116811461016757600080fd5b919050565b60008060006060848603121561018157600080fd5b61018a84610150565b95602085013595506040909401359392505050565b6000602082840312156101b157600080fd5b6101ba82610150565b939250505056fea26469706673582212208e44da7ad89464a5cfc66ac64d541528e1613ce382a198ddc04e61aca1973a5a64736f6c63430008180033",
  "linkReferences": {},
  "deployedLinkReferences": {}
}