{
  "_format": "hh-sol-artifact-1",
  "contractName": "MockVRFCoordinatorV2Plus",
  "sourceName": "contracts/mocks/MockVRFCoordinatorV2Plus.sol",
  "abi": [
    {
      "anonymous": false,
      "inputs": [
        {
          "indexed": false,
          "internalType": "uint256",
          "name": "requestId",
          "type": "uint256"
        },
        {
          "indexed": false,
          "internalType": "address",
          "name": "consumer",
          "type": "address"
        }
      ],
      "name": "RandomWordsRequested",
      "type": "event"
    },
    {
      "inputs": [
        {
          "internalType": "uint256",
          "name": "requestId",
          "type": "uint256"
        },
        {
          "internalType": "address",
          "name": "consumer",
          "type": "address"
        }
      ],
      "name": "fulfillRandomWords",
      "outputs": [],
      "stateMutability": "nonpayable",
      "type": "function"
    },
    {
      "inputs": [],
      "name": "nextRequestId",
      "outputs": [
        {
          "internalType": "uint256",
          "name": "",
          "type": "uint256"
        }
      ],
      "stateMutability": "view",
      "type": "function"
    },
    {
      "inputs": [
        {
          "internalType": "uint256",
          "name": "",
          "type": "uint256"
        }
      ],
      "name": "requestIdToConsumer",
      "outputs": [
        {
          "internalType": "address",
          "name": "",
          "type": "address"
        }
      ],
      "stateMutability": "view",
      "type": "function"
    },
    {
      "inputs": [
        {
          "components": [
            {
              "internalType": "bytes32",
              "name": "keyHash",
              "type": "bytes32"
            },
            {
              "internalType": "uint256",
              "name": "subId",
              "type": "uint256"
            },
            {
              "internalType": "uint16",
              "name": "requestConfirmations",
              "type": "uint16"
            },
            {
              "internalType": "uint32",
              "name": "callbackGasLimit",
              "type": "uint32"
            },
            {
              "internalType": "uint32",
              "name": "numWords",
              "type": "uint32"
            },
            {
              "internalType": "bytes",
              "name": "extraArgs",
              "type": "bytes"
            }
          ],
          "internalType": "struct VRFV2PlusClient.RandomWordsRequest",
          "name": "req",
          "type": "tuple"
        }
      ],
      "name": "requestRandomWords",
      "outputs": [
        {
          "internalType": "uint256",
          "name": "requestId",
          "type": "uint256"
        }
      ],
      "stateMutability": "nonpayable",
      "type": "function"
    }
  ],
  "bytecode": "0x6080604052600160005534801561001557600080fd5b5061048b806100256000396000f3fe608060405234801561001057600080fd5b506004361061004c5760003560e01c80636a84a98514610051578063808974ff1461006d5780639b1c385e14610082578063b12beeb514610095575b600080fd5b61005a60005481565b6040519081526020015b60405180910390f35b61008061007b366004610302565b6100d6565b005b61005a61009036600461033e565b61028e565b6100be6100a3366004610380565b6001602052600090815260409020546001600160a01b031681565b6040516001600160a01b039091168152602001610064565b6000828152600160205260409020546001600160a01b0316806101345760405162461bcd60e51b8152602060048201526011602482015270125b9d985b1a59081c995c5d595cdd1259607a1b60448201526064015b60405180910390fd5b6040805160018082528183019092526000916020808301908036833701905050604080514260208201524491810191909152606081018690529091506080016040516020818303038152906040528051906020012060001c8160008151811061019f5761019f610399565b6020026020010181815250506000826001600160a01b031685836040516024016101ca9291906103af565b60408051601f198184030181529181526020820180516001600160e01b0316631fe543e360e01b179052516101ff91906103ff565b6000604051808303816000865af19150503d806000811461023c576040519150601f19603f3d011682016040523d82523d6000602084013e610241565b606091505b50509050806102875760405162461bcd60e51b8152602060048201526012602482015271119d5b199a5b1b1b595b9d0819985a5b195960721b604482015260640161012b565b5050505050565b600080549081908061029f8361042e565b909155505060008181526001602090815260409182902080546001600160a01b031916339081179091558251848152918201527f5afc92f47019f6f981dbe48fba0d8bc10298b161505d2ead5ad4b975bfde77f4910160405180910390a1919050565b6000806040838503121561031557600080fd5b8235915060208301356001600160a01b038116811461033357600080fd5b809150509250929050565b60006020828403121561035057600080fd5b813567ffffffffffffffff81111561036757600080fd5b820160c0818503121561037957600080fd5b9392505050565b60006020828403121561039257600080fd5b5035919050565b634e487b7160e01b600052603260045260246000fd5b60006040820184835260206040602085015281855180845260608601915060208701935060005b818110156103f2578451835293830193918301916001016103d6565b5090979650505050505050565b6000825160005b818110156104205760208186018101518583015201610406565b506000920191825250919050565b60006001820161044e57634e487b7160e01b600052601160045260246000fd5b506001019056fea2646970667358221220fd9568be99f5f7395f82e94495a46be7909105e2702ea16f3986189d3d4a914164736f6c63430008180033",
  "linkReferences": {},
  "deployedLinkReferences": {}
}